{
  "address": "0x8d17a9A0367EEB132D67cB4Bbf8150308d2A5360",
  "abi": [
    {
      "inputs": [
        {
          "internalType": "contract NftBond",
          "name": "nft_",
          "type": "address"
        },
        {
          "internalType": "address",
          "name": "router_",
          "type": "address"
        },
        {
          "internalType": "address",
          "name": "usdc_",
          "type": "address"
        },
        {
          "internalType": "address",
          "name": "weth_",
          "type": "address"
        }
      ],
      "stateMutability": "nonpayable",
      "type": "constructor"
    },
    {
      "inputs": [],
      "name": "Borrow_DepositNotEnded",
      "type": "error"
    },
    {
      "inputs": [],
      "name": "Deposit_Ended",
      "type": "error"
    },
    {
      "inputs": [],
      "name": "Deposit_ExceededTotalAmount",
      "type": "error"
    },
    {
      "inputs": [],
      "name": "Deposit_NotDivisibleByDecimals",
      "type": "error"
    },
    {
      "inputs": [],
      "name": "Deposit_NotStarted",
      "type": "error"
    },
    {
      "inputs": [],
      "name": "InitProject_InvalidTargetAmountInput",
      "type": "error"
    },
    {
      "inputs": [],
      "name": "InitProject_InvalidTimestampInput",
      "type": "error"
    },
    {
      "inputs": [],
      "name": "NotExistingProject",
      "type": "error"
    },
    {
      "inputs": [],
      "name": "Repay_AlreadyDepositted",
      "type": "error"
    },
    {
      "inputs": [],
      "name": "Repay_DepositNotEnded",
      "type": "error"
    },
    {
      "inputs": [],
      "name": "Repay_NotEnoughAmountInput",
      "type": "error"
    },
    {
      "inputs": [],
      "name": "Withdraw_NotRepayedProject",
      "type": "error"
    },
    {
      "anonymous": false,
      "inputs": [],
      "name": "Controller_NewProject",
      "type": "event"
    },
    {
      "anonymous": false,
      "inputs": [
        {
          "indexed": true,
          "internalType": "address",
          "name": "previousOwner",
          "type": "address"
        },
        {
          "indexed": true,
          "internalType": "address",
          "name": "newOwner",
          "type": "address"
        }
      ],
      "name": "OwnershipTransferred",
      "type": "event"
    },
    {
      "inputs": [],
      "name": "USDC",
      "outputs": [
        {
          "internalType": "address",
          "name": "",
          "type": "address"
        }
      ],
      "stateMutability": "view",
      "type": "function"
    },
    {
      "inputs": [],
      "name": "WETH9",
      "outputs": [
        {
          "internalType": "address",
          "name": "",
          "type": "address"
        }
      ],
      "stateMutability": "view",
      "type": "function"
    },
    {
      "inputs": [
        {
          "internalType": "uint256",
          "name": "projectId",
          "type": "uint256"
        }
      ],
      "name": "borrow",
      "outputs": [],
      "stateMutability": "nonpayable",
      "type": "function"
    },
    {
      "inputs": [],
      "name": "decimal",
      "outputs": [
        {
          "internalType": "uint256",
          "name": "",
          "type": "uint256"
        }
      ],
      "stateMutability": "view",
      "type": "function"
    },
    {
      "inputs": [
        {
          "internalType": "uint256",
          "name": "projectId",
          "type": "uint256"
        },
        {
          "internalType": "uint256",
          "name": "amount",
          "type": "uint256"
        }
      ],
      "name": "deposit",
      "outputs": [],
      "stateMutability": "payable",
      "type": "function"
    },
    {
      "inputs": [
        {
          "internalType": "uint256",
          "name": "targetAmount",
          "type": "uint256"
        },
        {
          "internalType": "uint256",
          "name": "depositStartTs",
          "type": "uint256"
        },
        {
          "internalType": "uint256",
          "name": "depositEndTs",
          "type": "uint256"
        },
        {
          "internalType": "uint256",
          "name": "unit",
          "type": "uint256"
        },
        {
          "internalType": "string",
          "name": "uri",
          "type": "string"
        }
      ],
      "name": "initProject",
      "outputs": [],
      "stateMutability": "nonpayable",
      "type": "function"
    },
    {
      "inputs": [],
      "name": "nft",
      "outputs": [
        {
          "internalType": "contract NftBond",
          "name": "",
          "type": "address"
        }
      ],
      "stateMutability": "view",
      "type": "function"
    },
    {
      "inputs": [],
      "name": "owner",
      "outputs": [
        {
          "internalType": "address",
          "name": "",
          "type": "address"
        }
      ],
      "stateMutability": "view",
      "type": "function"
    },
    {
      "inputs": [
        {
          "internalType": "uint256",
          "name": "",
          "type": "uint256"
        }
      ],
      "name": "projects",
      "outputs": [
        {
          "internalType": "uint256",
          "name": "totalAmount",
          "type": "uint256"
        },
        {
          "internalType": "uint256",
          "name": "currentAmount",
          "type": "uint256"
        },
        {
          "internalType": "uint256",
          "name": "depositStartTs",
          "type": "uint256"
        },
        {
          "internalType": "uint256",
          "name": "depositEndTs",
          "type": "uint256"
        },
        {
          "internalType": "uint256",
          "name": "finalAmount",
          "type": "uint256"
        },
        {
          "internalType": "bool",
          "name": "repayed",
          "type": "bool"
        }
      ],
      "stateMutability": "view",
      "type": "function"
    },
    {
      "inputs": [],
      "name": "renounceOwnership",
      "outputs": [],
      "stateMutability": "nonpayable",
      "type": "function"
    },
    {
      "inputs": [
        {
          "internalType": "uint256",
          "name": "projectId",
          "type": "uint256"
        },
        {
          "internalType": "uint256",
          "name": "amount",
          "type": "uint256"
        }
      ],
      "name": "repay",
      "outputs": [],
      "stateMutability": "nonpayable",
      "type": "function"
    },
    {
      "inputs": [],
      "name": "router",
      "outputs": [
        {
          "internalType": "address",
          "name": "",
          "type": "address"
        }
      ],
      "stateMutability": "view",
      "type": "function"
    },
    {
      "inputs": [
        {
          "internalType": "uint256",
          "name": "amountOut",
          "type": "uint256"
        }
      ],
      "name": "swapExactOutputSingle",
      "outputs": [],
      "stateMutability": "payable",
      "type": "function"
    },
    {
      "inputs": [],
      "name": "swapRouter",
      "outputs": [
        {
          "internalType": "address",
          "name": "",
          "type": "address"
        }
      ],
      "stateMutability": "view",
      "type": "function"
    },
    {
      "inputs": [
        {
          "internalType": "address",
          "name": "newOwner",
          "type": "address"
        }
      ],
      "name": "transferOwnership",
      "outputs": [],
      "stateMutability": "nonpayable",
      "type": "function"
    },
    {
      "inputs": [],
      "name": "usdc",
      "outputs": [
        {
          "internalType": "address",
          "name": "",
          "type": "address"
        }
      ],
      "stateMutability": "view",
      "type": "function"
    },
    {
      "inputs": [],
      "name": "weth",
      "outputs": [
        {
          "internalType": "address",
          "name": "",
          "type": "address"
        }
      ],
      "stateMutability": "view",
      "type": "function"
    },
    {
      "inputs": [
        {
          "internalType": "uint256",
          "name": "projectId",
          "type": "uint256"
        }
      ],
      "name": "withdraw",
      "outputs": [],
      "stateMutability": "nonpayable",
      "type": "function"
    },
    {
      "stateMutability": "payable",
      "type": "receive"
    }
  ],
  "transactionHash": "0x1aa83c198ab307b2902884d4a8ad77ca995e13d30a14adcd7a96591da1c21151",
  "args": [
    "0x2120602E1cb8b9F52d14b7950Eb8CE91323cE450",
    "0xE592427A0AEce92De3Edee1F18E0157C05861564",
    "0x3D699d799905da251f89c6ed01d73B5d9d7242cF",
    "0xc778417E063141139Fce010982780140Aa0cD5Ab"
  ],
  "numDeployments": 1,
  "solcInputHash": "d70a292c1611feb66153f1413bc58ed9",
  "bytecode": "0x60806040523480156200001157600080fd5b5060405162002b5b38038062002b5b83398181016040528101906200003791906200035b565b620000576200004b620001e060201b60201c565b620001e860201b60201c565b83600160006101000a81548173ffffffffffffffffffffffffffffffffffffffff021916908373ffffffffffffffffffffffffffffffffffffffff16021790555082600260006101000a81548173ffffffffffffffffffffffffffffffffffffffff021916908373ffffffffffffffffffffffffffffffffffffffff16021790555081600360006101000a81548173ffffffffffffffffffffffffffffffffffffffff021916908373ffffffffffffffffffffffffffffffffffffffff16021790555080600460006101000a81548173ffffffffffffffffffffffffffffffffffffffff021916908373ffffffffffffffffffffffffffffffffffffffff1602179055508173ffffffffffffffffffffffffffffffffffffffff1663313ce5676040518163ffffffff1660e01b8152600401602060405180830381865afa158015620001a7573d6000803e3d6000fd5b505050506040513d601f19601f82011682018060405250810190620001cd91906200040b565b60ff16600581905550505050506200043d565b600033905090565b60008060009054906101000a900473ffffffffffffffffffffffffffffffffffffffff169050816000806101000a81548173ffffffffffffffffffffffffffffffffffffffff021916908373ffffffffffffffffffffffffffffffffffffffff1602179055508173ffffffffffffffffffffffffffffffffffffffff168173ffffffffffffffffffffffffffffffffffffffff167f8be0079c531659141344cd1fd0a4f28419497f9722a3daafe3b4186f6b6457e060405160405180910390a35050565b600080fd5b600073ffffffffffffffffffffffffffffffffffffffff82169050919050565b6000620002de82620002b1565b9050919050565b6000620002f282620002d1565b9050919050565b6200030481620002e5565b81146200031057600080fd5b50565b6000815190506200032481620002f9565b92915050565b6200033581620002d1565b81146200034157600080fd5b50565b60008151905062000355816200032a565b92915050565b60008060008060808587031215620003785762000377620002ac565b5b6000620003888782880162000313565b94505060206200039b8782880162000344565b9350506040620003ae8782880162000344565b9250506060620003c18782880162000344565b91505092959194509250565b600060ff82169050919050565b620003e581620003cd565b8114620003f157600080fd5b50565b6000815190506200040581620003da565b92915050565b600060208284031215620004245762000423620002ac565b5b60006200043484828501620003f4565b91505092915050565b61270e806200044d6000396000f3fe60806040526004361061010d5760003560e01c8063889ad54c11610095578063c5ebeaec11610064578063c5ebeaec14610338578063d8aed14514610361578063e2bbb1581461038a578063f2fde38b146103a6578063f887ea40146103cf57610114565b8063889ad54c1461029b57806389a30271146102b75780638da5cb5b146102e2578063c31c9c071461030d57610114565b8063452f8f04116100dc578063452f8f04146101da57806347ccca02146102035780634aa4a4fc1461022e578063715018a61461025957806376809ce31461027057610114565b8063107046bd146101195780632e1a7d4d1461015b5780633e413bee146101845780633fc8cef3146101af57610114565b3661011457005b600080fd5b34801561012557600080fd5b50610140600480360381019061013b91906118ba565b6103fa565b60405161015296959493929190611911565b60405180910390f35b34801561016757600080fd5b50610182600480360381019061017d91906118ba565b610443565b005b34801561019057600080fd5b50610199610693565b6040516101a691906119b3565b60405180910390f35b3480156101bb57600080fd5b506101c46106b9565b6040516101d191906119b3565b60405180910390f35b3480156101e657600080fd5b5061020160048036038101906101fc9190611b14565b6106df565b005b34801561020f57600080fd5b5061021861096b565b6040516102259190611c0a565b60405180910390f35b34801561023a57600080fd5b50610243610991565b60405161025091906119b3565b60405180910390f35b34801561026557600080fd5b5061026e6109a9565b005b34801561027c57600080fd5b506102856109bd565b6040516102929190611c25565b60405180910390f35b6102b560048036038101906102b091906118ba565b6109c3565b005b3480156102c357600080fd5b506102cc610ccc565b6040516102d991906119b3565b60405180910390f35b3480156102ee57600080fd5b506102f7610ce4565b60405161030491906119b3565b60405180910390f35b34801561031957600080fd5b50610322610d0d565b60405161032f91906119b3565b60405180910390f35b34801561034457600080fd5b5061035f600480360381019061035a91906118ba565b610d25565b005b34801561036d57600080fd5b5061038860048036038101906103839190611c40565b610e70565b005b6103a4600480360381019061039f9190611c40565b611056565b005b3480156103b257600080fd5b506103cd60048036038101906103c89190611cac565b6112dd565b005b3480156103db57600080fd5b506103e4611361565b6040516103f191906119b3565b60405180910390f35b60066020528060005260406000206000915090508060000154908060010154908060020154908060030154908060040154908060050160009054906101000a900460ff16905086565b6000600660008381526020019081526020016000209050600081600201541415610499576040517f8652b88000000000000000000000000000000000000000000000000000000000815260040160405180910390fd5b8060050160009054906101000a900460ff166104e1576040517fd7c09c7c00000000000000000000000000000000000000000000000000000000815260040160405180910390fd5b6000600160009054906101000a900473ffffffffffffffffffffffffffffffffffffffff1673ffffffffffffffffffffffffffffffffffffffff1662fdd58e33856040518363ffffffff1660e01b815260040161053f929190611cd9565b602060405180830381865afa15801561055c573d6000803e3d6000fd5b505050506040513d601f19601f820116820180604052508101906105809190611d17565b9050600061058e8483611387565b9050808360010160008282546105a49190611d73565b92505081905550600083600001548285600401546105c29190611da7565b6105cc9190611e30565b90506105fb600360009054906101000a900473ffffffffffffffffffffffffffffffffffffffff163383611456565b600160009054906101000a900473ffffffffffffffffffffffffffffffffffffffff1673ffffffffffffffffffffffffffffffffffffffff1663d87801618633866040518463ffffffff1660e01b815260040161065a93929190611e61565b600060405180830381600087803b15801561067457600080fd5b505af1158015610688573d6000803e3d6000fd5b505050505050505050565b600360009054906101000a900473ffffffffffffffffffffffffffffffffffffffff1681565b600460009054906101000a900473ffffffffffffffffffffffffffffffffffffffff1681565b6106e76115ab565b42841115806106f65750428311155b806107015750838311155b15610738576040517f177392d000000000000000000000000000000000000000000000000000000000815260040160405180910390fd5b6000851415610773576040517f79959cfe00000000000000000000000000000000000000000000000000000000815260040160405180910390fd5b60006040518060c0016040528087815260200160008152602001868152602001858152602001600081526020016000151581525090506000600160009054906101000a900473ffffffffffffffffffffffffffffffffffffffff1673ffffffffffffffffffffffffffffffffffffffff166398bdf6f56040518163ffffffff1660e01b8152600401602060405180830381865afa158015610818573d6000803e3d6000fd5b505050506040513d601f19601f8201168201806040525081019061083c9190611d17565b90508160066000838152602001908152602001600020600082015181600001556020820151816001015560408201518160020155606082015181600301556080820151816004015560a08201518160050160006101000a81548160ff021916908315150217905550905050600160009054906101000a900473ffffffffffffffffffffffffffffffffffffffff1673ffffffffffffffffffffffffffffffffffffffff1663f6c5feb984866040518363ffffffff1660e01b8152600401610904929190611f20565b600060405180830381600087803b15801561091e57600080fd5b505af1158015610932573d6000803e3d6000fd5b505050507fadbfc99647c65b3f5b3e163ba8df3f82b347ca2c041cc3045f778b2630b3f3e660405160405180910390a150505050505050565b600160009054906101000a900473ffffffffffffffffffffffffffffffffffffffff1681565b73c02aaa39b223fe8d0a0e5c4f27ead9083c756cc281565b6109b16115ab565b6109bb6000611629565b565b60055481565b60008111610a06576040517f08c379a00000000000000000000000000000000000000000000000000000000081526004016109fd90611f9c565b60405180910390fd5b60003411610a49576040517f08c379a0000000000000000000000000000000000000000000000000000000008152600401610a4090612008565b60405180910390fd5b6000349050600060405180610100016040528073c02aaa39b223fe8d0a0e5c4f27ead9083c756cc273ffffffffffffffffffffffffffffffffffffffff16815260200173a0b86991c6218b36c1d19d4a2e9eb0ce3606eb4873ffffffffffffffffffffffffffffffffffffffff1681526020016101f462ffffff1681526020013073ffffffffffffffffffffffffffffffffffffffff168152602001428152602001848152602001838152602001600073ffffffffffffffffffffffffffffffffffffffff16815250905073e592427a0aece92de3edee1f18e0157c0586156473ffffffffffffffffffffffffffffffffffffffff1663db3e219834836040518363ffffffff1660e01b8152600401610b629190612115565b60206040518083038185885af1158015610b80573d6000803e3d6000fd5b50505050506040513d601f19601f82011682018060405250810190610ba59190611d17565b5073e592427a0aece92de3edee1f18e0157c0586156473ffffffffffffffffffffffffffffffffffffffff166312210e8a6040518163ffffffff1660e01b8152600401600060405180830381600087803b158015610c0257600080fd5b505af1158015610c16573d6000803e3d6000fd5b5050505060003373ffffffffffffffffffffffffffffffffffffffff1647604051610c4090612162565b60006040518083038185875af1925050503d8060008114610c7d576040519150601f19603f3d011682016040523d82523d6000602084013e610c82565b606091505b5050905080610cc6576040517f08c379a0000000000000000000000000000000000000000000000000000000008152600401610cbd906121c3565b60405180910390fd5b50505050565b73a0b86991c6218b36c1d19d4a2e9eb0ce3606eb4881565b60008060009054906101000a900473ffffffffffffffffffffffffffffffffffffffff16905090565b73e592427a0aece92de3edee1f18e0157c0586156481565b610d2d6115ab565b6000600660008381526020019081526020016000209050600081600201541415610d83576040517f8652b88000000000000000000000000000000000000000000000000000000000815260040160405180910390fd5b8060030154421015610dc1576040517fd12b230800000000000000000000000000000000000000000000000000000000815260040160405180910390fd5b600081600101549050600360009054906101000a900473ffffffffffffffffffffffffffffffffffffffff1673ffffffffffffffffffffffffffffffffffffffff1663a9059cbb33836040518363ffffffff1660e01b8152600401610e27929190611cd9565b6020604051808303816000875af1158015610e46573d6000803e3d6000fd5b505050506040513d601f19601f82011682018060405250810190610e6a919061220f565b50505050565b610e786115ab565b60006006600084815260200190815260200160002090506000816004015414610ecd576040517fefe994fa00000000000000000000000000000000000000000000000000000000815260040160405180910390fd5b600081600201541415610f0c576040517f8652b88000000000000000000000000000000000000000000000000000000000815260040160405180910390fd5b8060000154821015610f4a576040517f821ca7c200000000000000000000000000000000000000000000000000000000815260040160405180910390fd5b4281600301541115610f88576040517f29d003f300000000000000000000000000000000000000000000000000000000815260040160405180910390fd5b81816004018190555060018160050160006101000a81548160ff021916908315150217905550600360009054906101000a900473ffffffffffffffffffffffffffffffffffffffff1673ffffffffffffffffffffffffffffffffffffffff166323b872dd3330856040518463ffffffff1660e01b815260040161100d9392919061223c565b6020604051808303816000875af115801561102c573d6000803e3d6000fd5b505050506040513d601f19601f82011682018060405250810190611050919061220f565b50505050565b60006006600084815260200190815260200160002090506000816002015414156110ac576040517f8652b88000000000000000000000000000000000000000000000000000000000815260040160405180910390fd5b80600201544210156110ea576040517fb13fef1900000000000000000000000000000000000000000000000000000000815260040160405180910390fd5b42816003015411611127576040517feaf1d1c500000000000000000000000000000000000000000000000000000000815260040160405180910390fd5b806000015482826001015461113c9190612273565b1115611174576040517fe680a04700000000000000000000000000000000000000000000000000000000815260040160405180910390fd5b6000600554600a61118591906123fc565b836111909190612447565b146111c7576040517f72f51f5100000000000000000000000000000000000000000000000000000000815260040160405180910390fd5b816006600085815260200190815260200160002060010160008282546111ed9190612273565b925050819055506000341461120a57611205826109c3565b611239565b611238600360009054906101000a900473ffffffffffffffffffffffffffffffffffffffff163330856116ed565b5b600061124483611845565b9050600160009054906101000a900473ffffffffffffffffffffffffffffffffffffffff1673ffffffffffffffffffffffffffffffffffffffff1663dc4cab0c8583336040518463ffffffff1660e01b81526004016112a593929190612478565b600060405180830381600087803b1580156112bf57600080fd5b505af11580156112d3573d6000803e3d6000fd5b5050505050505050565b6112e56115ab565b600073ffffffffffffffffffffffffffffffffffffffff168173ffffffffffffffffffffffffffffffffffffffff161415611355576040517f08c379a000000000000000000000000000000000000000000000000000000000815260040161134c90612521565b60405180910390fd5b61135e81611629565b50565b600260009054906101000a900473ffffffffffffffffffffffffffffffffffffffff1681565b600080600160009054906101000a900473ffffffffffffffffffffffffffffffffffffffff1673ffffffffffffffffffffffffffffffffffffffff1663e00508ba856040518263ffffffff1660e01b81526004016113e59190611c25565b602060405180830381865afa158015611402573d6000803e3d6000fd5b505050506040513d601f19601f820116820180604052508101906114269190611d17565b9050600554600a61143791906123fc565b81846114439190611da7565b61144d9190611da7565b91505092915050565b6000808473ffffffffffffffffffffffffffffffffffffffff1663a9059cbb60e01b858560405160240161148b929190611cd9565b604051602081830303815290604052907bffffffffffffffffffffffffffffffffffffffffffffffffffffffff19166020820180517bffffffffffffffffffffffffffffffffffffffffffffffffffffffff83818316178352505050506040516114f5919061257d565b6000604051808303816000865af19150503d8060008114611532576040519150601f19603f3d011682016040523d82523d6000602084013e611537565b606091505b50915091508180156115655750600081511480611564575080806020019051810190611563919061220f565b5b5b6115a4576040517f08c379a000000000000000000000000000000000000000000000000000000000815260040161159b906125e0565b60405180910390fd5b5050505050565b6115b3611868565b73ffffffffffffffffffffffffffffffffffffffff166115d1610ce4565b73ffffffffffffffffffffffffffffffffffffffff1614611627576040517f08c379a000000000000000000000000000000000000000000000000000000000815260040161161e9061264c565b60405180910390fd5b565b60008060009054906101000a900473ffffffffffffffffffffffffffffffffffffffff169050816000806101000a81548173ffffffffffffffffffffffffffffffffffffffff021916908373ffffffffffffffffffffffffffffffffffffffff1602179055508173ffffffffffffffffffffffffffffffffffffffff168173ffffffffffffffffffffffffffffffffffffffff167f8be0079c531659141344cd1fd0a4f28419497f9722a3daafe3b4186f6b6457e060405160405180910390a35050565b6000808573ffffffffffffffffffffffffffffffffffffffff166323b872dd60e01b8686866040516024016117249392919061223c565b604051602081830303815290604052907bffffffffffffffffffffffffffffffffffffffffffffffffffffffff19166020820180517bffffffffffffffffffffffffffffffffffffffffffffffffffffffff838183161783525050505060405161178e919061257d565b6000604051808303816000865af19150503d80600081146117cb576040519150601f19603f3d011682016040523d82523d6000602084013e6117d0565b606091505b50915091508180156117fe57506000815114806117fd5750808060200190518101906117fc919061220f565b5b5b61183d576040517f08c379a0000000000000000000000000000000000000000000000000000000008152600401611834906126b8565b60405180910390fd5b505050505050565b6000600554600a61185691906123fc565b826118619190611e30565b9050919050565b600033905090565b6000604051905090565b600080fd5b600080fd5b6000819050919050565b61189781611884565b81146118a257600080fd5b50565b6000813590506118b48161188e565b92915050565b6000602082840312156118d0576118cf61187a565b5b60006118de848285016118a5565b91505092915050565b6118f081611884565b82525050565b60008115159050919050565b61190b816118f6565b82525050565b600060c08201905061192660008301896118e7565b61193360208301886118e7565b61194060408301876118e7565b61194d60608301866118e7565b61195a60808301856118e7565b61196760a0830184611902565b979650505050505050565b600073ffffffffffffffffffffffffffffffffffffffff82169050919050565b600061199d82611972565b9050919050565b6119ad81611992565b82525050565b60006020820190506119c860008301846119a4565b92915050565b600080fd5b600080fd5b6000601f19601f8301169050919050565b7f4e487b7100000000000000000000000000000000000000000000000000000000600052604160045260246000fd5b611a21826119d8565b810181811067ffffffffffffffff82111715611a4057611a3f6119e9565b5b80604052505050565b6000611a53611870565b9050611a5f8282611a18565b919050565b600067ffffffffffffffff821115611a7f57611a7e6119e9565b5b611a88826119d8565b9050602081019050919050565b82818337600083830152505050565b6000611ab7611ab284611a64565b611a49565b905082815260208101848484011115611ad357611ad26119d3565b5b611ade848285611a95565b509392505050565b600082601f830112611afb57611afa6119ce565b5b8135611b0b848260208601611aa4565b91505092915050565b600080600080600060a08688031215611b3057611b2f61187a565b5b6000611b3e888289016118a5565b9550506020611b4f888289016118a5565b9450506040611b60888289016118a5565b9350506060611b71888289016118a5565b925050608086013567ffffffffffffffff811115611b9257611b9161187f565b5b611b9e88828901611ae6565b9150509295509295909350565b6000819050919050565b6000611bd0611bcb611bc684611972565b611bab565b611972565b9050919050565b6000611be282611bb5565b9050919050565b6000611bf482611bd7565b9050919050565b611c0481611be9565b82525050565b6000602082019050611c1f6000830184611bfb565b92915050565b6000602082019050611c3a60008301846118e7565b92915050565b60008060408385031215611c5757611c5661187a565b5b6000611c65858286016118a5565b9250506020611c76858286016118a5565b9150509250929050565b611c8981611992565b8114611c9457600080fd5b50565b600081359050611ca681611c80565b92915050565b600060208284031215611cc257611cc161187a565b5b6000611cd084828501611c97565b91505092915050565b6000604082019050611cee60008301856119a4565b611cfb60208301846118e7565b9392505050565b600081519050611d118161188e565b92915050565b600060208284031215611d2d57611d2c61187a565b5b6000611d3b84828501611d02565b91505092915050565b7f4e487b7100000000000000000000000000000000000000000000000000000000600052601160045260246000fd5b6000611d7e82611884565b9150611d8983611884565b925082821015611d9c57611d9b611d44565b5b828203905092915050565b6000611db282611884565b9150611dbd83611884565b9250817fffffffffffffffffffffffffffffffffffffffffffffffffffffffffffffffff0483118215151615611df657611df5611d44565b5b828202905092915050565b7f4e487b7100000000000000000000000000000000000000000000000000000000600052601260045260246000fd5b6000611e3b82611884565b9150611e4683611884565b925082611e5657611e55611e01565b5b828204905092915050565b6000606082019050611e7660008301866118e7565b611e8360208301856119a4565b611e9060408301846118e7565b949350505050565b600081519050919050565b600082825260208201905092915050565b60005b83811015611ed2578082015181840152602081019050611eb7565b83811115611ee1576000848401525b50505050565b6000611ef282611e98565b611efc8185611ea3565b9350611f0c818560208601611eb4565b611f15816119d8565b840191505092915050565b60006040820190508181036000830152611f3a8185611ee7565b9050611f4960208301846118e7565b9392505050565b7f4d7573742070617373206e6f6e20302044414920616d6f756e74000000000000600082015250565b6000611f86601a83611ea3565b9150611f9182611f50565b602082019050919050565b60006020820190508181036000830152611fb581611f79565b9050919050565b7f4d7573742070617373206e6f6e20302045544820616d6f756e74000000000000600082015250565b6000611ff2601a83611ea3565b9150611ffd82611fbc565b602082019050919050565b6000602082019050818103600083015261202181611fe5565b9050919050565b61203181611992565b82525050565b600062ffffff82169050919050565b61204f81612037565b82525050565b61205e81611884565b82525050565b61206d81611972565b82525050565b6101008201600082015161208a6000850182612028565b50602082015161209d6020850182612028565b5060408201516120b06040850182612046565b5060608201516120c36060850182612028565b5060808201516120d66080850182612055565b5060a08201516120e960a0850182612055565b5060c08201516120fc60c0850182612055565b5060e082015161210f60e0850182612064565b50505050565b60006101008201905061212b6000830184612073565b92915050565b600081905092915050565b50565b600061214c600083612131565b91506121578261213c565b600082019050919050565b600061216d8261213f565b9150819050919050565b7f726566756e64206661696c656400000000000000000000000000000000000000600082015250565b60006121ad600d83611ea3565b91506121b882612177565b602082019050919050565b600060208201905081810360008301526121dc816121a0565b9050919050565b6121ec816118f6565b81146121f757600080fd5b50565b600081519050612209816121e3565b92915050565b6000602082840312156122255761222461187a565b5b6000612233848285016121fa565b91505092915050565b600060608201905061225160008301866119a4565b61225e60208301856119a4565b61226b60408301846118e7565b949350505050565b600061227e82611884565b915061228983611884565b9250827fffffffffffffffffffffffffffffffffffffffffffffffffffffffffffffffff038211156122be576122bd611d44565b5b828201905092915050565b60008160011c9050919050565b6000808291508390505b6001851115612320578086048111156122fc576122fb611d44565b5b600185161561230b5780820291505b8081029050612319856122c9565b94506122e0565b94509492505050565b60008261233957600190506123f5565b8161234757600090506123f5565b816001811461235d576002811461236757612396565b60019150506123f5565b60ff84111561237957612378611d44565b5b8360020a9150848211156123905761238f611d44565b5b506123f5565b5060208310610133831016604e8410600b84101617156123cb5782820a9050838111156123c6576123c5611d44565b5b6123f5565b6123d884848460016122d6565b925090508184048111156123ef576123ee611d44565b5b81810290505b9392505050565b600061240782611884565b915061241283611884565b925061243f7fffffffffffffffffffffffffffffffffffffffffffffffffffffffffffffffff8484612329565b905092915050565b600061245282611884565b915061245d83611884565b92508261246d5761246c611e01565b5b828206905092915050565b600060608201905061248d60008301866118e7565b61249a60208301856118e7565b6124a760408301846119a4565b949350505050565b7f4f776e61626c653a206e6577206f776e657220697320746865207a65726f206160008201527f6464726573730000000000000000000000000000000000000000000000000000602082015250565b600061250b602683611ea3565b9150612516826124af565b604082019050919050565b6000602082019050818103600083015261253a816124fe565b9050919050565b600081519050919050565b600061255782612541565b6125618185612131565b9350612571818560208601611eb4565b80840191505092915050565b6000612589828461254c565b915081905092915050565b7f5354000000000000000000000000000000000000000000000000000000000000600082015250565b60006125ca600283611ea3565b91506125d582612594565b602082019050919050565b600060208201905081810360008301526125f9816125bd565b9050919050565b7f4f776e61626c653a2063616c6c6572206973206e6f7420746865206f776e6572600082015250565b6000612636602083611ea3565b915061264182612600565b602082019050919050565b6000602082019050818103600083015261266581612629565b9050919050565b7f5354460000000000000000000000000000000000000000000000000000000000600082015250565b60006126a2600383611ea3565b91506126ad8261266c565b602082019050919050565b600060208201905081810360008301526126d181612695565b905091905056fea2646970667358221220d1acbedc22425c4ceefa92b6058d0985f322a46fcf6bbd85658a025e6d47eba664736f6c634300080b0033",
  "devdoc": {
    "kind": "dev",
    "methods": {
      "borrow(uint256)": {
        "params": {
          "projectId": "id of the project"
        }
      },
      "owner()": {
        "details": "Returns the address of the current owner."
      },
      "renounceOwnership()": {
        "details": "Leaves the contract without owner. It will not be possible to call `onlyOwner` functions anymore. Can only be called by the current owner. NOTE: Renouncing ownership will leave the contract without an owner, thereby removing any functionality that is only available to the owner."
      },
      "repay(uint256,uint256)": {
        "params": {
          "amount": "the amount of USDC the owner wants to transfer to this contract.",
          "projectId": "id of the project"
        }
      },
      "transferOwnership(address)": {
        "details": "Transfers ownership of the contract to a new account (`newOwner`). Can only be called by the current owner."
      }
    },
    "version": 1
  },
  "userdoc": {
    "kind": "user",
    "methods": {
      "borrow(uint256)": {
        "notice": "The owner withdraws all deposited USDC."
      },
      "initProject(uint256,uint256,uint256,uint256,string)": {
        "notice": "projectId starts from 0."
      },
      "repay(uint256,uint256)": {
        "notice": "The owner transfers USDC for depositors to withdraw."
      },
      "swapExactOutputSingle(uint256)": {
        "notice": "swaps a minimum possible amount of WETH for a fixed amount of USDC.         This contract receives the output USDC to use later operations."
      }
    },
    "version": 1
  },
  "storageLayout": {
    "storage": [
      {
        "astId": 7,
        "contract": "contracts/Controller.sol:Controller",
        "label": "_owner",
        "offset": 0,
        "slot": "0",
        "type": "t_address"
      },
      {
        "astId": 2435,
        "contract": "contracts/Controller.sol:Controller",
        "label": "nft",
        "offset": 0,
        "slot": "1",
        "type": "t_contract(NftBond)3168"
      },
      {
        "astId": 2437,
        "contract": "contracts/Controller.sol:Controller",
        "label": "router",
        "offset": 0,
        "slot": "2",
        "type": "t_address"
      },
      {
        "astId": 2439,
        "contract": "contracts/Controller.sol:Controller",
        "label": "usdc",
        "offset": 0,
        "slot": "3",
        "type": "t_address"
      },
      {
        "astId": 2441,
        "contract": "contracts/Controller.sol:Controller",
        "label": "weth",
        "offset": 0,
        "slot": "4",
        "type": "t_address"
      },
      {
        "astId": 2443,
        "contract": "contracts/Controller.sol:Controller",
        "label": "decimal",
        "offset": 0,
        "slot": "5",
        "type": "t_uint256"
      },
      {
        "astId": 2448,
        "contract": "contracts/Controller.sol:Controller",
        "label": "projects",
        "offset": 0,
        "slot": "6",
        "type": "t_mapping(t_uint256,t_struct(Project)2432_storage)"
      }
    ],
    "types": {
      "t_address": {
        "encoding": "inplace",
        "label": "address",
        "numberOfBytes": "20"
      },
      "t_bool": {
        "encoding": "inplace",
        "label": "bool",
        "numberOfBytes": "1"
      },
      "t_contract(NftBond)3168": {
        "encoding": "inplace",
        "label": "contract NftBond",
        "numberOfBytes": "20"
      },
      "t_mapping(t_uint256,t_struct(Project)2432_storage)": {
        "encoding": "mapping",
        "key": "t_uint256",
        "label": "mapping(uint256 => struct Controller.Project)",
        "numberOfBytes": "32",
        "value": "t_struct(Project)2432_storage"
      },
      "t_struct(Project)2432_storage": {
        "encoding": "inplace",
        "label": "struct Controller.Project",
        "members": [
          {
            "astId": 2421,
            "contract": "contracts/Controller.sol:Controller",
            "label": "totalAmount",
            "offset": 0,
            "slot": "0",
            "type": "t_uint256"
          },
          {
            "astId": 2423,
            "contract": "contracts/Controller.sol:Controller",
            "label": "currentAmount",
            "offset": 0,
            "slot": "1",
            "type": "t_uint256"
          },
          {
            "astId": 2425,
            "contract": "contracts/Controller.sol:Controller",
            "label": "depositStartTs",
            "offset": 0,
            "slot": "2",
            "type": "t_uint256"
          },
          {
            "astId": 2427,
            "contract": "contracts/Controller.sol:Controller",
            "label": "depositEndTs",
            "offset": 0,
            "slot": "3",
            "type": "t_uint256"
          },
          {
            "astId": 2429,
            "contract": "contracts/Controller.sol:Controller",
            "label": "finalAmount",
            "offset": 0,
            "slot": "4",
            "type": "t_uint256"
          },
          {
            "astId": 2431,
            "contract": "contracts/Controller.sol:Controller",
            "label": "repayed",
            "offset": 0,
            "slot": "5",
            "type": "t_bool"
          }
        ],
        "numberOfBytes": "192"
      },
      "t_uint256": {
        "encoding": "inplace",
        "label": "uint256",
        "numberOfBytes": "32"
      }
    }
  }
}