{
  "address": "0x4520D4Ef13C93Cd64381Df10e1c07a2cDf61324C",
  "abi": [
    {
      "inputs": [],
      "stateMutability": "nonpayable",
      "type": "constructor"
    },
    {
      "inputs": [],
      "name": "AlreadyInitialized",
      "type": "error"
    },
    {
      "inputs": [],
      "name": "NotDivisibleByUnit",
      "type": "error"
    },
    {
      "inputs": [],
      "name": "OnlyController",
      "type": "error"
    },
    {
      "inputs": [],
      "name": "ZeroBalance",
      "type": "error"
    },
    {
      "anonymous": false,
      "inputs": [
        {
          "indexed": true,
          "internalType": "address",
          "name": "account",
          "type": "address"
        },
        {
          "indexed": true,
          "internalType": "address",
          "name": "operator",
          "type": "address"
        },
        {
          "indexed": false,
          "internalType": "bool",
          "name": "approved",
          "type": "bool"
        }
      ],
      "name": "ApprovalForAll",
      "type": "event"
    },
    {
      "anonymous": false,
      "inputs": [],
      "name": "CreateLoan",
      "type": "event"
    },
    {
      "anonymous": false,
      "inputs": [],
      "name": "InitProject",
      "type": "event"
    },
    {
      "anonymous": false,
      "inputs": [
        {
          "indexed": true,
          "internalType": "address",
          "name": "previousOwner",
          "type": "address"
        },
        {
          "indexed": true,
          "internalType": "address",
          "name": "newOwner",
          "type": "address"
        }
      ],
      "name": "OwnershipTransferred",
      "type": "event"
    },
    {
      "anonymous": false,
      "inputs": [],
      "name": "Redeem",
      "type": "event"
    },
    {
      "anonymous": false,
      "inputs": [
        {
          "indexed": true,
          "internalType": "address",
          "name": "operator",
          "type": "address"
        },
        {
          "indexed": true,
          "internalType": "address",
          "name": "from",
          "type": "address"
        },
        {
          "indexed": true,
          "internalType": "address",
          "name": "to",
          "type": "address"
        },
        {
          "indexed": false,
          "internalType": "uint256[]",
          "name": "ids",
          "type": "uint256[]"
        },
        {
          "indexed": false,
          "internalType": "uint256[]",
          "name": "values",
          "type": "uint256[]"
        }
      ],
      "name": "TransferBatch",
      "type": "event"
    },
    {
      "anonymous": false,
      "inputs": [
        {
          "indexed": true,
          "internalType": "address",
          "name": "operator",
          "type": "address"
        },
        {
          "indexed": true,
          "internalType": "address",
          "name": "from",
          "type": "address"
        },
        {
          "indexed": true,
          "internalType": "address",
          "name": "to",
          "type": "address"
        },
        {
          "indexed": false,
          "internalType": "uint256",
          "name": "id",
          "type": "uint256"
        },
        {
          "indexed": false,
          "internalType": "uint256",
          "name": "value",
          "type": "uint256"
        }
      ],
      "name": "TransferSingle",
      "type": "event"
    },
    {
      "anonymous": false,
      "inputs": [
        {
          "indexed": false,
          "internalType": "string",
          "name": "value",
          "type": "string"
        },
        {
          "indexed": true,
          "internalType": "uint256",
          "name": "id",
          "type": "uint256"
        }
      ],
      "name": "URI",
      "type": "event"
    },
    {
      "inputs": [
        {
          "internalType": "address",
          "name": "account",
          "type": "address"
        },
        {
          "internalType": "uint256",
          "name": "id",
          "type": "uint256"
        }
      ],
      "name": "balanceOf",
      "outputs": [
        {
          "internalType": "uint256",
          "name": "",
          "type": "uint256"
        }
      ],
      "stateMutability": "view",
      "type": "function"
    },
    {
      "inputs": [
        {
          "internalType": "address[]",
          "name": "accounts",
          "type": "address[]"
        },
        {
          "internalType": "uint256[]",
          "name": "ids",
          "type": "uint256[]"
        }
      ],
      "name": "balanceOfBatch",
      "outputs": [
        {
          "internalType": "uint256[]",
          "name": "",
          "type": "uint256[]"
        }
      ],
      "stateMutability": "view",
      "type": "function"
    },
    {
      "inputs": [],
      "name": "controller",
      "outputs": [
        {
          "internalType": "address",
          "name": "",
          "type": "address"
        }
      ],
      "stateMutability": "view",
      "type": "function"
    },
    {
      "inputs": [
        {
          "internalType": "uint256",
          "name": "tokenId",
          "type": "uint256"
        },
        {
          "internalType": "uint256",
          "name": "principal",
          "type": "uint256"
        },
        {
          "internalType": "address",
          "name": "account",
          "type": "address"
        }
      ],
      "name": "createLoan",
      "outputs": [],
      "stateMutability": "nonpayable",
      "type": "function"
    },
    {
      "inputs": [
        {
          "internalType": "uint256",
          "name": "id",
          "type": "uint256"
        }
      ],
      "name": "exists",
      "outputs": [
        {
          "internalType": "bool",
          "name": "",
          "type": "bool"
        }
      ],
      "stateMutability": "view",
      "type": "function"
    },
    {
      "inputs": [
        {
          "internalType": "address",
          "name": "controller_",
          "type": "address"
        }
      ],
      "name": "init",
      "outputs": [],
      "stateMutability": "nonpayable",
      "type": "function"
    },
    {
      "inputs": [
        {
          "internalType": "string",
          "name": "uri_",
          "type": "string"
        },
        {
          "internalType": "uint256",
          "name": "unit_",
          "type": "uint256"
        }
      ],
      "name": "initProject",
      "outputs": [],
      "stateMutability": "nonpayable",
      "type": "function"
    },
    {
      "inputs": [
        {
          "internalType": "address",
          "name": "account",
          "type": "address"
        },
        {
          "internalType": "address",
          "name": "operator",
          "type": "address"
        }
      ],
      "name": "isApprovedForAll",
      "outputs": [
        {
          "internalType": "bool",
          "name": "",
          "type": "bool"
        }
      ],
      "stateMutability": "view",
      "type": "function"
    },
    {
      "inputs": [],
      "name": "owner",
      "outputs": [
        {
          "internalType": "address",
          "name": "",
          "type": "address"
        }
      ],
      "stateMutability": "view",
      "type": "function"
    },
    {
      "inputs": [
        {
          "internalType": "uint256",
          "name": "tokenId",
          "type": "uint256"
        },
        {
          "internalType": "address",
          "name": "account",
          "type": "address"
        },
        {
          "internalType": "uint256",
          "name": "tokenBalance",
          "type": "uint256"
        }
      ],
      "name": "redeem",
      "outputs": [],
      "stateMutability": "nonpayable",
      "type": "function"
    },
    {
      "inputs": [],
      "name": "renounceOwnership",
      "outputs": [],
      "stateMutability": "nonpayable",
      "type": "function"
    },
    {
      "inputs": [
        {
          "internalType": "address",
          "name": "from",
          "type": "address"
        },
        {
          "internalType": "address",
          "name": "to",
          "type": "address"
        },
        {
          "internalType": "uint256[]",
          "name": "ids",
          "type": "uint256[]"
        },
        {
          "internalType": "uint256[]",
          "name": "amounts",
          "type": "uint256[]"
        },
        {
          "internalType": "bytes",
          "name": "data",
          "type": "bytes"
        }
      ],
      "name": "safeBatchTransferFrom",
      "outputs": [],
      "stateMutability": "nonpayable",
      "type": "function"
    },
    {
      "inputs": [
        {
          "internalType": "address",
          "name": "from",
          "type": "address"
        },
        {
          "internalType": "address",
          "name": "to",
          "type": "address"
        },
        {
          "internalType": "uint256",
          "name": "id",
          "type": "uint256"
        },
        {
          "internalType": "uint256",
          "name": "amount",
          "type": "uint256"
        },
        {
          "internalType": "bytes",
          "name": "data",
          "type": "bytes"
        }
      ],
      "name": "safeTransferFrom",
      "outputs": [],
      "stateMutability": "nonpayable",
      "type": "function"
    },
    {
      "inputs": [
        {
          "internalType": "address",
          "name": "operator",
          "type": "address"
        },
        {
          "internalType": "bool",
          "name": "approved",
          "type": "bool"
        }
      ],
      "name": "setApprovalForAll",
      "outputs": [],
      "stateMutability": "nonpayable",
      "type": "function"
    },
    {
      "inputs": [
        {
          "internalType": "bytes4",
          "name": "interfaceId",
          "type": "bytes4"
        }
      ],
      "name": "supportsInterface",
      "outputs": [
        {
          "internalType": "bool",
          "name": "",
          "type": "bool"
        }
      ],
      "stateMutability": "view",
      "type": "function"
    },
    {
      "inputs": [],
      "name": "tokenIdCounter",
      "outputs": [
        {
          "internalType": "uint256",
          "name": "",
          "type": "uint256"
        }
      ],
      "stateMutability": "view",
      "type": "function"
    },
    {
      "inputs": [
        {
          "internalType": "uint256",
          "name": "id",
          "type": "uint256"
        }
      ],
      "name": "totalSupply",
      "outputs": [
        {
          "internalType": "uint256",
          "name": "",
          "type": "uint256"
        }
      ],
      "stateMutability": "view",
      "type": "function"
    },
    {
      "inputs": [
        {
          "internalType": "address",
          "name": "newOwner",
          "type": "address"
        }
      ],
      "name": "transferOwnership",
      "outputs": [],
      "stateMutability": "nonpayable",
      "type": "function"
    },
    {
      "inputs": [
        {
          "internalType": "uint256",
          "name": "tokenId",
          "type": "uint256"
        }
      ],
      "name": "unit",
      "outputs": [
        {
          "internalType": "uint256",
          "name": "",
          "type": "uint256"
        }
      ],
      "stateMutability": "view",
      "type": "function"
    },
    {
      "inputs": [
        {
          "internalType": "uint256",
          "name": "tokenId",
          "type": "uint256"
        }
      ],
      "name": "uri",
      "outputs": [
        {
          "internalType": "string",
          "name": "",
          "type": "string"
        }
      ],
      "stateMutability": "view",
      "type": "function"
    }
  ],
  "transactionHash": "0xb8f3d62b56bb81d62c12e09f33a01224ece9ecb5f88e6ad86b11746008176ecf",
  "args": [],
  "numDeployments": 2,
  "solcInputHash": "9f6456bf474cf37c406afd1d93b73f97",
  "bytecode": "0x60806040523480156200001157600080fd5b506040518060200160405280600081525062000033816200005a60201b60201c565b5062000054620000486200007660201b60201c565b6200007e60201b60201c565b62000259565b80600290805190602001906200007292919062000144565b5050565b600033905090565b6000600460009054906101000a900473ffffffffffffffffffffffffffffffffffffffff16905081600460006101000a81548173ffffffffffffffffffffffffffffffffffffffff021916908373ffffffffffffffffffffffffffffffffffffffff1602179055508173ffffffffffffffffffffffffffffffffffffffff168173ffffffffffffffffffffffffffffffffffffffff167f8be0079c531659141344cd1fd0a4f28419497f9722a3daafe3b4186f6b6457e060405160405180910390a35050565b828054620001529062000223565b90600052602060002090601f016020900481019282620001765760008555620001c2565b82601f106200019157805160ff1916838001178555620001c2565b82800160010185558215620001c2579182015b82811115620001c1578251825591602001919060010190620001a4565b5b509050620001d19190620001d5565b5090565b5b80821115620001f0576000816000905550600101620001d6565b5090565b7f4e487b7100000000000000000000000000000000000000000000000000000000600052602260045260246000fd5b600060028204905060018216806200023c57607f821691505b60208210811415620002535762000252620001f4565b5b50919050565b613b3680620002696000396000f3fe608060405234801561001057600080fd5b506004361061012b5760003560e01c8063a22cb465116100ad578063e985e9c511610071578063e985e9c514610352578063f242432a14610382578063f2fde38b1461039e578063f6c5feb9146103ba578063f77c4791146103d65761012b565b8063a22cb4651461029e578063bd85b039146102ba578063d8780161146102ea578063dc4cab0c14610306578063e00508ba146103225761012b565b80634e1273f4116100f45780634e1273f4146101f85780634f558e7914610228578063715018a6146102585780638da5cb5b1461026257806398bdf6f5146102805761012b565b8062fdd58e1461013057806301ffc9a7146101605780630e89341c1461019057806319ab453c146101c05780632eb2c2d6146101dc575b600080fd5b61014a6004803603810190610145919061238e565b6103f4565b60405161015791906123dd565b60405180910390f35b61017a60048036038101906101759190612450565b6104bd565b6040516101879190612498565b60405180910390f35b6101aa60048036038101906101a591906124b3565b61059f565b6040516101b79190612579565b60405180910390f35b6101da60048036038101906101d5919061259b565b610644565b005b6101f660048036038101906101f191906127c5565b610718565b005b610212600480360381019061020d9190612957565b6107b9565b60405161021f9190612a8d565b60405180910390f35b610242600480360381019061023d91906124b3565b6108d2565b60405161024f9190612498565b60405180910390f35b6102606108e6565b005b61026a6108fa565b6040516102779190612abe565b60405180910390f35b610288610924565b60405161029591906123dd565b60405180910390f35b6102b860048036038101906102b39190612b05565b61092a565b005b6102d460048036038101906102cf91906124b3565b610940565b6040516102e191906123dd565b60405180910390f35b61030460048036038101906102ff9190612b45565b61095d565b005b610320600480360381019061031b9190612b98565b610a64565b005b61033c600480360381019061033791906124b3565b610ba0565b60405161034991906123dd565b60405180910390f35b61036c60048036038101906103679190612beb565b610bbd565b6040516103799190612498565b60405180910390f35b61039c60048036038101906103979190612c2b565b610c51565b005b6103b860048036038101906103b3919061259b565b610cf2565b005b6103d460048036038101906103cf9190612d63565b610d76565b005b6103de610e51565b6040516103eb9190612abe565b60405180910390f35b60008073ffffffffffffffffffffffffffffffffffffffff168373ffffffffffffffffffffffffffffffffffffffff161415610465576040517f08c379a000000000000000000000000000000000000000000000000000000000815260040161045c90612e31565b60405180910390fd5b60008083815260200190815260200160002060008473ffffffffffffffffffffffffffffffffffffffff1673ffffffffffffffffffffffffffffffffffffffff16815260200190815260200160002054905092915050565b60007fd9b67a26000000000000000000000000000000000000000000000000000000007bffffffffffffffffffffffffffffffffffffffffffffffffffffffff1916827bffffffffffffffffffffffffffffffffffffffffffffffffffffffff1916148061058857507f0e89341c000000000000000000000000000000000000000000000000000000007bffffffffffffffffffffffffffffffffffffffffffffffffffffffff1916827bffffffffffffffffffffffffffffffffffffffffffffffffffffffff1916145b80610598575061059782610e77565b5b9050919050565b60606006600083815260200190815260200160002080546105bf90612e80565b80601f01602080910402602001604051908101604052809291908181526020018280546105eb90612e80565b80156106385780601f1061060d57610100808354040283529160200191610638565b820191906000526020600020905b81548152906001019060200180831161061b57829003601f168201915b50505050509050919050565b61064c610ee1565b600073ffffffffffffffffffffffffffffffffffffffff16600760009054906101000a900473ffffffffffffffffffffffffffffffffffffffff1673ffffffffffffffffffffffffffffffffffffffff16146106d4576040517f0dc149f000000000000000000000000000000000000000000000000000000000815260040160405180910390fd5b80600760006101000a81548173ffffffffffffffffffffffffffffffffffffffff021916908373ffffffffffffffffffffffffffffffffffffffff16021790555050565b610720610f5f565b73ffffffffffffffffffffffffffffffffffffffff168573ffffffffffffffffffffffffffffffffffffffff161480610766575061076585610760610f5f565b610bbd565b5b6107a5576040517f08c379a000000000000000000000000000000000000000000000000000000000815260040161079c90612f24565b60405180910390fd5b6107b28585858585610f67565b5050505050565b606081518351146107ff576040517f08c379a00000000000000000000000000000000000000000000000000000000081526004016107f690612fb6565b60405180910390fd5b6000835167ffffffffffffffff81111561081c5761081b6125cd565b5b60405190808252806020026020018201604052801561084a5781602001602082028036833780820191505090505b50905060005b84518110156108c75761089785828151811061086f5761086e612fd6565b5b602002602001015185838151811061088a57610889612fd6565b5b60200260200101516103f4565b8282815181106108aa576108a9612fd6565b5b602002602001018181525050806108c090613034565b9050610850565b508091505092915050565b6000806108de83610940565b119050919050565b6108ee610ee1565b6108f86000611289565b565b6000600460009054906101000a900473ffffffffffffffffffffffffffffffffffffffff16905090565b60085481565b61093c610935610f5f565b838361134f565b5050565b600060036000838152602001908152602001600020549050919050565b600760009054906101000a900473ffffffffffffffffffffffffffffffffffffffff1673ffffffffffffffffffffffffffffffffffffffff163373ffffffffffffffffffffffffffffffffffffffff16146109e4576040517f5990781300000000000000000000000000000000000000000000000000000000815260040160405180910390fd5b60006109f083856103f4565b1415610a28576040517f669567ea00000000000000000000000000000000000000000000000000000000815260040160405180910390fd5b610a338284836114bc565b7fd95402e764607b7b568a855d3414c03561cb940c03bb4d4ee47ea289e4f96a4260405160405180910390a1505050565b600760009054906101000a900473ffffffffffffffffffffffffffffffffffffffff1673ffffffffffffffffffffffffffffffffffffffff163373ffffffffffffffffffffffffffffffffffffffff1614610aeb576040517f5990781300000000000000000000000000000000000000000000000000000000815260040160405180910390fd5b60006005600085815260200190815260200160002054905060008184610b1191906130ac565b14610b48576040517f93cab43c00000000000000000000000000000000000000000000000000000000815260040160405180910390fd5b610b6e82858386610b5991906130dd565b60405180602001604052806000815250611703565b7f62a9ab86df23d7a1dccd942d1acf71c3eb19d64ca8a27547f8461d31d04fbfd560405160405180910390a150505050565b600060056000838152602001908152602001600020549050919050565b6000600160008473ffffffffffffffffffffffffffffffffffffffff1673ffffffffffffffffffffffffffffffffffffffff16815260200190815260200160002060008373ffffffffffffffffffffffffffffffffffffffff1673ffffffffffffffffffffffffffffffffffffffff16815260200190815260200160002060009054906101000a900460ff16905092915050565b610c59610f5f565b73ffffffffffffffffffffffffffffffffffffffff168573ffffffffffffffffffffffffffffffffffffffff161480610c9f5750610c9e85610c99610f5f565b610bbd565b5b610cde576040517f08c379a0000000000000000000000000000000000000000000000000000000008152600401610cd590612f24565b60405180910390fd5b610ceb85858585856118b4565b5050505050565b610cfa610ee1565b600073ffffffffffffffffffffffffffffffffffffffff168173ffffffffffffffffffffffffffffffffffffffff161415610d6a576040517f08c379a0000000000000000000000000000000000000000000000000000000008152600401610d6190613180565b60405180910390fd5b610d7381611289565b50565b600760009054906101000a900473ffffffffffffffffffffffffffffffffffffffff1673ffffffffffffffffffffffffffffffffffffffff163373ffffffffffffffffffffffffffffffffffffffff1614610dfd576040517f5990781300000000000000000000000000000000000000000000000000000000815260040160405180910390fd5b60006008549050610e0e8184611b50565b610e188183611bde565b610e20611bfa565b7f1c68ba08a7b350767825e7c166060d2a96d5d7f4bddf1e66eba0281061cb256c60405160405180910390a1505050565b600760009054906101000a900473ffffffffffffffffffffffffffffffffffffffff1681565b60007f01ffc9a7000000000000000000000000000000000000000000000000000000007bffffffffffffffffffffffffffffffffffffffffffffffffffffffff1916827bffffffffffffffffffffffffffffffffffffffffffffffffffffffff1916149050919050565b610ee9610f5f565b73ffffffffffffffffffffffffffffffffffffffff16610f076108fa565b73ffffffffffffffffffffffffffffffffffffffff1614610f5d576040517f08c379a0000000000000000000000000000000000000000000000000000000008152600401610f54906131ec565b60405180910390fd5b565b600033905090565b8151835114610fab576040517f08c379a0000000000000000000000000000000000000000000000000000000008152600401610fa29061327e565b60405180910390fd5b600073ffffffffffffffffffffffffffffffffffffffff168473ffffffffffffffffffffffffffffffffffffffff16141561101b576040517f08c379a000000000000000000000000000000000000000000000000000000000815260040161101290613310565b60405180910390fd5b6000611025610f5f565b9050611035818787878787611c14565b60005b84518110156111e657600085828151811061105657611055612fd6565b5b60200260200101519050600085838151811061107557611074612fd6565b5b60200260200101519050600080600084815260200190815260200160002060008b73ffffffffffffffffffffffffffffffffffffffff1673ffffffffffffffffffffffffffffffffffffffff16815260200190815260200160002054905081811015611116576040517f08c379a000000000000000000000000000000000000000000000000000000000815260040161110d906133a2565b60405180910390fd5b81810360008085815260200190815260200160002060008c73ffffffffffffffffffffffffffffffffffffffff1673ffffffffffffffffffffffffffffffffffffffff168152602001908152602001600020819055508160008085815260200190815260200160002060008b73ffffffffffffffffffffffffffffffffffffffff1673ffffffffffffffffffffffffffffffffffffffff16815260200190815260200160002060008282546111cb91906133c2565b92505081905550505050806111df90613034565b9050611038565b508473ffffffffffffffffffffffffffffffffffffffff168673ffffffffffffffffffffffffffffffffffffffff168273ffffffffffffffffffffffffffffffffffffffff167f4a39dc06d4c0dbc64b70af90fd698a233a518aa5d07e595d983b8c0526c8f7fb878760405161125d929190613418565b60405180910390a4611273818787878787611de6565b611281818787878787611dee565b505050505050565b6000600460009054906101000a900473ffffffffffffffffffffffffffffffffffffffff16905081600460006101000a81548173ffffffffffffffffffffffffffffffffffffffff021916908373ffffffffffffffffffffffffffffffffffffffff1602179055508173ffffffffffffffffffffffffffffffffffffffff168173ffffffffffffffffffffffffffffffffffffffff167f8be0079c531659141344cd1fd0a4f28419497f9722a3daafe3b4186f6b6457e060405160405180910390a35050565b8173ffffffffffffffffffffffffffffffffffffffff168373ffffffffffffffffffffffffffffffffffffffff1614156113be576040517f08c379a00000000000000000000000000000000000000000000000000000000081526004016113b5906134c1565b60405180910390fd5b80600160008573ffffffffffffffffffffffffffffffffffffffff1673ffffffffffffffffffffffffffffffffffffffff16815260200190815260200160002060008473ffffffffffffffffffffffffffffffffffffffff1673ffffffffffffffffffffffffffffffffffffffff16815260200190815260200160002060006101000a81548160ff0219169083151502179055508173ffffffffffffffffffffffffffffffffffffffff168373ffffffffffffffffffffffffffffffffffffffff167f17307eab39ab6107e8899845ad3d59bd9653f200f220920489ca2b5937696c31836040516114af9190612498565b60405180910390a3505050565b600073ffffffffffffffffffffffffffffffffffffffff168373ffffffffffffffffffffffffffffffffffffffff16141561152c576040517f08c379a000000000000000000000000000000000000000000000000000000000815260040161152390613553565b60405180910390fd5b6000611536610f5f565b9050600061154384611fc6565b9050600061155084611fc6565b905061157083876000858560405180602001604052806000815250611c14565b600080600087815260200190815260200160002060008873ffffffffffffffffffffffffffffffffffffffff1673ffffffffffffffffffffffffffffffffffffffff16815260200190815260200160002054905084811015611607576040517f08c379a00000000000000000000000000000000000000000000000000000000081526004016115fe906135e5565b60405180910390fd5b84810360008088815260200190815260200160002060008973ffffffffffffffffffffffffffffffffffffffff1673ffffffffffffffffffffffffffffffffffffffff16815260200190815260200160002081905550600073ffffffffffffffffffffffffffffffffffffffff168773ffffffffffffffffffffffffffffffffffffffff168573ffffffffffffffffffffffffffffffffffffffff167fc3d58168c5ae7397731d063d5bbf3d657854427343f4c083240f7aacaa2d0f6289896040516116d4929190613605565b60405180910390a46116fa84886000868660405180602001604052806000815250611de6565b50505050505050565b600073ffffffffffffffffffffffffffffffffffffffff168473ffffffffffffffffffffffffffffffffffffffff161415611773576040517f08c379a000000000000000000000000000000000000000000000000000000000815260040161176a906136a0565b60405180910390fd5b600061177d610f5f565b9050600061178a85611fc6565b9050600061179785611fc6565b90506117a883600089858589611c14565b8460008088815260200190815260200160002060008973ffffffffffffffffffffffffffffffffffffffff1673ffffffffffffffffffffffffffffffffffffffff168152602001908152602001600020600082825461180791906133c2565b925050819055508673ffffffffffffffffffffffffffffffffffffffff16600073ffffffffffffffffffffffffffffffffffffffff168473ffffffffffffffffffffffffffffffffffffffff167fc3d58168c5ae7397731d063d5bbf3d657854427343f4c083240f7aacaa2d0f628989604051611885929190613605565b60405180910390a461189c83600089858589611de6565b6118ab83600089898989612040565b50505050505050565b600073ffffffffffffffffffffffffffffffffffffffff168473ffffffffffffffffffffffffffffffffffffffff161415611924576040517f08c379a000000000000000000000000000000000000000000000000000000000815260040161191b90613310565b60405180910390fd5b600061192e610f5f565b9050600061193b85611fc6565b9050600061194885611fc6565b9050611958838989858589611c14565b600080600088815260200190815260200160002060008a73ffffffffffffffffffffffffffffffffffffffff1673ffffffffffffffffffffffffffffffffffffffff168152602001908152602001600020549050858110156119ef576040517f08c379a00000000000000000000000000000000000000000000000000000000081526004016119e6906133a2565b60405180910390fd5b85810360008089815260200190815260200160002060008b73ffffffffffffffffffffffffffffffffffffffff1673ffffffffffffffffffffffffffffffffffffffff168152602001908152602001600020819055508560008089815260200190815260200160002060008a73ffffffffffffffffffffffffffffffffffffffff1673ffffffffffffffffffffffffffffffffffffffff1681526020019081526020016000206000828254611aa491906133c2565b925050819055508773ffffffffffffffffffffffffffffffffffffffff168973ffffffffffffffffffffffffffffffffffffffff168573ffffffffffffffffffffffffffffffffffffffff167fc3d58168c5ae7397731d063d5bbf3d657854427343f4c083240f7aacaa2d0f628a8a604051611b21929190613605565b60405180910390a4611b37848a8a86868a611de6565b611b45848a8a8a8a8a612040565b505050505050505050565b6000600660008481526020019081526020016000208054611b7090612e80565b905014611bb2576040517f08c379a0000000000000000000000000000000000000000000000000000000008152600401611ba99061370c565b60405180910390fd5b80600660008481526020019081526020016000209080519060200190611bd9929190612243565b505050565b8060056000848152602001908152602001600020819055505050565b60086000815480929190611c0d90613034565b9190505550565b611c22868686868686612218565b600073ffffffffffffffffffffffffffffffffffffffff168573ffffffffffffffffffffffffffffffffffffffff161415611cd45760005b8351811015611cd257828181518110611c7657611c75612fd6565b5b602002602001015160036000868481518110611c9557611c94612fd6565b5b602002602001015181526020019081526020016000206000828254611cba91906133c2565b9250508190555080611ccb90613034565b9050611c5a565b505b600073ffffffffffffffffffffffffffffffffffffffff168473ffffffffffffffffffffffffffffffffffffffff161415611dde5760005b8351811015611ddc576000848281518110611d2a57611d29612fd6565b5b602002602001015190506000848381518110611d4957611d48612fd6565b5b6020026020010151905060006003600084815260200190815260200160002054905081811015611dae576040517f08c379a0000000000000000000000000000000000000000000000000000000008152600401611da59061379e565b60405180910390fd5b818103600360008581526020019081526020016000208190555050505080611dd590613034565b9050611d0c565b505b505050505050565b505050505050565b611e0d8473ffffffffffffffffffffffffffffffffffffffff16612220565b15611fbe578373ffffffffffffffffffffffffffffffffffffffff1663bc197c8187878686866040518663ffffffff1660e01b8152600401611e53959493929190613813565b6020604051808303816000875af1925050508015611e8f57506040513d601f19601f82011682018060405250810190611e8c9190613890565b60015b611f3557611e9b6138ca565b806308c379a01415611ef85750611eb06138ec565b80611ebb5750611efa565b806040517f08c379a0000000000000000000000000000000000000000000000000000000008152600401611eef9190612579565b60405180910390fd5b505b6040517f08c379a0000000000000000000000000000000000000000000000000000000008152600401611f2c906139f4565b60405180910390fd5b63bc197c8160e01b7bffffffffffffffffffffffffffffffffffffffffffffffffffffffff1916817bffffffffffffffffffffffffffffffffffffffffffffffffffffffff191614611fbc576040517f08c379a0000000000000000000000000000000000000000000000000000000008152600401611fb390613a86565b60405180910390fd5b505b505050505050565b60606000600167ffffffffffffffff811115611fe557611fe46125cd565b5b6040519080825280602002602001820160405280156120135781602001602082028036833780820191505090505b509050828160008151811061202b5761202a612fd6565b5b60200260200101818152505080915050919050565b61205f8473ffffffffffffffffffffffffffffffffffffffff16612220565b15612210578373ffffffffffffffffffffffffffffffffffffffff1663f23a6e6187878686866040518663ffffffff1660e01b81526004016120a5959493929190613aa6565b6020604051808303816000875af19250505080156120e157506040513d601f19601f820116820180604052508101906120de9190613890565b60015b612187576120ed6138ca565b806308c379a0141561214a57506121026138ec565b8061210d575061214c565b806040517f08c379a00000000000000000000000000000000000000000000000000000000081526004016121419190612579565b60405180910390fd5b505b6040517f08c379a000000000000000000000000000000000000000000000000000000000815260040161217e906139f4565b60405180910390fd5b63f23a6e6160e01b7bffffffffffffffffffffffffffffffffffffffffffffffffffffffff1916817bffffffffffffffffffffffffffffffffffffffffffffffffffffffff19161461220e576040517f08c379a000000000000000000000000000000000000000000000000000000000815260040161220590613a86565b60405180910390fd5b505b505050505050565b505050505050565b6000808273ffffffffffffffffffffffffffffffffffffffff163b119050919050565b82805461224f90612e80565b90600052602060002090601f01602090048101928261227157600085556122b8565b82601f1061228a57805160ff19168380011785556122b8565b828001600101855582156122b8579182015b828111156122b757825182559160200191906001019061229c565b5b5090506122c591906122c9565b5090565b5b808211156122e25760008160009055506001016122ca565b5090565b6000604051905090565b600080fd5b600080fd5b600073ffffffffffffffffffffffffffffffffffffffff82169050919050565b6000612325826122fa565b9050919050565b6123358161231a565b811461234057600080fd5b50565b6000813590506123528161232c565b92915050565b6000819050919050565b61236b81612358565b811461237657600080fd5b50565b60008135905061238881612362565b92915050565b600080604083850312156123a5576123a46122f0565b5b60006123b385828601612343565b92505060206123c485828601612379565b9150509250929050565b6123d781612358565b82525050565b60006020820190506123f260008301846123ce565b92915050565b60007fffffffff0000000000000000000000000000000000000000000000000000000082169050919050565b61242d816123f8565b811461243857600080fd5b50565b60008135905061244a81612424565b92915050565b600060208284031215612466576124656122f0565b5b60006124748482850161243b565b91505092915050565b60008115159050919050565b6124928161247d565b82525050565b60006020820190506124ad6000830184612489565b92915050565b6000602082840312156124c9576124c86122f0565b5b60006124d784828501612379565b91505092915050565b600081519050919050565b600082825260208201905092915050565b60005b8381101561251a5780820151818401526020810190506124ff565b83811115612529576000848401525b50505050565b6000601f19601f8301169050919050565b600061254b826124e0565b61255581856124eb565b93506125658185602086016124fc565b61256e8161252f565b840191505092915050565b600060208201905081810360008301526125938184612540565b905092915050565b6000602082840312156125b1576125b06122f0565b5b60006125bf84828501612343565b91505092915050565b600080fd5b7f4e487b7100000000000000000000000000000000000000000000000000000000600052604160045260246000fd5b6126058261252f565b810181811067ffffffffffffffff82111715612624576126236125cd565b5b80604052505050565b60006126376122e6565b905061264382826125fc565b919050565b600067ffffffffffffffff821115612663576126626125cd565b5b602082029050602081019050919050565b600080fd5b600061268c61268784612648565b61262d565b905080838252602082019050602084028301858111156126af576126ae612674565b5b835b818110156126d857806126c48882612379565b8452602084019350506020810190506126b1565b5050509392505050565b600082601f8301126126f7576126f66125c8565b5b8135612707848260208601612679565b91505092915050565b600080fd5b600067ffffffffffffffff8211156127305761272f6125cd565b5b6127398261252f565b9050602081019050919050565b82818337600083830152505050565b600061276861276384612715565b61262d565b90508281526020810184848401111561278457612783612710565b5b61278f848285612746565b509392505050565b600082601f8301126127ac576127ab6125c8565b5b81356127bc848260208601612755565b91505092915050565b600080600080600060a086880312156127e1576127e06122f0565b5b60006127ef88828901612343565b955050602061280088828901612343565b945050604086013567ffffffffffffffff811115612821576128206122f5565b5b61282d888289016126e2565b935050606086013567ffffffffffffffff81111561284e5761284d6122f5565b5b61285a888289016126e2565b925050608086013567ffffffffffffffff81111561287b5761287a6122f5565b5b61288788828901612797565b9150509295509295909350565b600067ffffffffffffffff8211156128af576128ae6125cd565b5b602082029050602081019050919050565b60006128d36128ce84612894565b61262d565b905080838252602082019050602084028301858111156128f6576128f5612674565b5b835b8181101561291f578061290b8882612343565b8452602084019350506020810190506128f8565b5050509392505050565b600082601f83011261293e5761293d6125c8565b5b813561294e8482602086016128c0565b91505092915050565b6000806040838503121561296e5761296d6122f0565b5b600083013567ffffffffffffffff81111561298c5761298b6122f5565b5b61299885828601612929565b925050602083013567ffffffffffffffff8111156129b9576129b86122f5565b5b6129c5858286016126e2565b9150509250929050565b600081519050919050565b600082825260208201905092915050565b6000819050602082019050919050565b612a0481612358565b82525050565b6000612a1683836129fb565b60208301905092915050565b6000602082019050919050565b6000612a3a826129cf565b612a4481856129da565b9350612a4f836129eb565b8060005b83811015612a80578151612a678882612a0a565b9750612a7283612a22565b925050600181019050612a53565b5085935050505092915050565b60006020820190508181036000830152612aa78184612a2f565b905092915050565b612ab88161231a565b82525050565b6000602082019050612ad36000830184612aaf565b92915050565b612ae28161247d565b8114612aed57600080fd5b50565b600081359050612aff81612ad9565b92915050565b60008060408385031215612b1c57612b1b6122f0565b5b6000612b2a85828601612343565b9250506020612b3b85828601612af0565b9150509250929050565b600080600060608486031215612b5e57612b5d6122f0565b5b6000612b6c86828701612379565b9350506020612b7d86828701612343565b9250506040612b8e86828701612379565b9150509250925092565b600080600060608486031215612bb157612bb06122f0565b5b6000612bbf86828701612379565b9350506020612bd086828701612379565b9250506040612be186828701612343565b9150509250925092565b60008060408385031215612c0257612c016122f0565b5b6000612c1085828601612343565b9250506020612c2185828601612343565b9150509250929050565b600080600080600060a08688031215612c4757612c466122f0565b5b6000612c5588828901612343565b9550506020612c6688828901612343565b9450506040612c7788828901612379565b9350506060612c8888828901612379565b925050608086013567ffffffffffffffff811115612ca957612ca86122f5565b5b612cb588828901612797565b9150509295509295909350565b600067ffffffffffffffff821115612cdd57612cdc6125cd565b5b612ce68261252f565b9050602081019050919050565b6000612d06612d0184612cc2565b61262d565b905082815260208101848484011115612d2257612d21612710565b5b612d2d848285612746565b509392505050565b600082601f830112612d4a57612d496125c8565b5b8135612d5a848260208601612cf3565b91505092915050565b60008060408385031215612d7a57612d796122f0565b5b600083013567ffffffffffffffff811115612d9857612d976122f5565b5b612da485828601612d35565b9250506020612db585828601612379565b9150509250929050565b7f455243313135353a2061646472657373207a65726f206973206e6f742061207660008201527f616c6964206f776e657200000000000000000000000000000000000000000000602082015250565b6000612e1b602a836124eb565b9150612e2682612dbf565b604082019050919050565b60006020820190508181036000830152612e4a81612e0e565b9050919050565b7f4e487b7100000000000000000000000000000000000000000000000000000000600052602260045260246000fd5b60006002820490506001821680612e9857607f821691505b60208210811415612eac57612eab612e51565b5b50919050565b7f455243313135353a2063616c6c6572206973206e6f7420746f6b656e206f776e60008201527f6572206e6f7220617070726f7665640000000000000000000000000000000000602082015250565b6000612f0e602f836124eb565b9150612f1982612eb2565b604082019050919050565b60006020820190508181036000830152612f3d81612f01565b9050919050565b7f455243313135353a206163636f756e747320616e6420696473206c656e67746860008201527f206d69736d617463680000000000000000000000000000000000000000000000602082015250565b6000612fa06029836124eb565b9150612fab82612f44565b604082019050919050565b60006020820190508181036000830152612fcf81612f93565b9050919050565b7f4e487b7100000000000000000000000000000000000000000000000000000000600052603260045260246000fd5b7f4e487b7100000000000000000000000000000000000000000000000000000000600052601160045260246000fd5b600061303f82612358565b91507fffffffffffffffffffffffffffffffffffffffffffffffffffffffffffffffff82141561307257613071613005565b5b600182019050919050565b7f4e487b7100000000000000000000000000000000000000000000000000000000600052601260045260246000fd5b60006130b782612358565b91506130c283612358565b9250826130d2576130d161307d565b5b828206905092915050565b60006130e882612358565b91506130f383612358565b9250826131035761310261307d565b5b828204905092915050565b7f4f776e61626c653a206e6577206f776e657220697320746865207a65726f206160008201527f6464726573730000000000000000000000000000000000000000000000000000602082015250565b600061316a6026836124eb565b91506131758261310e565b604082019050919050565b600060208201905081810360008301526131998161315d565b9050919050565b7f4f776e61626c653a2063616c6c6572206973206e6f7420746865206f776e6572600082015250565b60006131d66020836124eb565b91506131e1826131a0565b602082019050919050565b60006020820190508181036000830152613205816131c9565b9050919050565b7f455243313135353a2069647320616e6420616d6f756e7473206c656e6774682060008201527f6d69736d61746368000000000000000000000000000000000000000000000000602082015250565b60006132686028836124eb565b91506132738261320c565b604082019050919050565b600060208201905081810360008301526132978161325b565b9050919050565b7f455243313135353a207472616e7366657220746f20746865207a65726f20616460008201527f6472657373000000000000000000000000000000000000000000000000000000602082015250565b60006132fa6025836124eb565b91506133058261329e565b604082019050919050565b60006020820190508181036000830152613329816132ed565b9050919050565b7f455243313135353a20696e73756666696369656e742062616c616e636520666f60008201527f72207472616e7366657200000000000000000000000000000000000000000000602082015250565b600061338c602a836124eb565b915061339782613330565b604082019050919050565b600060208201905081810360008301526133bb8161337f565b9050919050565b60006133cd82612358565b91506133d883612358565b9250827fffffffffffffffffffffffffffffffffffffffffffffffffffffffffffffffff0382111561340d5761340c613005565b5b828201905092915050565b600060408201905081810360008301526134328185612a2f565b905081810360208301526134468184612a2f565b90509392505050565b7f455243313135353a2073657474696e6720617070726f76616c2073746174757360008201527f20666f722073656c660000000000000000000000000000000000000000000000602082015250565b60006134ab6029836124eb565b91506134b68261344f565b604082019050919050565b600060208201905081810360008301526134da8161349e565b9050919050565b7f455243313135353a206275726e2066726f6d20746865207a65726f206164647260008201527f6573730000000000000000000000000000000000000000000000000000000000602082015250565b600061353d6023836124eb565b9150613548826134e1565b604082019050919050565b6000602082019050818103600083015261356c81613530565b9050919050565b7f455243313135353a206275726e20616d6f756e7420657863656564732062616c60008201527f616e636500000000000000000000000000000000000000000000000000000000602082015250565b60006135cf6024836124eb565b91506135da82613573565b604082019050919050565b600060208201905081810360008301526135fe816135c2565b9050919050565b600060408201905061361a60008301856123ce565b61362760208301846123ce565b9392505050565b7f455243313135353a206d696e7420746f20746865207a65726f2061646472657360008201527f7300000000000000000000000000000000000000000000000000000000000000602082015250565b600061368a6021836124eb565b91506136958261362e565b604082019050919050565b600060208201905081810360008301526136b98161367d565b9050919050565b7f75726920697320616c7265616479207361766564000000000000000000000000600082015250565b60006136f66014836124eb565b9150613701826136c0565b602082019050919050565b60006020820190508181036000830152613725816136e9565b9050919050565b7f455243313135353a206275726e20616d6f756e74206578636565647320746f7460008201527f616c537570706c79000000000000000000000000000000000000000000000000602082015250565b60006137886028836124eb565b91506137938261372c565b604082019050919050565b600060208201905081810360008301526137b78161377b565b9050919050565b600081519050919050565b600082825260208201905092915050565b60006137e5826137be565b6137ef81856137c9565b93506137ff8185602086016124fc565b6138088161252f565b840191505092915050565b600060a0820190506138286000830188612aaf565b6138356020830187612aaf565b81810360408301526138478186612a2f565b9050818103606083015261385b8185612a2f565b9050818103608083015261386f81846137da565b90509695505050505050565b60008151905061388a81612424565b92915050565b6000602082840312156138a6576138a56122f0565b5b60006138b48482850161387b565b91505092915050565b60008160e01c9050919050565b600060033d11156138e95760046000803e6138e66000516138bd565b90505b90565b600060443d10156138fc5761397f565b6139046122e6565b60043d036004823e80513d602482011167ffffffffffffffff8211171561392c57505061397f565b808201805167ffffffffffffffff81111561394a575050505061397f565b80602083010160043d03850181111561396757505050505061397f565b613976826020018501866125fc565b82955050505050505b90565b7f455243313135353a207472616e7366657220746f206e6f6e204552433131353560008201527f526563656976657220696d706c656d656e746572000000000000000000000000602082015250565b60006139de6034836124eb565b91506139e982613982565b604082019050919050565b60006020820190508181036000830152613a0d816139d1565b9050919050565b7f455243313135353a204552433131353552656365697665722072656a6563746560008201527f6420746f6b656e73000000000000000000000000000000000000000000000000602082015250565b6000613a706028836124eb565b9150613a7b82613a14565b604082019050919050565b60006020820190508181036000830152613a9f81613a63565b9050919050565b600060a082019050613abb6000830188612aaf565b613ac86020830187612aaf565b613ad560408301866123ce565b613ae260608301856123ce565b8181036080830152613af481846137da565b9050969550505050505056fea264697066735822122069ed6d7d4c8777d5a81ad5a030e7ffd7da434efa076ce5538c1f8bfa192e724064736f6c634300080b0033",
  "devdoc": {
    "kind": "dev",
    "methods": {
      "balanceOf(address,uint256)": {
        "details": "See {IERC1155-balanceOf}. Requirements: - `account` cannot be the zero address."
      },
      "balanceOfBatch(address[],uint256[])": {
        "details": "See {IERC1155-balanceOfBatch}. Requirements: - `accounts` and `ids` must have the same length."
      },
      "createLoan(uint256,uint256,address)": {
        "params": {
          "principal": "the total value of tokens user want to mint",
          "tokenId": "id of the project"
        }
      },
      "exists(uint256)": {
        "details": "Indicates whether any token exist with a given id, or not."
      },
      "isApprovedForAll(address,address)": {
        "details": "See {IERC1155-isApprovedForAll}."
      },
      "owner()": {
        "details": "Returns the address of the current owner."
      },
      "renounceOwnership()": {
        "details": "Leaves the contract without owner. It will not be possible to call `onlyOwner` functions anymore. Can only be called by the current owner. NOTE: Renouncing ownership will leave the contract without an owner, thereby removing any functionality that is only available to the owner."
      },
      "safeBatchTransferFrom(address,address,uint256[],uint256[],bytes)": {
        "details": "See {IERC1155-safeBatchTransferFrom}."
      },
      "safeTransferFrom(address,address,uint256,uint256,bytes)": {
        "details": "See {IERC1155-safeTransferFrom}."
      },
      "setApprovalForAll(address,bool)": {
        "details": "See {IERC1155-setApprovalForAll}."
      },
      "supportsInterface(bytes4)": {
        "details": "See {IERC165-supportsInterface}."
      },
      "totalSupply(uint256)": {
        "details": "Total amount of tokens in with a given id."
      },
      "transferOwnership(address)": {
        "details": "Transfers ownership of the contract to a new account (`newOwner`). Can only be called by the current owner."
      }
    },
    "version": 1
  },
  "userdoc": {
    "kind": "user",
    "methods": {
      "createLoan(uint256,uint256,address)": {
        "notice": "Mint tokens corresponding amount to unit value"
      }
    },
    "version": 1
  },
  "storageLayout": {
    "storage": [
      {
        "astId": 138,
        "contract": "contracts/NftBond.sol:NftBond",
        "label": "_balances",
        "offset": 0,
        "slot": "0",
        "type": "t_mapping(t_uint256,t_mapping(t_address,t_uint256))"
      },
      {
        "astId": 144,
        "contract": "contracts/NftBond.sol:NftBond",
        "label": "_operatorApprovals",
        "offset": 0,
        "slot": "1",
        "type": "t_mapping(t_address,t_mapping(t_address,t_bool))"
      },
      {
        "astId": 146,
        "contract": "contracts/NftBond.sol:NftBond",
        "label": "_uri",
        "offset": 0,
        "slot": "2",
        "type": "t_string_storage"
      },
      {
        "astId": 1508,
        "contract": "contracts/NftBond.sol:NftBond",
        "label": "_totalSupply",
        "offset": 0,
        "slot": "3",
        "type": "t_mapping(t_uint256,t_uint256)"
      },
      {
        "astId": 7,
        "contract": "contracts/NftBond.sol:NftBond",
        "label": "_owner",
        "offset": 0,
        "slot": "4",
        "type": "t_address"
      },
      {
        "astId": 3097,
        "contract": "contracts/NftBond.sol:NftBond",
        "label": "_unit",
        "offset": 0,
        "slot": "5",
        "type": "t_mapping(t_uint256,t_uint256)"
      },
      {
        "astId": 3101,
        "contract": "contracts/NftBond.sol:NftBond",
        "label": "_uri",
        "offset": 0,
        "slot": "6",
        "type": "t_mapping(t_uint256,t_string_storage)"
      },
      {
        "astId": 3103,
        "contract": "contracts/NftBond.sol:NftBond",
        "label": "controller",
        "offset": 0,
        "slot": "7",
        "type": "t_address"
      },
      {
        "astId": 3105,
        "contract": "contracts/NftBond.sol:NftBond",
        "label": "tokenIdCounter",
        "offset": 0,
        "slot": "8",
        "type": "t_uint256"
      }
    ],
    "types": {
      "t_address": {
        "encoding": "inplace",
        "label": "address",
        "numberOfBytes": "20"
      },
      "t_bool": {
        "encoding": "inplace",
        "label": "bool",
        "numberOfBytes": "1"
      },
      "t_mapping(t_address,t_bool)": {
        "encoding": "mapping",
        "key": "t_address",
        "label": "mapping(address => bool)",
        "numberOfBytes": "32",
        "value": "t_bool"
      },
      "t_mapping(t_address,t_mapping(t_address,t_bool))": {
        "encoding": "mapping",
        "key": "t_address",
        "label": "mapping(address => mapping(address => bool))",
        "numberOfBytes": "32",
        "value": "t_mapping(t_address,t_bool)"
      },
      "t_mapping(t_address,t_uint256)": {
        "encoding": "mapping",
        "key": "t_address",
        "label": "mapping(address => uint256)",
        "numberOfBytes": "32",
        "value": "t_uint256"
      },
      "t_mapping(t_uint256,t_mapping(t_address,t_uint256))": {
        "encoding": "mapping",
        "key": "t_uint256",
        "label": "mapping(uint256 => mapping(address => uint256))",
        "numberOfBytes": "32",
        "value": "t_mapping(t_address,t_uint256)"
      },
      "t_mapping(t_uint256,t_string_storage)": {
        "encoding": "mapping",
        "key": "t_uint256",
        "label": "mapping(uint256 => string)",
        "numberOfBytes": "32",
        "value": "t_string_storage"
      },
      "t_mapping(t_uint256,t_uint256)": {
        "encoding": "mapping",
        "key": "t_uint256",
        "label": "mapping(uint256 => uint256)",
        "numberOfBytes": "32",
        "value": "t_uint256"
      },
      "t_string_storage": {
        "encoding": "bytes",
        "label": "string",
        "numberOfBytes": "32"
      },
      "t_uint256": {
        "encoding": "inplace",
        "label": "uint256",
        "numberOfBytes": "32"
      }
    }
  }
}