{
  "address": "0x2120602E1cb8b9F52d14b7950Eb8CE91323cE450",
  "abi": [
    {
      "inputs": [],
      "stateMutability": "nonpayable",
      "type": "constructor"
    },
    {
      "inputs": [],
      "name": "AlreadyInitialized",
      "type": "error"
    },
    {
      "inputs": [],
      "name": "NotDivisibleByUnit",
      "type": "error"
    },
    {
      "inputs": [],
      "name": "OnlyController",
      "type": "error"
    },
    {
      "anonymous": false,
      "inputs": [
        {
          "indexed": true,
          "internalType": "address",
          "name": "account",
          "type": "address"
        },
        {
          "indexed": true,
          "internalType": "address",
          "name": "operator",
          "type": "address"
        },
        {
          "indexed": false,
          "internalType": "bool",
          "name": "approved",
          "type": "bool"
        }
      ],
      "name": "ApprovalForAll",
      "type": "event"
    },
    {
      "anonymous": false,
      "inputs": [],
      "name": "CreateLoan",
      "type": "event"
    },
    {
      "anonymous": false,
      "inputs": [],
      "name": "InitProject",
      "type": "event"
    },
    {
      "anonymous": false,
      "inputs": [
        {
          "indexed": true,
          "internalType": "address",
          "name": "previousOwner",
          "type": "address"
        },
        {
          "indexed": true,
          "internalType": "address",
          "name": "newOwner",
          "type": "address"
        }
      ],
      "name": "OwnershipTransferred",
      "type": "event"
    },
    {
      "anonymous": false,
      "inputs": [],
      "name": "Redeem",
      "type": "event"
    },
    {
      "anonymous": false,
      "inputs": [
        {
          "indexed": true,
          "internalType": "address",
          "name": "operator",
          "type": "address"
        },
        {
          "indexed": true,
          "internalType": "address",
          "name": "from",
          "type": "address"
        },
        {
          "indexed": true,
          "internalType": "address",
          "name": "to",
          "type": "address"
        },
        {
          "indexed": false,
          "internalType": "uint256[]",
          "name": "ids",
          "type": "uint256[]"
        },
        {
          "indexed": false,
          "internalType": "uint256[]",
          "name": "values",
          "type": "uint256[]"
        }
      ],
      "name": "TransferBatch",
      "type": "event"
    },
    {
      "anonymous": false,
      "inputs": [
        {
          "indexed": true,
          "internalType": "address",
          "name": "operator",
          "type": "address"
        },
        {
          "indexed": true,
          "internalType": "address",
          "name": "from",
          "type": "address"
        },
        {
          "indexed": true,
          "internalType": "address",
          "name": "to",
          "type": "address"
        },
        {
          "indexed": false,
          "internalType": "uint256",
          "name": "id",
          "type": "uint256"
        },
        {
          "indexed": false,
          "internalType": "uint256",
          "name": "value",
          "type": "uint256"
        }
      ],
      "name": "TransferSingle",
      "type": "event"
    },
    {
      "anonymous": false,
      "inputs": [
        {
          "indexed": false,
          "internalType": "string",
          "name": "value",
          "type": "string"
        },
        {
          "indexed": true,
          "internalType": "uint256",
          "name": "id",
          "type": "uint256"
        }
      ],
      "name": "URI",
      "type": "event"
    },
    {
      "inputs": [
        {
          "internalType": "address",
          "name": "account",
          "type": "address"
        },
        {
          "internalType": "uint256",
          "name": "id",
          "type": "uint256"
        }
      ],
      "name": "balanceOf",
      "outputs": [
        {
          "internalType": "uint256",
          "name": "",
          "type": "uint256"
        }
      ],
      "stateMutability": "view",
      "type": "function"
    },
    {
      "inputs": [
        {
          "internalType": "address[]",
          "name": "accounts",
          "type": "address[]"
        },
        {
          "internalType": "uint256[]",
          "name": "ids",
          "type": "uint256[]"
        }
      ],
      "name": "balanceOfBatch",
      "outputs": [
        {
          "internalType": "uint256[]",
          "name": "",
          "type": "uint256[]"
        }
      ],
      "stateMutability": "view",
      "type": "function"
    },
    {
      "inputs": [],
      "name": "controller",
      "outputs": [
        {
          "internalType": "address",
          "name": "",
          "type": "address"
        }
      ],
      "stateMutability": "view",
      "type": "function"
    },
    {
      "inputs": [
        {
          "internalType": "uint256",
          "name": "tokenId",
          "type": "uint256"
        },
        {
          "internalType": "uint256",
          "name": "principal",
          "type": "uint256"
        },
        {
          "internalType": "address",
          "name": "account",
          "type": "address"
        }
      ],
      "name": "createLoan",
      "outputs": [],
      "stateMutability": "nonpayable",
      "type": "function"
    },
    {
      "inputs": [
        {
          "internalType": "address",
          "name": "controller_",
          "type": "address"
        }
      ],
      "name": "init",
      "outputs": [],
      "stateMutability": "nonpayable",
      "type": "function"
    },
    {
      "inputs": [
        {
          "internalType": "string",
          "name": "uri_",
          "type": "string"
        },
        {
          "internalType": "uint256",
          "name": "unit_",
          "type": "uint256"
        }
      ],
      "name": "initProject",
      "outputs": [],
      "stateMutability": "nonpayable",
      "type": "function"
    },
    {
      "inputs": [
        {
          "internalType": "address",
          "name": "account",
          "type": "address"
        },
        {
          "internalType": "address",
          "name": "operator",
          "type": "address"
        }
      ],
      "name": "isApprovedForAll",
      "outputs": [
        {
          "internalType": "bool",
          "name": "",
          "type": "bool"
        }
      ],
      "stateMutability": "view",
      "type": "function"
    },
    {
      "inputs": [],
      "name": "owner",
      "outputs": [
        {
          "internalType": "address",
          "name": "",
          "type": "address"
        }
      ],
      "stateMutability": "view",
      "type": "function"
    },
    {
      "inputs": [
        {
          "internalType": "uint256",
          "name": "tokenId",
          "type": "uint256"
        },
        {
          "internalType": "address",
          "name": "account",
          "type": "address"
        },
        {
          "internalType": "uint256",
          "name": "tokenBalance",
          "type": "uint256"
        }
      ],
      "name": "redeem",
      "outputs": [],
      "stateMutability": "nonpayable",
      "type": "function"
    },
    {
      "inputs": [],
      "name": "renounceOwnership",
      "outputs": [],
      "stateMutability": "nonpayable",
      "type": "function"
    },
    {
      "inputs": [
        {
          "internalType": "address",
          "name": "from",
          "type": "address"
        },
        {
          "internalType": "address",
          "name": "to",
          "type": "address"
        },
        {
          "internalType": "uint256[]",
          "name": "ids",
          "type": "uint256[]"
        },
        {
          "internalType": "uint256[]",
          "name": "amounts",
          "type": "uint256[]"
        },
        {
          "internalType": "bytes",
          "name": "data",
          "type": "bytes"
        }
      ],
      "name": "safeBatchTransferFrom",
      "outputs": [],
      "stateMutability": "nonpayable",
      "type": "function"
    },
    {
      "inputs": [
        {
          "internalType": "address",
          "name": "from",
          "type": "address"
        },
        {
          "internalType": "address",
          "name": "to",
          "type": "address"
        },
        {
          "internalType": "uint256",
          "name": "id",
          "type": "uint256"
        },
        {
          "internalType": "uint256",
          "name": "amount",
          "type": "uint256"
        },
        {
          "internalType": "bytes",
          "name": "data",
          "type": "bytes"
        }
      ],
      "name": "safeTransferFrom",
      "outputs": [],
      "stateMutability": "nonpayable",
      "type": "function"
    },
    {
      "inputs": [
        {
          "internalType": "address",
          "name": "operator",
          "type": "address"
        },
        {
          "internalType": "bool",
          "name": "approved",
          "type": "bool"
        }
      ],
      "name": "setApprovalForAll",
      "outputs": [],
      "stateMutability": "nonpayable",
      "type": "function"
    },
    {
      "inputs": [
        {
          "internalType": "bytes4",
          "name": "interfaceId",
          "type": "bytes4"
        }
      ],
      "name": "supportsInterface",
      "outputs": [
        {
          "internalType": "bool",
          "name": "",
          "type": "bool"
        }
      ],
      "stateMutability": "view",
      "type": "function"
    },
    {
      "inputs": [],
      "name": "tokenIdCounter",
      "outputs": [
        {
          "internalType": "uint256",
          "name": "",
          "type": "uint256"
        }
      ],
      "stateMutability": "view",
      "type": "function"
    },
    {
      "inputs": [
        {
          "internalType": "address",
          "name": "newOwner",
          "type": "address"
        }
      ],
      "name": "transferOwnership",
      "outputs": [],
      "stateMutability": "nonpayable",
      "type": "function"
    },
    {
      "inputs": [
        {
          "internalType": "uint256",
          "name": "tokenId",
          "type": "uint256"
        }
      ],
      "name": "unit",
      "outputs": [
        {
          "internalType": "uint256",
          "name": "",
          "type": "uint256"
        }
      ],
      "stateMutability": "view",
      "type": "function"
    },
    {
      "inputs": [
        {
          "internalType": "uint256",
          "name": "tokenId",
          "type": "uint256"
        }
      ],
      "name": "uri",
      "outputs": [
        {
          "internalType": "string",
          "name": "",
          "type": "string"
        }
      ],
      "stateMutability": "view",
      "type": "function"
    }
  ],
  "transactionHash": "0x02e25428c0520edd77bcc2dbf27196286509540694e640dace57a0239f1e020f",
  "args": [],
  "numDeployments": 1,
  "solcInputHash": "5f4cd91d53c90f299ac3a8a87446fa59",
  "bytecode": "0x60806040523480156200001157600080fd5b506040518060200160405280600081525062000033816200005a60201b60201c565b5062000054620000486200007660201b60201c565b6200007e60201b60201c565b62000259565b80600290805190602001906200007292919062000144565b5050565b600033905090565b6000600360009054906101000a900473ffffffffffffffffffffffffffffffffffffffff16905081600360006101000a81548173ffffffffffffffffffffffffffffffffffffffff021916908373ffffffffffffffffffffffffffffffffffffffff1602179055508173ffffffffffffffffffffffffffffffffffffffff168173ffffffffffffffffffffffffffffffffffffffff167f8be0079c531659141344cd1fd0a4f28419497f9722a3daafe3b4186f6b6457e060405160405180910390a35050565b828054620001529062000223565b90600052602060002090601f016020900481019282620001765760008555620001c2565b82601f106200019157805160ff1916838001178555620001c2565b82800160010185558215620001c2579182015b82811115620001c1578251825591602001919060010190620001a4565b5b509050620001d19190620001d5565b5090565b5b80821115620001f0576000816000905550600101620001d6565b5090565b7f4e487b7100000000000000000000000000000000000000000000000000000000600052602260045260246000fd5b600060028204905060018216806200023c57607f821691505b60208210811415620002535762000252620001f4565b5b50919050565b6137fd80620002696000396000f3fe608060405234801561001057600080fd5b50600436106101155760003560e01c8063a22cb465116100a2578063e985e9c511610071578063e985e9c5146102dc578063f242432a1461030c578063f2fde38b14610328578063f6c5feb914610344578063f77c47911461036057610115565b8063a22cb46514610258578063d878016114610274578063dc4cab0c14610290578063e00508ba146102ac57610115565b80632eb2c2d6116100e95780632eb2c2d6146101c65780634e1273f4146101e2578063715018a6146102125780638da5cb5b1461021c57806398bdf6f51461023a57610115565b8062fdd58e1461011a57806301ffc9a71461014a5780630e89341c1461017a57806319ab453c146101aa575b600080fd5b610134600480360381019061012f91906120e7565b61037e565b6040516101419190612136565b60405180910390f35b610164600480360381019061015f91906121a9565b610447565b60405161017191906121f1565b60405180910390f35b610194600480360381019061018f919061220c565b610529565b6040516101a191906122d2565b60405180910390f35b6101c460048036038101906101bf91906122f4565b6105ce565b005b6101e060048036038101906101db919061251e565b6106a2565b005b6101fc60048036038101906101f791906126b0565b610743565b60405161020991906127e6565b60405180910390f35b61021a61085c565b005b610224610870565b6040516102319190612817565b60405180910390f35b61024261089a565b60405161024f9190612136565b60405180910390f35b610272600480360381019061026d919061285e565b6108a0565b005b61028e6004803603810190610289919061289e565b6108b6565b005b6102aa60048036038101906102a591906128f1565b61098f565b005b6102c660048036038101906102c1919061220c565b610acb565b6040516102d39190612136565b60405180910390f35b6102f660048036038101906102f19190612944565b610ae8565b60405161030391906121f1565b60405180910390f35b61032660048036038101906103219190612984565b610b7c565b005b610342600480360381019061033d91906122f4565b610c1d565b005b61035e60048036038101906103599190612abc565b610ca1565b005b610368610d7c565b6040516103759190612817565b60405180910390f35b60008073ffffffffffffffffffffffffffffffffffffffff168373ffffffffffffffffffffffffffffffffffffffff1614156103ef576040517f08c379a00000000000000000000000000000000000000000000000000000000081526004016103e690612b8a565b60405180910390fd5b60008083815260200190815260200160002060008473ffffffffffffffffffffffffffffffffffffffff1673ffffffffffffffffffffffffffffffffffffffff16815260200190815260200160002054905092915050565b60007fd9b67a26000000000000000000000000000000000000000000000000000000007bffffffffffffffffffffffffffffffffffffffffffffffffffffffff1916827bffffffffffffffffffffffffffffffffffffffffffffffffffffffff1916148061051257507f0e89341c000000000000000000000000000000000000000000000000000000007bffffffffffffffffffffffffffffffffffffffffffffffffffffffff1916827bffffffffffffffffffffffffffffffffffffffffffffffffffffffff1916145b80610522575061052182610da2565b5b9050919050565b606060056000838152602001908152602001600020805461054990612bd9565b80601f016020809104026020016040519081016040528092919081815260200182805461057590612bd9565b80156105c25780601f10610597576101008083540402835291602001916105c2565b820191906000526020600020905b8154815290600101906020018083116105a557829003601f168201915b50505050509050919050565b6105d6610e0c565b600073ffffffffffffffffffffffffffffffffffffffff16600660009054906101000a900473ffffffffffffffffffffffffffffffffffffffff1673ffffffffffffffffffffffffffffffffffffffff161461065e576040517f0dc149f000000000000000000000000000000000000000000000000000000000815260040160405180910390fd5b80600660006101000a81548173ffffffffffffffffffffffffffffffffffffffff021916908373ffffffffffffffffffffffffffffffffffffffff16021790555050565b6106aa610e8a565b73ffffffffffffffffffffffffffffffffffffffff168573ffffffffffffffffffffffffffffffffffffffff1614806106f057506106ef856106ea610e8a565b610ae8565b5b61072f576040517f08c379a000000000000000000000000000000000000000000000000000000000815260040161072690612c7d565b60405180910390fd5b61073c8585858585610e92565b5050505050565b60608151835114610789576040517f08c379a000000000000000000000000000000000000000000000000000000000815260040161078090612d0f565b60405180910390fd5b6000835167ffffffffffffffff8111156107a6576107a5612326565b5b6040519080825280602002602001820160405280156107d45781602001602082028036833780820191505090505b50905060005b8451811015610851576108218582815181106107f9576107f8612d2f565b5b602002602001015185838151811061081457610813612d2f565b5b602002602001015161037e565b82828151811061083457610833612d2f565b5b6020026020010181815250508061084a90612d8d565b90506107da565b508091505092915050565b610864610e0c565b61086e60006111b4565b565b6000600360009054906101000a900473ffffffffffffffffffffffffffffffffffffffff16905090565b60075481565b6108b26108ab610e8a565b838361127a565b5050565b600660009054906101000a900473ffffffffffffffffffffffffffffffffffffffff1673ffffffffffffffffffffffffffffffffffffffff163373ffffffffffffffffffffffffffffffffffffffff161461093d576040517f5990781300000000000000000000000000000000000000000000000000000000815260040160405180910390fd5b6000610949838561037e565b1161095357600080fd5b61095e8284836113e7565b7fd95402e764607b7b568a855d3414c03561cb940c03bb4d4ee47ea289e4f96a4260405160405180910390a1505050565b600660009054906101000a900473ffffffffffffffffffffffffffffffffffffffff1673ffffffffffffffffffffffffffffffffffffffff163373ffffffffffffffffffffffffffffffffffffffff1614610a16576040517f5990781300000000000000000000000000000000000000000000000000000000815260040160405180910390fd5b60006004600085815260200190815260200160002054905060008184610a3c9190612e05565b14610a73576040517f93cab43c00000000000000000000000000000000000000000000000000000000815260040160405180910390fd5b610a9982858386610a849190612e36565b6040518060200160405280600081525061162e565b7f62a9ab86df23d7a1dccd942d1acf71c3eb19d64ca8a27547f8461d31d04fbfd560405160405180910390a150505050565b600060046000838152602001908152602001600020549050919050565b6000600160008473ffffffffffffffffffffffffffffffffffffffff1673ffffffffffffffffffffffffffffffffffffffff16815260200190815260200160002060008373ffffffffffffffffffffffffffffffffffffffff1673ffffffffffffffffffffffffffffffffffffffff16815260200190815260200160002060009054906101000a900460ff16905092915050565b610b84610e8a565b73ffffffffffffffffffffffffffffffffffffffff168573ffffffffffffffffffffffffffffffffffffffff161480610bca5750610bc985610bc4610e8a565b610ae8565b5b610c09576040517f08c379a0000000000000000000000000000000000000000000000000000000008152600401610c0090612c7d565b60405180910390fd5b610c1685858585856117df565b5050505050565b610c25610e0c565b600073ffffffffffffffffffffffffffffffffffffffff168173ffffffffffffffffffffffffffffffffffffffff161415610c95576040517f08c379a0000000000000000000000000000000000000000000000000000000008152600401610c8c90612ed9565b60405180910390fd5b610c9e816111b4565b50565b600660009054906101000a900473ffffffffffffffffffffffffffffffffffffffff1673ffffffffffffffffffffffffffffffffffffffff163373ffffffffffffffffffffffffffffffffffffffff1614610d28576040517f5990781300000000000000000000000000000000000000000000000000000000815260040160405180910390fd5b60006007549050610d398184611a7b565b610d438183611b09565b610d4b611b25565b7f1c68ba08a7b350767825e7c166060d2a96d5d7f4bddf1e66eba0281061cb256c60405160405180910390a1505050565b600660009054906101000a900473ffffffffffffffffffffffffffffffffffffffff1681565b60007f01ffc9a7000000000000000000000000000000000000000000000000000000007bffffffffffffffffffffffffffffffffffffffffffffffffffffffff1916827bffffffffffffffffffffffffffffffffffffffffffffffffffffffff1916149050919050565b610e14610e8a565b73ffffffffffffffffffffffffffffffffffffffff16610e32610870565b73ffffffffffffffffffffffffffffffffffffffff1614610e88576040517f08c379a0000000000000000000000000000000000000000000000000000000008152600401610e7f90612f45565b60405180910390fd5b565b600033905090565b8151835114610ed6576040517f08c379a0000000000000000000000000000000000000000000000000000000008152600401610ecd90612fd7565b60405180910390fd5b600073ffffffffffffffffffffffffffffffffffffffff168473ffffffffffffffffffffffffffffffffffffffff161415610f46576040517f08c379a0000000000000000000000000000000000000000000000000000000008152600401610f3d90613069565b60405180910390fd5b6000610f50610e8a565b9050610f60818787878787611b3f565b60005b8451811015611111576000858281518110610f8157610f80612d2f565b5b602002602001015190506000858381518110610fa057610f9f612d2f565b5b60200260200101519050600080600084815260200190815260200160002060008b73ffffffffffffffffffffffffffffffffffffffff1673ffffffffffffffffffffffffffffffffffffffff16815260200190815260200160002054905081811015611041576040517f08c379a0000000000000000000000000000000000000000000000000000000008152600401611038906130fb565b60405180910390fd5b81810360008085815260200190815260200160002060008c73ffffffffffffffffffffffffffffffffffffffff1673ffffffffffffffffffffffffffffffffffffffff168152602001908152602001600020819055508160008085815260200190815260200160002060008b73ffffffffffffffffffffffffffffffffffffffff1673ffffffffffffffffffffffffffffffffffffffff16815260200190815260200160002060008282546110f6919061311b565b925050819055505050508061110a90612d8d565b9050610f63565b508473ffffffffffffffffffffffffffffffffffffffff168673ffffffffffffffffffffffffffffffffffffffff168273ffffffffffffffffffffffffffffffffffffffff167f4a39dc06d4c0dbc64b70af90fd698a233a518aa5d07e595d983b8c0526c8f7fb8787604051611188929190613171565b60405180910390a461119e818787878787611b47565b6111ac818787878787611b4f565b505050505050565b6000600360009054906101000a900473ffffffffffffffffffffffffffffffffffffffff16905081600360006101000a81548173ffffffffffffffffffffffffffffffffffffffff021916908373ffffffffffffffffffffffffffffffffffffffff1602179055508173ffffffffffffffffffffffffffffffffffffffff168173ffffffffffffffffffffffffffffffffffffffff167f8be0079c531659141344cd1fd0a4f28419497f9722a3daafe3b4186f6b6457e060405160405180910390a35050565b8173ffffffffffffffffffffffffffffffffffffffff168373ffffffffffffffffffffffffffffffffffffffff1614156112e9576040517f08c379a00000000000000000000000000000000000000000000000000000000081526004016112e09061321a565b60405180910390fd5b80600160008573ffffffffffffffffffffffffffffffffffffffff1673ffffffffffffffffffffffffffffffffffffffff16815260200190815260200160002060008473ffffffffffffffffffffffffffffffffffffffff1673ffffffffffffffffffffffffffffffffffffffff16815260200190815260200160002060006101000a81548160ff0219169083151502179055508173ffffffffffffffffffffffffffffffffffffffff168373ffffffffffffffffffffffffffffffffffffffff167f17307eab39ab6107e8899845ad3d59bd9653f200f220920489ca2b5937696c31836040516113da91906121f1565b60405180910390a3505050565b600073ffffffffffffffffffffffffffffffffffffffff168373ffffffffffffffffffffffffffffffffffffffff161415611457576040517f08c379a000000000000000000000000000000000000000000000000000000000815260040161144e906132ac565b60405180910390fd5b6000611461610e8a565b9050600061146e84611d27565b9050600061147b84611d27565b905061149b83876000858560405180602001604052806000815250611b3f565b600080600087815260200190815260200160002060008873ffffffffffffffffffffffffffffffffffffffff1673ffffffffffffffffffffffffffffffffffffffff16815260200190815260200160002054905084811015611532576040517f08c379a00000000000000000000000000000000000000000000000000000000081526004016115299061333e565b60405180910390fd5b84810360008088815260200190815260200160002060008973ffffffffffffffffffffffffffffffffffffffff1673ffffffffffffffffffffffffffffffffffffffff16815260200190815260200160002081905550600073ffffffffffffffffffffffffffffffffffffffff168773ffffffffffffffffffffffffffffffffffffffff168573ffffffffffffffffffffffffffffffffffffffff167fc3d58168c5ae7397731d063d5bbf3d657854427343f4c083240f7aacaa2d0f6289896040516115ff92919061335e565b60405180910390a461162584886000868660405180602001604052806000815250611b47565b50505050505050565b600073ffffffffffffffffffffffffffffffffffffffff168473ffffffffffffffffffffffffffffffffffffffff16141561169e576040517f08c379a0000000000000000000000000000000000000000000000000000000008152600401611695906133f9565b60405180910390fd5b60006116a8610e8a565b905060006116b585611d27565b905060006116c285611d27565b90506116d383600089858589611b3f565b8460008088815260200190815260200160002060008973ffffffffffffffffffffffffffffffffffffffff1673ffffffffffffffffffffffffffffffffffffffff1681526020019081526020016000206000828254611732919061311b565b925050819055508673ffffffffffffffffffffffffffffffffffffffff16600073ffffffffffffffffffffffffffffffffffffffff168473ffffffffffffffffffffffffffffffffffffffff167fc3d58168c5ae7397731d063d5bbf3d657854427343f4c083240f7aacaa2d0f6289896040516117b092919061335e565b60405180910390a46117c783600089858589611b47565b6117d683600089898989611da1565b50505050505050565b600073ffffffffffffffffffffffffffffffffffffffff168473ffffffffffffffffffffffffffffffffffffffff16141561184f576040517f08c379a000000000000000000000000000000000000000000000000000000000815260040161184690613069565b60405180910390fd5b6000611859610e8a565b9050600061186685611d27565b9050600061187385611d27565b9050611883838989858589611b3f565b600080600088815260200190815260200160002060008a73ffffffffffffffffffffffffffffffffffffffff1673ffffffffffffffffffffffffffffffffffffffff1681526020019081526020016000205490508581101561191a576040517f08c379a0000000000000000000000000000000000000000000000000000000008152600401611911906130fb565b60405180910390fd5b85810360008089815260200190815260200160002060008b73ffffffffffffffffffffffffffffffffffffffff1673ffffffffffffffffffffffffffffffffffffffff168152602001908152602001600020819055508560008089815260200190815260200160002060008a73ffffffffffffffffffffffffffffffffffffffff1673ffffffffffffffffffffffffffffffffffffffff16815260200190815260200160002060008282546119cf919061311b565b925050819055508773ffffffffffffffffffffffffffffffffffffffff168973ffffffffffffffffffffffffffffffffffffffff168573ffffffffffffffffffffffffffffffffffffffff167fc3d58168c5ae7397731d063d5bbf3d657854427343f4c083240f7aacaa2d0f628a8a604051611a4c92919061335e565b60405180910390a4611a62848a8a86868a611b47565b611a70848a8a8a8a8a611da1565b505050505050505050565b6000600560008481526020019081526020016000208054611a9b90612bd9565b905014611add576040517f08c379a0000000000000000000000000000000000000000000000000000000008152600401611ad490613465565b60405180910390fd5b80600560008481526020019081526020016000209080519060200190611b04929190611f9c565b505050565b8060046000848152602001908152602001600020819055505050565b60076000815480929190611b3890612d8d565b9190505550565b505050505050565b505050505050565b611b6e8473ffffffffffffffffffffffffffffffffffffffff16611f79565b15611d1f578373ffffffffffffffffffffffffffffffffffffffff1663bc197c8187878686866040518663ffffffff1660e01b8152600401611bb49594939291906134da565b6020604051808303816000875af1925050508015611bf057506040513d601f19601f82011682018060405250810190611bed9190613557565b60015b611c9657611bfc613591565b806308c379a01415611c595750611c116135b3565b80611c1c5750611c5b565b806040517f08c379a0000000000000000000000000000000000000000000000000000000008152600401611c5091906122d2565b60405180910390fd5b505b6040517f08c379a0000000000000000000000000000000000000000000000000000000008152600401611c8d906136bb565b60405180910390fd5b63bc197c8160e01b7bffffffffffffffffffffffffffffffffffffffffffffffffffffffff1916817bffffffffffffffffffffffffffffffffffffffffffffffffffffffff191614611d1d576040517f08c379a0000000000000000000000000000000000000000000000000000000008152600401611d149061374d565b60405180910390fd5b505b505050505050565b60606000600167ffffffffffffffff811115611d4657611d45612326565b5b604051908082528060200260200182016040528015611d745781602001602082028036833780820191505090505b5090508281600081518110611d8c57611d8b612d2f565b5b60200260200101818152505080915050919050565b611dc08473ffffffffffffffffffffffffffffffffffffffff16611f79565b15611f71578373ffffffffffffffffffffffffffffffffffffffff1663f23a6e6187878686866040518663ffffffff1660e01b8152600401611e0695949392919061376d565b6020604051808303816000875af1925050508015611e4257506040513d601f19601f82011682018060405250810190611e3f9190613557565b60015b611ee857611e4e613591565b806308c379a01415611eab5750611e636135b3565b80611e6e5750611ead565b806040517f08c379a0000000000000000000000000000000000000000000000000000000008152600401611ea291906122d2565b60405180910390fd5b505b6040517f08c379a0000000000000000000000000000000000000000000000000000000008152600401611edf906136bb565b60405180910390fd5b63f23a6e6160e01b7bffffffffffffffffffffffffffffffffffffffffffffffffffffffff1916817bffffffffffffffffffffffffffffffffffffffffffffffffffffffff191614611f6f576040517f08c379a0000000000000000000000000000000000000000000000000000000008152600401611f669061374d565b60405180910390fd5b505b505050505050565b6000808273ffffffffffffffffffffffffffffffffffffffff163b119050919050565b828054611fa890612bd9565b90600052602060002090601f016020900481019282611fca5760008555612011565b82601f10611fe357805160ff1916838001178555612011565b82800160010185558215612011579182015b82811115612010578251825591602001919060010190611ff5565b5b50905061201e9190612022565b5090565b5b8082111561203b576000816000905550600101612023565b5090565b6000604051905090565b600080fd5b600080fd5b600073ffffffffffffffffffffffffffffffffffffffff82169050919050565b600061207e82612053565b9050919050565b61208e81612073565b811461209957600080fd5b50565b6000813590506120ab81612085565b92915050565b6000819050919050565b6120c4816120b1565b81146120cf57600080fd5b50565b6000813590506120e1816120bb565b92915050565b600080604083850312156120fe576120fd612049565b5b600061210c8582860161209c565b925050602061211d858286016120d2565b9150509250929050565b612130816120b1565b82525050565b600060208201905061214b6000830184612127565b92915050565b60007fffffffff0000000000000000000000000000000000000000000000000000000082169050919050565b61218681612151565b811461219157600080fd5b50565b6000813590506121a38161217d565b92915050565b6000602082840312156121bf576121be612049565b5b60006121cd84828501612194565b91505092915050565b60008115159050919050565b6121eb816121d6565b82525050565b600060208201905061220660008301846121e2565b92915050565b60006020828403121561222257612221612049565b5b6000612230848285016120d2565b91505092915050565b600081519050919050565b600082825260208201905092915050565b60005b83811015612273578082015181840152602081019050612258565b83811115612282576000848401525b50505050565b6000601f19601f8301169050919050565b60006122a482612239565b6122ae8185612244565b93506122be818560208601612255565b6122c781612288565b840191505092915050565b600060208201905081810360008301526122ec8184612299565b905092915050565b60006020828403121561230a57612309612049565b5b60006123188482850161209c565b91505092915050565b600080fd5b7f4e487b7100000000000000000000000000000000000000000000000000000000600052604160045260246000fd5b61235e82612288565b810181811067ffffffffffffffff8211171561237d5761237c612326565b5b80604052505050565b600061239061203f565b905061239c8282612355565b919050565b600067ffffffffffffffff8211156123bc576123bb612326565b5b602082029050602081019050919050565b600080fd5b60006123e56123e0846123a1565b612386565b90508083825260208201905060208402830185811115612408576124076123cd565b5b835b81811015612431578061241d88826120d2565b84526020840193505060208101905061240a565b5050509392505050565b600082601f8301126124505761244f612321565b5b81356124608482602086016123d2565b91505092915050565b600080fd5b600067ffffffffffffffff82111561248957612488612326565b5b61249282612288565b9050602081019050919050565b82818337600083830152505050565b60006124c16124bc8461246e565b612386565b9050828152602081018484840111156124dd576124dc612469565b5b6124e884828561249f565b509392505050565b600082601f83011261250557612504612321565b5b81356125158482602086016124ae565b91505092915050565b600080600080600060a0868803121561253a57612539612049565b5b60006125488882890161209c565b95505060206125598882890161209c565b945050604086013567ffffffffffffffff81111561257a5761257961204e565b5b6125868882890161243b565b935050606086013567ffffffffffffffff8111156125a7576125a661204e565b5b6125b38882890161243b565b925050608086013567ffffffffffffffff8111156125d4576125d361204e565b5b6125e0888289016124f0565b9150509295509295909350565b600067ffffffffffffffff82111561260857612607612326565b5b602082029050602081019050919050565b600061262c612627846125ed565b612386565b9050808382526020820190506020840283018581111561264f5761264e6123cd565b5b835b818110156126785780612664888261209c565b845260208401935050602081019050612651565b5050509392505050565b600082601f83011261269757612696612321565b5b81356126a7848260208601612619565b91505092915050565b600080604083850312156126c7576126c6612049565b5b600083013567ffffffffffffffff8111156126e5576126e461204e565b5b6126f185828601612682565b925050602083013567ffffffffffffffff8111156127125761271161204e565b5b61271e8582860161243b565b9150509250929050565b600081519050919050565b600082825260208201905092915050565b6000819050602082019050919050565b61275d816120b1565b82525050565b600061276f8383612754565b60208301905092915050565b6000602082019050919050565b600061279382612728565b61279d8185612733565b93506127a883612744565b8060005b838110156127d95781516127c08882612763565b97506127cb8361277b565b9250506001810190506127ac565b5085935050505092915050565b600060208201905081810360008301526128008184612788565b905092915050565b61281181612073565b82525050565b600060208201905061282c6000830184612808565b92915050565b61283b816121d6565b811461284657600080fd5b50565b60008135905061285881612832565b92915050565b6000806040838503121561287557612874612049565b5b60006128838582860161209c565b925050602061289485828601612849565b9150509250929050565b6000806000606084860312156128b7576128b6612049565b5b60006128c5868287016120d2565b93505060206128d68682870161209c565b92505060406128e7868287016120d2565b9150509250925092565b60008060006060848603121561290a57612909612049565b5b6000612918868287016120d2565b9350506020612929868287016120d2565b925050604061293a8682870161209c565b9150509250925092565b6000806040838503121561295b5761295a612049565b5b60006129698582860161209c565b925050602061297a8582860161209c565b9150509250929050565b600080600080600060a086880312156129a05761299f612049565b5b60006129ae8882890161209c565b95505060206129bf8882890161209c565b94505060406129d0888289016120d2565b93505060606129e1888289016120d2565b925050608086013567ffffffffffffffff811115612a0257612a0161204e565b5b612a0e888289016124f0565b9150509295509295909350565b600067ffffffffffffffff821115612a3657612a35612326565b5b612a3f82612288565b9050602081019050919050565b6000612a5f612a5a84612a1b565b612386565b905082815260208101848484011115612a7b57612a7a612469565b5b612a8684828561249f565b509392505050565b600082601f830112612aa357612aa2612321565b5b8135612ab3848260208601612a4c565b91505092915050565b60008060408385031215612ad357612ad2612049565b5b600083013567ffffffffffffffff811115612af157612af061204e565b5b612afd85828601612a8e565b9250506020612b0e858286016120d2565b9150509250929050565b7f455243313135353a2061646472657373207a65726f206973206e6f742061207660008201527f616c6964206f776e657200000000000000000000000000000000000000000000602082015250565b6000612b74602a83612244565b9150612b7f82612b18565b604082019050919050565b60006020820190508181036000830152612ba381612b67565b9050919050565b7f4e487b7100000000000000000000000000000000000000000000000000000000600052602260045260246000fd5b60006002820490506001821680612bf157607f821691505b60208210811415612c0557612c04612baa565b5b50919050565b7f455243313135353a2063616c6c6572206973206e6f7420746f6b656e206f776e60008201527f6572206e6f7220617070726f7665640000000000000000000000000000000000602082015250565b6000612c67602f83612244565b9150612c7282612c0b565b604082019050919050565b60006020820190508181036000830152612c9681612c5a565b9050919050565b7f455243313135353a206163636f756e747320616e6420696473206c656e67746860008201527f206d69736d617463680000000000000000000000000000000000000000000000602082015250565b6000612cf9602983612244565b9150612d0482612c9d565b604082019050919050565b60006020820190508181036000830152612d2881612cec565b9050919050565b7f4e487b7100000000000000000000000000000000000000000000000000000000600052603260045260246000fd5b7f4e487b7100000000000000000000000000000000000000000000000000000000600052601160045260246000fd5b6000612d98826120b1565b91507fffffffffffffffffffffffffffffffffffffffffffffffffffffffffffffffff821415612dcb57612dca612d5e565b5b600182019050919050565b7f4e487b7100000000000000000000000000000000000000000000000000000000600052601260045260246000fd5b6000612e10826120b1565b9150612e1b836120b1565b925082612e2b57612e2a612dd6565b5b828206905092915050565b6000612e41826120b1565b9150612e4c836120b1565b925082612e5c57612e5b612dd6565b5b828204905092915050565b7f4f776e61626c653a206e6577206f776e657220697320746865207a65726f206160008201527f6464726573730000000000000000000000000000000000000000000000000000602082015250565b6000612ec3602683612244565b9150612ece82612e67565b604082019050919050565b60006020820190508181036000830152612ef281612eb6565b9050919050565b7f4f776e61626c653a2063616c6c6572206973206e6f7420746865206f776e6572600082015250565b6000612f2f602083612244565b9150612f3a82612ef9565b602082019050919050565b60006020820190508181036000830152612f5e81612f22565b9050919050565b7f455243313135353a2069647320616e6420616d6f756e7473206c656e6774682060008201527f6d69736d61746368000000000000000000000000000000000000000000000000602082015250565b6000612fc1602883612244565b9150612fcc82612f65565b604082019050919050565b60006020820190508181036000830152612ff081612fb4565b9050919050565b7f455243313135353a207472616e7366657220746f20746865207a65726f20616460008201527f6472657373000000000000000000000000000000000000000000000000000000602082015250565b6000613053602583612244565b915061305e82612ff7565b604082019050919050565b6000602082019050818103600083015261308281613046565b9050919050565b7f455243313135353a20696e73756666696369656e742062616c616e636520666f60008201527f72207472616e7366657200000000000000000000000000000000000000000000602082015250565b60006130e5602a83612244565b91506130f082613089565b604082019050919050565b60006020820190508181036000830152613114816130d8565b9050919050565b6000613126826120b1565b9150613131836120b1565b9250827fffffffffffffffffffffffffffffffffffffffffffffffffffffffffffffffff0382111561316657613165612d5e565b5b828201905092915050565b6000604082019050818103600083015261318b8185612788565b9050818103602083015261319f8184612788565b90509392505050565b7f455243313135353a2073657474696e6720617070726f76616c2073746174757360008201527f20666f722073656c660000000000000000000000000000000000000000000000602082015250565b6000613204602983612244565b915061320f826131a8565b604082019050919050565b60006020820190508181036000830152613233816131f7565b9050919050565b7f455243313135353a206275726e2066726f6d20746865207a65726f206164647260008201527f6573730000000000000000000000000000000000000000000000000000000000602082015250565b6000613296602383612244565b91506132a18261323a565b604082019050919050565b600060208201905081810360008301526132c581613289565b9050919050565b7f455243313135353a206275726e20616d6f756e7420657863656564732062616c60008201527f616e636500000000000000000000000000000000000000000000000000000000602082015250565b6000613328602483612244565b9150613333826132cc565b604082019050919050565b600060208201905081810360008301526133578161331b565b9050919050565b60006040820190506133736000830185612127565b6133806020830184612127565b9392505050565b7f455243313135353a206d696e7420746f20746865207a65726f2061646472657360008201527f7300000000000000000000000000000000000000000000000000000000000000602082015250565b60006133e3602183612244565b91506133ee82613387565b604082019050919050565b60006020820190508181036000830152613412816133d6565b9050919050565b7f75726920697320616c7265616479207361766564000000000000000000000000600082015250565b600061344f601483612244565b915061345a82613419565b602082019050919050565b6000602082019050818103600083015261347e81613442565b9050919050565b600081519050919050565b600082825260208201905092915050565b60006134ac82613485565b6134b68185613490565b93506134c6818560208601612255565b6134cf81612288565b840191505092915050565b600060a0820190506134ef6000830188612808565b6134fc6020830187612808565b818103604083015261350e8186612788565b905081810360608301526135228185612788565b9050818103608083015261353681846134a1565b90509695505050505050565b6000815190506135518161217d565b92915050565b60006020828403121561356d5761356c612049565b5b600061357b84828501613542565b91505092915050565b60008160e01c9050919050565b600060033d11156135b05760046000803e6135ad600051613584565b90505b90565b600060443d10156135c357613646565b6135cb61203f565b60043d036004823e80513d602482011167ffffffffffffffff821117156135f3575050613646565b808201805167ffffffffffffffff8111156136115750505050613646565b80602083010160043d03850181111561362e575050505050613646565b61363d82602001850186612355565b82955050505050505b90565b7f455243313135353a207472616e7366657220746f206e6f6e204552433131353560008201527f526563656976657220696d706c656d656e746572000000000000000000000000602082015250565b60006136a5603483612244565b91506136b082613649565b604082019050919050565b600060208201905081810360008301526136d481613698565b9050919050565b7f455243313135353a204552433131353552656365697665722072656a6563746560008201527f6420746f6b656e73000000000000000000000000000000000000000000000000602082015250565b6000613737602883612244565b9150613742826136db565b604082019050919050565b600060208201905081810360008301526137668161372a565b9050919050565b600060a0820190506137826000830188612808565b61378f6020830187612808565b61379c6040830186612127565b6137a96060830185612127565b81810360808301526137bb81846134a1565b9050969550505050505056fea2646970667358221220c7720c5e7bb2e101732577f9f3af075e88bdfde188653169895057e00d58ee8564736f6c634300080b0033",
  "devdoc": {
    "kind": "dev",
    "methods": {
      "balanceOf(address,uint256)": {
        "details": "See {IERC1155-balanceOf}. Requirements: - `account` cannot be the zero address."
      },
      "balanceOfBatch(address[],uint256[])": {
        "details": "See {IERC1155-balanceOfBatch}. Requirements: - `accounts` and `ids` must have the same length."
      },
      "createLoan(uint256,uint256,address)": {
        "params": {
          "principal": "the total value of tokens user want to mint",
          "tokenId": "id of the project"
        }
      },
      "isApprovedForAll(address,address)": {
        "details": "See {IERC1155-isApprovedForAll}."
      },
      "owner()": {
        "details": "Returns the address of the current owner."
      },
      "renounceOwnership()": {
        "details": "Leaves the contract without owner. It will not be possible to call `onlyOwner` functions anymore. Can only be called by the current owner. NOTE: Renouncing ownership will leave the contract without an owner, thereby removing any functionality that is only available to the owner."
      },
      "safeBatchTransferFrom(address,address,uint256[],uint256[],bytes)": {
        "details": "See {IERC1155-safeBatchTransferFrom}."
      },
      "safeTransferFrom(address,address,uint256,uint256,bytes)": {
        "details": "See {IERC1155-safeTransferFrom}."
      },
      "setApprovalForAll(address,bool)": {
        "details": "See {IERC1155-setApprovalForAll}."
      },
      "supportsInterface(bytes4)": {
        "details": "See {IERC165-supportsInterface}."
      },
      "transferOwnership(address)": {
        "details": "Transfers ownership of the contract to a new account (`newOwner`). Can only be called by the current owner."
      }
    },
    "version": 1
  },
  "userdoc": {
    "kind": "user",
    "methods": {
      "createLoan(uint256,uint256,address)": {
        "notice": "Mint tokens corresponding amount to unit value"
      }
    },
    "version": 1
  },
  "storageLayout": {
    "storage": [
      {
        "astId": 138,
        "contract": "contracts/NftBond.sol:NftBond",
        "label": "_balances",
        "offset": 0,
        "slot": "0",
        "type": "t_mapping(t_uint256,t_mapping(t_address,t_uint256))"
      },
      {
        "astId": 144,
        "contract": "contracts/NftBond.sol:NftBond",
        "label": "_operatorApprovals",
        "offset": 0,
        "slot": "1",
        "type": "t_mapping(t_address,t_mapping(t_address,t_bool))"
      },
      {
        "astId": 146,
        "contract": "contracts/NftBond.sol:NftBond",
        "label": "_uri",
        "offset": 0,
        "slot": "2",
        "type": "t_string_storage"
      },
      {
        "astId": 7,
        "contract": "contracts/NftBond.sol:NftBond",
        "label": "_owner",
        "offset": 0,
        "slot": "3",
        "type": "t_address"
      },
      {
        "astId": 3623,
        "contract": "contracts/NftBond.sol:NftBond",
        "label": "_unit",
        "offset": 0,
        "slot": "4",
        "type": "t_mapping(t_uint256,t_uint256)"
      },
      {
        "astId": 3627,
        "contract": "contracts/NftBond.sol:NftBond",
        "label": "_uri",
        "offset": 0,
        "slot": "5",
        "type": "t_mapping(t_uint256,t_string_storage)"
      },
      {
        "astId": 3629,
        "contract": "contracts/NftBond.sol:NftBond",
        "label": "controller",
        "offset": 0,
        "slot": "6",
        "type": "t_address"
      },
      {
        "astId": 3631,
        "contract": "contracts/NftBond.sol:NftBond",
        "label": "tokenIdCounter",
        "offset": 0,
        "slot": "7",
        "type": "t_uint256"
      }
    ],
    "types": {
      "t_address": {
        "encoding": "inplace",
        "label": "address",
        "numberOfBytes": "20"
      },
      "t_bool": {
        "encoding": "inplace",
        "label": "bool",
        "numberOfBytes": "1"
      },
      "t_mapping(t_address,t_bool)": {
        "encoding": "mapping",
        "key": "t_address",
        "label": "mapping(address => bool)",
        "numberOfBytes": "32",
        "value": "t_bool"
      },
      "t_mapping(t_address,t_mapping(t_address,t_bool))": {
        "encoding": "mapping",
        "key": "t_address",
        "label": "mapping(address => mapping(address => bool))",
        "numberOfBytes": "32",
        "value": "t_mapping(t_address,t_bool)"
      },
      "t_mapping(t_address,t_uint256)": {
        "encoding": "mapping",
        "key": "t_address",
        "label": "mapping(address => uint256)",
        "numberOfBytes": "32",
        "value": "t_uint256"
      },
      "t_mapping(t_uint256,t_mapping(t_address,t_uint256))": {
        "encoding": "mapping",
        "key": "t_uint256",
        "label": "mapping(uint256 => mapping(address => uint256))",
        "numberOfBytes": "32",
        "value": "t_mapping(t_address,t_uint256)"
      },
      "t_mapping(t_uint256,t_string_storage)": {
        "encoding": "mapping",
        "key": "t_uint256",
        "label": "mapping(uint256 => string)",
        "numberOfBytes": "32",
        "value": "t_string_storage"
      },
      "t_mapping(t_uint256,t_uint256)": {
        "encoding": "mapping",
        "key": "t_uint256",
        "label": "mapping(uint256 => uint256)",
        "numberOfBytes": "32",
        "value": "t_uint256"
      },
      "t_string_storage": {
        "encoding": "bytes",
        "label": "string",
        "numberOfBytes": "32"
      },
      "t_uint256": {
        "encoding": "inplace",
        "label": "uint256",
        "numberOfBytes": "32"
      }
    }
  }
}