{
  "address": "0xcE9cEcd4c320C1F244e95269109E46275390A482",
  "abi": [
    {
      "inputs": [
        {
          "internalType": "uint256",
          "name": "totalSupply_",
          "type": "uint256"
        },
        {
          "internalType": "string",
          "name": "name_",
          "type": "string"
        },
        {
          "internalType": "string",
          "name": "symbol_",
          "type": "string"
        }
      ],
      "stateMutability": "nonpayable",
      "type": "constructor"
    },
    {
      "anonymous": false,
      "inputs": [
        {
          "indexed": true,
          "internalType": "address",
          "name": "owner",
          "type": "address"
        },
        {
          "indexed": true,
          "internalType": "address",
          "name": "spender",
          "type": "address"
        },
        {
          "indexed": false,
          "internalType": "uint256",
          "name": "value",
          "type": "uint256"
        }
      ],
      "name": "Approval",
      "type": "event"
    },
    {
      "anonymous": false,
      "inputs": [
        {
          "indexed": true,
          "internalType": "address",
          "name": "from",
          "type": "address"
        },
        {
          "indexed": true,
          "internalType": "address",
          "name": "to",
          "type": "address"
        },
        {
          "indexed": false,
          "internalType": "uint256",
          "name": "value",
          "type": "uint256"
        }
      ],
      "name": "Transfer",
      "type": "event"
    },
    {
      "inputs": [
        {
          "internalType": "address",
          "name": "owner",
          "type": "address"
        },
        {
          "internalType": "address",
          "name": "spender",
          "type": "address"
        }
      ],
      "name": "allowance",
      "outputs": [
        {
          "internalType": "uint256",
          "name": "",
          "type": "uint256"
        }
      ],
      "stateMutability": "view",
      "type": "function"
    },
    {
      "inputs": [
        {
          "internalType": "address",
          "name": "spender",
          "type": "address"
        },
        {
          "internalType": "uint256",
          "name": "amount",
          "type": "uint256"
        }
      ],
      "name": "approve",
      "outputs": [
        {
          "internalType": "bool",
          "name": "",
          "type": "bool"
        }
      ],
      "stateMutability": "nonpayable",
      "type": "function"
    },
    {
      "inputs": [
        {
          "internalType": "address",
          "name": "account",
          "type": "address"
        }
      ],
      "name": "balanceOf",
      "outputs": [
        {
          "internalType": "uint256",
          "name": "",
          "type": "uint256"
        }
      ],
      "stateMutability": "view",
      "type": "function"
    },
    {
      "inputs": [],
      "name": "decimals",
      "outputs": [
        {
          "internalType": "uint8",
          "name": "",
          "type": "uint8"
        }
      ],
      "stateMutability": "view",
      "type": "function"
    },
    {
      "inputs": [
        {
          "internalType": "address",
          "name": "spender",
          "type": "address"
        },
        {
          "internalType": "uint256",
          "name": "subtractedValue",
          "type": "uint256"
        }
      ],
      "name": "decreaseAllowance",
      "outputs": [
        {
          "internalType": "bool",
          "name": "",
          "type": "bool"
        }
      ],
      "stateMutability": "nonpayable",
      "type": "function"
    },
    {
      "inputs": [
        {
          "internalType": "uint256",
          "name": "amount_",
          "type": "uint256"
        }
      ],
      "name": "faucet",
      "outputs": [],
      "stateMutability": "nonpayable",
      "type": "function"
    },
    {
      "inputs": [
        {
          "internalType": "address",
          "name": "spender",
          "type": "address"
        },
        {
          "internalType": "uint256",
          "name": "addedValue",
          "type": "uint256"
        }
      ],
      "name": "increaseAllowance",
      "outputs": [
        {
          "internalType": "bool",
          "name": "",
          "type": "bool"
        }
      ],
      "stateMutability": "nonpayable",
      "type": "function"
    },
    {
      "inputs": [],
      "name": "name",
      "outputs": [
        {
          "internalType": "string",
          "name": "",
          "type": "string"
        }
      ],
      "stateMutability": "view",
      "type": "function"
    },
    {
      "inputs": [],
      "name": "symbol",
      "outputs": [
        {
          "internalType": "string",
          "name": "",
          "type": "string"
        }
      ],
      "stateMutability": "view",
      "type": "function"
    },
    {
      "inputs": [],
      "name": "totalSupply",
      "outputs": [
        {
          "internalType": "uint256",
          "name": "",
          "type": "uint256"
        }
      ],
      "stateMutability": "view",
      "type": "function"
    },
    {
      "inputs": [
        {
          "internalType": "address",
          "name": "to",
          "type": "address"
        },
        {
          "internalType": "uint256",
          "name": "amount",
          "type": "uint256"
        }
      ],
      "name": "transfer",
      "outputs": [
        {
          "internalType": "bool",
          "name": "",
          "type": "bool"
        }
      ],
      "stateMutability": "nonpayable",
      "type": "function"
    },
    {
      "inputs": [
        {
          "internalType": "address",
          "name": "from",
          "type": "address"
        },
        {
          "internalType": "address",
          "name": "to",
          "type": "address"
        },
        {
          "internalType": "uint256",
          "name": "amount",
          "type": "uint256"
        }
      ],
      "name": "transferFrom",
      "outputs": [
        {
          "internalType": "bool",
          "name": "",
          "type": "bool"
        }
      ],
      "stateMutability": "nonpayable",
      "type": "function"
    }
  ],
  "transactionHash": "0x8da2ce6ab3891dbfd15a4a100c3a78e2e4924eea20faf04b6dfb5c5db4252370",
  "args": [
    1000000000,
    "TestUSDC",
    "T_USDC"
  ],
  "numDeployments": 1,
  "solcInputHash": "884e495d95dbe17aec95b7da6ecc47ea",
  "bytecode": "0x60806040523480156200001157600080fd5b5060405162001b7438038062001b74833981810160405281019062000037919062000493565b81818160039080519060200190620000519291906200020b565b5080600490805190602001906200006a9291906200020b565b5050506200007f33846200008860201b60201c565b505050620006cf565b600073ffffffffffffffffffffffffffffffffffffffff168273ffffffffffffffffffffffffffffffffffffffff161415620000fb576040517f08c379a0000000000000000000000000000000000000000000000000000000008152600401620000f2906200058e565b60405180910390fd5b6200010f600083836200020160201b60201c565b8060026000828254620001239190620005df565b92505081905550806000808473ffffffffffffffffffffffffffffffffffffffff1673ffffffffffffffffffffffffffffffffffffffff16815260200190815260200160002060008282546200017a9190620005df565b925050819055508173ffffffffffffffffffffffffffffffffffffffff16600073ffffffffffffffffffffffffffffffffffffffff167fddf252ad1be2c89b69c2b068fc378daa952ba7f163c4a11628f55a4df523b3ef83604051620001e191906200064d565b60405180910390a3620001fd600083836200020660201b60201c565b5050565b505050565b505050565b828054620002199062000699565b90600052602060002090601f0160209004810192826200023d576000855562000289565b82601f106200025857805160ff191683800117855562000289565b8280016001018555821562000289579182015b82811115620002885782518255916020019190600101906200026b565b5b5090506200029891906200029c565b5090565b5b80821115620002b75760008160009055506001016200029d565b5090565b6000604051905090565b600080fd5b600080fd5b6000819050919050565b620002e481620002cf565b8114620002f057600080fd5b50565b6000815190506200030481620002d9565b92915050565b600080fd5b600080fd5b6000601f19601f8301169050919050565b7f4e487b7100000000000000000000000000000000000000000000000000000000600052604160045260246000fd5b6200035f8262000314565b810181811067ffffffffffffffff8211171562000381576200038062000325565b5b80604052505050565b600062000396620002bb565b9050620003a4828262000354565b919050565b600067ffffffffffffffff821115620003c757620003c662000325565b5b620003d28262000314565b9050602081019050919050565b60005b83811015620003ff578082015181840152602081019050620003e2565b838111156200040f576000848401525b50505050565b60006200042c6200042684620003a9565b6200038a565b9050828152602081018484840111156200044b576200044a6200030f565b5b62000458848285620003df565b509392505050565b600082601f8301126200047857620004776200030a565b5b81516200048a84826020860162000415565b91505092915050565b600080600060608486031215620004af57620004ae620002c5565b5b6000620004bf86828701620002f3565b935050602084015167ffffffffffffffff811115620004e357620004e2620002ca565b5b620004f18682870162000460565b925050604084015167ffffffffffffffff811115620005155762000514620002ca565b5b620005238682870162000460565b9150509250925092565b600082825260208201905092915050565b7f45524332303a206d696e7420746f20746865207a65726f206164647265737300600082015250565b600062000576601f836200052d565b915062000583826200053e565b602082019050919050565b60006020820190508181036000830152620005a98162000567565b9050919050565b7f4e487b7100000000000000000000000000000000000000000000000000000000600052601160045260246000fd5b6000620005ec82620002cf565b9150620005f983620002cf565b9250827fffffffffffffffffffffffffffffffffffffffffffffffffffffffffffffffff03821115620006315762000630620005b0565b5b828201905092915050565b6200064781620002cf565b82525050565b60006020820190506200066460008301846200063c565b92915050565b7f4e487b7100000000000000000000000000000000000000000000000000000000600052602260045260246000fd5b60006002820490506001821680620006b257607f821691505b60208210811415620006c957620006c86200066a565b5b50919050565b61149580620006df6000396000f3fe608060405234801561001057600080fd5b50600436106100b45760003560e01c8063579158971161007157806357915897146101a357806370a08231146101bf57806395d89b41146101ef578063a457c2d71461020d578063a9059cbb1461023d578063dd62ed3e1461026d576100b4565b806306fdde03146100b9578063095ea7b3146100d757806318160ddd1461010757806323b872dd14610125578063313ce567146101555780633950935114610173575b600080fd5b6100c161029d565b6040516100ce9190610cb6565b60405180910390f35b6100f160048036038101906100ec9190610d71565b61032f565b6040516100fe9190610dcc565b60405180910390f35b61010f610352565b60405161011c9190610df6565b60405180910390f35b61013f600480360381019061013a9190610e11565b61035c565b60405161014c9190610dcc565b60405180910390f35b61015d61038b565b60405161016a9190610e80565b60405180910390f35b61018d60048036038101906101889190610d71565b610394565b60405161019a9190610dcc565b60405180910390f35b6101bd60048036038101906101b89190610e9b565b6103cb565b005b6101d960048036038101906101d49190610ec8565b6103d8565b6040516101e69190610df6565b60405180910390f35b6101f7610420565b6040516102049190610cb6565b60405180910390f35b61022760048036038101906102229190610d71565b6104b2565b6040516102349190610dcc565b60405180910390f35b61025760048036038101906102529190610d71565b610529565b6040516102649190610dcc565b60405180910390f35b61028760048036038101906102829190610ef5565b61054c565b6040516102949190610df6565b60405180910390f35b6060600380546102ac90610f64565b80601f01602080910402602001604051908101604052809291908181526020018280546102d890610f64565b80156103255780601f106102fa57610100808354040283529160200191610325565b820191906000526020600020905b81548152906001019060200180831161030857829003601f168201915b5050505050905090565b60008061033a6105d3565b90506103478185856105db565b600191505092915050565b6000600254905090565b6000806103676105d3565b90506103748582856107a6565b61037f858585610832565b60019150509392505050565b60006006905090565b60008061039f6105d3565b90506103c08185856103b1858961054c565b6103bb9190610fc5565b6105db565b600191505092915050565b6103d53382610ab3565b50565b60008060008373ffffffffffffffffffffffffffffffffffffffff1673ffffffffffffffffffffffffffffffffffffffff168152602001908152602001600020549050919050565b60606004805461042f90610f64565b80601f016020809104026020016040519081016040528092919081815260200182805461045b90610f64565b80156104a85780601f1061047d576101008083540402835291602001916104a8565b820191906000526020600020905b81548152906001019060200180831161048b57829003601f168201915b5050505050905090565b6000806104bd6105d3565b905060006104cb828661054c565b905083811015610510576040517f08c379a00000000000000000000000000000000000000000000000000000000081526004016105079061108d565b60405180910390fd5b61051d82868684036105db565b60019250505092915050565b6000806105346105d3565b9050610541818585610832565b600191505092915050565b6000600160008473ffffffffffffffffffffffffffffffffffffffff1673ffffffffffffffffffffffffffffffffffffffff16815260200190815260200160002060008373ffffffffffffffffffffffffffffffffffffffff1673ffffffffffffffffffffffffffffffffffffffff16815260200190815260200160002054905092915050565b600033905090565b600073ffffffffffffffffffffffffffffffffffffffff168373ffffffffffffffffffffffffffffffffffffffff16141561064b576040517f08c379a00000000000000000000000000000000000000000000000000000000081526004016106429061111f565b60405180910390fd5b600073ffffffffffffffffffffffffffffffffffffffff168273ffffffffffffffffffffffffffffffffffffffff1614156106bb576040517f08c379a00000000000000000000000000000000000000000000000000000000081526004016106b2906111b1565b60405180910390fd5b80600160008573ffffffffffffffffffffffffffffffffffffffff1673ffffffffffffffffffffffffffffffffffffffff16815260200190815260200160002060008473ffffffffffffffffffffffffffffffffffffffff1673ffffffffffffffffffffffffffffffffffffffff168152602001908152602001600020819055508173ffffffffffffffffffffffffffffffffffffffff168373ffffffffffffffffffffffffffffffffffffffff167f8c5be1e5ebec7d5bd14f71427d1e84f3dd0314c0f7b2291e5b200ac8c7c3b925836040516107999190610df6565b60405180910390a3505050565b60006107b2848461054c565b90507fffffffffffffffffffffffffffffffffffffffffffffffffffffffffffffffff811461082c578181101561081e576040517f08c379a00000000000000000000000000000000000000000000000000000000081526004016108159061121d565b60405180910390fd5b61082b84848484036105db565b5b50505050565b600073ffffffffffffffffffffffffffffffffffffffff168373ffffffffffffffffffffffffffffffffffffffff1614156108a2576040517f08c379a0000000000000000000000000000000000000000000000000000000008152600401610899906112af565b60405180910390fd5b600073ffffffffffffffffffffffffffffffffffffffff168273ffffffffffffffffffffffffffffffffffffffff161415610912576040517f08c379a000000000000000000000000000000000000000000000000000000000815260040161090990611341565b60405180910390fd5b61091d838383610c13565b60008060008573ffffffffffffffffffffffffffffffffffffffff1673ffffffffffffffffffffffffffffffffffffffff168152602001908152602001600020549050818110156109a3576040517f08c379a000000000000000000000000000000000000000000000000000000000815260040161099a906113d3565b60405180910390fd5b8181036000808673ffffffffffffffffffffffffffffffffffffffff1673ffffffffffffffffffffffffffffffffffffffff16815260200190815260200160002081905550816000808573ffffffffffffffffffffffffffffffffffffffff1673ffffffffffffffffffffffffffffffffffffffff1681526020019081526020016000206000828254610a369190610fc5565b925050819055508273ffffffffffffffffffffffffffffffffffffffff168473ffffffffffffffffffffffffffffffffffffffff167fddf252ad1be2c89b69c2b068fc378daa952ba7f163c4a11628f55a4df523b3ef84604051610a9a9190610df6565b60405180910390a3610aad848484610c18565b50505050565b600073ffffffffffffffffffffffffffffffffffffffff168273ffffffffffffffffffffffffffffffffffffffff161415610b23576040517f08c379a0000000000000000000000000000000000000000000000000000000008152600401610b1a9061143f565b60405180910390fd5b610b2f60008383610c13565b8060026000828254610b419190610fc5565b92505081905550806000808473ffffffffffffffffffffffffffffffffffffffff1673ffffffffffffffffffffffffffffffffffffffff1681526020019081526020016000206000828254610b969190610fc5565b925050819055508173ffffffffffffffffffffffffffffffffffffffff16600073ffffffffffffffffffffffffffffffffffffffff167fddf252ad1be2c89b69c2b068fc378daa952ba7f163c4a11628f55a4df523b3ef83604051610bfb9190610df6565b60405180910390a3610c0f60008383610c18565b5050565b505050565b505050565b600081519050919050565b600082825260208201905092915050565b60005b83811015610c57578082015181840152602081019050610c3c565b83811115610c66576000848401525b50505050565b6000601f19601f8301169050919050565b6000610c8882610c1d565b610c928185610c28565b9350610ca2818560208601610c39565b610cab81610c6c565b840191505092915050565b60006020820190508181036000830152610cd08184610c7d565b905092915050565b600080fd5b600073ffffffffffffffffffffffffffffffffffffffff82169050919050565b6000610d0882610cdd565b9050919050565b610d1881610cfd565b8114610d2357600080fd5b50565b600081359050610d3581610d0f565b92915050565b6000819050919050565b610d4e81610d3b565b8114610d5957600080fd5b50565b600081359050610d6b81610d45565b92915050565b60008060408385031215610d8857610d87610cd8565b5b6000610d9685828601610d26565b9250506020610da785828601610d5c565b9150509250929050565b60008115159050919050565b610dc681610db1565b82525050565b6000602082019050610de16000830184610dbd565b92915050565b610df081610d3b565b82525050565b6000602082019050610e0b6000830184610de7565b92915050565b600080600060608486031215610e2a57610e29610cd8565b5b6000610e3886828701610d26565b9350506020610e4986828701610d26565b9250506040610e5a86828701610d5c565b9150509250925092565b600060ff82169050919050565b610e7a81610e64565b82525050565b6000602082019050610e956000830184610e71565b92915050565b600060208284031215610eb157610eb0610cd8565b5b6000610ebf84828501610d5c565b91505092915050565b600060208284031215610ede57610edd610cd8565b5b6000610eec84828501610d26565b91505092915050565b60008060408385031215610f0c57610f0b610cd8565b5b6000610f1a85828601610d26565b9250506020610f2b85828601610d26565b9150509250929050565b7f4e487b7100000000000000000000000000000000000000000000000000000000600052602260045260246000fd5b60006002820490506001821680610f7c57607f821691505b60208210811415610f9057610f8f610f35565b5b50919050565b7f4e487b7100000000000000000000000000000000000000000000000000000000600052601160045260246000fd5b6000610fd082610d3b565b9150610fdb83610d3b565b9250827fffffffffffffffffffffffffffffffffffffffffffffffffffffffffffffffff038211156110105761100f610f96565b5b828201905092915050565b7f45524332303a2064656372656173656420616c6c6f77616e63652062656c6f7760008201527f207a65726f000000000000000000000000000000000000000000000000000000602082015250565b6000611077602583610c28565b91506110828261101b565b604082019050919050565b600060208201905081810360008301526110a68161106a565b9050919050565b7f45524332303a20617070726f76652066726f6d20746865207a65726f2061646460008201527f7265737300000000000000000000000000000000000000000000000000000000602082015250565b6000611109602483610c28565b9150611114826110ad565b604082019050919050565b60006020820190508181036000830152611138816110fc565b9050919050565b7f45524332303a20617070726f766520746f20746865207a65726f20616464726560008201527f7373000000000000000000000000000000000000000000000000000000000000602082015250565b600061119b602283610c28565b91506111a68261113f565b604082019050919050565b600060208201905081810360008301526111ca8161118e565b9050919050565b7f45524332303a20696e73756666696369656e7420616c6c6f77616e6365000000600082015250565b6000611207601d83610c28565b9150611212826111d1565b602082019050919050565b60006020820190508181036000830152611236816111fa565b9050919050565b7f45524332303a207472616e736665722066726f6d20746865207a65726f20616460008201527f6472657373000000000000000000000000000000000000000000000000000000602082015250565b6000611299602583610c28565b91506112a48261123d565b604082019050919050565b600060208201905081810360008301526112c88161128c565b9050919050565b7f45524332303a207472616e7366657220746f20746865207a65726f206164647260008201527f6573730000000000000000000000000000000000000000000000000000000000602082015250565b600061132b602383610c28565b9150611336826112cf565b604082019050919050565b6000602082019050818103600083015261135a8161131e565b9050919050565b7f45524332303a207472616e7366657220616d6f756e742065786365656473206260008201527f616c616e63650000000000000000000000000000000000000000000000000000602082015250565b60006113bd602683610c28565b91506113c882611361565b604082019050919050565b600060208201905081810360008301526113ec816113b0565b9050919050565b7f45524332303a206d696e7420746f20746865207a65726f206164647265737300600082015250565b6000611429601f83610c28565b9150611434826113f3565b602082019050919050565b600060208201905081810360008301526114588161141c565b905091905056fea264697066735822122026e0d12cc08a74edd126b94fb0d03e5f38559fd60a1fd42959c2fa26802168de64736f6c634300080b0033",
  "devdoc": {
    "kind": "dev",
    "methods": {
      "allowance(address,address)": {
        "details": "See {IERC20-allowance}."
      },
      "approve(address,uint256)": {
        "details": "See {IERC20-approve}. NOTE: If `amount` is the maximum `uint256`, the allowance is not updated on `transferFrom`. This is semantically equivalent to an infinite approval. Requirements: - `spender` cannot be the zero address."
      },
      "balanceOf(address)": {
        "details": "See {IERC20-balanceOf}."
      },
      "decimals()": {
        "details": "Returns the number of decimals used to get its user representation. For example, if `decimals` equals `2`, a balance of `505` tokens should be displayed to a user as `5.05` (`505 / 10 ** 2`). Tokens usually opt for a value of 18, imitating the relationship between Ether and Wei. This is the value {ERC20} uses, unless this function is overridden; NOTE: This information is only used for _display_ purposes: it in no way affects any of the arithmetic of the contract, including {IERC20-balanceOf} and {IERC20-transfer}."
      },
      "decreaseAllowance(address,uint256)": {
        "details": "Atomically decreases the allowance granted to `spender` by the caller. This is an alternative to {approve} that can be used as a mitigation for problems described in {IERC20-approve}. Emits an {Approval} event indicating the updated allowance. Requirements: - `spender` cannot be the zero address. - `spender` must have allowance for the caller of at least `subtractedValue`."
      },
      "increaseAllowance(address,uint256)": {
        "details": "Atomically increases the allowance granted to `spender` by the caller. This is an alternative to {approve} that can be used as a mitigation for problems described in {IERC20-approve}. Emits an {Approval} event indicating the updated allowance. Requirements: - `spender` cannot be the zero address."
      },
      "name()": {
        "details": "Returns the name of the token."
      },
      "symbol()": {
        "details": "Returns the symbol of the token, usually a shorter version of the name."
      },
      "totalSupply()": {
        "details": "See {IERC20-totalSupply}."
      },
      "transfer(address,uint256)": {
        "details": "See {IERC20-transfer}. Requirements: - `to` cannot be the zero address. - the caller must have a balance of at least `amount`."
      },
      "transferFrom(address,address,uint256)": {
        "details": "See {IERC20-transferFrom}. Emits an {Approval} event indicating the updated allowance. This is not required by the EIP. See the note at the beginning of {ERC20}. NOTE: Does not update the allowance if the current allowance is the maximum `uint256`. Requirements: - `from` and `to` cannot be the zero address. - `from` must have a balance of at least `amount`. - the caller must have allowance for ``from``'s tokens of at least `amount`."
      }
    },
    "version": 1
  },
  "userdoc": {
    "kind": "user",
    "methods": {
      "faucet(uint256)": {
        "notice": "The faucet is for testing ELYFI functions"
      }
    },
    "notice": "This ERC20 is only for the testnet.",
    "version": 1
  },
  "storageLayout": {
    "storage": [
      {
        "astId": 15,
        "contract": "contracts/mocks/ERC20Test.sol:ERC20Test",
        "label": "_balances",
        "offset": 0,
        "slot": "0",
        "type": "t_mapping(t_address,t_uint256)"
      },
      {
        "astId": 21,
        "contract": "contracts/mocks/ERC20Test.sol:ERC20Test",
        "label": "_allowances",
        "offset": 0,
        "slot": "1",
        "type": "t_mapping(t_address,t_mapping(t_address,t_uint256))"
      },
      {
        "astId": 23,
        "contract": "contracts/mocks/ERC20Test.sol:ERC20Test",
        "label": "_totalSupply",
        "offset": 0,
        "slot": "2",
        "type": "t_uint256"
      },
      {
        "astId": 25,
        "contract": "contracts/mocks/ERC20Test.sol:ERC20Test",
        "label": "_name",
        "offset": 0,
        "slot": "3",
        "type": "t_string_storage"
      },
      {
        "astId": 27,
        "contract": "contracts/mocks/ERC20Test.sol:ERC20Test",
        "label": "_symbol",
        "offset": 0,
        "slot": "4",
        "type": "t_string_storage"
      }
    ],
    "types": {
      "t_address": {
        "encoding": "inplace",
        "label": "address",
        "numberOfBytes": "20"
      },
      "t_mapping(t_address,t_mapping(t_address,t_uint256))": {
        "encoding": "mapping",
        "key": "t_address",
        "label": "mapping(address => mapping(address => uint256))",
        "numberOfBytes": "32",
        "value": "t_mapping(t_address,t_uint256)"
      },
      "t_mapping(t_address,t_uint256)": {
        "encoding": "mapping",
        "key": "t_address",
        "label": "mapping(address => uint256)",
        "numberOfBytes": "32",
        "value": "t_uint256"
      },
      "t_string_storage": {
        "encoding": "bytes",
        "label": "string",
        "numberOfBytes": "32"
      },
      "t_uint256": {
        "encoding": "inplace",
        "label": "uint256",
        "numberOfBytes": "32"
      }
    }
  }
}