{
  "address": "0xA12243a014Ab9d1bC016BA2c1b76AC6a86aE4510",
  "abi": [
    {
      "inputs": [],
      "stateMutability": "nonpayable",
      "type": "constructor"
    },
    {
      "inputs": [],
      "name": "AlreadyInitialized",
      "type": "error"
    },
    {
      "inputs": [],
      "name": "NotDivisibleByUnit",
      "type": "error"
    },
    {
      "inputs": [],
      "name": "OnlyController",
      "type": "error"
    },
    {
      "inputs": [],
      "name": "ZeroBalance",
      "type": "error"
    },
    {
      "anonymous": false,
      "inputs": [
        {
          "indexed": true,
          "internalType": "address",
          "name": "account",
          "type": "address"
        },
        {
          "indexed": true,
          "internalType": "address",
          "name": "operator",
          "type": "address"
        },
        {
          "indexed": false,
          "internalType": "bool",
          "name": "approved",
          "type": "bool"
        }
      ],
      "name": "ApprovalForAll",
      "type": "event"
    },
    {
      "anonymous": false,
      "inputs": [
        {
          "indexed": false,
          "internalType": "uint256",
          "name": "_tokenId",
          "type": "uint256"
        },
        {
          "indexed": false,
          "internalType": "uint256",
          "name": "_principal",
          "type": "uint256"
        },
        {
          "indexed": false,
          "internalType": "address",
          "name": "_account",
          "type": "address"
        }
      ],
      "name": "CreateLoan",
      "type": "event"
    },
    {
      "anonymous": false,
      "inputs": [
        {
          "indexed": false,
          "internalType": "string",
          "name": "_uri_",
          "type": "string"
        },
        {
          "indexed": false,
          "internalType": "uint256",
          "name": "_unit_",
          "type": "uint256"
        }
      ],
      "name": "InitProject",
      "type": "event"
    },
    {
      "anonymous": false,
      "inputs": [
        {
          "indexed": true,
          "internalType": "address",
          "name": "previousOwner",
          "type": "address"
        },
        {
          "indexed": true,
          "internalType": "address",
          "name": "newOwner",
          "type": "address"
        }
      ],
      "name": "OwnershipTransferred",
      "type": "event"
    },
    {
      "anonymous": false,
      "inputs": [
        {
          "indexed": false,
          "internalType": "uint256",
          "name": "_tokenId",
          "type": "uint256"
        },
        {
          "indexed": false,
          "internalType": "address",
          "name": "_account",
          "type": "address"
        },
        {
          "indexed": false,
          "internalType": "uint256",
          "name": "_tokenBalance",
          "type": "uint256"
        }
      ],
      "name": "Redeem",
      "type": "event"
    },
    {
      "anonymous": false,
      "inputs": [
        {
          "indexed": true,
          "internalType": "address",
          "name": "operator",
          "type": "address"
        },
        {
          "indexed": true,
          "internalType": "address",
          "name": "from",
          "type": "address"
        },
        {
          "indexed": true,
          "internalType": "address",
          "name": "to",
          "type": "address"
        },
        {
          "indexed": false,
          "internalType": "uint256[]",
          "name": "ids",
          "type": "uint256[]"
        },
        {
          "indexed": false,
          "internalType": "uint256[]",
          "name": "values",
          "type": "uint256[]"
        }
      ],
      "name": "TransferBatch",
      "type": "event"
    },
    {
      "anonymous": false,
      "inputs": [
        {
          "indexed": true,
          "internalType": "address",
          "name": "operator",
          "type": "address"
        },
        {
          "indexed": true,
          "internalType": "address",
          "name": "from",
          "type": "address"
        },
        {
          "indexed": true,
          "internalType": "address",
          "name": "to",
          "type": "address"
        },
        {
          "indexed": false,
          "internalType": "uint256",
          "name": "id",
          "type": "uint256"
        },
        {
          "indexed": false,
          "internalType": "uint256",
          "name": "value",
          "type": "uint256"
        }
      ],
      "name": "TransferSingle",
      "type": "event"
    },
    {
      "anonymous": false,
      "inputs": [
        {
          "indexed": false,
          "internalType": "string",
          "name": "value",
          "type": "string"
        },
        {
          "indexed": true,
          "internalType": "uint256",
          "name": "id",
          "type": "uint256"
        }
      ],
      "name": "URI",
      "type": "event"
    },
    {
      "inputs": [
        {
          "internalType": "address",
          "name": "account",
          "type": "address"
        },
        {
          "internalType": "uint256",
          "name": "id",
          "type": "uint256"
        }
      ],
      "name": "balanceOf",
      "outputs": [
        {
          "internalType": "uint256",
          "name": "",
          "type": "uint256"
        }
      ],
      "stateMutability": "view",
      "type": "function"
    },
    {
      "inputs": [
        {
          "internalType": "address[]",
          "name": "accounts",
          "type": "address[]"
        },
        {
          "internalType": "uint256[]",
          "name": "ids",
          "type": "uint256[]"
        }
      ],
      "name": "balanceOfBatch",
      "outputs": [
        {
          "internalType": "uint256[]",
          "name": "",
          "type": "uint256[]"
        }
      ],
      "stateMutability": "view",
      "type": "function"
    },
    {
      "inputs": [],
      "name": "controller",
      "outputs": [
        {
          "internalType": "address",
          "name": "",
          "type": "address"
        }
      ],
      "stateMutability": "view",
      "type": "function"
    },
    {
      "inputs": [
        {
          "internalType": "uint256",
          "name": "tokenId",
          "type": "uint256"
        },
        {
          "internalType": "uint256",
          "name": "principal",
          "type": "uint256"
        },
        {
          "internalType": "address",
          "name": "account",
          "type": "address"
        }
      ],
      "name": "createLoan",
      "outputs": [],
      "stateMutability": "nonpayable",
      "type": "function"
    },
    {
      "inputs": [
        {
          "internalType": "uint256",
          "name": "id",
          "type": "uint256"
        }
      ],
      "name": "exists",
      "outputs": [
        {
          "internalType": "bool",
          "name": "",
          "type": "bool"
        }
      ],
      "stateMutability": "view",
      "type": "function"
    },
    {
      "inputs": [
        {
          "internalType": "address",
          "name": "controller_",
          "type": "address"
        }
      ],
      "name": "init",
      "outputs": [],
      "stateMutability": "nonpayable",
      "type": "function"
    },
    {
      "inputs": [
        {
          "internalType": "string",
          "name": "uri_",
          "type": "string"
        },
        {
          "internalType": "uint256",
          "name": "unit_",
          "type": "uint256"
        }
      ],
      "name": "initProject",
      "outputs": [],
      "stateMutability": "nonpayable",
      "type": "function"
    },
    {
      "inputs": [
        {
          "internalType": "address",
          "name": "account",
          "type": "address"
        },
        {
          "internalType": "address",
          "name": "operator",
          "type": "address"
        }
      ],
      "name": "isApprovedForAll",
      "outputs": [
        {
          "internalType": "bool",
          "name": "",
          "type": "bool"
        }
      ],
      "stateMutability": "view",
      "type": "function"
    },
    {
      "inputs": [],
      "name": "owner",
      "outputs": [
        {
          "internalType": "address",
          "name": "",
          "type": "address"
        }
      ],
      "stateMutability": "view",
      "type": "function"
    },
    {
      "inputs": [
        {
          "internalType": "uint256",
          "name": "tokenId",
          "type": "uint256"
        },
        {
          "internalType": "address",
          "name": "account",
          "type": "address"
        },
        {
          "internalType": "uint256",
          "name": "tokenBalance",
          "type": "uint256"
        }
      ],
      "name": "redeem",
      "outputs": [],
      "stateMutability": "nonpayable",
      "type": "function"
    },
    {
      "inputs": [],
      "name": "renounceOwnership",
      "outputs": [],
      "stateMutability": "nonpayable",
      "type": "function"
    },
    {
      "inputs": [
        {
          "internalType": "address",
          "name": "from",
          "type": "address"
        },
        {
          "internalType": "address",
          "name": "to",
          "type": "address"
        },
        {
          "internalType": "uint256[]",
          "name": "ids",
          "type": "uint256[]"
        },
        {
          "internalType": "uint256[]",
          "name": "amounts",
          "type": "uint256[]"
        },
        {
          "internalType": "bytes",
          "name": "data",
          "type": "bytes"
        }
      ],
      "name": "safeBatchTransferFrom",
      "outputs": [],
      "stateMutability": "nonpayable",
      "type": "function"
    },
    {
      "inputs": [
        {
          "internalType": "address",
          "name": "from",
          "type": "address"
        },
        {
          "internalType": "address",
          "name": "to",
          "type": "address"
        },
        {
          "internalType": "uint256",
          "name": "id",
          "type": "uint256"
        },
        {
          "internalType": "uint256",
          "name": "amount",
          "type": "uint256"
        },
        {
          "internalType": "bytes",
          "name": "data",
          "type": "bytes"
        }
      ],
      "name": "safeTransferFrom",
      "outputs": [],
      "stateMutability": "nonpayable",
      "type": "function"
    },
    {
      "inputs": [
        {
          "internalType": "address",
          "name": "operator",
          "type": "address"
        },
        {
          "internalType": "bool",
          "name": "approved",
          "type": "bool"
        }
      ],
      "name": "setApprovalForAll",
      "outputs": [],
      "stateMutability": "nonpayable",
      "type": "function"
    },
    {
      "inputs": [
        {
          "internalType": "uint256",
          "name": "tokenId",
          "type": "uint256"
        },
        {
          "internalType": "string",
          "name": "uri_",
          "type": "string"
        }
      ],
      "name": "setURI",
      "outputs": [],
      "stateMutability": "nonpayable",
      "type": "function"
    },
    {
      "inputs": [
        {
          "internalType": "bytes4",
          "name": "interfaceId",
          "type": "bytes4"
        }
      ],
      "name": "supportsInterface",
      "outputs": [
        {
          "internalType": "bool",
          "name": "",
          "type": "bool"
        }
      ],
      "stateMutability": "view",
      "type": "function"
    },
    {
      "inputs": [],
      "name": "tokenIdCounter",
      "outputs": [
        {
          "internalType": "uint256",
          "name": "",
          "type": "uint256"
        }
      ],
      "stateMutability": "view",
      "type": "function"
    },
    {
      "inputs": [
        {
          "internalType": "uint256",
          "name": "id",
          "type": "uint256"
        }
      ],
      "name": "totalSupply",
      "outputs": [
        {
          "internalType": "uint256",
          "name": "",
          "type": "uint256"
        }
      ],
      "stateMutability": "view",
      "type": "function"
    },
    {
      "inputs": [
        {
          "internalType": "address",
          "name": "newOwner",
          "type": "address"
        }
      ],
      "name": "transferOwnership",
      "outputs": [],
      "stateMutability": "nonpayable",
      "type": "function"
    },
    {
      "inputs": [
        {
          "internalType": "uint256",
          "name": "tokenId",
          "type": "uint256"
        }
      ],
      "name": "unit",
      "outputs": [
        {
          "internalType": "uint256",
          "name": "",
          "type": "uint256"
        }
      ],
      "stateMutability": "view",
      "type": "function"
    },
    {
      "inputs": [
        {
          "internalType": "address",
          "name": "controller_",
          "type": "address"
        }
      ],
      "name": "updateController",
      "outputs": [],
      "stateMutability": "nonpayable",
      "type": "function"
    },
    {
      "inputs": [
        {
          "internalType": "uint256",
          "name": "tokenId",
          "type": "uint256"
        }
      ],
      "name": "uri",
      "outputs": [
        {
          "internalType": "string",
          "name": "",
          "type": "string"
        }
      ],
      "stateMutability": "view",
      "type": "function"
    }
  ],
  "transactionHash": "0x2cf379be013b191431da59f6d029276136890ddbfa38ea5e7d7f4a92e4e6e432",
  "args": [],
  "numDeployments": 1,
  "solcInputHash": "61d11f7cf8f951862cd4525faf64c9d9",
  "bytecode": "0x60806040523480156200001157600080fd5b506040518060200160405280600081525062000033816200005a60201b60201c565b5062000054620000486200007660201b60201c565b6200007e60201b60201c565b62000259565b80600290805190602001906200007292919062000144565b5050565b600033905090565b6000600460009054906101000a900473ffffffffffffffffffffffffffffffffffffffff16905081600460006101000a81548173ffffffffffffffffffffffffffffffffffffffff021916908373ffffffffffffffffffffffffffffffffffffffff1602179055508173ffffffffffffffffffffffffffffffffffffffff168173ffffffffffffffffffffffffffffffffffffffff167f8be0079c531659141344cd1fd0a4f28419497f9722a3daafe3b4186f6b6457e060405160405180910390a35050565b828054620001529062000223565b90600052602060002090601f016020900481019282620001765760008555620001c2565b82601f106200019157805160ff1916838001178555620001c2565b82800160010185558215620001c2579182015b82811115620001c1578251825591602001919060010190620001a4565b5b509050620001d19190620001d5565b5090565b5b80821115620001f0576000816000905550600101620001d6565b5090565b7f4e487b7100000000000000000000000000000000000000000000000000000000600052602260045260246000fd5b600060028204905060018216806200023c57607f821691505b60208210811415620002535762000252620001f4565b5b50919050565b613c3d80620002696000396000f3fe608060405234801561001057600080fd5b50600436106101415760003560e01c806398bdf6f5116100b8578063e00508ba1161007c578063e00508ba14610370578063e985e9c5146103a0578063f242432a146103d0578063f2fde38b146103ec578063f6c5feb914610408578063f77c47911461042457610141565b806398bdf6f5146102ce578063a22cb465146102ec578063bd85b03914610308578063d878016114610338578063dc4cab0c1461035457610141565b80632eb2c2d61161010a5780632eb2c2d61461020e5780634e1273f41461022a5780634f558e791461025a578063715018a61461028a578063862440e2146102945780638da5cb5b146102b057610141565b8062fdd58e1461014657806301ffc9a71461017657806306cb5b66146101a65780630e89341c146101c257806319ab453c146101f2575b600080fd5b610160600480360381019061015b9190612407565b610442565b60405161016d9190612456565b60405180910390f35b610190600480360381019061018b91906124c9565b61050b565b60405161019d9190612511565b60405180910390f35b6101c060048036038101906101bb919061252c565b6105ed565b005b6101dc60048036038101906101d79190612559565b610639565b6040516101e9919061261f565b60405180910390f35b61020c6004803603810190610207919061252c565b6106de565b005b6102286004803603810190610223919061283e565b6107b2565b005b610244600480360381019061023f91906129d0565b610853565b6040516102519190612b06565b60405180910390f35b610274600480360381019061026f9190612559565b61096c565b6040516102819190612511565b60405180910390f35b610292610980565b005b6102ae60048036038101906102a99190612bc9565b610994565b005b6102b86109aa565b6040516102c59190612c34565b60405180910390f35b6102d66109d4565b6040516102e39190612456565b60405180910390f35b61030660048036038101906103019190612c7b565b6109da565b005b610322600480360381019061031d9190612559565b6109f0565b60405161032f9190612456565b60405180910390f35b610352600480360381019061034d9190612cbb565b610a0d565b005b61036e60048036038101906103699190612d0e565b610b23565b005b61038a60048036038101906103859190612559565b610c6e565b6040516103979190612456565b60405180910390f35b6103ba60048036038101906103b59190612d61565b610c8b565b6040516103c79190612511565b60405180910390f35b6103ea60048036038101906103e59190612da1565b610d1f565b005b6104066004803603810190610401919061252c565b610dc0565b005b610422600480360381019061041d9190612e38565b610e44565b005b61042c610f2c565b6040516104399190612c34565b60405180910390f35b60008073ffffffffffffffffffffffffffffffffffffffff168373ffffffffffffffffffffffffffffffffffffffff1614156104b3576040517f08c379a00000000000000000000000000000000000000000000000000000000081526004016104aa90612f06565b60405180910390fd5b60008083815260200190815260200160002060008473ffffffffffffffffffffffffffffffffffffffff1673ffffffffffffffffffffffffffffffffffffffff16815260200190815260200160002054905092915050565b60007fd9b67a26000000000000000000000000000000000000000000000000000000007bffffffffffffffffffffffffffffffffffffffffffffffffffffffff1916827bffffffffffffffffffffffffffffffffffffffffffffffffffffffff191614806105d657507f0e89341c000000000000000000000000000000000000000000000000000000007bffffffffffffffffffffffffffffffffffffffffffffffffffffffff1916827bffffffffffffffffffffffffffffffffffffffffffffffffffffffff1916145b806105e657506105e582610f52565b5b9050919050565b6105f5610fbc565b80600760006101000a81548173ffffffffffffffffffffffffffffffffffffffff021916908373ffffffffffffffffffffffffffffffffffffffff16021790555050565b606060066000838152602001908152602001600020805461065990612f55565b80601f016020809104026020016040519081016040528092919081815260200182805461068590612f55565b80156106d25780601f106106a7576101008083540402835291602001916106d2565b820191906000526020600020905b8154815290600101906020018083116106b557829003601f168201915b50505050509050919050565b6106e6610fbc565b600073ffffffffffffffffffffffffffffffffffffffff16600760009054906101000a900473ffffffffffffffffffffffffffffffffffffffff1673ffffffffffffffffffffffffffffffffffffffff161461076e576040517f0dc149f000000000000000000000000000000000000000000000000000000000815260040160405180910390fd5b80600760006101000a81548173ffffffffffffffffffffffffffffffffffffffff021916908373ffffffffffffffffffffffffffffffffffffffff16021790555050565b6107ba61103a565b73ffffffffffffffffffffffffffffffffffffffff168573ffffffffffffffffffffffffffffffffffffffff16148061080057506107ff856107fa61103a565b610c8b565b5b61083f576040517f08c379a000000000000000000000000000000000000000000000000000000000815260040161083690612ff9565b60405180910390fd5b61084c8585858585611042565b5050505050565b60608151835114610899576040517f08c379a00000000000000000000000000000000000000000000000000000000081526004016108909061308b565b60405180910390fd5b6000835167ffffffffffffffff8111156108b6576108b5612646565b5b6040519080825280602002602001820160405280156108e45781602001602082028036833780820191505090505b50905060005b845181101561096157610931858281518110610909576109086130ab565b5b6020026020010151858381518110610924576109236130ab565b5b6020026020010151610442565b828281518110610944576109436130ab565b5b6020026020010181815250508061095a90613109565b90506108ea565b508091505092915050565b600080610978836109f0565b119050919050565b610988610fbc565b6109926000611364565b565b61099c610fbc565b6109a6828261142a565b5050565b6000600460009054906101000a900473ffffffffffffffffffffffffffffffffffffffff16905090565b60085481565b6109ec6109e561103a565b8383611456565b5050565b600060036000838152602001908152602001600020549050919050565b600760009054906101000a900473ffffffffffffffffffffffffffffffffffffffff1673ffffffffffffffffffffffffffffffffffffffff163373ffffffffffffffffffffffffffffffffffffffff1614610a94576040517f5990781300000000000000000000000000000000000000000000000000000000815260040160405180910390fd5b6000610aa08385610442565b1415610ad8576040517f669567ea00000000000000000000000000000000000000000000000000000000815260040160405180910390fd5b610ae38284836115c3565b7f1069ba7d3dd3d969eada9a014b1e1a8e2ab1ef7f38989db8ce98e698ac844f65838383604051610b1693929190613152565b60405180910390a1505050565b600760009054906101000a900473ffffffffffffffffffffffffffffffffffffffff1673ffffffffffffffffffffffffffffffffffffffff163373ffffffffffffffffffffffffffffffffffffffff1614610baa576040517f5990781300000000000000000000000000000000000000000000000000000000815260040160405180910390fd5b60006005600085815260200190815260200160002054905060008184610bd091906131b8565b14610c07576040517f93cab43c00000000000000000000000000000000000000000000000000000000815260040160405180910390fd5b610c2d82858386610c1891906131e9565b6040518060200160405280600081525061180a565b7fdefa509aac23bd93e708c91a4f8219d301bb9a4e8f97ad4b87f8c7b140e2590d848484604051610c609392919061321a565b60405180910390a150505050565b600060056000838152602001908152602001600020549050919050565b6000600160008473ffffffffffffffffffffffffffffffffffffffff1673ffffffffffffffffffffffffffffffffffffffff16815260200190815260200160002060008373ffffffffffffffffffffffffffffffffffffffff1673ffffffffffffffffffffffffffffffffffffffff16815260200190815260200160002060009054906101000a900460ff16905092915050565b610d2761103a565b73ffffffffffffffffffffffffffffffffffffffff168573ffffffffffffffffffffffffffffffffffffffff161480610d6d5750610d6c85610d6761103a565b610c8b565b5b610dac576040517f08c379a0000000000000000000000000000000000000000000000000000000008152600401610da390612ff9565b60405180910390fd5b610db985858585856119bb565b5050505050565b610dc8610fbc565b600073ffffffffffffffffffffffffffffffffffffffff168173ffffffffffffffffffffffffffffffffffffffff161415610e38576040517f08c379a0000000000000000000000000000000000000000000000000000000008152600401610e2f906132c3565b60405180910390fd5b610e4181611364565b50565b600760009054906101000a900473ffffffffffffffffffffffffffffffffffffffff1673ffffffffffffffffffffffffffffffffffffffff163373ffffffffffffffffffffffffffffffffffffffff1614610ecb576040517f5990781300000000000000000000000000000000000000000000000000000000815260040160405180910390fd5b60006008549050610edc818461142a565b610ee68183611c57565b610eee611c73565b7f1d1fc946da227e6a068e7d5714eedb69f22e86165b6941d7c7f64e02e7757e578383604051610f1f9291906132e3565b60405180910390a1505050565b600760009054906101000a900473ffffffffffffffffffffffffffffffffffffffff1681565b60007f01ffc9a7000000000000000000000000000000000000000000000000000000007bffffffffffffffffffffffffffffffffffffffffffffffffffffffff1916827bffffffffffffffffffffffffffffffffffffffffffffffffffffffff1916149050919050565b610fc461103a565b73ffffffffffffffffffffffffffffffffffffffff16610fe26109aa565b73ffffffffffffffffffffffffffffffffffffffff1614611038576040517f08c379a000000000000000000000000000000000000000000000000000000000815260040161102f9061335f565b60405180910390fd5b565b600033905090565b8151835114611086576040517f08c379a000000000000000000000000000000000000000000000000000000000815260040161107d906133f1565b60405180910390fd5b600073ffffffffffffffffffffffffffffffffffffffff168473ffffffffffffffffffffffffffffffffffffffff1614156110f6576040517f08c379a00000000000000000000000000000000000000000000000000000000081526004016110ed90613483565b60405180910390fd5b600061110061103a565b9050611110818787878787611c8d565b60005b84518110156112c1576000858281518110611131576111306130ab565b5b6020026020010151905060008583815181106111505761114f6130ab565b5b60200260200101519050600080600084815260200190815260200160002060008b73ffffffffffffffffffffffffffffffffffffffff1673ffffffffffffffffffffffffffffffffffffffff168152602001908152602001600020549050818110156111f1576040517f08c379a00000000000000000000000000000000000000000000000000000000081526004016111e890613515565b60405180910390fd5b81810360008085815260200190815260200160002060008c73ffffffffffffffffffffffffffffffffffffffff1673ffffffffffffffffffffffffffffffffffffffff168152602001908152602001600020819055508160008085815260200190815260200160002060008b73ffffffffffffffffffffffffffffffffffffffff1673ffffffffffffffffffffffffffffffffffffffff16815260200190815260200160002060008282546112a69190613535565b92505081905550505050806112ba90613109565b9050611113565b508473ffffffffffffffffffffffffffffffffffffffff168673ffffffffffffffffffffffffffffffffffffffff168273ffffffffffffffffffffffffffffffffffffffff167f4a39dc06d4c0dbc64b70af90fd698a233a518aa5d07e595d983b8c0526c8f7fb878760405161133892919061358b565b60405180910390a461134e818787878787611e5f565b61135c818787878787611e67565b505050505050565b6000600460009054906101000a900473ffffffffffffffffffffffffffffffffffffffff16905081600460006101000a81548173ffffffffffffffffffffffffffffffffffffffff021916908373ffffffffffffffffffffffffffffffffffffffff1602179055508173ffffffffffffffffffffffffffffffffffffffff168173ffffffffffffffffffffffffffffffffffffffff167f8be0079c531659141344cd1fd0a4f28419497f9722a3daafe3b4186f6b6457e060405160405180910390a35050565b806006600084815260200190815260200160002090805190602001906114519291906122bc565b505050565b8173ffffffffffffffffffffffffffffffffffffffff168373ffffffffffffffffffffffffffffffffffffffff1614156114c5576040517f08c379a00000000000000000000000000000000000000000000000000000000081526004016114bc90613634565b60405180910390fd5b80600160008573ffffffffffffffffffffffffffffffffffffffff1673ffffffffffffffffffffffffffffffffffffffff16815260200190815260200160002060008473ffffffffffffffffffffffffffffffffffffffff1673ffffffffffffffffffffffffffffffffffffffff16815260200190815260200160002060006101000a81548160ff0219169083151502179055508173ffffffffffffffffffffffffffffffffffffffff168373ffffffffffffffffffffffffffffffffffffffff167f17307eab39ab6107e8899845ad3d59bd9653f200f220920489ca2b5937696c31836040516115b69190612511565b60405180910390a3505050565b600073ffffffffffffffffffffffffffffffffffffffff168373ffffffffffffffffffffffffffffffffffffffff161415611633576040517f08c379a000000000000000000000000000000000000000000000000000000000815260040161162a906136c6565b60405180910390fd5b600061163d61103a565b9050600061164a8461203f565b905060006116578461203f565b905061167783876000858560405180602001604052806000815250611c8d565b600080600087815260200190815260200160002060008873ffffffffffffffffffffffffffffffffffffffff1673ffffffffffffffffffffffffffffffffffffffff1681526020019081526020016000205490508481101561170e576040517f08c379a000000000000000000000000000000000000000000000000000000000815260040161170590613758565b60405180910390fd5b84810360008088815260200190815260200160002060008973ffffffffffffffffffffffffffffffffffffffff1673ffffffffffffffffffffffffffffffffffffffff16815260200190815260200160002081905550600073ffffffffffffffffffffffffffffffffffffffff168773ffffffffffffffffffffffffffffffffffffffff168573ffffffffffffffffffffffffffffffffffffffff167fc3d58168c5ae7397731d063d5bbf3d657854427343f4c083240f7aacaa2d0f6289896040516117db929190613778565b60405180910390a461180184886000868660405180602001604052806000815250611e5f565b50505050505050565b600073ffffffffffffffffffffffffffffffffffffffff168473ffffffffffffffffffffffffffffffffffffffff16141561187a576040517f08c379a000000000000000000000000000000000000000000000000000000000815260040161187190613813565b60405180910390fd5b600061188461103a565b905060006118918561203f565b9050600061189e8561203f565b90506118af83600089858589611c8d565b8460008088815260200190815260200160002060008973ffffffffffffffffffffffffffffffffffffffff1673ffffffffffffffffffffffffffffffffffffffff168152602001908152602001600020600082825461190e9190613535565b925050819055508673ffffffffffffffffffffffffffffffffffffffff16600073ffffffffffffffffffffffffffffffffffffffff168473ffffffffffffffffffffffffffffffffffffffff167fc3d58168c5ae7397731d063d5bbf3d657854427343f4c083240f7aacaa2d0f62898960405161198c929190613778565b60405180910390a46119a383600089858589611e5f565b6119b2836000898989896120b9565b50505050505050565b600073ffffffffffffffffffffffffffffffffffffffff168473ffffffffffffffffffffffffffffffffffffffff161415611a2b576040517f08c379a0000000000000000000000000000000000000000000000000000000008152600401611a2290613483565b60405180910390fd5b6000611a3561103a565b90506000611a428561203f565b90506000611a4f8561203f565b9050611a5f838989858589611c8d565b600080600088815260200190815260200160002060008a73ffffffffffffffffffffffffffffffffffffffff1673ffffffffffffffffffffffffffffffffffffffff16815260200190815260200160002054905085811015611af6576040517f08c379a0000000000000000000000000000000000000000000000000000000008152600401611aed90613515565b60405180910390fd5b85810360008089815260200190815260200160002060008b73ffffffffffffffffffffffffffffffffffffffff1673ffffffffffffffffffffffffffffffffffffffff168152602001908152602001600020819055508560008089815260200190815260200160002060008a73ffffffffffffffffffffffffffffffffffffffff1673ffffffffffffffffffffffffffffffffffffffff1681526020019081526020016000206000828254611bab9190613535565b925050819055508773ffffffffffffffffffffffffffffffffffffffff168973ffffffffffffffffffffffffffffffffffffffff168573ffffffffffffffffffffffffffffffffffffffff167fc3d58168c5ae7397731d063d5bbf3d657854427343f4c083240f7aacaa2d0f628a8a604051611c28929190613778565b60405180910390a4611c3e848a8a86868a611e5f565b611c4c848a8a8a8a8a6120b9565b505050505050505050565b8060056000848152602001908152602001600020819055505050565b60086000815480929190611c8690613109565b9190505550565b611c9b868686868686612291565b600073ffffffffffffffffffffffffffffffffffffffff168573ffffffffffffffffffffffffffffffffffffffff161415611d4d5760005b8351811015611d4b57828181518110611cef57611cee6130ab565b5b602002602001015160036000868481518110611d0e57611d0d6130ab565b5b602002602001015181526020019081526020016000206000828254611d339190613535565b9250508190555080611d4490613109565b9050611cd3565b505b600073ffffffffffffffffffffffffffffffffffffffff168473ffffffffffffffffffffffffffffffffffffffff161415611e575760005b8351811015611e55576000848281518110611da357611da26130ab565b5b602002602001015190506000848381518110611dc257611dc16130ab565b5b6020026020010151905060006003600084815260200190815260200160002054905081811015611e27576040517f08c379a0000000000000000000000000000000000000000000000000000000008152600401611e1e906138a5565b60405180910390fd5b818103600360008581526020019081526020016000208190555050505080611e4e90613109565b9050611d85565b505b505050505050565b505050505050565b611e868473ffffffffffffffffffffffffffffffffffffffff16612299565b15612037578373ffffffffffffffffffffffffffffffffffffffff1663bc197c8187878686866040518663ffffffff1660e01b8152600401611ecc95949392919061391a565b6020604051808303816000875af1925050508015611f0857506040513d601f19601f82011682018060405250810190611f059190613997565b60015b611fae57611f146139d1565b806308c379a01415611f715750611f296139f3565b80611f345750611f73565b806040517f08c379a0000000000000000000000000000000000000000000000000000000008152600401611f68919061261f565b60405180910390fd5b505b6040517f08c379a0000000000000000000000000000000000000000000000000000000008152600401611fa590613afb565b60405180910390fd5b63bc197c8160e01b7bffffffffffffffffffffffffffffffffffffffffffffffffffffffff1916817bffffffffffffffffffffffffffffffffffffffffffffffffffffffff191614612035576040517f08c379a000000000000000000000000000000000000000000000000000000000815260040161202c90613b8d565b60405180910390fd5b505b505050505050565b60606000600167ffffffffffffffff81111561205e5761205d612646565b5b60405190808252806020026020018201604052801561208c5781602001602082028036833780820191505090505b50905082816000815181106120a4576120a36130ab565b5b60200260200101818152505080915050919050565b6120d88473ffffffffffffffffffffffffffffffffffffffff16612299565b15612289578373ffffffffffffffffffffffffffffffffffffffff1663f23a6e6187878686866040518663ffffffff1660e01b815260040161211e959493929190613bad565b6020604051808303816000875af192505050801561215a57506040513d601f19601f820116820180604052508101906121579190613997565b60015b612200576121666139d1565b806308c379a014156121c3575061217b6139f3565b8061218657506121c5565b806040517f08c379a00000000000000000000000000000000000000000000000000000000081526004016121ba919061261f565b60405180910390fd5b505b6040517f08c379a00000000000000000000000000000000000000000000000000000000081526004016121f790613afb565b60405180910390fd5b63f23a6e6160e01b7bffffffffffffffffffffffffffffffffffffffffffffffffffffffff1916817bffffffffffffffffffffffffffffffffffffffffffffffffffffffff191614612287576040517f08c379a000000000000000000000000000000000000000000000000000000000815260040161227e90613b8d565b60405180910390fd5b505b505050505050565b505050505050565b6000808273ffffffffffffffffffffffffffffffffffffffff163b119050919050565b8280546122c890612f55565b90600052602060002090601f0160209004810192826122ea5760008555612331565b82601f1061230357805160ff1916838001178555612331565b82800160010185558215612331579182015b82811115612330578251825591602001919060010190612315565b5b50905061233e9190612342565b5090565b5b8082111561235b576000816000905550600101612343565b5090565b6000604051905090565b600080fd5b600080fd5b600073ffffffffffffffffffffffffffffffffffffffff82169050919050565b600061239e82612373565b9050919050565b6123ae81612393565b81146123b957600080fd5b50565b6000813590506123cb816123a5565b92915050565b6000819050919050565b6123e4816123d1565b81146123ef57600080fd5b50565b600081359050612401816123db565b92915050565b6000806040838503121561241e5761241d612369565b5b600061242c858286016123bc565b925050602061243d858286016123f2565b9150509250929050565b612450816123d1565b82525050565b600060208201905061246b6000830184612447565b92915050565b60007fffffffff0000000000000000000000000000000000000000000000000000000082169050919050565b6124a681612471565b81146124b157600080fd5b50565b6000813590506124c38161249d565b92915050565b6000602082840312156124df576124de612369565b5b60006124ed848285016124b4565b91505092915050565b60008115159050919050565b61250b816124f6565b82525050565b60006020820190506125266000830184612502565b92915050565b60006020828403121561254257612541612369565b5b6000612550848285016123bc565b91505092915050565b60006020828403121561256f5761256e612369565b5b600061257d848285016123f2565b91505092915050565b600081519050919050565b600082825260208201905092915050565b60005b838110156125c05780820151818401526020810190506125a5565b838111156125cf576000848401525b50505050565b6000601f19601f8301169050919050565b60006125f182612586565b6125fb8185612591565b935061260b8185602086016125a2565b612614816125d5565b840191505092915050565b6000602082019050818103600083015261263981846125e6565b905092915050565b600080fd5b7f4e487b7100000000000000000000000000000000000000000000000000000000600052604160045260246000fd5b61267e826125d5565b810181811067ffffffffffffffff8211171561269d5761269c612646565b5b80604052505050565b60006126b061235f565b90506126bc8282612675565b919050565b600067ffffffffffffffff8211156126dc576126db612646565b5b602082029050602081019050919050565b600080fd5b6000612705612700846126c1565b6126a6565b90508083825260208201905060208402830185811115612728576127276126ed565b5b835b81811015612751578061273d88826123f2565b84526020840193505060208101905061272a565b5050509392505050565b600082601f8301126127705761276f612641565b5b81356127808482602086016126f2565b91505092915050565b600080fd5b600067ffffffffffffffff8211156127a9576127a8612646565b5b6127b2826125d5565b9050602081019050919050565b82818337600083830152505050565b60006127e16127dc8461278e565b6126a6565b9050828152602081018484840111156127fd576127fc612789565b5b6128088482856127bf565b509392505050565b600082601f83011261282557612824612641565b5b81356128358482602086016127ce565b91505092915050565b600080600080600060a0868803121561285a57612859612369565b5b6000612868888289016123bc565b9550506020612879888289016123bc565b945050604086013567ffffffffffffffff81111561289a5761289961236e565b5b6128a68882890161275b565b935050606086013567ffffffffffffffff8111156128c7576128c661236e565b5b6128d38882890161275b565b925050608086013567ffffffffffffffff8111156128f4576128f361236e565b5b61290088828901612810565b9150509295509295909350565b600067ffffffffffffffff82111561292857612927612646565b5b602082029050602081019050919050565b600061294c6129478461290d565b6126a6565b9050808382526020820190506020840283018581111561296f5761296e6126ed565b5b835b81811015612998578061298488826123bc565b845260208401935050602081019050612971565b5050509392505050565b600082601f8301126129b7576129b6612641565b5b81356129c7848260208601612939565b91505092915050565b600080604083850312156129e7576129e6612369565b5b600083013567ffffffffffffffff811115612a0557612a0461236e565b5b612a11858286016129a2565b925050602083013567ffffffffffffffff811115612a3257612a3161236e565b5b612a3e8582860161275b565b9150509250929050565b600081519050919050565b600082825260208201905092915050565b6000819050602082019050919050565b612a7d816123d1565b82525050565b6000612a8f8383612a74565b60208301905092915050565b6000602082019050919050565b6000612ab382612a48565b612abd8185612a53565b9350612ac883612a64565b8060005b83811015612af9578151612ae08882612a83565b9750612aeb83612a9b565b925050600181019050612acc565b5085935050505092915050565b60006020820190508181036000830152612b208184612aa8565b905092915050565b600067ffffffffffffffff821115612b4357612b42612646565b5b612b4c826125d5565b9050602081019050919050565b6000612b6c612b6784612b28565b6126a6565b905082815260208101848484011115612b8857612b87612789565b5b612b938482856127bf565b509392505050565b600082601f830112612bb057612baf612641565b5b8135612bc0848260208601612b59565b91505092915050565b60008060408385031215612be057612bdf612369565b5b6000612bee858286016123f2565b925050602083013567ffffffffffffffff811115612c0f57612c0e61236e565b5b612c1b85828601612b9b565b9150509250929050565b612c2e81612393565b82525050565b6000602082019050612c496000830184612c25565b92915050565b612c58816124f6565b8114612c6357600080fd5b50565b600081359050612c7581612c4f565b92915050565b60008060408385031215612c9257612c91612369565b5b6000612ca0858286016123bc565b9250506020612cb185828601612c66565b9150509250929050565b600080600060608486031215612cd457612cd3612369565b5b6000612ce2868287016123f2565b9350506020612cf3868287016123bc565b9250506040612d04868287016123f2565b9150509250925092565b600080600060608486031215612d2757612d26612369565b5b6000612d35868287016123f2565b9350506020612d46868287016123f2565b9250506040612d57868287016123bc565b9150509250925092565b60008060408385031215612d7857612d77612369565b5b6000612d86858286016123bc565b9250506020612d97858286016123bc565b9150509250929050565b600080600080600060a08688031215612dbd57612dbc612369565b5b6000612dcb888289016123bc565b9550506020612ddc888289016123bc565b9450506040612ded888289016123f2565b9350506060612dfe888289016123f2565b925050608086013567ffffffffffffffff811115612e1f57612e1e61236e565b5b612e2b88828901612810565b9150509295509295909350565b60008060408385031215612e4f57612e4e612369565b5b600083013567ffffffffffffffff811115612e6d57612e6c61236e565b5b612e7985828601612b9b565b9250506020612e8a858286016123f2565b9150509250929050565b7f455243313135353a2061646472657373207a65726f206973206e6f742061207660008201527f616c6964206f776e657200000000000000000000000000000000000000000000602082015250565b6000612ef0602a83612591565b9150612efb82612e94565b604082019050919050565b60006020820190508181036000830152612f1f81612ee3565b9050919050565b7f4e487b7100000000000000000000000000000000000000000000000000000000600052602260045260246000fd5b60006002820490506001821680612f6d57607f821691505b60208210811415612f8157612f80612f26565b5b50919050565b7f455243313135353a2063616c6c6572206973206e6f7420746f6b656e206f776e60008201527f6572206e6f7220617070726f7665640000000000000000000000000000000000602082015250565b6000612fe3602f83612591565b9150612fee82612f87565b604082019050919050565b6000602082019050818103600083015261301281612fd6565b9050919050565b7f455243313135353a206163636f756e747320616e6420696473206c656e67746860008201527f206d69736d617463680000000000000000000000000000000000000000000000602082015250565b6000613075602983612591565b915061308082613019565b604082019050919050565b600060208201905081810360008301526130a481613068565b9050919050565b7f4e487b7100000000000000000000000000000000000000000000000000000000600052603260045260246000fd5b7f4e487b7100000000000000000000000000000000000000000000000000000000600052601160045260246000fd5b6000613114826123d1565b91507fffffffffffffffffffffffffffffffffffffffffffffffffffffffffffffffff821415613147576131466130da565b5b600182019050919050565b60006060820190506131676000830186612447565b6131746020830185612c25565b6131816040830184612447565b949350505050565b7f4e487b7100000000000000000000000000000000000000000000000000000000600052601260045260246000fd5b60006131c3826123d1565b91506131ce836123d1565b9250826131de576131dd613189565b5b828206905092915050565b60006131f4826123d1565b91506131ff836123d1565b92508261320f5761320e613189565b5b828204905092915050565b600060608201905061322f6000830186612447565b61323c6020830185612447565b6132496040830184612c25565b949350505050565b7f4f776e61626c653a206e6577206f776e657220697320746865207a65726f206160008201527f6464726573730000000000000000000000000000000000000000000000000000602082015250565b60006132ad602683612591565b91506132b882613251565b604082019050919050565b600060208201905081810360008301526132dc816132a0565b9050919050565b600060408201905081810360008301526132fd81856125e6565b905061330c6020830184612447565b9392505050565b7f4f776e61626c653a2063616c6c6572206973206e6f7420746865206f776e6572600082015250565b6000613349602083612591565b915061335482613313565b602082019050919050565b600060208201905081810360008301526133788161333c565b9050919050565b7f455243313135353a2069647320616e6420616d6f756e7473206c656e6774682060008201527f6d69736d61746368000000000000000000000000000000000000000000000000602082015250565b60006133db602883612591565b91506133e68261337f565b604082019050919050565b6000602082019050818103600083015261340a816133ce565b9050919050565b7f455243313135353a207472616e7366657220746f20746865207a65726f20616460008201527f6472657373000000000000000000000000000000000000000000000000000000602082015250565b600061346d602583612591565b915061347882613411565b604082019050919050565b6000602082019050818103600083015261349c81613460565b9050919050565b7f455243313135353a20696e73756666696369656e742062616c616e636520666f60008201527f72207472616e7366657200000000000000000000000000000000000000000000602082015250565b60006134ff602a83612591565b915061350a826134a3565b604082019050919050565b6000602082019050818103600083015261352e816134f2565b9050919050565b6000613540826123d1565b915061354b836123d1565b9250827fffffffffffffffffffffffffffffffffffffffffffffffffffffffffffffffff038211156135805761357f6130da565b5b828201905092915050565b600060408201905081810360008301526135a58185612aa8565b905081810360208301526135b98184612aa8565b90509392505050565b7f455243313135353a2073657474696e6720617070726f76616c2073746174757360008201527f20666f722073656c660000000000000000000000000000000000000000000000602082015250565b600061361e602983612591565b9150613629826135c2565b604082019050919050565b6000602082019050818103600083015261364d81613611565b9050919050565b7f455243313135353a206275726e2066726f6d20746865207a65726f206164647260008201527f6573730000000000000000000000000000000000000000000000000000000000602082015250565b60006136b0602383612591565b91506136bb82613654565b604082019050919050565b600060208201905081810360008301526136df816136a3565b9050919050565b7f455243313135353a206275726e20616d6f756e7420657863656564732062616c60008201527f616e636500000000000000000000000000000000000000000000000000000000602082015250565b6000613742602483612591565b915061374d826136e6565b604082019050919050565b6000602082019050818103600083015261377181613735565b9050919050565b600060408201905061378d6000830185612447565b61379a6020830184612447565b9392505050565b7f455243313135353a206d696e7420746f20746865207a65726f2061646472657360008201527f7300000000000000000000000000000000000000000000000000000000000000602082015250565b60006137fd602183612591565b9150613808826137a1565b604082019050919050565b6000602082019050818103600083015261382c816137f0565b9050919050565b7f455243313135353a206275726e20616d6f756e74206578636565647320746f7460008201527f616c537570706c79000000000000000000000000000000000000000000000000602082015250565b600061388f602883612591565b915061389a82613833565b604082019050919050565b600060208201905081810360008301526138be81613882565b9050919050565b600081519050919050565b600082825260208201905092915050565b60006138ec826138c5565b6138f681856138d0565b93506139068185602086016125a2565b61390f816125d5565b840191505092915050565b600060a08201905061392f6000830188612c25565b61393c6020830187612c25565b818103604083015261394e8186612aa8565b905081810360608301526139628185612aa8565b9050818103608083015261397681846138e1565b90509695505050505050565b6000815190506139918161249d565b92915050565b6000602082840312156139ad576139ac612369565b5b60006139bb84828501613982565b91505092915050565b60008160e01c9050919050565b600060033d11156139f05760046000803e6139ed6000516139c4565b90505b90565b600060443d1015613a0357613a86565b613a0b61235f565b60043d036004823e80513d602482011167ffffffffffffffff82111715613a33575050613a86565b808201805167ffffffffffffffff811115613a515750505050613a86565b80602083010160043d038501811115613a6e575050505050613a86565b613a7d82602001850186612675565b82955050505050505b90565b7f455243313135353a207472616e7366657220746f206e6f6e204552433131353560008201527f526563656976657220696d706c656d656e746572000000000000000000000000602082015250565b6000613ae5603483612591565b9150613af082613a89565b604082019050919050565b60006020820190508181036000830152613b1481613ad8565b9050919050565b7f455243313135353a204552433131353552656365697665722072656a6563746560008201527f6420746f6b656e73000000000000000000000000000000000000000000000000602082015250565b6000613b77602883612591565b9150613b8282613b1b565b604082019050919050565b60006020820190508181036000830152613ba681613b6a565b9050919050565b600060a082019050613bc26000830188612c25565b613bcf6020830187612c25565b613bdc6040830186612447565b613be96060830185612447565b8181036080830152613bfb81846138e1565b9050969550505050505056fea26469706673582212204f7a9e913c0d257524a628b97881c80eccf13696915cbf2f59616ec9d1319f6b64736f6c634300080b0033",
  "devdoc": {
    "kind": "dev",
    "methods": {
      "balanceOf(address,uint256)": {
        "details": "See {IERC1155-balanceOf}. Requirements: - `account` cannot be the zero address."
      },
      "balanceOfBatch(address[],uint256[])": {
        "details": "See {IERC1155-balanceOfBatch}. Requirements: - `accounts` and `ids` must have the same length."
      },
      "createLoan(uint256,uint256,address)": {
        "params": {
          "principal": "the total value of tokens user want to mint",
          "tokenId": "id of the project"
        }
      },
      "exists(uint256)": {
        "details": "Indicates whether any token exist with a given id, or not."
      },
      "isApprovedForAll(address,address)": {
        "details": "See {IERC1155-isApprovedForAll}."
      },
      "owner()": {
        "details": "Returns the address of the current owner."
      },
      "renounceOwnership()": {
        "details": "Leaves the contract without owner. It will not be possible to call `onlyOwner` functions anymore. Can only be called by the current owner. NOTE: Renouncing ownership will leave the contract without an owner, thereby removing any functionality that is only available to the owner."
      },
      "safeBatchTransferFrom(address,address,uint256[],uint256[],bytes)": {
        "details": "See {IERC1155-safeBatchTransferFrom}."
      },
      "safeTransferFrom(address,address,uint256,uint256,bytes)": {
        "details": "See {IERC1155-safeTransferFrom}."
      },
      "setApprovalForAll(address,bool)": {
        "details": "See {IERC1155-setApprovalForAll}."
      },
      "supportsInterface(bytes4)": {
        "details": "See {IERC165-supportsInterface}."
      },
      "totalSupply(uint256)": {
        "details": "Total amount of tokens in with a given id."
      },
      "transferOwnership(address)": {
        "details": "Transfers ownership of the contract to a new account (`newOwner`). Can only be called by the current owner."
      }
    },
    "version": 1
  },
  "userdoc": {
    "events": {
      "InitProject(string,uint256)": {
        "notice": "Events."
      }
    },
    "kind": "user",
    "methods": {
      "constructor": {
        "notice": "Constructor."
      },
      "createLoan(uint256,uint256,address)": {
        "notice": "Mint tokens corresponding amount to unit value"
      }
    },
    "notice": "tokenId is projectId",
    "version": 1
  },
  "storageLayout": {
    "storage": [
      {
        "astId": 138,
        "contract": "contracts/NftBond.sol:NftBond",
        "label": "_balances",
        "offset": 0,
        "slot": "0",
        "type": "t_mapping(t_uint256,t_mapping(t_address,t_uint256))"
      },
      {
        "astId": 144,
        "contract": "contracts/NftBond.sol:NftBond",
        "label": "_operatorApprovals",
        "offset": 0,
        "slot": "1",
        "type": "t_mapping(t_address,t_mapping(t_address,t_bool))"
      },
      {
        "astId": 146,
        "contract": "contracts/NftBond.sol:NftBond",
        "label": "_uri",
        "offset": 0,
        "slot": "2",
        "type": "t_string_storage"
      },
      {
        "astId": 1508,
        "contract": "contracts/NftBond.sol:NftBond",
        "label": "_totalSupply",
        "offset": 0,
        "slot": "3",
        "type": "t_mapping(t_uint256,t_uint256)"
      },
      {
        "astId": 7,
        "contract": "contracts/NftBond.sol:NftBond",
        "label": "_owner",
        "offset": 0,
        "slot": "4",
        "type": "t_address"
      },
      {
        "astId": 3171,
        "contract": "contracts/NftBond.sol:NftBond",
        "label": "_unit",
        "offset": 0,
        "slot": "5",
        "type": "t_mapping(t_uint256,t_uint256)"
      },
      {
        "astId": 3175,
        "contract": "contracts/NftBond.sol:NftBond",
        "label": "_uri",
        "offset": 0,
        "slot": "6",
        "type": "t_mapping(t_uint256,t_string_storage)"
      },
      {
        "astId": 3177,
        "contract": "contracts/NftBond.sol:NftBond",
        "label": "controller",
        "offset": 0,
        "slot": "7",
        "type": "t_address"
      },
      {
        "astId": 3179,
        "contract": "contracts/NftBond.sol:NftBond",
        "label": "tokenIdCounter",
        "offset": 0,
        "slot": "8",
        "type": "t_uint256"
      }
    ],
    "types": {
      "t_address": {
        "encoding": "inplace",
        "label": "address",
        "numberOfBytes": "20"
      },
      "t_bool": {
        "encoding": "inplace",
        "label": "bool",
        "numberOfBytes": "1"
      },
      "t_mapping(t_address,t_bool)": {
        "encoding": "mapping",
        "key": "t_address",
        "label": "mapping(address => bool)",
        "numberOfBytes": "32",
        "value": "t_bool"
      },
      "t_mapping(t_address,t_mapping(t_address,t_bool))": {
        "encoding": "mapping",
        "key": "t_address",
        "label": "mapping(address => mapping(address => bool))",
        "numberOfBytes": "32",
        "value": "t_mapping(t_address,t_bool)"
      },
      "t_mapping(t_address,t_uint256)": {
        "encoding": "mapping",
        "key": "t_address",
        "label": "mapping(address => uint256)",
        "numberOfBytes": "32",
        "value": "t_uint256"
      },
      "t_mapping(t_uint256,t_mapping(t_address,t_uint256))": {
        "encoding": "mapping",
        "key": "t_uint256",
        "label": "mapping(uint256 => mapping(address => uint256))",
        "numberOfBytes": "32",
        "value": "t_mapping(t_address,t_uint256)"
      },
      "t_mapping(t_uint256,t_string_storage)": {
        "encoding": "mapping",
        "key": "t_uint256",
        "label": "mapping(uint256 => string)",
        "numberOfBytes": "32",
        "value": "t_string_storage"
      },
      "t_mapping(t_uint256,t_uint256)": {
        "encoding": "mapping",
        "key": "t_uint256",
        "label": "mapping(uint256 => uint256)",
        "numberOfBytes": "32",
        "value": "t_uint256"
      },
      "t_string_storage": {
        "encoding": "bytes",
        "label": "string",
        "numberOfBytes": "32"
      },
      "t_uint256": {
        "encoding": "inplace",
        "label": "uint256",
        "numberOfBytes": "32"
      }
    }
  }
}