{
  "address": "0x7FBC477001413beD2530334433553a204dA9eF05",
  "abi": [
    {
      "inputs": [
        {
          "internalType": "contract NftBond",
          "name": "nft_",
          "type": "address"
        },
        {
          "internalType": "address",
          "name": "router_",
          "type": "address"
        },
        {
          "internalType": "address",
          "name": "usdc_",
          "type": "address"
        },
        {
          "internalType": "address",
          "name": "weth_",
          "type": "address"
        }
      ],
      "stateMutability": "nonpayable",
      "type": "constructor"
    },
    {
      "inputs": [],
      "name": "Borrow_DepositNotEnded",
      "type": "error"
    },
    {
      "inputs": [],
      "name": "Deposit_Ended",
      "type": "error"
    },
    {
      "inputs": [],
      "name": "Deposit_ExceededTotalAmount",
      "type": "error"
    },
    {
      "inputs": [],
      "name": "Deposit_NotDivisibleByDecimals",
      "type": "error"
    },
    {
      "inputs": [],
      "name": "Deposit_NotStarted",
      "type": "error"
    },
    {
      "inputs": [],
      "name": "InitProject_InvalidTargetAmountInput",
      "type": "error"
    },
    {
      "inputs": [],
      "name": "InitProject_InvalidTimestampInput",
      "type": "error"
    },
    {
      "inputs": [],
      "name": "NotExistingProject",
      "type": "error"
    },
    {
      "inputs": [],
      "name": "NotExistingToken",
      "type": "error"
    },
    {
      "inputs": [],
      "name": "Repay_AlreadyDepositted",
      "type": "error"
    },
    {
      "inputs": [],
      "name": "Repay_DepositNotEnded",
      "type": "error"
    },
    {
      "inputs": [],
      "name": "Repay_NotEnoughAmountInput",
      "type": "error"
    },
    {
      "inputs": [],
      "name": "Withdraw_NotRepayedProject",
      "type": "error"
    },
    {
      "anonymous": false,
      "inputs": [],
      "name": "Controller_NewProject",
      "type": "event"
    },
    {
      "anonymous": false,
      "inputs": [
        {
          "indexed": true,
          "internalType": "address",
          "name": "previousOwner",
          "type": "address"
        },
        {
          "indexed": true,
          "internalType": "address",
          "name": "newOwner",
          "type": "address"
        }
      ],
      "name": "OwnershipTransferred",
      "type": "event"
    },
    {
      "inputs": [],
      "name": "USDC",
      "outputs": [
        {
          "internalType": "address",
          "name": "",
          "type": "address"
        }
      ],
      "stateMutability": "view",
      "type": "function"
    },
    {
      "inputs": [],
      "name": "WETH9",
      "outputs": [
        {
          "internalType": "address",
          "name": "",
          "type": "address"
        }
      ],
      "stateMutability": "view",
      "type": "function"
    },
    {
      "inputs": [
        {
          "internalType": "uint256",
          "name": "projectId",
          "type": "uint256"
        }
      ],
      "name": "borrow",
      "outputs": [],
      "stateMutability": "nonpayable",
      "type": "function"
    },
    {
      "inputs": [],
      "name": "decimal",
      "outputs": [
        {
          "internalType": "uint256",
          "name": "",
          "type": "uint256"
        }
      ],
      "stateMutability": "view",
      "type": "function"
    },
    {
      "inputs": [
        {
          "internalType": "uint256",
          "name": "projectId",
          "type": "uint256"
        },
        {
          "internalType": "uint256",
          "name": "amount",
          "type": "uint256"
        }
      ],
      "name": "deposit",
      "outputs": [],
      "stateMutability": "payable",
      "type": "function"
    },
    {
      "inputs": [
        {
          "internalType": "uint256",
          "name": "targetAmount",
          "type": "uint256"
        },
        {
          "internalType": "uint256",
          "name": "depositStartTs",
          "type": "uint256"
        },
        {
          "internalType": "uint256",
          "name": "depositEndTs",
          "type": "uint256"
        },
        {
          "internalType": "uint256",
          "name": "unit",
          "type": "uint256"
        },
        {
          "internalType": "string",
          "name": "uri",
          "type": "string"
        }
      ],
      "name": "initProject",
      "outputs": [],
      "stateMutability": "nonpayable",
      "type": "function"
    },
    {
      "inputs": [],
      "name": "nft",
      "outputs": [
        {
          "internalType": "contract NftBond",
          "name": "",
          "type": "address"
        }
      ],
      "stateMutability": "view",
      "type": "function"
    },
    {
      "inputs": [],
      "name": "owner",
      "outputs": [
        {
          "internalType": "address",
          "name": "",
          "type": "address"
        }
      ],
      "stateMutability": "view",
      "type": "function"
    },
    {
      "inputs": [
        {
          "internalType": "uint256",
          "name": "",
          "type": "uint256"
        }
      ],
      "name": "projects",
      "outputs": [
        {
          "internalType": "uint256",
          "name": "totalAmount",
          "type": "uint256"
        },
        {
          "internalType": "uint256",
          "name": "currentAmount",
          "type": "uint256"
        },
        {
          "internalType": "uint256",
          "name": "depositStartTs",
          "type": "uint256"
        },
        {
          "internalType": "uint256",
          "name": "depositEndTs",
          "type": "uint256"
        },
        {
          "internalType": "uint256",
          "name": "finalAmount",
          "type": "uint256"
        },
        {
          "internalType": "bool",
          "name": "repayed",
          "type": "bool"
        }
      ],
      "stateMutability": "view",
      "type": "function"
    },
    {
      "inputs": [],
      "name": "renounceOwnership",
      "outputs": [],
      "stateMutability": "nonpayable",
      "type": "function"
    },
    {
      "inputs": [
        {
          "internalType": "uint256",
          "name": "projectId",
          "type": "uint256"
        },
        {
          "internalType": "uint256",
          "name": "amount",
          "type": "uint256"
        }
      ],
      "name": "repay",
      "outputs": [],
      "stateMutability": "nonpayable",
      "type": "function"
    },
    {
      "inputs": [],
      "name": "router",
      "outputs": [
        {
          "internalType": "address",
          "name": "",
          "type": "address"
        }
      ],
      "stateMutability": "view",
      "type": "function"
    },
    {
      "inputs": [
        {
          "internalType": "uint256",
          "name": "amountOut",
          "type": "uint256"
        }
      ],
      "name": "swapExactOutputSingle",
      "outputs": [],
      "stateMutability": "payable",
      "type": "function"
    },
    {
      "inputs": [],
      "name": "swapRouter",
      "outputs": [
        {
          "internalType": "address",
          "name": "",
          "type": "address"
        }
      ],
      "stateMutability": "view",
      "type": "function"
    },
    {
      "inputs": [
        {
          "internalType": "address",
          "name": "newOwner",
          "type": "address"
        }
      ],
      "name": "transferOwnership",
      "outputs": [],
      "stateMutability": "nonpayable",
      "type": "function"
    },
    {
      "inputs": [],
      "name": "usdc",
      "outputs": [
        {
          "internalType": "address",
          "name": "",
          "type": "address"
        }
      ],
      "stateMutability": "view",
      "type": "function"
    },
    {
      "inputs": [],
      "name": "weth",
      "outputs": [
        {
          "internalType": "address",
          "name": "",
          "type": "address"
        }
      ],
      "stateMutability": "view",
      "type": "function"
    },
    {
      "inputs": [
        {
          "internalType": "uint256",
          "name": "projectId",
          "type": "uint256"
        }
      ],
      "name": "withdraw",
      "outputs": [],
      "stateMutability": "nonpayable",
      "type": "function"
    },
    {
      "stateMutability": "payable",
      "type": "receive"
    }
  ],
  "transactionHash": "0x89b87f29ec73cb77e5f781e76c08796d6421550d209d8ee9716fc17aa412156e",
  "args": [
    "0x90fDe0A8d8D1Ff853B39abf149260276aee15EB5",
    "0xE592427A0AEce92De3Edee1F18E0157C05861564",
    "0xA0b86991c6218b36c1d19D4a2e9Eb0cE3606eB48",
    "0xC02aaA39b223FE8D0A0e5C4F27eAD9083C756Cc2"
  ],
  "numDeployments": 1,
  "solcInputHash": "edfdd5fa849409fbea81e622fb47e3c9",
  "bytecode": "0x60806040523480156200001157600080fd5b5060405162002b9638038062002b9683398181016040528101906200003791906200035b565b620000576200004b620001e060201b60201c565b620001e860201b60201c565b83600160006101000a81548173ffffffffffffffffffffffffffffffffffffffff021916908373ffffffffffffffffffffffffffffffffffffffff16021790555082600260006101000a81548173ffffffffffffffffffffffffffffffffffffffff021916908373ffffffffffffffffffffffffffffffffffffffff16021790555081600360006101000a81548173ffffffffffffffffffffffffffffffffffffffff021916908373ffffffffffffffffffffffffffffffffffffffff16021790555080600460006101000a81548173ffffffffffffffffffffffffffffffffffffffff021916908373ffffffffffffffffffffffffffffffffffffffff1602179055508173ffffffffffffffffffffffffffffffffffffffff1663313ce5676040518163ffffffff1660e01b8152600401602060405180830381865afa158015620001a7573d6000803e3d6000fd5b505050506040513d601f19601f82011682018060405250810190620001cd91906200040b565b60ff16600581905550505050506200043d565b600033905090565b60008060009054906101000a900473ffffffffffffffffffffffffffffffffffffffff169050816000806101000a81548173ffffffffffffffffffffffffffffffffffffffff021916908373ffffffffffffffffffffffffffffffffffffffff1602179055508173ffffffffffffffffffffffffffffffffffffffff168173ffffffffffffffffffffffffffffffffffffffff167f8be0079c531659141344cd1fd0a4f28419497f9722a3daafe3b4186f6b6457e060405160405180910390a35050565b600080fd5b600073ffffffffffffffffffffffffffffffffffffffff82169050919050565b6000620002de82620002b1565b9050919050565b6000620002f282620002d1565b9050919050565b6200030481620002e5565b81146200031057600080fd5b50565b6000815190506200032481620002f9565b92915050565b6200033581620002d1565b81146200034157600080fd5b50565b60008151905062000355816200032a565b92915050565b60008060008060808587031215620003785762000377620002ac565b5b6000620003888782880162000313565b94505060206200039b8782880162000344565b9350506040620003ae8782880162000344565b9250506060620003c18782880162000344565b91505092959194509250565b600060ff82169050919050565b620003e581620003cd565b8114620003f157600080fd5b50565b6000815190506200040581620003da565b92915050565b600060208284031215620004245762000423620002ac565b5b60006200043484828501620003f4565b91505092915050565b612749806200044d6000396000f3fe60806040526004361061010d5760003560e01c8063889ad54c11610095578063c5ebeaec11610064578063c5ebeaec14610338578063d8aed14514610361578063e2bbb1581461038a578063f2fde38b146103a6578063f887ea40146103cf57610114565b8063889ad54c1461029b57806389a30271146102b75780638da5cb5b146102e2578063c31c9c071461030d57610114565b8063452f8f04116100dc578063452f8f04146101da57806347ccca02146102035780634aa4a4fc1461022e578063715018a61461025957806376809ce31461027057610114565b8063107046bd146101195780632e1a7d4d1461015b5780633e413bee146101845780633fc8cef3146101af57610114565b3661011457005b600080fd5b34801561012557600080fd5b50610140600480360381019061013b91906118f5565b6103fa565b6040516101529695949392919061194c565b60405180910390f35b34801561016757600080fd5b50610182600480360381019061017d91906118f5565b610443565b005b34801561019057600080fd5b506101996106ce565b6040516101a691906119ee565b60405180910390f35b3480156101bb57600080fd5b506101c46106f4565b6040516101d191906119ee565b60405180910390f35b3480156101e657600080fd5b5061020160048036038101906101fc9190611b4f565b61071a565b005b34801561020f57600080fd5b506102186109a6565b6040516102259190611c45565b60405180910390f35b34801561023a57600080fd5b506102436109cc565b60405161025091906119ee565b60405180910390f35b34801561026557600080fd5b5061026e6109e4565b005b34801561027c57600080fd5b506102856109f8565b6040516102929190611c60565b60405180910390f35b6102b560048036038101906102b091906118f5565b6109fe565b005b3480156102c357600080fd5b506102cc610d07565b6040516102d991906119ee565b60405180910390f35b3480156102ee57600080fd5b506102f7610d1f565b60405161030491906119ee565b60405180910390f35b34801561031957600080fd5b50610322610d48565b60405161032f91906119ee565b60405180910390f35b34801561034457600080fd5b5061035f600480360381019061035a91906118f5565b610d60565b005b34801561036d57600080fd5b5061038860048036038101906103839190611c7b565b610eab565b005b6103a4600480360381019061039f9190611c7b565b611091565b005b3480156103b257600080fd5b506103cd60048036038101906103c89190611ce7565b611318565b005b3480156103db57600080fd5b506103e461139c565b6040516103f191906119ee565b60405180910390f35b60066020528060005260406000206000915090508060000154908060010154908060020154908060030154908060040154908060050160009054906101000a900460ff16905086565b600081141561047e576040517f58343d0400000000000000000000000000000000000000000000000000000000815260040160405180910390fd5b60006006600083815260200190815260200160002090506000816002015414156104d4576040517f8652b88000000000000000000000000000000000000000000000000000000000815260040160405180910390fd5b8060050160009054906101000a900460ff1661051c576040517fd7c09c7c00000000000000000000000000000000000000000000000000000000815260040160405180910390fd5b6000600160009054906101000a900473ffffffffffffffffffffffffffffffffffffffff1673ffffffffffffffffffffffffffffffffffffffff1662fdd58e33856040518363ffffffff1660e01b815260040161057a929190611d14565b602060405180830381865afa158015610597573d6000803e3d6000fd5b505050506040513d601f19601f820116820180604052508101906105bb9190611d52565b905060006105c984836113c2565b9050808360010160008282546105df9190611dae565b9250508190555060008360000154826105f89190611e11565b84600401546106079190611e42565b9050610636600360009054906101000a900473ffffffffffffffffffffffffffffffffffffffff163383611491565b600160009054906101000a900473ffffffffffffffffffffffffffffffffffffffff1673ffffffffffffffffffffffffffffffffffffffff1663d87801618633866040518463ffffffff1660e01b815260040161069593929190611e9c565b600060405180830381600087803b1580156106af57600080fd5b505af11580156106c3573d6000803e3d6000fd5b505050505050505050565b600360009054906101000a900473ffffffffffffffffffffffffffffffffffffffff1681565b600460009054906101000a900473ffffffffffffffffffffffffffffffffffffffff1681565b6107226115e6565b42841115806107315750428311155b8061073c5750838311155b15610773576040517f177392d000000000000000000000000000000000000000000000000000000000815260040160405180910390fd5b60008514156107ae576040517f79959cfe00000000000000000000000000000000000000000000000000000000815260040160405180910390fd5b60006040518060c0016040528087815260200160008152602001868152602001858152602001600081526020016000151581525090506000600160009054906101000a900473ffffffffffffffffffffffffffffffffffffffff1673ffffffffffffffffffffffffffffffffffffffff166398bdf6f56040518163ffffffff1660e01b8152600401602060405180830381865afa158015610853573d6000803e3d6000fd5b505050506040513d601f19601f820116820180604052508101906108779190611d52565b90508160066000838152602001908152602001600020600082015181600001556020820151816001015560408201518160020155606082015181600301556080820151816004015560a08201518160050160006101000a81548160ff021916908315150217905550905050600160009054906101000a900473ffffffffffffffffffffffffffffffffffffffff1673ffffffffffffffffffffffffffffffffffffffff1663f6c5feb984866040518363ffffffff1660e01b815260040161093f929190611f5b565b600060405180830381600087803b15801561095957600080fd5b505af115801561096d573d6000803e3d6000fd5b505050507fadbfc99647c65b3f5b3e163ba8df3f82b347ca2c041cc3045f778b2630b3f3e660405160405180910390a150505050505050565b600160009054906101000a900473ffffffffffffffffffffffffffffffffffffffff1681565b73c02aaa39b223fe8d0a0e5c4f27ead9083c756cc281565b6109ec6115e6565b6109f66000611664565b565b60055481565b60008111610a41576040517f08c379a0000000000000000000000000000000000000000000000000000000008152600401610a3890611fd7565b60405180910390fd5b60003411610a84576040517f08c379a0000000000000000000000000000000000000000000000000000000008152600401610a7b90612043565b60405180910390fd5b6000349050600060405180610100016040528073c02aaa39b223fe8d0a0e5c4f27ead9083c756cc273ffffffffffffffffffffffffffffffffffffffff16815260200173a0b86991c6218b36c1d19d4a2e9eb0ce3606eb4873ffffffffffffffffffffffffffffffffffffffff1681526020016101f462ffffff1681526020013073ffffffffffffffffffffffffffffffffffffffff168152602001428152602001848152602001838152602001600073ffffffffffffffffffffffffffffffffffffffff16815250905073e592427a0aece92de3edee1f18e0157c0586156473ffffffffffffffffffffffffffffffffffffffff1663db3e219834836040518363ffffffff1660e01b8152600401610b9d9190612150565b60206040518083038185885af1158015610bbb573d6000803e3d6000fd5b50505050506040513d601f19601f82011682018060405250810190610be09190611d52565b5073e592427a0aece92de3edee1f18e0157c0586156473ffffffffffffffffffffffffffffffffffffffff166312210e8a6040518163ffffffff1660e01b8152600401600060405180830381600087803b158015610c3d57600080fd5b505af1158015610c51573d6000803e3d6000fd5b5050505060003373ffffffffffffffffffffffffffffffffffffffff1647604051610c7b9061219d565b60006040518083038185875af1925050503d8060008114610cb8576040519150601f19603f3d011682016040523d82523d6000602084013e610cbd565b606091505b5050905080610d01576040517f08c379a0000000000000000000000000000000000000000000000000000000008152600401610cf8906121fe565b60405180910390fd5b50505050565b73a0b86991c6218b36c1d19d4a2e9eb0ce3606eb4881565b60008060009054906101000a900473ffffffffffffffffffffffffffffffffffffffff16905090565b73e592427a0aece92de3edee1f18e0157c0586156481565b610d686115e6565b6000600660008381526020019081526020016000209050600081600201541415610dbe576040517f8652b88000000000000000000000000000000000000000000000000000000000815260040160405180910390fd5b8060030154421015610dfc576040517fd12b230800000000000000000000000000000000000000000000000000000000815260040160405180910390fd5b600081600101549050600360009054906101000a900473ffffffffffffffffffffffffffffffffffffffff1673ffffffffffffffffffffffffffffffffffffffff1663a9059cbb33836040518363ffffffff1660e01b8152600401610e62929190611d14565b6020604051808303816000875af1158015610e81573d6000803e3d6000fd5b505050506040513d601f19601f82011682018060405250810190610ea5919061224a565b50505050565b610eb36115e6565b60006006600084815260200190815260200160002090506000816004015414610f08576040517fefe994fa00000000000000000000000000000000000000000000000000000000815260040160405180910390fd5b600081600201541415610f47576040517f8652b88000000000000000000000000000000000000000000000000000000000815260040160405180910390fd5b8060000154821015610f85576040517f821ca7c200000000000000000000000000000000000000000000000000000000815260040160405180910390fd5b4281600301541115610fc3576040517f29d003f300000000000000000000000000000000000000000000000000000000815260040160405180910390fd5b81816004018190555060018160050160006101000a81548160ff021916908315150217905550600360009054906101000a900473ffffffffffffffffffffffffffffffffffffffff1673ffffffffffffffffffffffffffffffffffffffff166323b872dd3330856040518463ffffffff1660e01b815260040161104893929190612277565b6020604051808303816000875af1158015611067573d6000803e3d6000fd5b505050506040513d601f19601f8201168201806040525081019061108b919061224a565b50505050565b60006006600084815260200190815260200160002090506000816002015414156110e7576040517f8652b88000000000000000000000000000000000000000000000000000000000815260040160405180910390fd5b8060020154421015611125576040517fb13fef1900000000000000000000000000000000000000000000000000000000815260040160405180910390fd5b42816003015411611162576040517feaf1d1c500000000000000000000000000000000000000000000000000000000815260040160405180910390fd5b806000015482826001015461117791906122ae565b11156111af576040517fe680a04700000000000000000000000000000000000000000000000000000000815260040160405180910390fd5b6000600554600a6111c09190612437565b836111cb9190612482565b14611202576040517f72f51f5100000000000000000000000000000000000000000000000000000000815260040160405180910390fd5b8160066000858152602001908152602001600020600101600082825461122891906122ae565b925050819055506000341461124557611240826109fe565b611274565b611273600360009054906101000a900473ffffffffffffffffffffffffffffffffffffffff16333085611728565b5b600061127f83611880565b9050600160009054906101000a900473ffffffffffffffffffffffffffffffffffffffff1673ffffffffffffffffffffffffffffffffffffffff1663dc4cab0c8583336040518463ffffffff1660e01b81526004016112e0939291906124b3565b600060405180830381600087803b1580156112fa57600080fd5b505af115801561130e573d6000803e3d6000fd5b5050505050505050565b6113206115e6565b600073ffffffffffffffffffffffffffffffffffffffff168173ffffffffffffffffffffffffffffffffffffffff161415611390576040517f08c379a00000000000000000000000000000000000000000000000000000000081526004016113879061255c565b60405180910390fd5b61139981611664565b50565b600260009054906101000a900473ffffffffffffffffffffffffffffffffffffffff1681565b600080600160009054906101000a900473ffffffffffffffffffffffffffffffffffffffff1673ffffffffffffffffffffffffffffffffffffffff1663e00508ba856040518263ffffffff1660e01b81526004016114209190611c60565b602060405180830381865afa15801561143d573d6000803e3d6000fd5b505050506040513d601f19601f820116820180604052508101906114619190611d52565b9050600554600a6114729190612437565b818461147e9190611e42565b6114889190611e42565b91505092915050565b6000808473ffffffffffffffffffffffffffffffffffffffff1663a9059cbb60e01b85856040516024016114c6929190611d14565b604051602081830303815290604052907bffffffffffffffffffffffffffffffffffffffffffffffffffffffff19166020820180517bffffffffffffffffffffffffffffffffffffffffffffffffffffffff838183161783525050505060405161153091906125b8565b6000604051808303816000865af19150503d806000811461156d576040519150601f19603f3d011682016040523d82523d6000602084013e611572565b606091505b50915091508180156115a0575060008151148061159f57508080602001905181019061159e919061224a565b5b5b6115df576040517f08c379a00000000000000000000000000000000000000000000000000000000081526004016115d69061261b565b60405180910390fd5b5050505050565b6115ee6118a3565b73ffffffffffffffffffffffffffffffffffffffff1661160c610d1f565b73ffffffffffffffffffffffffffffffffffffffff1614611662576040517f08c379a000000000000000000000000000000000000000000000000000000000815260040161165990612687565b60405180910390fd5b565b60008060009054906101000a900473ffffffffffffffffffffffffffffffffffffffff169050816000806101000a81548173ffffffffffffffffffffffffffffffffffffffff021916908373ffffffffffffffffffffffffffffffffffffffff1602179055508173ffffffffffffffffffffffffffffffffffffffff168173ffffffffffffffffffffffffffffffffffffffff167f8be0079c531659141344cd1fd0a4f28419497f9722a3daafe3b4186f6b6457e060405160405180910390a35050565b6000808573ffffffffffffffffffffffffffffffffffffffff166323b872dd60e01b86868660405160240161175f93929190612277565b604051602081830303815290604052907bffffffffffffffffffffffffffffffffffffffffffffffffffffffff19166020820180517bffffffffffffffffffffffffffffffffffffffffffffffffffffffff83818316178352505050506040516117c991906125b8565b6000604051808303816000865af19150503d8060008114611806576040519150601f19603f3d011682016040523d82523d6000602084013e61180b565b606091505b50915091508180156118395750600081511480611838575080806020019051810190611837919061224a565b5b5b611878576040517f08c379a000000000000000000000000000000000000000000000000000000000815260040161186f906126f3565b60405180910390fd5b505050505050565b6000600554600a6118919190612437565b8261189c9190611e11565b9050919050565b600033905090565b6000604051905090565b600080fd5b600080fd5b6000819050919050565b6118d2816118bf565b81146118dd57600080fd5b50565b6000813590506118ef816118c9565b92915050565b60006020828403121561190b5761190a6118b5565b5b6000611919848285016118e0565b91505092915050565b61192b816118bf565b82525050565b60008115159050919050565b61194681611931565b82525050565b600060c0820190506119616000830189611922565b61196e6020830188611922565b61197b6040830187611922565b6119886060830186611922565b6119956080830185611922565b6119a260a083018461193d565b979650505050505050565b600073ffffffffffffffffffffffffffffffffffffffff82169050919050565b60006119d8826119ad565b9050919050565b6119e8816119cd565b82525050565b6000602082019050611a0360008301846119df565b92915050565b600080fd5b600080fd5b6000601f19601f8301169050919050565b7f4e487b7100000000000000000000000000000000000000000000000000000000600052604160045260246000fd5b611a5c82611a13565b810181811067ffffffffffffffff82111715611a7b57611a7a611a24565b5b80604052505050565b6000611a8e6118ab565b9050611a9a8282611a53565b919050565b600067ffffffffffffffff821115611aba57611ab9611a24565b5b611ac382611a13565b9050602081019050919050565b82818337600083830152505050565b6000611af2611aed84611a9f565b611a84565b905082815260208101848484011115611b0e57611b0d611a0e565b5b611b19848285611ad0565b509392505050565b600082601f830112611b3657611b35611a09565b5b8135611b46848260208601611adf565b91505092915050565b600080600080600060a08688031215611b6b57611b6a6118b5565b5b6000611b79888289016118e0565b9550506020611b8a888289016118e0565b9450506040611b9b888289016118e0565b9350506060611bac888289016118e0565b925050608086013567ffffffffffffffff811115611bcd57611bcc6118ba565b5b611bd988828901611b21565b9150509295509295909350565b6000819050919050565b6000611c0b611c06611c01846119ad565b611be6565b6119ad565b9050919050565b6000611c1d82611bf0565b9050919050565b6000611c2f82611c12565b9050919050565b611c3f81611c24565b82525050565b6000602082019050611c5a6000830184611c36565b92915050565b6000602082019050611c756000830184611922565b92915050565b60008060408385031215611c9257611c916118b5565b5b6000611ca0858286016118e0565b9250506020611cb1858286016118e0565b9150509250929050565b611cc4816119cd565b8114611ccf57600080fd5b50565b600081359050611ce181611cbb565b92915050565b600060208284031215611cfd57611cfc6118b5565b5b6000611d0b84828501611cd2565b91505092915050565b6000604082019050611d2960008301856119df565b611d366020830184611922565b9392505050565b600081519050611d4c816118c9565b92915050565b600060208284031215611d6857611d676118b5565b5b6000611d7684828501611d3d565b91505092915050565b7f4e487b7100000000000000000000000000000000000000000000000000000000600052601160045260246000fd5b6000611db9826118bf565b9150611dc4836118bf565b925082821015611dd757611dd6611d7f565b5b828203905092915050565b7f4e487b7100000000000000000000000000000000000000000000000000000000600052601260045260246000fd5b6000611e1c826118bf565b9150611e27836118bf565b925082611e3757611e36611de2565b5b828204905092915050565b6000611e4d826118bf565b9150611e58836118bf565b9250817fffffffffffffffffffffffffffffffffffffffffffffffffffffffffffffffff0483118215151615611e9157611e90611d7f565b5b828202905092915050565b6000606082019050611eb16000830186611922565b611ebe60208301856119df565b611ecb6040830184611922565b949350505050565b600081519050919050565b600082825260208201905092915050565b60005b83811015611f0d578082015181840152602081019050611ef2565b83811115611f1c576000848401525b50505050565b6000611f2d82611ed3565b611f378185611ede565b9350611f47818560208601611eef565b611f5081611a13565b840191505092915050565b60006040820190508181036000830152611f758185611f22565b9050611f846020830184611922565b9392505050565b7f4d7573742070617373206e6f6e20302044414920616d6f756e74000000000000600082015250565b6000611fc1601a83611ede565b9150611fcc82611f8b565b602082019050919050565b60006020820190508181036000830152611ff081611fb4565b9050919050565b7f4d7573742070617373206e6f6e20302045544820616d6f756e74000000000000600082015250565b600061202d601a83611ede565b915061203882611ff7565b602082019050919050565b6000602082019050818103600083015261205c81612020565b9050919050565b61206c816119cd565b82525050565b600062ffffff82169050919050565b61208a81612072565b82525050565b612099816118bf565b82525050565b6120a8816119ad565b82525050565b610100820160008201516120c56000850182612063565b5060208201516120d86020850182612063565b5060408201516120eb6040850182612081565b5060608201516120fe6060850182612063565b5060808201516121116080850182612090565b5060a082015161212460a0850182612090565b5060c082015161213760c0850182612090565b5060e082015161214a60e085018261209f565b50505050565b60006101008201905061216660008301846120ae565b92915050565b600081905092915050565b50565b600061218760008361216c565b915061219282612177565b600082019050919050565b60006121a88261217a565b9150819050919050565b7f726566756e64206661696c656400000000000000000000000000000000000000600082015250565b60006121e8600d83611ede565b91506121f3826121b2565b602082019050919050565b60006020820190508181036000830152612217816121db565b9050919050565b61222781611931565b811461223257600080fd5b50565b6000815190506122448161221e565b92915050565b6000602082840312156122605761225f6118b5565b5b600061226e84828501612235565b91505092915050565b600060608201905061228c60008301866119df565b61229960208301856119df565b6122a66040830184611922565b949350505050565b60006122b9826118bf565b91506122c4836118bf565b9250827fffffffffffffffffffffffffffffffffffffffffffffffffffffffffffffffff038211156122f9576122f8611d7f565b5b828201905092915050565b60008160011c9050919050565b6000808291508390505b600185111561235b5780860481111561233757612336611d7f565b5b60018516156123465780820291505b808102905061235485612304565b945061231b565b94509492505050565b6000826123745760019050612430565b816123825760009050612430565b816001811461239857600281146123a2576123d1565b6001915050612430565b60ff8411156123b4576123b3611d7f565b5b8360020a9150848211156123cb576123ca611d7f565b5b50612430565b5060208310610133831016604e8410600b84101617156124065782820a90508381111561240157612400611d7f565b5b612430565b6124138484846001612311565b9250905081840481111561242a57612429611d7f565b5b81810290505b9392505050565b6000612442826118bf565b915061244d836118bf565b925061247a7fffffffffffffffffffffffffffffffffffffffffffffffffffffffffffffffff8484612364565b905092915050565b600061248d826118bf565b9150612498836118bf565b9250826124a8576124a7611de2565b5b828206905092915050565b60006060820190506124c86000830186611922565b6124d56020830185611922565b6124e260408301846119df565b949350505050565b7f4f776e61626c653a206e6577206f776e657220697320746865207a65726f206160008201527f6464726573730000000000000000000000000000000000000000000000000000602082015250565b6000612546602683611ede565b9150612551826124ea565b604082019050919050565b6000602082019050818103600083015261257581612539565b9050919050565b600081519050919050565b60006125928261257c565b61259c818561216c565b93506125ac818560208601611eef565b80840191505092915050565b60006125c48284612587565b915081905092915050565b7f5354000000000000000000000000000000000000000000000000000000000000600082015250565b6000612605600283611ede565b9150612610826125cf565b602082019050919050565b60006020820190508181036000830152612634816125f8565b9050919050565b7f4f776e61626c653a2063616c6c6572206973206e6f7420746865206f776e6572600082015250565b6000612671602083611ede565b915061267c8261263b565b602082019050919050565b600060208201905081810360008301526126a081612664565b9050919050565b7f5354460000000000000000000000000000000000000000000000000000000000600082015250565b60006126dd600383611ede565b91506126e8826126a7565b602082019050919050565b6000602082019050818103600083015261270c816126d0565b905091905056fea2646970667358221220cdcdbeefcfafdd0b0a4558eb69a7c873c250f92df4eed1d1ca73273715feb5bc64736f6c634300080b0033",
  "devdoc": {
    "kind": "dev",
    "methods": {
      "borrow(uint256)": {
        "params": {
          "projectId": "id of the project"
        }
      },
      "owner()": {
        "details": "Returns the address of the current owner."
      },
      "renounceOwnership()": {
        "details": "Leaves the contract without owner. It will not be possible to call `onlyOwner` functions anymore. Can only be called by the current owner. NOTE: Renouncing ownership will leave the contract without an owner, thereby removing any functionality that is only available to the owner."
      },
      "repay(uint256,uint256)": {
        "params": {
          "amount": "the amount of USDC the owner wants to transfer to this contract.",
          "projectId": "id of the project"
        }
      },
      "transferOwnership(address)": {
        "details": "Transfers ownership of the contract to a new account (`newOwner`). Can only be called by the current owner."
      }
    },
    "version": 1
  },
  "userdoc": {
    "kind": "user",
    "methods": {
      "borrow(uint256)": {
        "notice": "The owner withdraws all deposited USDC."
      },
      "initProject(uint256,uint256,uint256,uint256,string)": {
        "notice": "projectId starts from 1."
      },
      "repay(uint256,uint256)": {
        "notice": "The owner transfers USDC for depositors to withdraw."
      },
      "swapExactOutputSingle(uint256)": {
        "notice": "swaps a minimum possible amount of WETH for a fixed amount of USDC.         This contract receives the output USDC to use later operations."
      }
    },
    "version": 1
  },
  "storageLayout": {
    "storage": [
      {
        "astId": 7,
        "contract": "contracts/Controller.sol:Controller",
        "label": "_owner",
        "offset": 0,
        "slot": "0",
        "type": "t_address"
      },
      {
        "astId": 2435,
        "contract": "contracts/Controller.sol:Controller",
        "label": "nft",
        "offset": 0,
        "slot": "1",
        "type": "t_contract(NftBond)3175"
      },
      {
        "astId": 2437,
        "contract": "contracts/Controller.sol:Controller",
        "label": "router",
        "offset": 0,
        "slot": "2",
        "type": "t_address"
      },
      {
        "astId": 2439,
        "contract": "contracts/Controller.sol:Controller",
        "label": "usdc",
        "offset": 0,
        "slot": "3",
        "type": "t_address"
      },
      {
        "astId": 2441,
        "contract": "contracts/Controller.sol:Controller",
        "label": "weth",
        "offset": 0,
        "slot": "4",
        "type": "t_address"
      },
      {
        "astId": 2443,
        "contract": "contracts/Controller.sol:Controller",
        "label": "decimal",
        "offset": 0,
        "slot": "5",
        "type": "t_uint256"
      },
      {
        "astId": 2448,
        "contract": "contracts/Controller.sol:Controller",
        "label": "projects",
        "offset": 0,
        "slot": "6",
        "type": "t_mapping(t_uint256,t_struct(Project)2432_storage)"
      }
    ],
    "types": {
      "t_address": {
        "encoding": "inplace",
        "label": "address",
        "numberOfBytes": "20"
      },
      "t_bool": {
        "encoding": "inplace",
        "label": "bool",
        "numberOfBytes": "1"
      },
      "t_contract(NftBond)3175": {
        "encoding": "inplace",
        "label": "contract NftBond",
        "numberOfBytes": "20"
      },
      "t_mapping(t_uint256,t_struct(Project)2432_storage)": {
        "encoding": "mapping",
        "key": "t_uint256",
        "label": "mapping(uint256 => struct Controller.Project)",
        "numberOfBytes": "32",
        "value": "t_struct(Project)2432_storage"
      },
      "t_struct(Project)2432_storage": {
        "encoding": "inplace",
        "label": "struct Controller.Project",
        "members": [
          {
            "astId": 2421,
            "contract": "contracts/Controller.sol:Controller",
            "label": "totalAmount",
            "offset": 0,
            "slot": "0",
            "type": "t_uint256"
          },
          {
            "astId": 2423,
            "contract": "contracts/Controller.sol:Controller",
            "label": "currentAmount",
            "offset": 0,
            "slot": "1",
            "type": "t_uint256"
          },
          {
            "astId": 2425,
            "contract": "contracts/Controller.sol:Controller",
            "label": "depositStartTs",
            "offset": 0,
            "slot": "2",
            "type": "t_uint256"
          },
          {
            "astId": 2427,
            "contract": "contracts/Controller.sol:Controller",
            "label": "depositEndTs",
            "offset": 0,
            "slot": "3",
            "type": "t_uint256"
          },
          {
            "astId": 2429,
            "contract": "contracts/Controller.sol:Controller",
            "label": "finalAmount",
            "offset": 0,
            "slot": "4",
            "type": "t_uint256"
          },
          {
            "astId": 2431,
            "contract": "contracts/Controller.sol:Controller",
            "label": "repayed",
            "offset": 0,
            "slot": "5",
            "type": "t_bool"
          }
        ],
        "numberOfBytes": "192"
      },
      "t_uint256": {
        "encoding": "inplace",
        "label": "uint256",
        "numberOfBytes": "32"
      }
    }
  }
}