{
  "address": "0xaA9ee17a1aC1658426B61cD5d501c4b00CDC1eD5",
  "abi": [
    {
      "inputs": [
        {
          "internalType": "contract NftBond",
          "name": "nft_",
          "type": "address"
        },
        {
          "internalType": "address",
          "name": "router_",
          "type": "address"
        },
        {
          "internalType": "address",
          "name": "usdc_",
          "type": "address"
        },
        {
          "internalType": "address",
          "name": "weth_",
          "type": "address"
        }
      ],
      "stateMutability": "nonpayable",
      "type": "constructor"
    },
    {
      "inputs": [],
      "name": "Borrow_DepositNotEnded",
      "type": "error"
    },
    {
      "inputs": [],
      "name": "Deposit_Ended",
      "type": "error"
    },
    {
      "inputs": [],
      "name": "Deposit_ExceededTotalAmount",
      "type": "error"
    },
    {
      "inputs": [],
      "name": "Deposit_NotDivisibleByDecimals",
      "type": "error"
    },
    {
      "inputs": [],
      "name": "Deposit_NotStarted",
      "type": "error"
    },
    {
      "inputs": [],
      "name": "InitProject_InvalidTargetAmountInput",
      "type": "error"
    },
    {
      "inputs": [],
      "name": "InitProject_InvalidTimestampInput",
      "type": "error"
    },
    {
      "inputs": [],
      "name": "NotExistingProject",
      "type": "error"
    },
    {
      "inputs": [],
      "name": "Repay_AlreadyDepositted",
      "type": "error"
    },
    {
      "inputs": [],
      "name": "Repay_DepositNotEnded",
      "type": "error"
    },
    {
      "inputs": [],
      "name": "Repay_NotEnoughAmountInput",
      "type": "error"
    },
    {
      "inputs": [],
      "name": "Withdraw_NotRepayedProject",
      "type": "error"
    },
    {
      "anonymous": false,
      "inputs": [],
      "name": "Controller_NewProject",
      "type": "event"
    },
    {
      "anonymous": false,
      "inputs": [
        {
          "indexed": true,
          "internalType": "address",
          "name": "previousOwner",
          "type": "address"
        },
        {
          "indexed": true,
          "internalType": "address",
          "name": "newOwner",
          "type": "address"
        }
      ],
      "name": "OwnershipTransferred",
      "type": "event"
    },
    {
      "anonymous": false,
      "inputs": [],
      "name": "Repaid",
      "type": "event"
    },
    {
      "inputs": [
        {
          "internalType": "uint256",
          "name": "projectId",
          "type": "uint256"
        }
      ],
      "name": "borrow",
      "outputs": [],
      "stateMutability": "nonpayable",
      "type": "function"
    },
    {
      "inputs": [],
      "name": "decimal",
      "outputs": [
        {
          "internalType": "uint256",
          "name": "",
          "type": "uint256"
        }
      ],
      "stateMutability": "view",
      "type": "function"
    },
    {
      "inputs": [
        {
          "internalType": "uint256",
          "name": "projectId",
          "type": "uint256"
        },
        {
          "internalType": "uint256",
          "name": "amount",
          "type": "uint256"
        }
      ],
      "name": "deposit",
      "outputs": [],
      "stateMutability": "payable",
      "type": "function"
    },
    {
      "inputs": [
        {
          "internalType": "uint256",
          "name": "targetAmount",
          "type": "uint256"
        },
        {
          "internalType": "uint256",
          "name": "depositStartTs",
          "type": "uint256"
        },
        {
          "internalType": "uint256",
          "name": "depositEndTs",
          "type": "uint256"
        },
        {
          "internalType": "uint256",
          "name": "unit",
          "type": "uint256"
        },
        {
          "internalType": "string",
          "name": "uri",
          "type": "string"
        }
      ],
      "name": "initProject",
      "outputs": [],
      "stateMutability": "nonpayable",
      "type": "function"
    },
    {
      "inputs": [],
      "name": "nft",
      "outputs": [
        {
          "internalType": "contract NftBond",
          "name": "",
          "type": "address"
        }
      ],
      "stateMutability": "view",
      "type": "function"
    },
    {
      "inputs": [],
      "name": "owner",
      "outputs": [
        {
          "internalType": "address",
          "name": "",
          "type": "address"
        }
      ],
      "stateMutability": "view",
      "type": "function"
    },
    {
      "inputs": [
        {
          "internalType": "uint256",
          "name": "",
          "type": "uint256"
        }
      ],
      "name": "projects",
      "outputs": [
        {
          "internalType": "uint256",
          "name": "totalAmount",
          "type": "uint256"
        },
        {
          "internalType": "uint256",
          "name": "currentAmount",
          "type": "uint256"
        },
        {
          "internalType": "uint256",
          "name": "depositStartTs",
          "type": "uint256"
        },
        {
          "internalType": "uint256",
          "name": "depositEndTs",
          "type": "uint256"
        },
        {
          "internalType": "uint256",
          "name": "finalAmount",
          "type": "uint256"
        },
        {
          "internalType": "bool",
          "name": "repayed",
          "type": "bool"
        }
      ],
      "stateMutability": "view",
      "type": "function"
    },
    {
      "inputs": [],
      "name": "renounceOwnership",
      "outputs": [],
      "stateMutability": "nonpayable",
      "type": "function"
    },
    {
      "inputs": [
        {
          "internalType": "uint256",
          "name": "projectId",
          "type": "uint256"
        },
        {
          "internalType": "uint256",
          "name": "amount",
          "type": "uint256"
        }
      ],
      "name": "repay",
      "outputs": [],
      "stateMutability": "nonpayable",
      "type": "function"
    },
    {
      "inputs": [],
      "name": "router",
      "outputs": [
        {
          "internalType": "address",
          "name": "",
          "type": "address"
        }
      ],
      "stateMutability": "view",
      "type": "function"
    },
    {
      "inputs": [
        {
          "internalType": "uint256",
          "name": "amountOut",
          "type": "uint256"
        }
      ],
      "name": "swapExactOutputSingle",
      "outputs": [],
      "stateMutability": "payable",
      "type": "function"
    },
    {
      "inputs": [
        {
          "internalType": "address",
          "name": "newOwner",
          "type": "address"
        }
      ],
      "name": "transferOwnership",
      "outputs": [],
      "stateMutability": "nonpayable",
      "type": "function"
    },
    {
      "inputs": [],
      "name": "usdc",
      "outputs": [
        {
          "internalType": "address",
          "name": "",
          "type": "address"
        }
      ],
      "stateMutability": "view",
      "type": "function"
    },
    {
      "inputs": [],
      "name": "weth",
      "outputs": [
        {
          "internalType": "address",
          "name": "",
          "type": "address"
        }
      ],
      "stateMutability": "view",
      "type": "function"
    },
    {
      "inputs": [
        {
          "internalType": "uint256",
          "name": "projectId",
          "type": "uint256"
        }
      ],
      "name": "withdraw",
      "outputs": [],
      "stateMutability": "nonpayable",
      "type": "function"
    },
    {
      "stateMutability": "payable",
      "type": "receive"
    }
  ],
  "transactionHash": "0xfa3f3f07091e23d9f27b4f9195740e25ef02eabc7290defc49b9b6b300e32556",
  "args": [
    "0x3638c40c3f611cB2cE51a25a8801D794f5B4c751",
    "0xe592427a0aece92de3edee1f18e0157c05861564",
    "0xA0b86991c6218b36c1d19D4a2e9Eb0cE3606eB48",
    "0xC02aaA39b223FE8D0A0e5C4F27eAD9083C756Cc2"
  ],
  "numDeployments": 3,
  "solcInputHash": "7a58a847d6242a6cf2304df365aabad9",
  "bytecode": "0x60806040523480156200001157600080fd5b5060405162002ad038038062002ad0833981810160405281019062000037919062000361565b8282826200005a6200004e620001e660201b60201c565b620001ee60201b60201c565b82600160006101000a81548173ffffffffffffffffffffffffffffffffffffffff021916908373ffffffffffffffffffffffffffffffffffffffff16021790555081600260006101000a81548173ffffffffffffffffffffffffffffffffffffffff021916908373ffffffffffffffffffffffffffffffffffffffff16021790555080600360006101000a81548173ffffffffffffffffffffffffffffffffffffffff021916908373ffffffffffffffffffffffffffffffffffffffff1602179055508173ffffffffffffffffffffffffffffffffffffffff1663313ce5676040518163ffffffff1660e01b8152600401602060405180830381865afa15801562000169573d6000803e3d6000fd5b505050506040513d601f19601f820116820180604052508101906200018f919062000411565b60ff1660048190555050505083600560006101000a81548173ffffffffffffffffffffffffffffffffffffffff021916908373ffffffffffffffffffffffffffffffffffffffff1602179055505050505062000443565b600033905090565b60008060009054906101000a900473ffffffffffffffffffffffffffffffffffffffff169050816000806101000a81548173ffffffffffffffffffffffffffffffffffffffff021916908373ffffffffffffffffffffffffffffffffffffffff1602179055508173ffffffffffffffffffffffffffffffffffffffff168173ffffffffffffffffffffffffffffffffffffffff167f8be0079c531659141344cd1fd0a4f28419497f9722a3daafe3b4186f6b6457e060405160405180910390a35050565b600080fd5b600073ffffffffffffffffffffffffffffffffffffffff82169050919050565b6000620002e482620002b7565b9050919050565b6000620002f882620002d7565b9050919050565b6200030a81620002eb565b81146200031657600080fd5b50565b6000815190506200032a81620002ff565b92915050565b6200033b81620002d7565b81146200034757600080fd5b50565b6000815190506200035b8162000330565b92915050565b600080600080608085870312156200037e576200037d620002b2565b5b60006200038e8782880162000319565b9450506020620003a1878288016200034a565b9350506040620003b4878288016200034a565b9250506060620003c7878288016200034a565b91505092959194509250565b600060ff82169050919050565b620003eb81620003d3565b8114620003f757600080fd5b50565b6000815190506200040b81620003e0565b92915050565b6000602082840312156200042a5762000429620002b2565b5b60006200043a84828501620003fa565b91505092915050565b61267d80620004536000396000f3fe6080604052600436106100ec5760003560e01c806376809ce31161008a578063d8aed14511610059578063d8aed145146102bf578063e2bbb158146102e8578063f2fde38b14610304578063f887ea401461032d576100f3565b806376809ce314610224578063889ad54c1461024f5780638da5cb5b1461026b578063c5ebeaec14610296576100f3565b80633fc8cef3116100c65780633fc8cef31461018e578063452f8f04146101b957806347ccca02146101e2578063715018a61461020d576100f3565b8063107046bd146100f85780632e1a7d4d1461013a5780633e413bee14610163576100f3565b366100f357005b600080fd5b34801561010457600080fd5b5061011f600480360381019061011a9190611829565b610358565b60405161013196959493929190611880565b60405180910390f35b34801561014657600080fd5b50610161600480360381019061015c9190611829565b6103a1565b005b34801561016f57600080fd5b506101786105f1565b6040516101859190611922565b60405180910390f35b34801561019a57600080fd5b506101a3610617565b6040516101b09190611922565b60405180910390f35b3480156101c557600080fd5b506101e060048036038101906101db9190611a83565b61063d565b005b3480156101ee57600080fd5b506101f76108be565b6040516102049190611b79565b60405180910390f35b34801561021957600080fd5b506102226108e4565b005b34801561023057600080fd5b506102396108f8565b6040516102469190611b94565b60405180910390f35b61026960048036038101906102649190611829565b6108fe565b005b34801561027757600080fd5b50610280610c3f565b60405161028d9190611922565b60405180910390f35b3480156102a257600080fd5b506102bd60048036038101906102b89190611829565b610c68565b005b3480156102cb57600080fd5b506102e660048036038101906102e19190611baf565b610db3565b005b61030260048036038101906102fd9190611baf565b610fc5565b005b34801561031057600080fd5b5061032b60048036038101906103269190611c1b565b61124c565b005b34801561033957600080fd5b506103426112d0565b60405161034f9190611922565b60405180910390f35b60066020528060005260406000206000915090508060000154908060010154908060020154908060030154908060040154908060050160009054906101000a900460ff16905086565b60006006600083815260200190815260200160002090506000816002015414156103f7576040517f8652b88000000000000000000000000000000000000000000000000000000000815260040160405180910390fd5b8060050160009054906101000a900460ff1661043f576040517fd7c09c7c00000000000000000000000000000000000000000000000000000000815260040160405180910390fd5b6000600560009054906101000a900473ffffffffffffffffffffffffffffffffffffffff1673ffffffffffffffffffffffffffffffffffffffff1662fdd58e33856040518363ffffffff1660e01b815260040161049d929190611c48565b602060405180830381865afa1580156104ba573d6000803e3d6000fd5b505050506040513d601f19601f820116820180604052508101906104de9190611c86565b905060006104ec84836112f6565b9050808360010160008282546105029190611ce2565b92505081905550600083600001548285600401546105209190611d16565b61052a9190611d9f565b9050610559600260009054906101000a900473ffffffffffffffffffffffffffffffffffffffff1633836113c5565b600560009054906101000a900473ffffffffffffffffffffffffffffffffffffffff1673ffffffffffffffffffffffffffffffffffffffff1663d87801618633866040518463ffffffff1660e01b81526004016105b893929190611dd0565b600060405180830381600087803b1580156105d257600080fd5b505af11580156105e6573d6000803e3d6000fd5b505050505050505050565b600260009054906101000a900473ffffffffffffffffffffffffffffffffffffffff1681565b600360009054906101000a900473ffffffffffffffffffffffffffffffffffffffff1681565b61064561151a565b42831115806106545750838311155b1561068b576040517f177392d000000000000000000000000000000000000000000000000000000000815260040160405180910390fd5b60008514156106c6576040517f79959cfe00000000000000000000000000000000000000000000000000000000815260040160405180910390fd5b60006040518060c0016040528087815260200160008152602001868152602001858152602001600081526020016000151581525090506000600560009054906101000a900473ffffffffffffffffffffffffffffffffffffffff1673ffffffffffffffffffffffffffffffffffffffff166398bdf6f56040518163ffffffff1660e01b8152600401602060405180830381865afa15801561076b573d6000803e3d6000fd5b505050506040513d601f19601f8201168201806040525081019061078f9190611c86565b90508160066000838152602001908152602001600020600082015181600001556020820151816001015560408201518160020155606082015181600301556080820151816004015560a08201518160050160006101000a81548160ff021916908315150217905550905050600560009054906101000a900473ffffffffffffffffffffffffffffffffffffffff1673ffffffffffffffffffffffffffffffffffffffff1663f6c5feb984866040518363ffffffff1660e01b8152600401610857929190611e8f565b600060405180830381600087803b15801561087157600080fd5b505af1158015610885573d6000803e3d6000fd5b505050507fadbfc99647c65b3f5b3e163ba8df3f82b347ca2c041cc3045f778b2630b3f3e660405160405180910390a150505050505050565b600560009054906101000a900473ffffffffffffffffffffffffffffffffffffffff1681565b6108ec61151a565b6108f66000611598565b565b60045481565b60008111610941576040517f08c379a000000000000000000000000000000000000000000000000000000000815260040161093890611f0b565b60405180910390fd5b60003411610984576040517f08c379a000000000000000000000000000000000000000000000000000000000815260040161097b90611f77565b60405180910390fd5b60003490506000604051806101000160405280600360009054906101000a900473ffffffffffffffffffffffffffffffffffffffff1673ffffffffffffffffffffffffffffffffffffffff168152602001600260009054906101000a900473ffffffffffffffffffffffffffffffffffffffff1673ffffffffffffffffffffffffffffffffffffffff1681526020016101f462ffffff1681526020013073ffffffffffffffffffffffffffffffffffffffff168152602001428152602001848152602001838152602001600073ffffffffffffffffffffffffffffffffffffffff168152509050600160009054906101000a900473ffffffffffffffffffffffffffffffffffffffff1673ffffffffffffffffffffffffffffffffffffffff1663db3e219834836040518363ffffffff1660e01b8152600401610ac79190612084565b60206040518083038185885af1158015610ae5573d6000803e3d6000fd5b50505050506040513d601f19601f82011682018060405250810190610b0a9190611c86565b50600160009054906101000a900473ffffffffffffffffffffffffffffffffffffffff1673ffffffffffffffffffffffffffffffffffffffff166312210e8a6040518163ffffffff1660e01b8152600401600060405180830381600087803b158015610b7557600080fd5b505af1158015610b89573d6000803e3d6000fd5b5050505060003373ffffffffffffffffffffffffffffffffffffffff1647604051610bb3906120d1565b60006040518083038185875af1925050503d8060008114610bf0576040519150601f19603f3d011682016040523d82523d6000602084013e610bf5565b606091505b5050905080610c39576040517f08c379a0000000000000000000000000000000000000000000000000000000008152600401610c3090612132565b60405180910390fd5b50505050565b60008060009054906101000a900473ffffffffffffffffffffffffffffffffffffffff16905090565b610c7061151a565b6000600660008381526020019081526020016000209050600081600201541415610cc6576040517f8652b88000000000000000000000000000000000000000000000000000000000815260040160405180910390fd5b8060030154421015610d04576040517fd12b230800000000000000000000000000000000000000000000000000000000815260040160405180910390fd5b600081600101549050600260009054906101000a900473ffffffffffffffffffffffffffffffffffffffff1673ffffffffffffffffffffffffffffffffffffffff1663a9059cbb33836040518363ffffffff1660e01b8152600401610d6a929190611c48565b6020604051808303816000875af1158015610d89573d6000803e3d6000fd5b505050506040513d601f19601f82011682018060405250810190610dad919061217e565b50505050565b610dbb61151a565b60006006600084815260200190815260200160002090506000816004015414610e10576040517fefe994fa00000000000000000000000000000000000000000000000000000000815260040160405180910390fd5b600081600201541415610e4f576040517f8652b88000000000000000000000000000000000000000000000000000000000815260040160405180910390fd5b8060000154821015610e8d576040517f821ca7c200000000000000000000000000000000000000000000000000000000815260040160405180910390fd5b4281600301541115610ecb576040517f29d003f300000000000000000000000000000000000000000000000000000000815260040160405180910390fd5b81816004018190555060018160050160006101000a81548160ff021916908315150217905550600260009054906101000a900473ffffffffffffffffffffffffffffffffffffffff1673ffffffffffffffffffffffffffffffffffffffff166323b872dd3330856040518463ffffffff1660e01b8152600401610f50939291906121ab565b6020604051808303816000875af1158015610f6f573d6000803e3d6000fd5b505050506040513d601f19601f82011682018060405250810190610f93919061217e565b507f7e691e0780b47ee6568e2dc33620a707d7c033e6a5bd5e53fde1a2de9fd9e11f60405160405180910390a1505050565b600060066000848152602001908152602001600020905060008160020154141561101b576040517f8652b88000000000000000000000000000000000000000000000000000000000815260040160405180910390fd5b8060020154421015611059576040517fb13fef1900000000000000000000000000000000000000000000000000000000815260040160405180910390fd5b42816003015411611096576040517feaf1d1c500000000000000000000000000000000000000000000000000000000815260040160405180910390fd5b80600001548282600101546110ab91906121e2565b11156110e3576040517fe680a04700000000000000000000000000000000000000000000000000000000815260040160405180910390fd5b6000600454600a6110f4919061236b565b836110ff91906123b6565b14611136576040517f72f51f5100000000000000000000000000000000000000000000000000000000815260040160405180910390fd5b8160066000858152602001908152602001600020600101600082825461115c91906121e2565b925050819055506000341461117957611174826108fe565b6111a8565b6111a7600260009054906101000a900473ffffffffffffffffffffffffffffffffffffffff1633308561165c565b5b60006111b3836117b4565b9050600560009054906101000a900473ffffffffffffffffffffffffffffffffffffffff1673ffffffffffffffffffffffffffffffffffffffff1663dc4cab0c8583336040518463ffffffff1660e01b8152600401611214939291906123e7565b600060405180830381600087803b15801561122e57600080fd5b505af1158015611242573d6000803e3d6000fd5b5050505050505050565b61125461151a565b600073ffffffffffffffffffffffffffffffffffffffff168173ffffffffffffffffffffffffffffffffffffffff1614156112c4576040517f08c379a00000000000000000000000000000000000000000000000000000000081526004016112bb90612490565b60405180910390fd5b6112cd81611598565b50565b600160009054906101000a900473ffffffffffffffffffffffffffffffffffffffff1681565b600080600560009054906101000a900473ffffffffffffffffffffffffffffffffffffffff1673ffffffffffffffffffffffffffffffffffffffff1663e00508ba856040518263ffffffff1660e01b81526004016113549190611b94565b602060405180830381865afa158015611371573d6000803e3d6000fd5b505050506040513d601f19601f820116820180604052508101906113959190611c86565b9050600454600a6113a6919061236b565b81846113b29190611d16565b6113bc9190611d16565b91505092915050565b6000808473ffffffffffffffffffffffffffffffffffffffff1663a9059cbb60e01b85856040516024016113fa929190611c48565b604051602081830303815290604052907bffffffffffffffffffffffffffffffffffffffffffffffffffffffff19166020820180517bffffffffffffffffffffffffffffffffffffffffffffffffffffffff838183161783525050505060405161146491906124ec565b6000604051808303816000865af19150503d80600081146114a1576040519150601f19603f3d011682016040523d82523d6000602084013e6114a6565b606091505b50915091508180156114d457506000815114806114d35750808060200190518101906114d2919061217e565b5b5b611513576040517f08c379a000000000000000000000000000000000000000000000000000000000815260040161150a9061254f565b60405180910390fd5b5050505050565b6115226117d7565b73ffffffffffffffffffffffffffffffffffffffff16611540610c3f565b73ffffffffffffffffffffffffffffffffffffffff1614611596576040517f08c379a000000000000000000000000000000000000000000000000000000000815260040161158d906125bb565b60405180910390fd5b565b60008060009054906101000a900473ffffffffffffffffffffffffffffffffffffffff169050816000806101000a81548173ffffffffffffffffffffffffffffffffffffffff021916908373ffffffffffffffffffffffffffffffffffffffff1602179055508173ffffffffffffffffffffffffffffffffffffffff168173ffffffffffffffffffffffffffffffffffffffff167f8be0079c531659141344cd1fd0a4f28419497f9722a3daafe3b4186f6b6457e060405160405180910390a35050565b6000808573ffffffffffffffffffffffffffffffffffffffff166323b872dd60e01b868686604051602401611693939291906121ab565b604051602081830303815290604052907bffffffffffffffffffffffffffffffffffffffffffffffffffffffff19166020820180517bffffffffffffffffffffffffffffffffffffffffffffffffffffffff83818316178352505050506040516116fd91906124ec565b6000604051808303816000865af19150503d806000811461173a576040519150601f19603f3d011682016040523d82523d6000602084013e61173f565b606091505b509150915081801561176d575060008151148061176c57508080602001905181019061176b919061217e565b5b5b6117ac576040517f08c379a00000000000000000000000000000000000000000000000000000000081526004016117a390612627565b60405180910390fd5b505050505050565b6000600454600a6117c5919061236b565b826117d09190611d9f565b9050919050565b600033905090565b6000604051905090565b600080fd5b600080fd5b6000819050919050565b611806816117f3565b811461181157600080fd5b50565b600081359050611823816117fd565b92915050565b60006020828403121561183f5761183e6117e9565b5b600061184d84828501611814565b91505092915050565b61185f816117f3565b82525050565b60008115159050919050565b61187a81611865565b82525050565b600060c0820190506118956000830189611856565b6118a26020830188611856565b6118af6040830187611856565b6118bc6060830186611856565b6118c96080830185611856565b6118d660a0830184611871565b979650505050505050565b600073ffffffffffffffffffffffffffffffffffffffff82169050919050565b600061190c826118e1565b9050919050565b61191c81611901565b82525050565b60006020820190506119376000830184611913565b92915050565b600080fd5b600080fd5b6000601f19601f8301169050919050565b7f4e487b7100000000000000000000000000000000000000000000000000000000600052604160045260246000fd5b61199082611947565b810181811067ffffffffffffffff821117156119af576119ae611958565b5b80604052505050565b60006119c26117df565b90506119ce8282611987565b919050565b600067ffffffffffffffff8211156119ee576119ed611958565b5b6119f782611947565b9050602081019050919050565b82818337600083830152505050565b6000611a26611a21846119d3565b6119b8565b905082815260208101848484011115611a4257611a41611942565b5b611a4d848285611a04565b509392505050565b600082601f830112611a6a57611a6961193d565b5b8135611a7a848260208601611a13565b91505092915050565b600080600080600060a08688031215611a9f57611a9e6117e9565b5b6000611aad88828901611814565b9550506020611abe88828901611814565b9450506040611acf88828901611814565b9350506060611ae088828901611814565b925050608086013567ffffffffffffffff811115611b0157611b006117ee565b5b611b0d88828901611a55565b9150509295509295909350565b6000819050919050565b6000611b3f611b3a611b35846118e1565b611b1a565b6118e1565b9050919050565b6000611b5182611b24565b9050919050565b6000611b6382611b46565b9050919050565b611b7381611b58565b82525050565b6000602082019050611b8e6000830184611b6a565b92915050565b6000602082019050611ba96000830184611856565b92915050565b60008060408385031215611bc657611bc56117e9565b5b6000611bd485828601611814565b9250506020611be585828601611814565b9150509250929050565b611bf881611901565b8114611c0357600080fd5b50565b600081359050611c1581611bef565b92915050565b600060208284031215611c3157611c306117e9565b5b6000611c3f84828501611c06565b91505092915050565b6000604082019050611c5d6000830185611913565b611c6a6020830184611856565b9392505050565b600081519050611c80816117fd565b92915050565b600060208284031215611c9c57611c9b6117e9565b5b6000611caa84828501611c71565b91505092915050565b7f4e487b7100000000000000000000000000000000000000000000000000000000600052601160045260246000fd5b6000611ced826117f3565b9150611cf8836117f3565b925082821015611d0b57611d0a611cb3565b5b828203905092915050565b6000611d21826117f3565b9150611d2c836117f3565b9250817fffffffffffffffffffffffffffffffffffffffffffffffffffffffffffffffff0483118215151615611d6557611d64611cb3565b5b828202905092915050565b7f4e487b7100000000000000000000000000000000000000000000000000000000600052601260045260246000fd5b6000611daa826117f3565b9150611db5836117f3565b925082611dc557611dc4611d70565b5b828204905092915050565b6000606082019050611de56000830186611856565b611df26020830185611913565b611dff6040830184611856565b949350505050565b600081519050919050565b600082825260208201905092915050565b60005b83811015611e41578082015181840152602081019050611e26565b83811115611e50576000848401525b50505050565b6000611e6182611e07565b611e6b8185611e12565b9350611e7b818560208601611e23565b611e8481611947565b840191505092915050565b60006040820190508181036000830152611ea98185611e56565b9050611eb86020830184611856565b9392505050565b7f4d7573742070617373206e6f6e20302044414920616d6f756e74000000000000600082015250565b6000611ef5601a83611e12565b9150611f0082611ebf565b602082019050919050565b60006020820190508181036000830152611f2481611ee8565b9050919050565b7f4d7573742070617373206e6f6e20302045544820616d6f756e74000000000000600082015250565b6000611f61601a83611e12565b9150611f6c82611f2b565b602082019050919050565b60006020820190508181036000830152611f9081611f54565b9050919050565b611fa081611901565b82525050565b600062ffffff82169050919050565b611fbe81611fa6565b82525050565b611fcd816117f3565b82525050565b611fdc816118e1565b82525050565b61010082016000820151611ff96000850182611f97565b50602082015161200c6020850182611f97565b50604082015161201f6040850182611fb5565b5060608201516120326060850182611f97565b5060808201516120456080850182611fc4565b5060a082015161205860a0850182611fc4565b5060c082015161206b60c0850182611fc4565b5060e082015161207e60e0850182611fd3565b50505050565b60006101008201905061209a6000830184611fe2565b92915050565b600081905092915050565b50565b60006120bb6000836120a0565b91506120c6826120ab565b600082019050919050565b60006120dc826120ae565b9150819050919050565b7f726566756e64206661696c656400000000000000000000000000000000000000600082015250565b600061211c600d83611e12565b9150612127826120e6565b602082019050919050565b6000602082019050818103600083015261214b8161210f565b9050919050565b61215b81611865565b811461216657600080fd5b50565b60008151905061217881612152565b92915050565b600060208284031215612194576121936117e9565b5b60006121a284828501612169565b91505092915050565b60006060820190506121c06000830186611913565b6121cd6020830185611913565b6121da6040830184611856565b949350505050565b60006121ed826117f3565b91506121f8836117f3565b9250827fffffffffffffffffffffffffffffffffffffffffffffffffffffffffffffffff0382111561222d5761222c611cb3565b5b828201905092915050565b60008160011c9050919050565b6000808291508390505b600185111561228f5780860481111561226b5761226a611cb3565b5b600185161561227a5780820291505b808102905061228885612238565b945061224f565b94509492505050565b6000826122a85760019050612364565b816122b65760009050612364565b81600181146122cc57600281146122d657612305565b6001915050612364565b60ff8411156122e8576122e7611cb3565b5b8360020a9150848211156122ff576122fe611cb3565b5b50612364565b5060208310610133831016604e8410600b841016171561233a5782820a90508381111561233557612334611cb3565b5b612364565b6123478484846001612245565b9250905081840481111561235e5761235d611cb3565b5b81810290505b9392505050565b6000612376826117f3565b9150612381836117f3565b92506123ae7fffffffffffffffffffffffffffffffffffffffffffffffffffffffffffffffff8484612298565b905092915050565b60006123c1826117f3565b91506123cc836117f3565b9250826123dc576123db611d70565b5b828206905092915050565b60006060820190506123fc6000830186611856565b6124096020830185611856565b6124166040830184611913565b949350505050565b7f4f776e61626c653a206e6577206f776e657220697320746865207a65726f206160008201527f6464726573730000000000000000000000000000000000000000000000000000602082015250565b600061247a602683611e12565b91506124858261241e565b604082019050919050565b600060208201905081810360008301526124a98161246d565b9050919050565b600081519050919050565b60006124c6826124b0565b6124d081856120a0565b93506124e0818560208601611e23565b80840191505092915050565b60006124f882846124bb565b915081905092915050565b7f5354000000000000000000000000000000000000000000000000000000000000600082015250565b6000612539600283611e12565b915061254482612503565b602082019050919050565b600060208201905081810360008301526125688161252c565b9050919050565b7f4f776e61626c653a2063616c6c6572206973206e6f7420746865206f776e6572600082015250565b60006125a5602083611e12565b91506125b08261256f565b602082019050919050565b600060208201905081810360008301526125d481612598565b9050919050565b7f5354460000000000000000000000000000000000000000000000000000000000600082015250565b6000612611600383611e12565b915061261c826125db565b602082019050919050565b6000602082019050818103600083015261264081612604565b905091905056fea2646970667358221220877ea8e47778fd66aa51e894b3768e9301972768048f4696702de4ae88a2083064736f6c634300080b0033",
  "devdoc": {
    "kind": "dev",
    "methods": {
      "borrow(uint256)": {
        "params": {
          "projectId": "id of the project"
        }
      },
      "owner()": {
        "details": "Returns the address of the current owner."
      },
      "renounceOwnership()": {
        "details": "Leaves the contract without owner. It will not be possible to call `onlyOwner` functions anymore. Can only be called by the current owner. NOTE: Renouncing ownership will leave the contract without an owner, thereby removing any functionality that is only available to the owner."
      },
      "repay(uint256,uint256)": {
        "params": {
          "amount": "the amount of USDC the owner wants to transfer to this contract.",
          "projectId": "id of the project"
        }
      },
      "transferOwnership(address)": {
        "details": "Transfers ownership of the contract to a new account (`newOwner`). Can only be called by the current owner."
      }
    },
    "version": 1
  },
  "userdoc": {
    "kind": "user",
    "methods": {
      "borrow(uint256)": {
        "notice": "The owner withdraws all deposited USDC."
      },
      "initProject(uint256,uint256,uint256,uint256,string)": {
        "notice": "projectId starts from 0."
      },
      "repay(uint256,uint256)": {
        "notice": "The owner transfers USDC for depositors to withdraw."
      },
      "swapExactOutputSingle(uint256)": {
        "notice": "swaps a minimum possible amount of WETH for a fixed amount of USDC.         This contract receives the output USDC to use later operations."
      }
    },
    "version": 1
  },
  "storageLayout": {
    "storage": [
      {
        "astId": 7,
        "contract": "contracts/Controller.sol:Controller",
        "label": "_owner",
        "offset": 0,
        "slot": "0",
        "type": "t_address"
      },
      {
        "astId": 3317,
        "contract": "contracts/Controller.sol:Controller",
        "label": "router",
        "offset": 0,
        "slot": "1",
        "type": "t_address"
      },
      {
        "astId": 3319,
        "contract": "contracts/Controller.sol:Controller",
        "label": "usdc",
        "offset": 0,
        "slot": "2",
        "type": "t_address"
      },
      {
        "astId": 3321,
        "contract": "contracts/Controller.sol:Controller",
        "label": "weth",
        "offset": 0,
        "slot": "3",
        "type": "t_address"
      },
      {
        "astId": 3323,
        "contract": "contracts/Controller.sol:Controller",
        "label": "decimal",
        "offset": 0,
        "slot": "4",
        "type": "t_uint256"
      },
      {
        "astId": 2591,
        "contract": "contracts/Controller.sol:Controller",
        "label": "nft",
        "offset": 0,
        "slot": "5",
        "type": "t_contract(NftBond)3301"
      },
      {
        "astId": 2596,
        "contract": "contracts/Controller.sol:Controller",
        "label": "projects",
        "offset": 0,
        "slot": "6",
        "type": "t_mapping(t_uint256,t_struct(Project)2588_storage)"
      }
    ],
    "types": {
      "t_address": {
        "encoding": "inplace",
        "label": "address",
        "numberOfBytes": "20"
      },
      "t_bool": {
        "encoding": "inplace",
        "label": "bool",
        "numberOfBytes": "1"
      },
      "t_contract(NftBond)3301": {
        "encoding": "inplace",
        "label": "contract NftBond",
        "numberOfBytes": "20"
      },
      "t_mapping(t_uint256,t_struct(Project)2588_storage)": {
        "encoding": "mapping",
        "key": "t_uint256",
        "label": "mapping(uint256 => struct Controller.Project)",
        "numberOfBytes": "32",
        "value": "t_struct(Project)2588_storage"
      },
      "t_struct(Project)2588_storage": {
        "encoding": "inplace",
        "label": "struct Controller.Project",
        "members": [
          {
            "astId": 2577,
            "contract": "contracts/Controller.sol:Controller",
            "label": "totalAmount",
            "offset": 0,
            "slot": "0",
            "type": "t_uint256"
          },
          {
            "astId": 2579,
            "contract": "contracts/Controller.sol:Controller",
            "label": "currentAmount",
            "offset": 0,
            "slot": "1",
            "type": "t_uint256"
          },
          {
            "astId": 2581,
            "contract": "contracts/Controller.sol:Controller",
            "label": "depositStartTs",
            "offset": 0,
            "slot": "2",
            "type": "t_uint256"
          },
          {
            "astId": 2583,
            "contract": "contracts/Controller.sol:Controller",
            "label": "depositEndTs",
            "offset": 0,
            "slot": "3",
            "type": "t_uint256"
          },
          {
            "astId": 2585,
            "contract": "contracts/Controller.sol:Controller",
            "label": "finalAmount",
            "offset": 0,
            "slot": "4",
            "type": "t_uint256"
          },
          {
            "astId": 2587,
            "contract": "contracts/Controller.sol:Controller",
            "label": "repayed",
            "offset": 0,
            "slot": "5",
            "type": "t_bool"
          }
        ],
        "numberOfBytes": "192"
      },
      "t_uint256": {
        "encoding": "inplace",
        "label": "uint256",
        "numberOfBytes": "32"
      }
    }
  }
}