{
  "address": "0x1B2875f872C7f9627fac525968F793F47182B31b",
  "abi": [
    {
      "inputs": [
        {
          "internalType": "contract NftBond",
          "name": "nft_",
          "type": "address"
        },
        {
          "internalType": "address",
          "name": "router_",
          "type": "address"
        },
        {
          "internalType": "address",
          "name": "usdc_",
          "type": "address"
        },
        {
          "internalType": "address",
          "name": "weth_",
          "type": "address"
        }
      ],
      "stateMutability": "nonpayable",
      "type": "constructor"
    },
    {
      "inputs": [],
      "name": "Borrow_DepositNotEnded",
      "type": "error"
    },
    {
      "inputs": [],
      "name": "Deposit_Ended",
      "type": "error"
    },
    {
      "inputs": [],
      "name": "Deposit_ExceededTotalAmount",
      "type": "error"
    },
    {
      "inputs": [],
      "name": "Deposit_NotDivisibleByDecimals",
      "type": "error"
    },
    {
      "inputs": [],
      "name": "Deposit_NotStarted",
      "type": "error"
    },
    {
      "inputs": [],
      "name": "InitProject_InvalidTargetAmountInput",
      "type": "error"
    },
    {
      "inputs": [],
      "name": "InitProject_InvalidTimestampInput",
      "type": "error"
    },
    {
      "inputs": [],
      "name": "NotExistingProject",
      "type": "error"
    },
    {
      "inputs": [],
      "name": "Repay_AlreadyDepositted",
      "type": "error"
    },
    {
      "inputs": [],
      "name": "Repay_DepositNotEnded",
      "type": "error"
    },
    {
      "inputs": [],
      "name": "Repay_NotEnoughAmountInput",
      "type": "error"
    },
    {
      "inputs": [],
      "name": "Withdraw_NotRepayedProject",
      "type": "error"
    },
    {
      "anonymous": false,
      "inputs": [],
      "name": "Controller_NewProject",
      "type": "event"
    },
    {
      "anonymous": false,
      "inputs": [
        {
          "indexed": true,
          "internalType": "address",
          "name": "previousOwner",
          "type": "address"
        },
        {
          "indexed": true,
          "internalType": "address",
          "name": "newOwner",
          "type": "address"
        }
      ],
      "name": "OwnershipTransferred",
      "type": "event"
    },
    {
      "inputs": [
        {
          "internalType": "uint256",
          "name": "projectId",
          "type": "uint256"
        }
      ],
      "name": "borrow",
      "outputs": [],
      "stateMutability": "nonpayable",
      "type": "function"
    },
    {
      "inputs": [],
      "name": "decimal",
      "outputs": [
        {
          "internalType": "uint256",
          "name": "",
          "type": "uint256"
        }
      ],
      "stateMutability": "view",
      "type": "function"
    },
    {
      "inputs": [
        {
          "internalType": "uint256",
          "name": "projectId",
          "type": "uint256"
        },
        {
          "internalType": "uint256",
          "name": "amount",
          "type": "uint256"
        }
      ],
      "name": "deposit",
      "outputs": [],
      "stateMutability": "payable",
      "type": "function"
    },
    {
      "inputs": [
        {
          "internalType": "uint256",
          "name": "targetAmount",
          "type": "uint256"
        },
        {
          "internalType": "uint256",
          "name": "depositStartTs",
          "type": "uint256"
        },
        {
          "internalType": "uint256",
          "name": "depositEndTs",
          "type": "uint256"
        },
        {
          "internalType": "uint256",
          "name": "unit",
          "type": "uint256"
        },
        {
          "internalType": "string",
          "name": "uri",
          "type": "string"
        }
      ],
      "name": "initProject",
      "outputs": [],
      "stateMutability": "nonpayable",
      "type": "function"
    },
    {
      "inputs": [],
      "name": "nft",
      "outputs": [
        {
          "internalType": "contract NftBond",
          "name": "",
          "type": "address"
        }
      ],
      "stateMutability": "view",
      "type": "function"
    },
    {
      "inputs": [],
      "name": "owner",
      "outputs": [
        {
          "internalType": "address",
          "name": "",
          "type": "address"
        }
      ],
      "stateMutability": "view",
      "type": "function"
    },
    {
      "inputs": [
        {
          "internalType": "uint256",
          "name": "",
          "type": "uint256"
        }
      ],
      "name": "projects",
      "outputs": [
        {
          "internalType": "uint256",
          "name": "totalAmount",
          "type": "uint256"
        },
        {
          "internalType": "uint256",
          "name": "currentAmount",
          "type": "uint256"
        },
        {
          "internalType": "uint256",
          "name": "depositStartTs",
          "type": "uint256"
        },
        {
          "internalType": "uint256",
          "name": "depositEndTs",
          "type": "uint256"
        },
        {
          "internalType": "uint256",
          "name": "finalAmount",
          "type": "uint256"
        },
        {
          "internalType": "bool",
          "name": "repayed",
          "type": "bool"
        }
      ],
      "stateMutability": "view",
      "type": "function"
    },
    {
      "inputs": [],
      "name": "renounceOwnership",
      "outputs": [],
      "stateMutability": "nonpayable",
      "type": "function"
    },
    {
      "inputs": [
        {
          "internalType": "uint256",
          "name": "projectId",
          "type": "uint256"
        },
        {
          "internalType": "uint256",
          "name": "amount",
          "type": "uint256"
        }
      ],
      "name": "repay",
      "outputs": [],
      "stateMutability": "nonpayable",
      "type": "function"
    },
    {
      "inputs": [],
      "name": "router",
      "outputs": [
        {
          "internalType": "address",
          "name": "",
          "type": "address"
        }
      ],
      "stateMutability": "view",
      "type": "function"
    },
    {
      "inputs": [
        {
          "internalType": "uint256",
          "name": "amountOut",
          "type": "uint256"
        }
      ],
      "name": "swapExactOutputSingle",
      "outputs": [],
      "stateMutability": "payable",
      "type": "function"
    },
    {
      "inputs": [
        {
          "internalType": "address",
          "name": "newOwner",
          "type": "address"
        }
      ],
      "name": "transferOwnership",
      "outputs": [],
      "stateMutability": "nonpayable",
      "type": "function"
    },
    {
      "inputs": [],
      "name": "usdc",
      "outputs": [
        {
          "internalType": "address",
          "name": "",
          "type": "address"
        }
      ],
      "stateMutability": "view",
      "type": "function"
    },
    {
      "inputs": [],
      "name": "weth",
      "outputs": [
        {
          "internalType": "address",
          "name": "",
          "type": "address"
        }
      ],
      "stateMutability": "view",
      "type": "function"
    },
    {
      "inputs": [
        {
          "internalType": "uint256",
          "name": "projectId",
          "type": "uint256"
        }
      ],
      "name": "withdraw",
      "outputs": [],
      "stateMutability": "nonpayable",
      "type": "function"
    },
    {
      "stateMutability": "payable",
      "type": "receive"
    }
  ],
  "transactionHash": "0xf0c16f7b154c4d0d6c2f85e693445cdef41b6e3852ffc8d67ef3a898e8e823e8",
  "args": [
    "0x90fDe0A8d8D1Ff853B39abf149260276aee15EB5",
    "0xe592427a0aece92de3edee1f18e0157c05861564",
    "0xA0b86991c6218b36c1d19D4a2e9Eb0cE3606eB48",
    "0xC02aaA39b223FE8D0A0e5C4F27eAD9083C756Cc2"
  ],
  "numDeployments": 2,
  "solcInputHash": "5c9c52f66dd23358805670160bf47620",
  "bytecode": "0x60806040523480156200001157600080fd5b5060405162002aaf38038062002aaf833981810160405281019062000037919062000361565b8282826200005a6200004e620001e660201b60201c565b620001ee60201b60201c565b82600160006101000a81548173ffffffffffffffffffffffffffffffffffffffff021916908373ffffffffffffffffffffffffffffffffffffffff16021790555081600260006101000a81548173ffffffffffffffffffffffffffffffffffffffff021916908373ffffffffffffffffffffffffffffffffffffffff16021790555080600360006101000a81548173ffffffffffffffffffffffffffffffffffffffff021916908373ffffffffffffffffffffffffffffffffffffffff1602179055508173ffffffffffffffffffffffffffffffffffffffff1663313ce5676040518163ffffffff1660e01b8152600401602060405180830381865afa15801562000169573d6000803e3d6000fd5b505050506040513d601f19601f820116820180604052508101906200018f919062000411565b60ff1660048190555050505083600560006101000a81548173ffffffffffffffffffffffffffffffffffffffff021916908373ffffffffffffffffffffffffffffffffffffffff1602179055505050505062000443565b600033905090565b60008060009054906101000a900473ffffffffffffffffffffffffffffffffffffffff169050816000806101000a81548173ffffffffffffffffffffffffffffffffffffffff021916908373ffffffffffffffffffffffffffffffffffffffff1602179055508173ffffffffffffffffffffffffffffffffffffffff168173ffffffffffffffffffffffffffffffffffffffff167f8be0079c531659141344cd1fd0a4f28419497f9722a3daafe3b4186f6b6457e060405160405180910390a35050565b600080fd5b600073ffffffffffffffffffffffffffffffffffffffff82169050919050565b6000620002e482620002b7565b9050919050565b6000620002f882620002d7565b9050919050565b6200030a81620002eb565b81146200031657600080fd5b50565b6000815190506200032a81620002ff565b92915050565b6200033b81620002d7565b81146200034757600080fd5b50565b6000815190506200035b8162000330565b92915050565b600080600080608085870312156200037e576200037d620002b2565b5b60006200038e8782880162000319565b9450506020620003a1878288016200034a565b9350506040620003b4878288016200034a565b9250506060620003c7878288016200034a565b91505092959194509250565b600060ff82169050919050565b620003eb81620003d3565b8114620003f757600080fd5b50565b6000815190506200040b81620003e0565b92915050565b6000602082840312156200042a5762000429620002b2565b5b60006200043a84828501620003fa565b91505092915050565b61265c80620004536000396000f3fe6080604052600436106100ec5760003560e01c806376809ce31161008a578063d8aed14511610059578063d8aed145146102bf578063e2bbb158146102e8578063f2fde38b14610304578063f887ea401461032d576100f3565b806376809ce314610224578063889ad54c1461024f5780638da5cb5b1461026b578063c5ebeaec14610296576100f3565b80633fc8cef3116100c65780633fc8cef31461018e578063452f8f04146101b957806347ccca02146101e2578063715018a61461020d576100f3565b8063107046bd146100f85780632e1a7d4d1461013a5780633e413bee14610163576100f3565b366100f357005b600080fd5b34801561010457600080fd5b5061011f600480360381019061011a9190611808565b610358565b6040516101319695949392919061185f565b60405180910390f35b34801561014657600080fd5b50610161600480360381019061015c9190611808565b6103a1565b005b34801561016f57600080fd5b506101786105f1565b6040516101859190611901565b60405180910390f35b34801561019a57600080fd5b506101a3610617565b6040516101b09190611901565b60405180910390f35b3480156101c557600080fd5b506101e060048036038101906101db9190611a62565b61063d565b005b3480156101ee57600080fd5b506101f76108c9565b6040516102049190611b58565b60405180910390f35b34801561021957600080fd5b506102226108ef565b005b34801561023057600080fd5b50610239610903565b6040516102469190611b73565b60405180910390f35b61026960048036038101906102649190611808565b610909565b005b34801561027757600080fd5b50610280610c4a565b60405161028d9190611901565b60405180910390f35b3480156102a257600080fd5b506102bd60048036038101906102b89190611808565b610c73565b005b3480156102cb57600080fd5b506102e660048036038101906102e19190611b8e565b610dbe565b005b61030260048036038101906102fd9190611b8e565b610fa4565b005b34801561031057600080fd5b5061032b60048036038101906103269190611bfa565b61122b565b005b34801561033957600080fd5b506103426112af565b60405161034f9190611901565b60405180910390f35b60066020528060005260406000206000915090508060000154908060010154908060020154908060030154908060040154908060050160009054906101000a900460ff16905086565b60006006600083815260200190815260200160002090506000816002015414156103f7576040517f8652b88000000000000000000000000000000000000000000000000000000000815260040160405180910390fd5b8060050160009054906101000a900460ff1661043f576040517fd7c09c7c00000000000000000000000000000000000000000000000000000000815260040160405180910390fd5b6000600560009054906101000a900473ffffffffffffffffffffffffffffffffffffffff1673ffffffffffffffffffffffffffffffffffffffff1662fdd58e33856040518363ffffffff1660e01b815260040161049d929190611c27565b602060405180830381865afa1580156104ba573d6000803e3d6000fd5b505050506040513d601f19601f820116820180604052508101906104de9190611c65565b905060006104ec84836112d5565b9050808360010160008282546105029190611cc1565b92505081905550600083600001548285600401546105209190611cf5565b61052a9190611d7e565b9050610559600260009054906101000a900473ffffffffffffffffffffffffffffffffffffffff1633836113a4565b600560009054906101000a900473ffffffffffffffffffffffffffffffffffffffff1673ffffffffffffffffffffffffffffffffffffffff1663d87801618633866040518463ffffffff1660e01b81526004016105b893929190611daf565b600060405180830381600087803b1580156105d257600080fd5b505af11580156105e6573d6000803e3d6000fd5b505050505050505050565b600260009054906101000a900473ffffffffffffffffffffffffffffffffffffffff1681565b600360009054906101000a900473ffffffffffffffffffffffffffffffffffffffff1681565b6106456114f9565b42841115806106545750428311155b8061065f5750838311155b15610696576040517f177392d000000000000000000000000000000000000000000000000000000000815260040160405180910390fd5b60008514156106d1576040517f79959cfe00000000000000000000000000000000000000000000000000000000815260040160405180910390fd5b60006040518060c0016040528087815260200160008152602001868152602001858152602001600081526020016000151581525090506000600560009054906101000a900473ffffffffffffffffffffffffffffffffffffffff1673ffffffffffffffffffffffffffffffffffffffff166398bdf6f56040518163ffffffff1660e01b8152600401602060405180830381865afa158015610776573d6000803e3d6000fd5b505050506040513d601f19601f8201168201806040525081019061079a9190611c65565b90508160066000838152602001908152602001600020600082015181600001556020820151816001015560408201518160020155606082015181600301556080820151816004015560a08201518160050160006101000a81548160ff021916908315150217905550905050600560009054906101000a900473ffffffffffffffffffffffffffffffffffffffff1673ffffffffffffffffffffffffffffffffffffffff1663f6c5feb984866040518363ffffffff1660e01b8152600401610862929190611e6e565b600060405180830381600087803b15801561087c57600080fd5b505af1158015610890573d6000803e3d6000fd5b505050507fadbfc99647c65b3f5b3e163ba8df3f82b347ca2c041cc3045f778b2630b3f3e660405160405180910390a150505050505050565b600560009054906101000a900473ffffffffffffffffffffffffffffffffffffffff1681565b6108f76114f9565b6109016000611577565b565b60045481565b6000811161094c576040517f08c379a000000000000000000000000000000000000000000000000000000000815260040161094390611eea565b60405180910390fd5b6000341161098f576040517f08c379a000000000000000000000000000000000000000000000000000000000815260040161098690611f56565b60405180910390fd5b60003490506000604051806101000160405280600360009054906101000a900473ffffffffffffffffffffffffffffffffffffffff1673ffffffffffffffffffffffffffffffffffffffff168152602001600260009054906101000a900473ffffffffffffffffffffffffffffffffffffffff1673ffffffffffffffffffffffffffffffffffffffff1681526020016101f462ffffff1681526020013073ffffffffffffffffffffffffffffffffffffffff168152602001428152602001848152602001838152602001600073ffffffffffffffffffffffffffffffffffffffff168152509050600160009054906101000a900473ffffffffffffffffffffffffffffffffffffffff1673ffffffffffffffffffffffffffffffffffffffff1663db3e219834836040518363ffffffff1660e01b8152600401610ad29190612063565b60206040518083038185885af1158015610af0573d6000803e3d6000fd5b50505050506040513d601f19601f82011682018060405250810190610b159190611c65565b50600160009054906101000a900473ffffffffffffffffffffffffffffffffffffffff1673ffffffffffffffffffffffffffffffffffffffff166312210e8a6040518163ffffffff1660e01b8152600401600060405180830381600087803b158015610b8057600080fd5b505af1158015610b94573d6000803e3d6000fd5b5050505060003373ffffffffffffffffffffffffffffffffffffffff1647604051610bbe906120b0565b60006040518083038185875af1925050503d8060008114610bfb576040519150601f19603f3d011682016040523d82523d6000602084013e610c00565b606091505b5050905080610c44576040517f08c379a0000000000000000000000000000000000000000000000000000000008152600401610c3b90612111565b60405180910390fd5b50505050565b60008060009054906101000a900473ffffffffffffffffffffffffffffffffffffffff16905090565b610c7b6114f9565b6000600660008381526020019081526020016000209050600081600201541415610cd1576040517f8652b88000000000000000000000000000000000000000000000000000000000815260040160405180910390fd5b8060030154421015610d0f576040517fd12b230800000000000000000000000000000000000000000000000000000000815260040160405180910390fd5b600081600101549050600260009054906101000a900473ffffffffffffffffffffffffffffffffffffffff1673ffffffffffffffffffffffffffffffffffffffff1663a9059cbb33836040518363ffffffff1660e01b8152600401610d75929190611c27565b6020604051808303816000875af1158015610d94573d6000803e3d6000fd5b505050506040513d601f19601f82011682018060405250810190610db8919061215d565b50505050565b610dc66114f9565b60006006600084815260200190815260200160002090506000816004015414610e1b576040517fefe994fa00000000000000000000000000000000000000000000000000000000815260040160405180910390fd5b600081600201541415610e5a576040517f8652b88000000000000000000000000000000000000000000000000000000000815260040160405180910390fd5b8060000154821015610e98576040517f821ca7c200000000000000000000000000000000000000000000000000000000815260040160405180910390fd5b4281600301541115610ed6576040517f29d003f300000000000000000000000000000000000000000000000000000000815260040160405180910390fd5b81816004018190555060018160050160006101000a81548160ff021916908315150217905550600260009054906101000a900473ffffffffffffffffffffffffffffffffffffffff1673ffffffffffffffffffffffffffffffffffffffff166323b872dd3330856040518463ffffffff1660e01b8152600401610f5b9392919061218a565b6020604051808303816000875af1158015610f7a573d6000803e3d6000fd5b505050506040513d601f19601f82011682018060405250810190610f9e919061215d565b50505050565b6000600660008481526020019081526020016000209050600081600201541415610ffa576040517f8652b88000000000000000000000000000000000000000000000000000000000815260040160405180910390fd5b8060020154421015611038576040517fb13fef1900000000000000000000000000000000000000000000000000000000815260040160405180910390fd5b42816003015411611075576040517feaf1d1c500000000000000000000000000000000000000000000000000000000815260040160405180910390fd5b806000015482826001015461108a91906121c1565b11156110c2576040517fe680a04700000000000000000000000000000000000000000000000000000000815260040160405180910390fd5b6000600454600a6110d3919061234a565b836110de9190612395565b14611115576040517f72f51f5100000000000000000000000000000000000000000000000000000000815260040160405180910390fd5b8160066000858152602001908152602001600020600101600082825461113b91906121c1565b92505081905550600034146111585761115382610909565b611187565b611186600260009054906101000a900473ffffffffffffffffffffffffffffffffffffffff1633308561163b565b5b600061119283611793565b9050600560009054906101000a900473ffffffffffffffffffffffffffffffffffffffff1673ffffffffffffffffffffffffffffffffffffffff1663dc4cab0c8583336040518463ffffffff1660e01b81526004016111f3939291906123c6565b600060405180830381600087803b15801561120d57600080fd5b505af1158015611221573d6000803e3d6000fd5b5050505050505050565b6112336114f9565b600073ffffffffffffffffffffffffffffffffffffffff168173ffffffffffffffffffffffffffffffffffffffff1614156112a3576040517f08c379a000000000000000000000000000000000000000000000000000000000815260040161129a9061246f565b60405180910390fd5b6112ac81611577565b50565b600160009054906101000a900473ffffffffffffffffffffffffffffffffffffffff1681565b600080600560009054906101000a900473ffffffffffffffffffffffffffffffffffffffff1673ffffffffffffffffffffffffffffffffffffffff1663e00508ba856040518263ffffffff1660e01b81526004016113339190611b73565b602060405180830381865afa158015611350573d6000803e3d6000fd5b505050506040513d601f19601f820116820180604052508101906113749190611c65565b9050600454600a611385919061234a565b81846113919190611cf5565b61139b9190611cf5565b91505092915050565b6000808473ffffffffffffffffffffffffffffffffffffffff1663a9059cbb60e01b85856040516024016113d9929190611c27565b604051602081830303815290604052907bffffffffffffffffffffffffffffffffffffffffffffffffffffffff19166020820180517bffffffffffffffffffffffffffffffffffffffffffffffffffffffff838183161783525050505060405161144391906124cb565b6000604051808303816000865af19150503d8060008114611480576040519150601f19603f3d011682016040523d82523d6000602084013e611485565b606091505b50915091508180156114b357506000815114806114b25750808060200190518101906114b1919061215d565b5b5b6114f2576040517f08c379a00000000000000000000000000000000000000000000000000000000081526004016114e99061252e565b60405180910390fd5b5050505050565b6115016117b6565b73ffffffffffffffffffffffffffffffffffffffff1661151f610c4a565b73ffffffffffffffffffffffffffffffffffffffff1614611575576040517f08c379a000000000000000000000000000000000000000000000000000000000815260040161156c9061259a565b60405180910390fd5b565b60008060009054906101000a900473ffffffffffffffffffffffffffffffffffffffff169050816000806101000a81548173ffffffffffffffffffffffffffffffffffffffff021916908373ffffffffffffffffffffffffffffffffffffffff1602179055508173ffffffffffffffffffffffffffffffffffffffff168173ffffffffffffffffffffffffffffffffffffffff167f8be0079c531659141344cd1fd0a4f28419497f9722a3daafe3b4186f6b6457e060405160405180910390a35050565b6000808573ffffffffffffffffffffffffffffffffffffffff166323b872dd60e01b8686866040516024016116729392919061218a565b604051602081830303815290604052907bffffffffffffffffffffffffffffffffffffffffffffffffffffffff19166020820180517bffffffffffffffffffffffffffffffffffffffffffffffffffffffff83818316178352505050506040516116dc91906124cb565b6000604051808303816000865af19150503d8060008114611719576040519150601f19603f3d011682016040523d82523d6000602084013e61171e565b606091505b509150915081801561174c575060008151148061174b57508080602001905181019061174a919061215d565b5b5b61178b576040517f08c379a000000000000000000000000000000000000000000000000000000000815260040161178290612606565b60405180910390fd5b505050505050565b6000600454600a6117a4919061234a565b826117af9190611d7e565b9050919050565b600033905090565b6000604051905090565b600080fd5b600080fd5b6000819050919050565b6117e5816117d2565b81146117f057600080fd5b50565b600081359050611802816117dc565b92915050565b60006020828403121561181e5761181d6117c8565b5b600061182c848285016117f3565b91505092915050565b61183e816117d2565b82525050565b60008115159050919050565b61185981611844565b82525050565b600060c0820190506118746000830189611835565b6118816020830188611835565b61188e6040830187611835565b61189b6060830186611835565b6118a86080830185611835565b6118b560a0830184611850565b979650505050505050565b600073ffffffffffffffffffffffffffffffffffffffff82169050919050565b60006118eb826118c0565b9050919050565b6118fb816118e0565b82525050565b600060208201905061191660008301846118f2565b92915050565b600080fd5b600080fd5b6000601f19601f8301169050919050565b7f4e487b7100000000000000000000000000000000000000000000000000000000600052604160045260246000fd5b61196f82611926565b810181811067ffffffffffffffff8211171561198e5761198d611937565b5b80604052505050565b60006119a16117be565b90506119ad8282611966565b919050565b600067ffffffffffffffff8211156119cd576119cc611937565b5b6119d682611926565b9050602081019050919050565b82818337600083830152505050565b6000611a05611a00846119b2565b611997565b905082815260208101848484011115611a2157611a20611921565b5b611a2c8482856119e3565b509392505050565b600082601f830112611a4957611a4861191c565b5b8135611a598482602086016119f2565b91505092915050565b600080600080600060a08688031215611a7e57611a7d6117c8565b5b6000611a8c888289016117f3565b9550506020611a9d888289016117f3565b9450506040611aae888289016117f3565b9350506060611abf888289016117f3565b925050608086013567ffffffffffffffff811115611ae057611adf6117cd565b5b611aec88828901611a34565b9150509295509295909350565b6000819050919050565b6000611b1e611b19611b14846118c0565b611af9565b6118c0565b9050919050565b6000611b3082611b03565b9050919050565b6000611b4282611b25565b9050919050565b611b5281611b37565b82525050565b6000602082019050611b6d6000830184611b49565b92915050565b6000602082019050611b886000830184611835565b92915050565b60008060408385031215611ba557611ba46117c8565b5b6000611bb3858286016117f3565b9250506020611bc4858286016117f3565b9150509250929050565b611bd7816118e0565b8114611be257600080fd5b50565b600081359050611bf481611bce565b92915050565b600060208284031215611c1057611c0f6117c8565b5b6000611c1e84828501611be5565b91505092915050565b6000604082019050611c3c60008301856118f2565b611c496020830184611835565b9392505050565b600081519050611c5f816117dc565b92915050565b600060208284031215611c7b57611c7a6117c8565b5b6000611c8984828501611c50565b91505092915050565b7f4e487b7100000000000000000000000000000000000000000000000000000000600052601160045260246000fd5b6000611ccc826117d2565b9150611cd7836117d2565b925082821015611cea57611ce9611c92565b5b828203905092915050565b6000611d00826117d2565b9150611d0b836117d2565b9250817fffffffffffffffffffffffffffffffffffffffffffffffffffffffffffffffff0483118215151615611d4457611d43611c92565b5b828202905092915050565b7f4e487b7100000000000000000000000000000000000000000000000000000000600052601260045260246000fd5b6000611d89826117d2565b9150611d94836117d2565b925082611da457611da3611d4f565b5b828204905092915050565b6000606082019050611dc46000830186611835565b611dd160208301856118f2565b611dde6040830184611835565b949350505050565b600081519050919050565b600082825260208201905092915050565b60005b83811015611e20578082015181840152602081019050611e05565b83811115611e2f576000848401525b50505050565b6000611e4082611de6565b611e4a8185611df1565b9350611e5a818560208601611e02565b611e6381611926565b840191505092915050565b60006040820190508181036000830152611e888185611e35565b9050611e976020830184611835565b9392505050565b7f4d7573742070617373206e6f6e20302044414920616d6f756e74000000000000600082015250565b6000611ed4601a83611df1565b9150611edf82611e9e565b602082019050919050565b60006020820190508181036000830152611f0381611ec7565b9050919050565b7f4d7573742070617373206e6f6e20302045544820616d6f756e74000000000000600082015250565b6000611f40601a83611df1565b9150611f4b82611f0a565b602082019050919050565b60006020820190508181036000830152611f6f81611f33565b9050919050565b611f7f816118e0565b82525050565b600062ffffff82169050919050565b611f9d81611f85565b82525050565b611fac816117d2565b82525050565b611fbb816118c0565b82525050565b61010082016000820151611fd86000850182611f76565b506020820151611feb6020850182611f76565b506040820151611ffe6040850182611f94565b5060608201516120116060850182611f76565b5060808201516120246080850182611fa3565b5060a082015161203760a0850182611fa3565b5060c082015161204a60c0850182611fa3565b5060e082015161205d60e0850182611fb2565b50505050565b6000610100820190506120796000830184611fc1565b92915050565b600081905092915050565b50565b600061209a60008361207f565b91506120a58261208a565b600082019050919050565b60006120bb8261208d565b9150819050919050565b7f726566756e64206661696c656400000000000000000000000000000000000000600082015250565b60006120fb600d83611df1565b9150612106826120c5565b602082019050919050565b6000602082019050818103600083015261212a816120ee565b9050919050565b61213a81611844565b811461214557600080fd5b50565b60008151905061215781612131565b92915050565b600060208284031215612173576121726117c8565b5b600061218184828501612148565b91505092915050565b600060608201905061219f60008301866118f2565b6121ac60208301856118f2565b6121b96040830184611835565b949350505050565b60006121cc826117d2565b91506121d7836117d2565b9250827fffffffffffffffffffffffffffffffffffffffffffffffffffffffffffffffff0382111561220c5761220b611c92565b5b828201905092915050565b60008160011c9050919050565b6000808291508390505b600185111561226e5780860481111561224a57612249611c92565b5b60018516156122595780820291505b808102905061226785612217565b945061222e565b94509492505050565b6000826122875760019050612343565b816122955760009050612343565b81600181146122ab57600281146122b5576122e4565b6001915050612343565b60ff8411156122c7576122c6611c92565b5b8360020a9150848211156122de576122dd611c92565b5b50612343565b5060208310610133831016604e8410600b84101617156123195782820a90508381111561231457612313611c92565b5b612343565b6123268484846001612224565b9250905081840481111561233d5761233c611c92565b5b81810290505b9392505050565b6000612355826117d2565b9150612360836117d2565b925061238d7fffffffffffffffffffffffffffffffffffffffffffffffffffffffffffffffff8484612277565b905092915050565b60006123a0826117d2565b91506123ab836117d2565b9250826123bb576123ba611d4f565b5b828206905092915050565b60006060820190506123db6000830186611835565b6123e86020830185611835565b6123f560408301846118f2565b949350505050565b7f4f776e61626c653a206e6577206f776e657220697320746865207a65726f206160008201527f6464726573730000000000000000000000000000000000000000000000000000602082015250565b6000612459602683611df1565b9150612464826123fd565b604082019050919050565b600060208201905081810360008301526124888161244c565b9050919050565b600081519050919050565b60006124a58261248f565b6124af818561207f565b93506124bf818560208601611e02565b80840191505092915050565b60006124d7828461249a565b915081905092915050565b7f5354000000000000000000000000000000000000000000000000000000000000600082015250565b6000612518600283611df1565b9150612523826124e2565b602082019050919050565b600060208201905081810360008301526125478161250b565b9050919050565b7f4f776e61626c653a2063616c6c6572206973206e6f7420746865206f776e6572600082015250565b6000612584602083611df1565b915061258f8261254e565b602082019050919050565b600060208201905081810360008301526125b381612577565b9050919050565b7f5354460000000000000000000000000000000000000000000000000000000000600082015250565b60006125f0600383611df1565b91506125fb826125ba565b602082019050919050565b6000602082019050818103600083015261261f816125e3565b905091905056fea264697066735822122066de5133cd113f08f9a1fc5461efdd859606af489b93f867ee8ba0ac511c850964736f6c634300080b0033",
  "devdoc": {
    "kind": "dev",
    "methods": {
      "borrow(uint256)": {
        "params": {
          "projectId": "id of the project"
        }
      },
      "owner()": {
        "details": "Returns the address of the current owner."
      },
      "renounceOwnership()": {
        "details": "Leaves the contract without owner. It will not be possible to call `onlyOwner` functions anymore. Can only be called by the current owner. NOTE: Renouncing ownership will leave the contract without an owner, thereby removing any functionality that is only available to the owner."
      },
      "repay(uint256,uint256)": {
        "params": {
          "amount": "the amount of USDC the owner wants to transfer to this contract.",
          "projectId": "id of the project"
        }
      },
      "transferOwnership(address)": {
        "details": "Transfers ownership of the contract to a new account (`newOwner`). Can only be called by the current owner."
      }
    },
    "version": 1
  },
  "userdoc": {
    "kind": "user",
    "methods": {
      "borrow(uint256)": {
        "notice": "The owner withdraws all deposited USDC."
      },
      "initProject(uint256,uint256,uint256,uint256,string)": {
        "notice": "projectId starts from 0."
      },
      "repay(uint256,uint256)": {
        "notice": "The owner transfers USDC for depositors to withdraw."
      },
      "swapExactOutputSingle(uint256)": {
        "notice": "swaps a minimum possible amount of WETH for a fixed amount of USDC.         This contract receives the output USDC to use later operations."
      }
    },
    "version": 1
  },
  "storageLayout": {
    "storage": [
      {
        "astId": 7,
        "contract": "contracts/Controller.sol:Controller",
        "label": "_owner",
        "offset": 0,
        "slot": "0",
        "type": "t_address"
      },
      {
        "astId": 3160,
        "contract": "contracts/Controller.sol:Controller",
        "label": "router",
        "offset": 0,
        "slot": "1",
        "type": "t_address"
      },
      {
        "astId": 3162,
        "contract": "contracts/Controller.sol:Controller",
        "label": "usdc",
        "offset": 0,
        "slot": "2",
        "type": "t_address"
      },
      {
        "astId": 3164,
        "contract": "contracts/Controller.sol:Controller",
        "label": "weth",
        "offset": 0,
        "slot": "3",
        "type": "t_address"
      },
      {
        "astId": 3166,
        "contract": "contracts/Controller.sol:Controller",
        "label": "decimal",
        "offset": 0,
        "slot": "4",
        "type": "t_uint256"
      },
      {
        "astId": 2434,
        "contract": "contracts/Controller.sol:Controller",
        "label": "nft",
        "offset": 0,
        "slot": "5",
        "type": "t_contract(NftBond)3144"
      },
      {
        "astId": 2439,
        "contract": "contracts/Controller.sol:Controller",
        "label": "projects",
        "offset": 0,
        "slot": "6",
        "type": "t_mapping(t_uint256,t_struct(Project)2431_storage)"
      }
    ],
    "types": {
      "t_address": {
        "encoding": "inplace",
        "label": "address",
        "numberOfBytes": "20"
      },
      "t_bool": {
        "encoding": "inplace",
        "label": "bool",
        "numberOfBytes": "1"
      },
      "t_contract(NftBond)3144": {
        "encoding": "inplace",
        "label": "contract NftBond",
        "numberOfBytes": "20"
      },
      "t_mapping(t_uint256,t_struct(Project)2431_storage)": {
        "encoding": "mapping",
        "key": "t_uint256",
        "label": "mapping(uint256 => struct Controller.Project)",
        "numberOfBytes": "32",
        "value": "t_struct(Project)2431_storage"
      },
      "t_struct(Project)2431_storage": {
        "encoding": "inplace",
        "label": "struct Controller.Project",
        "members": [
          {
            "astId": 2420,
            "contract": "contracts/Controller.sol:Controller",
            "label": "totalAmount",
            "offset": 0,
            "slot": "0",
            "type": "t_uint256"
          },
          {
            "astId": 2422,
            "contract": "contracts/Controller.sol:Controller",
            "label": "currentAmount",
            "offset": 0,
            "slot": "1",
            "type": "t_uint256"
          },
          {
            "astId": 2424,
            "contract": "contracts/Controller.sol:Controller",
            "label": "depositStartTs",
            "offset": 0,
            "slot": "2",
            "type": "t_uint256"
          },
          {
            "astId": 2426,
            "contract": "contracts/Controller.sol:Controller",
            "label": "depositEndTs",
            "offset": 0,
            "slot": "3",
            "type": "t_uint256"
          },
          {
            "astId": 2428,
            "contract": "contracts/Controller.sol:Controller",
            "label": "finalAmount",
            "offset": 0,
            "slot": "4",
            "type": "t_uint256"
          },
          {
            "astId": 2430,
            "contract": "contracts/Controller.sol:Controller",
            "label": "repayed",
            "offset": 0,
            "slot": "5",
            "type": "t_bool"
          }
        ],
        "numberOfBytes": "192"
      },
      "t_uint256": {
        "encoding": "inplace",
        "label": "uint256",
        "numberOfBytes": "32"
      }
    }
  }
}