{
  "address": "0x3638c40c3f611cB2cE51a25a8801D794f5B4c751",
  "abi": [
    {
      "inputs": [],
      "stateMutability": "nonpayable",
      "type": "constructor"
    },
    {
      "inputs": [],
      "name": "AlreadyInitialized",
      "type": "error"
    },
    {
      "inputs": [],
      "name": "NotDivisibleByUnit",
      "type": "error"
    },
    {
      "inputs": [],
      "name": "OnlyController",
      "type": "error"
    },
    {
      "anonymous": false,
      "inputs": [
        {
          "indexed": true,
          "internalType": "address",
          "name": "account",
          "type": "address"
        },
        {
          "indexed": true,
          "internalType": "address",
          "name": "operator",
          "type": "address"
        },
        {
          "indexed": false,
          "internalType": "bool",
          "name": "approved",
          "type": "bool"
        }
      ],
      "name": "ApprovalForAll",
      "type": "event"
    },
    {
      "anonymous": false,
      "inputs": [],
      "name": "CreateLoan",
      "type": "event"
    },
    {
      "anonymous": false,
      "inputs": [],
      "name": "InitProject",
      "type": "event"
    },
    {
      "anonymous": false,
      "inputs": [
        {
          "indexed": true,
          "internalType": "address",
          "name": "previousOwner",
          "type": "address"
        },
        {
          "indexed": true,
          "internalType": "address",
          "name": "newOwner",
          "type": "address"
        }
      ],
      "name": "OwnershipTransferred",
      "type": "event"
    },
    {
      "anonymous": false,
      "inputs": [],
      "name": "Redeem",
      "type": "event"
    },
    {
      "anonymous": false,
      "inputs": [
        {
          "indexed": true,
          "internalType": "address",
          "name": "operator",
          "type": "address"
        },
        {
          "indexed": true,
          "internalType": "address",
          "name": "from",
          "type": "address"
        },
        {
          "indexed": true,
          "internalType": "address",
          "name": "to",
          "type": "address"
        },
        {
          "indexed": false,
          "internalType": "uint256[]",
          "name": "ids",
          "type": "uint256[]"
        },
        {
          "indexed": false,
          "internalType": "uint256[]",
          "name": "values",
          "type": "uint256[]"
        }
      ],
      "name": "TransferBatch",
      "type": "event"
    },
    {
      "anonymous": false,
      "inputs": [
        {
          "indexed": true,
          "internalType": "address",
          "name": "operator",
          "type": "address"
        },
        {
          "indexed": true,
          "internalType": "address",
          "name": "from",
          "type": "address"
        },
        {
          "indexed": true,
          "internalType": "address",
          "name": "to",
          "type": "address"
        },
        {
          "indexed": false,
          "internalType": "uint256",
          "name": "id",
          "type": "uint256"
        },
        {
          "indexed": false,
          "internalType": "uint256",
          "name": "value",
          "type": "uint256"
        }
      ],
      "name": "TransferSingle",
      "type": "event"
    },
    {
      "anonymous": false,
      "inputs": [
        {
          "indexed": false,
          "internalType": "string",
          "name": "value",
          "type": "string"
        },
        {
          "indexed": true,
          "internalType": "uint256",
          "name": "id",
          "type": "uint256"
        }
      ],
      "name": "URI",
      "type": "event"
    },
    {
      "inputs": [
        {
          "internalType": "address",
          "name": "account",
          "type": "address"
        },
        {
          "internalType": "uint256",
          "name": "id",
          "type": "uint256"
        }
      ],
      "name": "balanceOf",
      "outputs": [
        {
          "internalType": "uint256",
          "name": "",
          "type": "uint256"
        }
      ],
      "stateMutability": "view",
      "type": "function"
    },
    {
      "inputs": [
        {
          "internalType": "address[]",
          "name": "accounts",
          "type": "address[]"
        },
        {
          "internalType": "uint256[]",
          "name": "ids",
          "type": "uint256[]"
        }
      ],
      "name": "balanceOfBatch",
      "outputs": [
        {
          "internalType": "uint256[]",
          "name": "",
          "type": "uint256[]"
        }
      ],
      "stateMutability": "view",
      "type": "function"
    },
    {
      "inputs": [],
      "name": "controller",
      "outputs": [
        {
          "internalType": "address",
          "name": "",
          "type": "address"
        }
      ],
      "stateMutability": "view",
      "type": "function"
    },
    {
      "inputs": [
        {
          "internalType": "uint256",
          "name": "tokenId",
          "type": "uint256"
        },
        {
          "internalType": "uint256",
          "name": "principal",
          "type": "uint256"
        },
        {
          "internalType": "address",
          "name": "account",
          "type": "address"
        }
      ],
      "name": "createLoan",
      "outputs": [],
      "stateMutability": "nonpayable",
      "type": "function"
    },
    {
      "inputs": [
        {
          "internalType": "uint256",
          "name": "id",
          "type": "uint256"
        }
      ],
      "name": "exists",
      "outputs": [
        {
          "internalType": "bool",
          "name": "",
          "type": "bool"
        }
      ],
      "stateMutability": "view",
      "type": "function"
    },
    {
      "inputs": [
        {
          "internalType": "address",
          "name": "controller_",
          "type": "address"
        }
      ],
      "name": "init",
      "outputs": [],
      "stateMutability": "nonpayable",
      "type": "function"
    },
    {
      "inputs": [
        {
          "internalType": "string",
          "name": "uri_",
          "type": "string"
        },
        {
          "internalType": "uint256",
          "name": "unit_",
          "type": "uint256"
        }
      ],
      "name": "initProject",
      "outputs": [],
      "stateMutability": "nonpayable",
      "type": "function"
    },
    {
      "inputs": [
        {
          "internalType": "address",
          "name": "account",
          "type": "address"
        },
        {
          "internalType": "address",
          "name": "operator",
          "type": "address"
        }
      ],
      "name": "isApprovedForAll",
      "outputs": [
        {
          "internalType": "bool",
          "name": "",
          "type": "bool"
        }
      ],
      "stateMutability": "view",
      "type": "function"
    },
    {
      "inputs": [],
      "name": "owner",
      "outputs": [
        {
          "internalType": "address",
          "name": "",
          "type": "address"
        }
      ],
      "stateMutability": "view",
      "type": "function"
    },
    {
      "inputs": [
        {
          "internalType": "uint256",
          "name": "tokenId",
          "type": "uint256"
        },
        {
          "internalType": "address",
          "name": "account",
          "type": "address"
        },
        {
          "internalType": "uint256",
          "name": "tokenBalance",
          "type": "uint256"
        }
      ],
      "name": "redeem",
      "outputs": [],
      "stateMutability": "nonpayable",
      "type": "function"
    },
    {
      "inputs": [],
      "name": "renounceOwnership",
      "outputs": [],
      "stateMutability": "nonpayable",
      "type": "function"
    },
    {
      "inputs": [
        {
          "internalType": "address",
          "name": "from",
          "type": "address"
        },
        {
          "internalType": "address",
          "name": "to",
          "type": "address"
        },
        {
          "internalType": "uint256[]",
          "name": "ids",
          "type": "uint256[]"
        },
        {
          "internalType": "uint256[]",
          "name": "amounts",
          "type": "uint256[]"
        },
        {
          "internalType": "bytes",
          "name": "data",
          "type": "bytes"
        }
      ],
      "name": "safeBatchTransferFrom",
      "outputs": [],
      "stateMutability": "nonpayable",
      "type": "function"
    },
    {
      "inputs": [
        {
          "internalType": "address",
          "name": "from",
          "type": "address"
        },
        {
          "internalType": "address",
          "name": "to",
          "type": "address"
        },
        {
          "internalType": "uint256",
          "name": "id",
          "type": "uint256"
        },
        {
          "internalType": "uint256",
          "name": "amount",
          "type": "uint256"
        },
        {
          "internalType": "bytes",
          "name": "data",
          "type": "bytes"
        }
      ],
      "name": "safeTransferFrom",
      "outputs": [],
      "stateMutability": "nonpayable",
      "type": "function"
    },
    {
      "inputs": [
        {
          "internalType": "address",
          "name": "operator",
          "type": "address"
        },
        {
          "internalType": "bool",
          "name": "approved",
          "type": "bool"
        }
      ],
      "name": "setApprovalForAll",
      "outputs": [],
      "stateMutability": "nonpayable",
      "type": "function"
    },
    {
      "inputs": [
        {
          "internalType": "bytes4",
          "name": "interfaceId",
          "type": "bytes4"
        }
      ],
      "name": "supportsInterface",
      "outputs": [
        {
          "internalType": "bool",
          "name": "",
          "type": "bool"
        }
      ],
      "stateMutability": "view",
      "type": "function"
    },
    {
      "inputs": [],
      "name": "tokenIdCounter",
      "outputs": [
        {
          "internalType": "uint256",
          "name": "",
          "type": "uint256"
        }
      ],
      "stateMutability": "view",
      "type": "function"
    },
    {
      "inputs": [
        {
          "internalType": "uint256",
          "name": "id",
          "type": "uint256"
        }
      ],
      "name": "totalSupply",
      "outputs": [
        {
          "internalType": "uint256",
          "name": "",
          "type": "uint256"
        }
      ],
      "stateMutability": "view",
      "type": "function"
    },
    {
      "inputs": [
        {
          "internalType": "address",
          "name": "newOwner",
          "type": "address"
        }
      ],
      "name": "transferOwnership",
      "outputs": [],
      "stateMutability": "nonpayable",
      "type": "function"
    },
    {
      "inputs": [
        {
          "internalType": "uint256",
          "name": "tokenId",
          "type": "uint256"
        }
      ],
      "name": "unit",
      "outputs": [
        {
          "internalType": "uint256",
          "name": "",
          "type": "uint256"
        }
      ],
      "stateMutability": "view",
      "type": "function"
    },
    {
      "inputs": [
        {
          "internalType": "uint256",
          "name": "tokenId",
          "type": "uint256"
        }
      ],
      "name": "uri",
      "outputs": [
        {
          "internalType": "string",
          "name": "",
          "type": "string"
        }
      ],
      "stateMutability": "view",
      "type": "function"
    }
  ],
  "transactionHash": "0xddab8d99d3e826bbce19bd3d53143a5562d38c45cae62d58c04db73db2467f1f",
  "args": [],
  "numDeployments": 1,
  "solcInputHash": "b1d3b77944215e55bfad9b03b32ea0fe",
  "bytecode": "0x60806040523480156200001157600080fd5b506040518060200160405280600081525062000033816200005a60201b60201c565b5062000054620000486200007660201b60201c565b6200007e60201b60201c565b62000259565b80600290805190602001906200007292919062000144565b5050565b600033905090565b6000600460009054906101000a900473ffffffffffffffffffffffffffffffffffffffff16905081600460006101000a81548173ffffffffffffffffffffffffffffffffffffffff021916908373ffffffffffffffffffffffffffffffffffffffff1602179055508173ffffffffffffffffffffffffffffffffffffffff168173ffffffffffffffffffffffffffffffffffffffff167f8be0079c531659141344cd1fd0a4f28419497f9722a3daafe3b4186f6b6457e060405160405180910390a35050565b828054620001529062000223565b90600052602060002090601f016020900481019282620001765760008555620001c2565b82601f106200019157805160ff1916838001178555620001c2565b82800160010185558215620001c2579182015b82811115620001c1578251825591602001919060010190620001a4565b5b509050620001d19190620001d5565b5090565b5b80821115620001f0576000816000905550600101620001d6565b5090565b7f4e487b7100000000000000000000000000000000000000000000000000000000600052602260045260246000fd5b600060028204905060018216806200023c57607f821691505b60208210811415620002535762000252620001f4565b5b50919050565b613b0880620002696000396000f3fe608060405234801561001057600080fd5b506004361061012b5760003560e01c8063a22cb465116100ad578063e985e9c511610071578063e985e9c514610352578063f242432a14610382578063f2fde38b1461039e578063f6c5feb9146103ba578063f77c4791146103d65761012b565b8063a22cb4651461029e578063bd85b039146102ba578063d8780161146102ea578063dc4cab0c14610306578063e00508ba146103225761012b565b80634e1273f4116100f45780634e1273f4146101f85780634f558e7914610228578063715018a6146102585780638da5cb5b1461026257806398bdf6f5146102805761012b565b8062fdd58e1461013057806301ffc9a7146101605780630e89341c1461019057806319ab453c146101c05780632eb2c2d6146101dc575b600080fd5b61014a60048036038101906101459190612360565b6103f4565b60405161015791906123af565b60405180910390f35b61017a60048036038101906101759190612422565b6104bd565b604051610187919061246a565b60405180910390f35b6101aa60048036038101906101a59190612485565b61059f565b6040516101b7919061254b565b60405180910390f35b6101da60048036038101906101d5919061256d565b610644565b005b6101f660048036038101906101f19190612797565b610718565b005b610212600480360381019061020d9190612929565b6107b9565b60405161021f9190612a5f565b60405180910390f35b610242600480360381019061023d9190612485565b6108d2565b60405161024f919061246a565b60405180910390f35b6102606108e6565b005b61026a6108fa565b6040516102779190612a90565b60405180910390f35b610288610924565b60405161029591906123af565b60405180910390f35b6102b860048036038101906102b39190612ad7565b61092a565b005b6102d460048036038101906102cf9190612485565b610940565b6040516102e191906123af565b60405180910390f35b61030460048036038101906102ff9190612b17565b61095d565b005b610320600480360381019061031b9190612b6a565b610a36565b005b61033c60048036038101906103379190612485565b610b72565b60405161034991906123af565b60405180910390f35b61036c60048036038101906103679190612bbd565b610b8f565b604051610379919061246a565b60405180910390f35b61039c60048036038101906103979190612bfd565b610c23565b005b6103b860048036038101906103b3919061256d565b610cc4565b005b6103d460048036038101906103cf9190612d35565b610d48565b005b6103de610e23565b6040516103eb9190612a90565b60405180910390f35b60008073ffffffffffffffffffffffffffffffffffffffff168373ffffffffffffffffffffffffffffffffffffffff161415610465576040517f08c379a000000000000000000000000000000000000000000000000000000000815260040161045c90612e03565b60405180910390fd5b60008083815260200190815260200160002060008473ffffffffffffffffffffffffffffffffffffffff1673ffffffffffffffffffffffffffffffffffffffff16815260200190815260200160002054905092915050565b60007fd9b67a26000000000000000000000000000000000000000000000000000000007bffffffffffffffffffffffffffffffffffffffffffffffffffffffff1916827bffffffffffffffffffffffffffffffffffffffffffffffffffffffff1916148061058857507f0e89341c000000000000000000000000000000000000000000000000000000007bffffffffffffffffffffffffffffffffffffffffffffffffffffffff1916827bffffffffffffffffffffffffffffffffffffffffffffffffffffffff1916145b80610598575061059782610e49565b5b9050919050565b60606006600083815260200190815260200160002080546105bf90612e52565b80601f01602080910402602001604051908101604052809291908181526020018280546105eb90612e52565b80156106385780601f1061060d57610100808354040283529160200191610638565b820191906000526020600020905b81548152906001019060200180831161061b57829003601f168201915b50505050509050919050565b61064c610eb3565b600073ffffffffffffffffffffffffffffffffffffffff16600760009054906101000a900473ffffffffffffffffffffffffffffffffffffffff1673ffffffffffffffffffffffffffffffffffffffff16146106d4576040517f0dc149f000000000000000000000000000000000000000000000000000000000815260040160405180910390fd5b80600760006101000a81548173ffffffffffffffffffffffffffffffffffffffff021916908373ffffffffffffffffffffffffffffffffffffffff16021790555050565b610720610f31565b73ffffffffffffffffffffffffffffffffffffffff168573ffffffffffffffffffffffffffffffffffffffff161480610766575061076585610760610f31565b610b8f565b5b6107a5576040517f08c379a000000000000000000000000000000000000000000000000000000000815260040161079c90612ef6565b60405180910390fd5b6107b28585858585610f39565b5050505050565b606081518351146107ff576040517f08c379a00000000000000000000000000000000000000000000000000000000081526004016107f690612f88565b60405180910390fd5b6000835167ffffffffffffffff81111561081c5761081b61259f565b5b60405190808252806020026020018201604052801561084a5781602001602082028036833780820191505090505b50905060005b84518110156108c75761089785828151811061086f5761086e612fa8565b5b602002602001015185838151811061088a57610889612fa8565b5b60200260200101516103f4565b8282815181106108aa576108a9612fa8565b5b602002602001018181525050806108c090613006565b9050610850565b508091505092915050565b6000806108de83610940565b119050919050565b6108ee610eb3565b6108f8600061125b565b565b6000600460009054906101000a900473ffffffffffffffffffffffffffffffffffffffff16905090565b60085481565b61093c610935610f31565b8383611321565b5050565b600060036000838152602001908152602001600020549050919050565b600760009054906101000a900473ffffffffffffffffffffffffffffffffffffffff1673ffffffffffffffffffffffffffffffffffffffff163373ffffffffffffffffffffffffffffffffffffffff16146109e4576040517f5990781300000000000000000000000000000000000000000000000000000000815260040160405180910390fd5b60006109f083856103f4565b116109fa57600080fd5b610a0582848361148e565b7fd95402e764607b7b568a855d3414c03561cb940c03bb4d4ee47ea289e4f96a4260405160405180910390a1505050565b600760009054906101000a900473ffffffffffffffffffffffffffffffffffffffff1673ffffffffffffffffffffffffffffffffffffffff163373ffffffffffffffffffffffffffffffffffffffff1614610abd576040517f5990781300000000000000000000000000000000000000000000000000000000815260040160405180910390fd5b60006005600085815260200190815260200160002054905060008184610ae3919061307e565b14610b1a576040517f93cab43c00000000000000000000000000000000000000000000000000000000815260040160405180910390fd5b610b4082858386610b2b91906130af565b604051806020016040528060008152506116d5565b7f62a9ab86df23d7a1dccd942d1acf71c3eb19d64ca8a27547f8461d31d04fbfd560405160405180910390a150505050565b600060056000838152602001908152602001600020549050919050565b6000600160008473ffffffffffffffffffffffffffffffffffffffff1673ffffffffffffffffffffffffffffffffffffffff16815260200190815260200160002060008373ffffffffffffffffffffffffffffffffffffffff1673ffffffffffffffffffffffffffffffffffffffff16815260200190815260200160002060009054906101000a900460ff16905092915050565b610c2b610f31565b73ffffffffffffffffffffffffffffffffffffffff168573ffffffffffffffffffffffffffffffffffffffff161480610c715750610c7085610c6b610f31565b610b8f565b5b610cb0576040517f08c379a0000000000000000000000000000000000000000000000000000000008152600401610ca790612ef6565b60405180910390fd5b610cbd8585858585611886565b5050505050565b610ccc610eb3565b600073ffffffffffffffffffffffffffffffffffffffff168173ffffffffffffffffffffffffffffffffffffffff161415610d3c576040517f08c379a0000000000000000000000000000000000000000000000000000000008152600401610d3390613152565b60405180910390fd5b610d458161125b565b50565b600760009054906101000a900473ffffffffffffffffffffffffffffffffffffffff1673ffffffffffffffffffffffffffffffffffffffff163373ffffffffffffffffffffffffffffffffffffffff1614610dcf576040517f5990781300000000000000000000000000000000000000000000000000000000815260040160405180910390fd5b60006008549050610de08184611b22565b610dea8183611bb0565b610df2611bcc565b7f1c68ba08a7b350767825e7c166060d2a96d5d7f4bddf1e66eba0281061cb256c60405160405180910390a1505050565b600760009054906101000a900473ffffffffffffffffffffffffffffffffffffffff1681565b60007f01ffc9a7000000000000000000000000000000000000000000000000000000007bffffffffffffffffffffffffffffffffffffffffffffffffffffffff1916827bffffffffffffffffffffffffffffffffffffffffffffffffffffffff1916149050919050565b610ebb610f31565b73ffffffffffffffffffffffffffffffffffffffff16610ed96108fa565b73ffffffffffffffffffffffffffffffffffffffff1614610f2f576040517f08c379a0000000000000000000000000000000000000000000000000000000008152600401610f26906131be565b60405180910390fd5b565b600033905090565b8151835114610f7d576040517f08c379a0000000000000000000000000000000000000000000000000000000008152600401610f7490613250565b60405180910390fd5b600073ffffffffffffffffffffffffffffffffffffffff168473ffffffffffffffffffffffffffffffffffffffff161415610fed576040517f08c379a0000000000000000000000000000000000000000000000000000000008152600401610fe4906132e2565b60405180910390fd5b6000610ff7610f31565b9050611007818787878787611be6565b60005b84518110156111b857600085828151811061102857611027612fa8565b5b60200260200101519050600085838151811061104757611046612fa8565b5b60200260200101519050600080600084815260200190815260200160002060008b73ffffffffffffffffffffffffffffffffffffffff1673ffffffffffffffffffffffffffffffffffffffff168152602001908152602001600020549050818110156110e8576040517f08c379a00000000000000000000000000000000000000000000000000000000081526004016110df90613374565b60405180910390fd5b81810360008085815260200190815260200160002060008c73ffffffffffffffffffffffffffffffffffffffff1673ffffffffffffffffffffffffffffffffffffffff168152602001908152602001600020819055508160008085815260200190815260200160002060008b73ffffffffffffffffffffffffffffffffffffffff1673ffffffffffffffffffffffffffffffffffffffff168152602001908152602001600020600082825461119d9190613394565b92505081905550505050806111b190613006565b905061100a565b508473ffffffffffffffffffffffffffffffffffffffff168673ffffffffffffffffffffffffffffffffffffffff168273ffffffffffffffffffffffffffffffffffffffff167f4a39dc06d4c0dbc64b70af90fd698a233a518aa5d07e595d983b8c0526c8f7fb878760405161122f9291906133ea565b60405180910390a4611245818787878787611db8565b611253818787878787611dc0565b505050505050565b6000600460009054906101000a900473ffffffffffffffffffffffffffffffffffffffff16905081600460006101000a81548173ffffffffffffffffffffffffffffffffffffffff021916908373ffffffffffffffffffffffffffffffffffffffff1602179055508173ffffffffffffffffffffffffffffffffffffffff168173ffffffffffffffffffffffffffffffffffffffff167f8be0079c531659141344cd1fd0a4f28419497f9722a3daafe3b4186f6b6457e060405160405180910390a35050565b8173ffffffffffffffffffffffffffffffffffffffff168373ffffffffffffffffffffffffffffffffffffffff161415611390576040517f08c379a000000000000000000000000000000000000000000000000000000000815260040161138790613493565b60405180910390fd5b80600160008573ffffffffffffffffffffffffffffffffffffffff1673ffffffffffffffffffffffffffffffffffffffff16815260200190815260200160002060008473ffffffffffffffffffffffffffffffffffffffff1673ffffffffffffffffffffffffffffffffffffffff16815260200190815260200160002060006101000a81548160ff0219169083151502179055508173ffffffffffffffffffffffffffffffffffffffff168373ffffffffffffffffffffffffffffffffffffffff167f17307eab39ab6107e8899845ad3d59bd9653f200f220920489ca2b5937696c3183604051611481919061246a565b60405180910390a3505050565b600073ffffffffffffffffffffffffffffffffffffffff168373ffffffffffffffffffffffffffffffffffffffff1614156114fe576040517f08c379a00000000000000000000000000000000000000000000000000000000081526004016114f590613525565b60405180910390fd5b6000611508610f31565b9050600061151584611f98565b9050600061152284611f98565b905061154283876000858560405180602001604052806000815250611be6565b600080600087815260200190815260200160002060008873ffffffffffffffffffffffffffffffffffffffff1673ffffffffffffffffffffffffffffffffffffffff168152602001908152602001600020549050848110156115d9576040517f08c379a00000000000000000000000000000000000000000000000000000000081526004016115d0906135b7565b60405180910390fd5b84810360008088815260200190815260200160002060008973ffffffffffffffffffffffffffffffffffffffff1673ffffffffffffffffffffffffffffffffffffffff16815260200190815260200160002081905550600073ffffffffffffffffffffffffffffffffffffffff168773ffffffffffffffffffffffffffffffffffffffff168573ffffffffffffffffffffffffffffffffffffffff167fc3d58168c5ae7397731d063d5bbf3d657854427343f4c083240f7aacaa2d0f6289896040516116a69291906135d7565b60405180910390a46116cc84886000868660405180602001604052806000815250611db8565b50505050505050565b600073ffffffffffffffffffffffffffffffffffffffff168473ffffffffffffffffffffffffffffffffffffffff161415611745576040517f08c379a000000000000000000000000000000000000000000000000000000000815260040161173c90613672565b60405180910390fd5b600061174f610f31565b9050600061175c85611f98565b9050600061176985611f98565b905061177a83600089858589611be6565b8460008088815260200190815260200160002060008973ffffffffffffffffffffffffffffffffffffffff1673ffffffffffffffffffffffffffffffffffffffff16815260200190815260200160002060008282546117d99190613394565b925050819055508673ffffffffffffffffffffffffffffffffffffffff16600073ffffffffffffffffffffffffffffffffffffffff168473ffffffffffffffffffffffffffffffffffffffff167fc3d58168c5ae7397731d063d5bbf3d657854427343f4c083240f7aacaa2d0f6289896040516118579291906135d7565b60405180910390a461186e83600089858589611db8565b61187d83600089898989612012565b50505050505050565b600073ffffffffffffffffffffffffffffffffffffffff168473ffffffffffffffffffffffffffffffffffffffff1614156118f6576040517f08c379a00000000000000000000000000000000000000000000000000000000081526004016118ed906132e2565b60405180910390fd5b6000611900610f31565b9050600061190d85611f98565b9050600061191a85611f98565b905061192a838989858589611be6565b600080600088815260200190815260200160002060008a73ffffffffffffffffffffffffffffffffffffffff1673ffffffffffffffffffffffffffffffffffffffff168152602001908152602001600020549050858110156119c1576040517f08c379a00000000000000000000000000000000000000000000000000000000081526004016119b890613374565b60405180910390fd5b85810360008089815260200190815260200160002060008b73ffffffffffffffffffffffffffffffffffffffff1673ffffffffffffffffffffffffffffffffffffffff168152602001908152602001600020819055508560008089815260200190815260200160002060008a73ffffffffffffffffffffffffffffffffffffffff1673ffffffffffffffffffffffffffffffffffffffff1681526020019081526020016000206000828254611a769190613394565b925050819055508773ffffffffffffffffffffffffffffffffffffffff168973ffffffffffffffffffffffffffffffffffffffff168573ffffffffffffffffffffffffffffffffffffffff167fc3d58168c5ae7397731d063d5bbf3d657854427343f4c083240f7aacaa2d0f628a8a604051611af39291906135d7565b60405180910390a4611b09848a8a86868a611db8565b611b17848a8a8a8a8a612012565b505050505050505050565b6000600660008481526020019081526020016000208054611b4290612e52565b905014611b84576040517f08c379a0000000000000000000000000000000000000000000000000000000008152600401611b7b906136de565b60405180910390fd5b80600660008481526020019081526020016000209080519060200190611bab929190612215565b505050565b8060056000848152602001908152602001600020819055505050565b60086000815480929190611bdf90613006565b9190505550565b611bf48686868686866121ea565b600073ffffffffffffffffffffffffffffffffffffffff168573ffffffffffffffffffffffffffffffffffffffff161415611ca65760005b8351811015611ca457828181518110611c4857611c47612fa8565b5b602002602001015160036000868481518110611c6757611c66612fa8565b5b602002602001015181526020019081526020016000206000828254611c8c9190613394565b9250508190555080611c9d90613006565b9050611c2c565b505b600073ffffffffffffffffffffffffffffffffffffffff168473ffffffffffffffffffffffffffffffffffffffff161415611db05760005b8351811015611dae576000848281518110611cfc57611cfb612fa8565b5b602002602001015190506000848381518110611d1b57611d1a612fa8565b5b6020026020010151905060006003600084815260200190815260200160002054905081811015611d80576040517f08c379a0000000000000000000000000000000000000000000000000000000008152600401611d7790613770565b60405180910390fd5b818103600360008581526020019081526020016000208190555050505080611da790613006565b9050611cde565b505b505050505050565b505050505050565b611ddf8473ffffffffffffffffffffffffffffffffffffffff166121f2565b15611f90578373ffffffffffffffffffffffffffffffffffffffff1663bc197c8187878686866040518663ffffffff1660e01b8152600401611e259594939291906137e5565b6020604051808303816000875af1925050508015611e6157506040513d601f19601f82011682018060405250810190611e5e9190613862565b60015b611f0757611e6d61389c565b806308c379a01415611eca5750611e826138be565b80611e8d5750611ecc565b806040517f08c379a0000000000000000000000000000000000000000000000000000000008152600401611ec1919061254b565b60405180910390fd5b505b6040517f08c379a0000000000000000000000000000000000000000000000000000000008152600401611efe906139c6565b60405180910390fd5b63bc197c8160e01b7bffffffffffffffffffffffffffffffffffffffffffffffffffffffff1916817bffffffffffffffffffffffffffffffffffffffffffffffffffffffff191614611f8e576040517f08c379a0000000000000000000000000000000000000000000000000000000008152600401611f8590613a58565b60405180910390fd5b505b505050505050565b60606000600167ffffffffffffffff811115611fb757611fb661259f565b5b604051908082528060200260200182016040528015611fe55781602001602082028036833780820191505090505b5090508281600081518110611ffd57611ffc612fa8565b5b60200260200101818152505080915050919050565b6120318473ffffffffffffffffffffffffffffffffffffffff166121f2565b156121e2578373ffffffffffffffffffffffffffffffffffffffff1663f23a6e6187878686866040518663ffffffff1660e01b8152600401612077959493929190613a78565b6020604051808303816000875af19250505080156120b357506040513d601f19601f820116820180604052508101906120b09190613862565b60015b612159576120bf61389c565b806308c379a0141561211c57506120d46138be565b806120df575061211e565b806040517f08c379a0000000000000000000000000000000000000000000000000000000008152600401612113919061254b565b60405180910390fd5b505b6040517f08c379a0000000000000000000000000000000000000000000000000000000008152600401612150906139c6565b60405180910390fd5b63f23a6e6160e01b7bffffffffffffffffffffffffffffffffffffffffffffffffffffffff1916817bffffffffffffffffffffffffffffffffffffffffffffffffffffffff1916146121e0576040517f08c379a00000000000000000000000000000000000000000000000000000000081526004016121d790613a58565b60405180910390fd5b505b505050505050565b505050505050565b6000808273ffffffffffffffffffffffffffffffffffffffff163b119050919050565b82805461222190612e52565b90600052602060002090601f016020900481019282612243576000855561228a565b82601f1061225c57805160ff191683800117855561228a565b8280016001018555821561228a579182015b8281111561228957825182559160200191906001019061226e565b5b509050612297919061229b565b5090565b5b808211156122b457600081600090555060010161229c565b5090565b6000604051905090565b600080fd5b600080fd5b600073ffffffffffffffffffffffffffffffffffffffff82169050919050565b60006122f7826122cc565b9050919050565b612307816122ec565b811461231257600080fd5b50565b600081359050612324816122fe565b92915050565b6000819050919050565b61233d8161232a565b811461234857600080fd5b50565b60008135905061235a81612334565b92915050565b60008060408385031215612377576123766122c2565b5b600061238585828601612315565b92505060206123968582860161234b565b9150509250929050565b6123a98161232a565b82525050565b60006020820190506123c460008301846123a0565b92915050565b60007fffffffff0000000000000000000000000000000000000000000000000000000082169050919050565b6123ff816123ca565b811461240a57600080fd5b50565b60008135905061241c816123f6565b92915050565b600060208284031215612438576124376122c2565b5b60006124468482850161240d565b91505092915050565b60008115159050919050565b6124648161244f565b82525050565b600060208201905061247f600083018461245b565b92915050565b60006020828403121561249b5761249a6122c2565b5b60006124a98482850161234b565b91505092915050565b600081519050919050565b600082825260208201905092915050565b60005b838110156124ec5780820151818401526020810190506124d1565b838111156124fb576000848401525b50505050565b6000601f19601f8301169050919050565b600061251d826124b2565b61252781856124bd565b93506125378185602086016124ce565b61254081612501565b840191505092915050565b600060208201905081810360008301526125658184612512565b905092915050565b600060208284031215612583576125826122c2565b5b600061259184828501612315565b91505092915050565b600080fd5b7f4e487b7100000000000000000000000000000000000000000000000000000000600052604160045260246000fd5b6125d782612501565b810181811067ffffffffffffffff821117156125f6576125f561259f565b5b80604052505050565b60006126096122b8565b905061261582826125ce565b919050565b600067ffffffffffffffff8211156126355761263461259f565b5b602082029050602081019050919050565b600080fd5b600061265e6126598461261a565b6125ff565b9050808382526020820190506020840283018581111561268157612680612646565b5b835b818110156126aa5780612696888261234b565b845260208401935050602081019050612683565b5050509392505050565b600082601f8301126126c9576126c861259a565b5b81356126d984826020860161264b565b91505092915050565b600080fd5b600067ffffffffffffffff8211156127025761270161259f565b5b61270b82612501565b9050602081019050919050565b82818337600083830152505050565b600061273a612735846126e7565b6125ff565b905082815260208101848484011115612756576127556126e2565b5b612761848285612718565b509392505050565b600082601f83011261277e5761277d61259a565b5b813561278e848260208601612727565b91505092915050565b600080600080600060a086880312156127b3576127b26122c2565b5b60006127c188828901612315565b95505060206127d288828901612315565b945050604086013567ffffffffffffffff8111156127f3576127f26122c7565b5b6127ff888289016126b4565b935050606086013567ffffffffffffffff8111156128205761281f6122c7565b5b61282c888289016126b4565b925050608086013567ffffffffffffffff81111561284d5761284c6122c7565b5b61285988828901612769565b9150509295509295909350565b600067ffffffffffffffff8211156128815761288061259f565b5b602082029050602081019050919050565b60006128a56128a084612866565b6125ff565b905080838252602082019050602084028301858111156128c8576128c7612646565b5b835b818110156128f157806128dd8882612315565b8452602084019350506020810190506128ca565b5050509392505050565b600082601f8301126129105761290f61259a565b5b8135612920848260208601612892565b91505092915050565b600080604083850312156129405761293f6122c2565b5b600083013567ffffffffffffffff81111561295e5761295d6122c7565b5b61296a858286016128fb565b925050602083013567ffffffffffffffff81111561298b5761298a6122c7565b5b612997858286016126b4565b9150509250929050565b600081519050919050565b600082825260208201905092915050565b6000819050602082019050919050565b6129d68161232a565b82525050565b60006129e883836129cd565b60208301905092915050565b6000602082019050919050565b6000612a0c826129a1565b612a1681856129ac565b9350612a21836129bd565b8060005b83811015612a52578151612a3988826129dc565b9750612a44836129f4565b925050600181019050612a25565b5085935050505092915050565b60006020820190508181036000830152612a798184612a01565b905092915050565b612a8a816122ec565b82525050565b6000602082019050612aa56000830184612a81565b92915050565b612ab48161244f565b8114612abf57600080fd5b50565b600081359050612ad181612aab565b92915050565b60008060408385031215612aee57612aed6122c2565b5b6000612afc85828601612315565b9250506020612b0d85828601612ac2565b9150509250929050565b600080600060608486031215612b3057612b2f6122c2565b5b6000612b3e8682870161234b565b9350506020612b4f86828701612315565b9250506040612b608682870161234b565b9150509250925092565b600080600060608486031215612b8357612b826122c2565b5b6000612b918682870161234b565b9350506020612ba28682870161234b565b9250506040612bb386828701612315565b9150509250925092565b60008060408385031215612bd457612bd36122c2565b5b6000612be285828601612315565b9250506020612bf385828601612315565b9150509250929050565b600080600080600060a08688031215612c1957612c186122c2565b5b6000612c2788828901612315565b9550506020612c3888828901612315565b9450506040612c498882890161234b565b9350506060612c5a8882890161234b565b925050608086013567ffffffffffffffff811115612c7b57612c7a6122c7565b5b612c8788828901612769565b9150509295509295909350565b600067ffffffffffffffff821115612caf57612cae61259f565b5b612cb882612501565b9050602081019050919050565b6000612cd8612cd384612c94565b6125ff565b905082815260208101848484011115612cf457612cf36126e2565b5b612cff848285612718565b509392505050565b600082601f830112612d1c57612d1b61259a565b5b8135612d2c848260208601612cc5565b91505092915050565b60008060408385031215612d4c57612d4b6122c2565b5b600083013567ffffffffffffffff811115612d6a57612d696122c7565b5b612d7685828601612d07565b9250506020612d878582860161234b565b9150509250929050565b7f455243313135353a2061646472657373207a65726f206973206e6f742061207660008201527f616c6964206f776e657200000000000000000000000000000000000000000000602082015250565b6000612ded602a836124bd565b9150612df882612d91565b604082019050919050565b60006020820190508181036000830152612e1c81612de0565b9050919050565b7f4e487b7100000000000000000000000000000000000000000000000000000000600052602260045260246000fd5b60006002820490506001821680612e6a57607f821691505b60208210811415612e7e57612e7d612e23565b5b50919050565b7f455243313135353a2063616c6c6572206973206e6f7420746f6b656e206f776e60008201527f6572206e6f7220617070726f7665640000000000000000000000000000000000602082015250565b6000612ee0602f836124bd565b9150612eeb82612e84565b604082019050919050565b60006020820190508181036000830152612f0f81612ed3565b9050919050565b7f455243313135353a206163636f756e747320616e6420696473206c656e67746860008201527f206d69736d617463680000000000000000000000000000000000000000000000602082015250565b6000612f726029836124bd565b9150612f7d82612f16565b604082019050919050565b60006020820190508181036000830152612fa181612f65565b9050919050565b7f4e487b7100000000000000000000000000000000000000000000000000000000600052603260045260246000fd5b7f4e487b7100000000000000000000000000000000000000000000000000000000600052601160045260246000fd5b60006130118261232a565b91507fffffffffffffffffffffffffffffffffffffffffffffffffffffffffffffffff82141561304457613043612fd7565b5b600182019050919050565b7f4e487b7100000000000000000000000000000000000000000000000000000000600052601260045260246000fd5b60006130898261232a565b91506130948361232a565b9250826130a4576130a361304f565b5b828206905092915050565b60006130ba8261232a565b91506130c58361232a565b9250826130d5576130d461304f565b5b828204905092915050565b7f4f776e61626c653a206e6577206f776e657220697320746865207a65726f206160008201527f6464726573730000000000000000000000000000000000000000000000000000602082015250565b600061313c6026836124bd565b9150613147826130e0565b604082019050919050565b6000602082019050818103600083015261316b8161312f565b9050919050565b7f4f776e61626c653a2063616c6c6572206973206e6f7420746865206f776e6572600082015250565b60006131a86020836124bd565b91506131b382613172565b602082019050919050565b600060208201905081810360008301526131d78161319b565b9050919050565b7f455243313135353a2069647320616e6420616d6f756e7473206c656e6774682060008201527f6d69736d61746368000000000000000000000000000000000000000000000000602082015250565b600061323a6028836124bd565b9150613245826131de565b604082019050919050565b600060208201905081810360008301526132698161322d565b9050919050565b7f455243313135353a207472616e7366657220746f20746865207a65726f20616460008201527f6472657373000000000000000000000000000000000000000000000000000000602082015250565b60006132cc6025836124bd565b91506132d782613270565b604082019050919050565b600060208201905081810360008301526132fb816132bf565b9050919050565b7f455243313135353a20696e73756666696369656e742062616c616e636520666f60008201527f72207472616e7366657200000000000000000000000000000000000000000000602082015250565b600061335e602a836124bd565b915061336982613302565b604082019050919050565b6000602082019050818103600083015261338d81613351565b9050919050565b600061339f8261232a565b91506133aa8361232a565b9250827fffffffffffffffffffffffffffffffffffffffffffffffffffffffffffffffff038211156133df576133de612fd7565b5b828201905092915050565b600060408201905081810360008301526134048185612a01565b905081810360208301526134188184612a01565b90509392505050565b7f455243313135353a2073657474696e6720617070726f76616c2073746174757360008201527f20666f722073656c660000000000000000000000000000000000000000000000602082015250565b600061347d6029836124bd565b915061348882613421565b604082019050919050565b600060208201905081810360008301526134ac81613470565b9050919050565b7f455243313135353a206275726e2066726f6d20746865207a65726f206164647260008201527f6573730000000000000000000000000000000000000000000000000000000000602082015250565b600061350f6023836124bd565b915061351a826134b3565b604082019050919050565b6000602082019050818103600083015261353e81613502565b9050919050565b7f455243313135353a206275726e20616d6f756e7420657863656564732062616c60008201527f616e636500000000000000000000000000000000000000000000000000000000602082015250565b60006135a16024836124bd565b91506135ac82613545565b604082019050919050565b600060208201905081810360008301526135d081613594565b9050919050565b60006040820190506135ec60008301856123a0565b6135f960208301846123a0565b9392505050565b7f455243313135353a206d696e7420746f20746865207a65726f2061646472657360008201527f7300000000000000000000000000000000000000000000000000000000000000602082015250565b600061365c6021836124bd565b915061366782613600565b604082019050919050565b6000602082019050818103600083015261368b8161364f565b9050919050565b7f75726920697320616c7265616479207361766564000000000000000000000000600082015250565b60006136c86014836124bd565b91506136d382613692565b602082019050919050565b600060208201905081810360008301526136f7816136bb565b9050919050565b7f455243313135353a206275726e20616d6f756e74206578636565647320746f7460008201527f616c537570706c79000000000000000000000000000000000000000000000000602082015250565b600061375a6028836124bd565b9150613765826136fe565b604082019050919050565b600060208201905081810360008301526137898161374d565b9050919050565b600081519050919050565b600082825260208201905092915050565b60006137b782613790565b6137c1818561379b565b93506137d18185602086016124ce565b6137da81612501565b840191505092915050565b600060a0820190506137fa6000830188612a81565b6138076020830187612a81565b81810360408301526138198186612a01565b9050818103606083015261382d8185612a01565b9050818103608083015261384181846137ac565b90509695505050505050565b60008151905061385c816123f6565b92915050565b600060208284031215613878576138776122c2565b5b60006138868482850161384d565b91505092915050565b60008160e01c9050919050565b600060033d11156138bb5760046000803e6138b860005161388f565b90505b90565b600060443d10156138ce57613951565b6138d66122b8565b60043d036004823e80513d602482011167ffffffffffffffff821117156138fe575050613951565b808201805167ffffffffffffffff81111561391c5750505050613951565b80602083010160043d038501811115613939575050505050613951565b613948826020018501866125ce565b82955050505050505b90565b7f455243313135353a207472616e7366657220746f206e6f6e204552433131353560008201527f526563656976657220696d706c656d656e746572000000000000000000000000602082015250565b60006139b06034836124bd565b91506139bb82613954565b604082019050919050565b600060208201905081810360008301526139df816139a3565b9050919050565b7f455243313135353a204552433131353552656365697665722072656a6563746560008201527f6420746f6b656e73000000000000000000000000000000000000000000000000602082015250565b6000613a426028836124bd565b9150613a4d826139e6565b604082019050919050565b60006020820190508181036000830152613a7181613a35565b9050919050565b600060a082019050613a8d6000830188612a81565b613a9a6020830187612a81565b613aa760408301866123a0565b613ab460608301856123a0565b8181036080830152613ac681846137ac565b9050969550505050505056fea2646970667358221220293e2d4b165ea098ef9818439eb928cf65c6648fdfeec873ab4618d93130abb364736f6c634300080b0033",
  "devdoc": {
    "kind": "dev",
    "methods": {
      "balanceOf(address,uint256)": {
        "details": "See {IERC1155-balanceOf}. Requirements: - `account` cannot be the zero address."
      },
      "balanceOfBatch(address[],uint256[])": {
        "details": "See {IERC1155-balanceOfBatch}. Requirements: - `accounts` and `ids` must have the same length."
      },
      "createLoan(uint256,uint256,address)": {
        "params": {
          "principal": "the total value of tokens user want to mint",
          "tokenId": "id of the project"
        }
      },
      "exists(uint256)": {
        "details": "Indicates whether any token exist with a given id, or not."
      },
      "isApprovedForAll(address,address)": {
        "details": "See {IERC1155-isApprovedForAll}."
      },
      "owner()": {
        "details": "Returns the address of the current owner."
      },
      "renounceOwnership()": {
        "details": "Leaves the contract without owner. It will not be possible to call `onlyOwner` functions anymore. Can only be called by the current owner. NOTE: Renouncing ownership will leave the contract without an owner, thereby removing any functionality that is only available to the owner."
      },
      "safeBatchTransferFrom(address,address,uint256[],uint256[],bytes)": {
        "details": "See {IERC1155-safeBatchTransferFrom}."
      },
      "safeTransferFrom(address,address,uint256,uint256,bytes)": {
        "details": "See {IERC1155-safeTransferFrom}."
      },
      "setApprovalForAll(address,bool)": {
        "details": "See {IERC1155-setApprovalForAll}."
      },
      "supportsInterface(bytes4)": {
        "details": "See {IERC165-supportsInterface}."
      },
      "totalSupply(uint256)": {
        "details": "Total amount of tokens in with a given id."
      },
      "transferOwnership(address)": {
        "details": "Transfers ownership of the contract to a new account (`newOwner`). Can only be called by the current owner."
      }
    },
    "version": 1
  },
  "userdoc": {
    "kind": "user",
    "methods": {
      "createLoan(uint256,uint256,address)": {
        "notice": "Mint tokens corresponding amount to unit value"
      }
    },
    "version": 1
  },
  "storageLayout": {
    "storage": [
      {
        "astId": 138,
        "contract": "contracts/NftBond.sol:NftBond",
        "label": "_balances",
        "offset": 0,
        "slot": "0",
        "type": "t_mapping(t_uint256,t_mapping(t_address,t_uint256))"
      },
      {
        "astId": 144,
        "contract": "contracts/NftBond.sol:NftBond",
        "label": "_operatorApprovals",
        "offset": 0,
        "slot": "1",
        "type": "t_mapping(t_address,t_mapping(t_address,t_bool))"
      },
      {
        "astId": 146,
        "contract": "contracts/NftBond.sol:NftBond",
        "label": "_uri",
        "offset": 0,
        "slot": "2",
        "type": "t_string_storage"
      },
      {
        "astId": 1508,
        "contract": "contracts/NftBond.sol:NftBond",
        "label": "_totalSupply",
        "offset": 0,
        "slot": "3",
        "type": "t_mapping(t_uint256,t_uint256)"
      },
      {
        "astId": 7,
        "contract": "contracts/NftBond.sol:NftBond",
        "label": "_owner",
        "offset": 0,
        "slot": "4",
        "type": "t_address"
      },
      {
        "astId": 3147,
        "contract": "contracts/NftBond.sol:NftBond",
        "label": "_unit",
        "offset": 0,
        "slot": "5",
        "type": "t_mapping(t_uint256,t_uint256)"
      },
      {
        "astId": 3151,
        "contract": "contracts/NftBond.sol:NftBond",
        "label": "_uri",
        "offset": 0,
        "slot": "6",
        "type": "t_mapping(t_uint256,t_string_storage)"
      },
      {
        "astId": 3153,
        "contract": "contracts/NftBond.sol:NftBond",
        "label": "controller",
        "offset": 0,
        "slot": "7",
        "type": "t_address"
      },
      {
        "astId": 3155,
        "contract": "contracts/NftBond.sol:NftBond",
        "label": "tokenIdCounter",
        "offset": 0,
        "slot": "8",
        "type": "t_uint256"
      }
    ],
    "types": {
      "t_address": {
        "encoding": "inplace",
        "label": "address",
        "numberOfBytes": "20"
      },
      "t_bool": {
        "encoding": "inplace",
        "label": "bool",
        "numberOfBytes": "1"
      },
      "t_mapping(t_address,t_bool)": {
        "encoding": "mapping",
        "key": "t_address",
        "label": "mapping(address => bool)",
        "numberOfBytes": "32",
        "value": "t_bool"
      },
      "t_mapping(t_address,t_mapping(t_address,t_bool))": {
        "encoding": "mapping",
        "key": "t_address",
        "label": "mapping(address => mapping(address => bool))",
        "numberOfBytes": "32",
        "value": "t_mapping(t_address,t_bool)"
      },
      "t_mapping(t_address,t_uint256)": {
        "encoding": "mapping",
        "key": "t_address",
        "label": "mapping(address => uint256)",
        "numberOfBytes": "32",
        "value": "t_uint256"
      },
      "t_mapping(t_uint256,t_mapping(t_address,t_uint256))": {
        "encoding": "mapping",
        "key": "t_uint256",
        "label": "mapping(uint256 => mapping(address => uint256))",
        "numberOfBytes": "32",
        "value": "t_mapping(t_address,t_uint256)"
      },
      "t_mapping(t_uint256,t_string_storage)": {
        "encoding": "mapping",
        "key": "t_uint256",
        "label": "mapping(uint256 => string)",
        "numberOfBytes": "32",
        "value": "t_string_storage"
      },
      "t_mapping(t_uint256,t_uint256)": {
        "encoding": "mapping",
        "key": "t_uint256",
        "label": "mapping(uint256 => uint256)",
        "numberOfBytes": "32",
        "value": "t_uint256"
      },
      "t_string_storage": {
        "encoding": "bytes",
        "label": "string",
        "numberOfBytes": "32"
      },
      "t_uint256": {
        "encoding": "inplace",
        "label": "uint256",
        "numberOfBytes": "32"
      }
    }
  }
}