{
  "address": "0xcE9cEcd4c320C1F244e95269109E46275390A482",
  "abi": [
    {
      "inputs": [],
      "stateMutability": "nonpayable",
      "type": "constructor"
    },
    {
      "inputs": [],
      "name": "AlreadyInitialized",
      "type": "error"
    },
    {
      "inputs": [],
      "name": "NotDivisibleByUnit",
      "type": "error"
    },
    {
      "inputs": [],
      "name": "OnlyController",
      "type": "error"
    },
    {
      "inputs": [],
      "name": "ZeroBalance",
      "type": "error"
    },
    {
      "anonymous": false,
      "inputs": [
        {
          "indexed": true,
          "internalType": "address",
          "name": "account",
          "type": "address"
        },
        {
          "indexed": true,
          "internalType": "address",
          "name": "operator",
          "type": "address"
        },
        {
          "indexed": false,
          "internalType": "bool",
          "name": "approved",
          "type": "bool"
        }
      ],
      "name": "ApprovalForAll",
      "type": "event"
    },
    {
      "anonymous": false,
      "inputs": [
        {
          "indexed": false,
          "internalType": "uint256",
          "name": "_tokenId",
          "type": "uint256"
        },
        {
          "indexed": false,
          "internalType": "uint256",
          "name": "_principal",
          "type": "uint256"
        },
        {
          "indexed": false,
          "internalType": "address",
          "name": "_account",
          "type": "address"
        }
      ],
      "name": "CreateLoan",
      "type": "event"
    },
    {
      "anonymous": false,
      "inputs": [
        {
          "indexed": false,
          "internalType": "string",
          "name": "_uri_",
          "type": "string"
        },
        {
          "indexed": false,
          "internalType": "uint256",
          "name": "_unit_",
          "type": "uint256"
        }
      ],
      "name": "InitProject",
      "type": "event"
    },
    {
      "anonymous": false,
      "inputs": [
        {
          "indexed": true,
          "internalType": "address",
          "name": "previousOwner",
          "type": "address"
        },
        {
          "indexed": true,
          "internalType": "address",
          "name": "newOwner",
          "type": "address"
        }
      ],
      "name": "OwnershipTransferred",
      "type": "event"
    },
    {
      "anonymous": false,
      "inputs": [
        {
          "indexed": false,
          "internalType": "uint256",
          "name": "_tokenId",
          "type": "uint256"
        },
        {
          "indexed": false,
          "internalType": "address",
          "name": "_account",
          "type": "address"
        },
        {
          "indexed": false,
          "internalType": "uint256",
          "name": "_tokenBalance",
          "type": "uint256"
        }
      ],
      "name": "Redeem",
      "type": "event"
    },
    {
      "anonymous": false,
      "inputs": [
        {
          "indexed": true,
          "internalType": "address",
          "name": "operator",
          "type": "address"
        },
        {
          "indexed": true,
          "internalType": "address",
          "name": "from",
          "type": "address"
        },
        {
          "indexed": true,
          "internalType": "address",
          "name": "to",
          "type": "address"
        },
        {
          "indexed": false,
          "internalType": "uint256[]",
          "name": "ids",
          "type": "uint256[]"
        },
        {
          "indexed": false,
          "internalType": "uint256[]",
          "name": "values",
          "type": "uint256[]"
        }
      ],
      "name": "TransferBatch",
      "type": "event"
    },
    {
      "anonymous": false,
      "inputs": [
        {
          "indexed": true,
          "internalType": "address",
          "name": "operator",
          "type": "address"
        },
        {
          "indexed": true,
          "internalType": "address",
          "name": "from",
          "type": "address"
        },
        {
          "indexed": true,
          "internalType": "address",
          "name": "to",
          "type": "address"
        },
        {
          "indexed": false,
          "internalType": "uint256",
          "name": "id",
          "type": "uint256"
        },
        {
          "indexed": false,
          "internalType": "uint256",
          "name": "value",
          "type": "uint256"
        }
      ],
      "name": "TransferSingle",
      "type": "event"
    },
    {
      "anonymous": false,
      "inputs": [
        {
          "indexed": false,
          "internalType": "string",
          "name": "value",
          "type": "string"
        },
        {
          "indexed": true,
          "internalType": "uint256",
          "name": "id",
          "type": "uint256"
        }
      ],
      "name": "URI",
      "type": "event"
    },
    {
      "inputs": [
        {
          "internalType": "address",
          "name": "account",
          "type": "address"
        },
        {
          "internalType": "uint256",
          "name": "id",
          "type": "uint256"
        }
      ],
      "name": "balanceOf",
      "outputs": [
        {
          "internalType": "uint256",
          "name": "",
          "type": "uint256"
        }
      ],
      "stateMutability": "view",
      "type": "function"
    },
    {
      "inputs": [
        {
          "internalType": "address[]",
          "name": "accounts",
          "type": "address[]"
        },
        {
          "internalType": "uint256[]",
          "name": "ids",
          "type": "uint256[]"
        }
      ],
      "name": "balanceOfBatch",
      "outputs": [
        {
          "internalType": "uint256[]",
          "name": "",
          "type": "uint256[]"
        }
      ],
      "stateMutability": "view",
      "type": "function"
    },
    {
      "inputs": [],
      "name": "controller",
      "outputs": [
        {
          "internalType": "address",
          "name": "",
          "type": "address"
        }
      ],
      "stateMutability": "view",
      "type": "function"
    },
    {
      "inputs": [
        {
          "internalType": "uint256",
          "name": "tokenId",
          "type": "uint256"
        },
        {
          "internalType": "uint256",
          "name": "principal",
          "type": "uint256"
        },
        {
          "internalType": "address",
          "name": "account",
          "type": "address"
        }
      ],
      "name": "createLoan",
      "outputs": [],
      "stateMutability": "nonpayable",
      "type": "function"
    },
    {
      "inputs": [
        {
          "internalType": "uint256",
          "name": "id",
          "type": "uint256"
        }
      ],
      "name": "exists",
      "outputs": [
        {
          "internalType": "bool",
          "name": "",
          "type": "bool"
        }
      ],
      "stateMutability": "view",
      "type": "function"
    },
    {
      "inputs": [
        {
          "internalType": "address",
          "name": "controller_",
          "type": "address"
        }
      ],
      "name": "init",
      "outputs": [],
      "stateMutability": "nonpayable",
      "type": "function"
    },
    {
      "inputs": [
        {
          "internalType": "string",
          "name": "uri_",
          "type": "string"
        },
        {
          "internalType": "uint256",
          "name": "unit_",
          "type": "uint256"
        }
      ],
      "name": "initProject",
      "outputs": [],
      "stateMutability": "nonpayable",
      "type": "function"
    },
    {
      "inputs": [
        {
          "internalType": "address",
          "name": "account",
          "type": "address"
        },
        {
          "internalType": "address",
          "name": "operator",
          "type": "address"
        }
      ],
      "name": "isApprovedForAll",
      "outputs": [
        {
          "internalType": "bool",
          "name": "",
          "type": "bool"
        }
      ],
      "stateMutability": "view",
      "type": "function"
    },
    {
      "inputs": [],
      "name": "owner",
      "outputs": [
        {
          "internalType": "address",
          "name": "",
          "type": "address"
        }
      ],
      "stateMutability": "view",
      "type": "function"
    },
    {
      "inputs": [
        {
          "internalType": "uint256",
          "name": "tokenId",
          "type": "uint256"
        },
        {
          "internalType": "address",
          "name": "account",
          "type": "address"
        },
        {
          "internalType": "uint256",
          "name": "tokenBalance",
          "type": "uint256"
        }
      ],
      "name": "redeem",
      "outputs": [],
      "stateMutability": "nonpayable",
      "type": "function"
    },
    {
      "inputs": [],
      "name": "renounceOwnership",
      "outputs": [],
      "stateMutability": "nonpayable",
      "type": "function"
    },
    {
      "inputs": [
        {
          "internalType": "address",
          "name": "from",
          "type": "address"
        },
        {
          "internalType": "address",
          "name": "to",
          "type": "address"
        },
        {
          "internalType": "uint256[]",
          "name": "ids",
          "type": "uint256[]"
        },
        {
          "internalType": "uint256[]",
          "name": "amounts",
          "type": "uint256[]"
        },
        {
          "internalType": "bytes",
          "name": "data",
          "type": "bytes"
        }
      ],
      "name": "safeBatchTransferFrom",
      "outputs": [],
      "stateMutability": "nonpayable",
      "type": "function"
    },
    {
      "inputs": [
        {
          "internalType": "address",
          "name": "from",
          "type": "address"
        },
        {
          "internalType": "address",
          "name": "to",
          "type": "address"
        },
        {
          "internalType": "uint256",
          "name": "id",
          "type": "uint256"
        },
        {
          "internalType": "uint256",
          "name": "amount",
          "type": "uint256"
        },
        {
          "internalType": "bytes",
          "name": "data",
          "type": "bytes"
        }
      ],
      "name": "safeTransferFrom",
      "outputs": [],
      "stateMutability": "nonpayable",
      "type": "function"
    },
    {
      "inputs": [
        {
          "internalType": "address",
          "name": "operator",
          "type": "address"
        },
        {
          "internalType": "bool",
          "name": "approved",
          "type": "bool"
        }
      ],
      "name": "setApprovalForAll",
      "outputs": [],
      "stateMutability": "nonpayable",
      "type": "function"
    },
    {
      "inputs": [
        {
          "internalType": "uint256",
          "name": "tokenId",
          "type": "uint256"
        },
        {
          "internalType": "string",
          "name": "uri_",
          "type": "string"
        }
      ],
      "name": "setURI",
      "outputs": [],
      "stateMutability": "nonpayable",
      "type": "function"
    },
    {
      "inputs": [
        {
          "internalType": "bytes4",
          "name": "interfaceId",
          "type": "bytes4"
        }
      ],
      "name": "supportsInterface",
      "outputs": [
        {
          "internalType": "bool",
          "name": "",
          "type": "bool"
        }
      ],
      "stateMutability": "view",
      "type": "function"
    },
    {
      "inputs": [],
      "name": "tokenIdCounter",
      "outputs": [
        {
          "internalType": "uint256",
          "name": "",
          "type": "uint256"
        }
      ],
      "stateMutability": "view",
      "type": "function"
    },
    {
      "inputs": [
        {
          "internalType": "uint256",
          "name": "id",
          "type": "uint256"
        }
      ],
      "name": "totalSupply",
      "outputs": [
        {
          "internalType": "uint256",
          "name": "",
          "type": "uint256"
        }
      ],
      "stateMutability": "view",
      "type": "function"
    },
    {
      "inputs": [
        {
          "internalType": "address",
          "name": "newOwner",
          "type": "address"
        }
      ],
      "name": "transferOwnership",
      "outputs": [],
      "stateMutability": "nonpayable",
      "type": "function"
    },
    {
      "inputs": [
        {
          "internalType": "uint256",
          "name": "tokenId",
          "type": "uint256"
        }
      ],
      "name": "unit",
      "outputs": [
        {
          "internalType": "uint256",
          "name": "",
          "type": "uint256"
        }
      ],
      "stateMutability": "view",
      "type": "function"
    },
    {
      "inputs": [
        {
          "internalType": "uint256",
          "name": "tokenId",
          "type": "uint256"
        }
      ],
      "name": "uri",
      "outputs": [
        {
          "internalType": "string",
          "name": "",
          "type": "string"
        }
      ],
      "stateMutability": "view",
      "type": "function"
    }
  ],
  "transactionHash": "0xb159fd9c59bbd970b8954d71e38849236c877975e43cab28e49efa604b23d3c8",
  "args": [],
  "numDeployments": 2,
  "solcInputHash": "c7321f660f46a4e7c512573b1596a074",
  "bytecode": "0x60806040523480156200001157600080fd5b506040518060200160405280600081525062000033816200005a60201b60201c565b5062000054620000486200007660201b60201c565b6200007e60201b60201c565b62000259565b80600290805190602001906200007292919062000144565b5050565b600033905090565b6000600460009054906101000a900473ffffffffffffffffffffffffffffffffffffffff16905081600460006101000a81548173ffffffffffffffffffffffffffffffffffffffff021916908373ffffffffffffffffffffffffffffffffffffffff1602179055508173ffffffffffffffffffffffffffffffffffffffff168173ffffffffffffffffffffffffffffffffffffffff167f8be0079c531659141344cd1fd0a4f28419497f9722a3daafe3b4186f6b6457e060405160405180910390a35050565b828054620001529062000223565b90600052602060002090601f016020900481019282620001765760008555620001c2565b82601f106200019157805160ff1916838001178555620001c2565b82800160010185558215620001c2579182015b82811115620001c1578251825591602001919060010190620001a4565b5b509050620001d19190620001d5565b5090565b5b80821115620001f0576000816000905550600101620001d6565b5090565b7f4e487b7100000000000000000000000000000000000000000000000000000000600052602260045260246000fd5b600060028204905060018216806200023c57607f821691505b60208210811415620002535762000252620001f4565b5b50919050565b613bca80620002696000396000f3fe608060405234801561001057600080fd5b50600436106101365760003560e01c806398bdf6f5116100b8578063e00508ba1161007c578063e00508ba14610349578063e985e9c514610379578063f242432a146103a9578063f2fde38b146103c5578063f6c5feb9146103e1578063f77c4791146103fd57610136565b806398bdf6f5146102a7578063a22cb465146102c5578063bd85b039146102e1578063d878016114610311578063dc4cab0c1461032d57610136565b80634e1273f4116100ff5780634e1273f4146102035780634f558e7914610233578063715018a614610263578063862440e21461026d5780638da5cb5b1461028957610136565b8062fdd58e1461013b57806301ffc9a71461016b5780630e89341c1461019b57806319ab453c146101cb5780632eb2c2d6146101e7575b600080fd5b61015560048036038101906101509190612394565b61041b565b60405161016291906123e3565b60405180910390f35b61018560048036038101906101809190612456565b6104e4565b604051610192919061249e565b60405180910390f35b6101b560048036038101906101b091906124b9565b6105c6565b6040516101c2919061257f565b60405180910390f35b6101e560048036038101906101e091906125a1565b61066b565b005b61020160048036038101906101fc91906127cb565b61073f565b005b61021d6004803603810190610218919061295d565b6107e0565b60405161022a9190612a93565b60405180910390f35b61024d600480360381019061024891906124b9565b6108f9565b60405161025a919061249e565b60405180910390f35b61026b61090d565b005b61028760048036038101906102829190612b56565b610921565b005b610291610937565b60405161029e9190612bc1565b60405180910390f35b6102af610961565b6040516102bc91906123e3565b60405180910390f35b6102df60048036038101906102da9190612c08565b610967565b005b6102fb60048036038101906102f691906124b9565b61097d565b60405161030891906123e3565b60405180910390f35b61032b60048036038101906103269190612c48565b61099a565b005b61034760048036038101906103429190612c9b565b610ab0565b005b610363600480360381019061035e91906124b9565b610bfb565b60405161037091906123e3565b60405180910390f35b610393600480360381019061038e9190612cee565b610c18565b6040516103a0919061249e565b60405180910390f35b6103c360048036038101906103be9190612d2e565b610cac565b005b6103df60048036038101906103da91906125a1565b610d4d565b005b6103fb60048036038101906103f69190612dc5565b610dd1565b005b610405610eb9565b6040516104129190612bc1565b60405180910390f35b60008073ffffffffffffffffffffffffffffffffffffffff168373ffffffffffffffffffffffffffffffffffffffff16141561048c576040517f08c379a000000000000000000000000000000000000000000000000000000000815260040161048390612e93565b60405180910390fd5b60008083815260200190815260200160002060008473ffffffffffffffffffffffffffffffffffffffff1673ffffffffffffffffffffffffffffffffffffffff16815260200190815260200160002054905092915050565b60007fd9b67a26000000000000000000000000000000000000000000000000000000007bffffffffffffffffffffffffffffffffffffffffffffffffffffffff1916827bffffffffffffffffffffffffffffffffffffffffffffffffffffffff191614806105af57507f0e89341c000000000000000000000000000000000000000000000000000000007bffffffffffffffffffffffffffffffffffffffffffffffffffffffff1916827bffffffffffffffffffffffffffffffffffffffffffffffffffffffff1916145b806105bf57506105be82610edf565b5b9050919050565b60606006600083815260200190815260200160002080546105e690612ee2565b80601f016020809104026020016040519081016040528092919081815260200182805461061290612ee2565b801561065f5780601f106106345761010080835404028352916020019161065f565b820191906000526020600020905b81548152906001019060200180831161064257829003601f168201915b50505050509050919050565b610673610f49565b600073ffffffffffffffffffffffffffffffffffffffff16600760009054906101000a900473ffffffffffffffffffffffffffffffffffffffff1673ffffffffffffffffffffffffffffffffffffffff16146106fb576040517f0dc149f000000000000000000000000000000000000000000000000000000000815260040160405180910390fd5b80600760006101000a81548173ffffffffffffffffffffffffffffffffffffffff021916908373ffffffffffffffffffffffffffffffffffffffff16021790555050565b610747610fc7565b73ffffffffffffffffffffffffffffffffffffffff168573ffffffffffffffffffffffffffffffffffffffff16148061078d575061078c85610787610fc7565b610c18565b5b6107cc576040517f08c379a00000000000000000000000000000000000000000000000000000000081526004016107c390612f86565b60405180910390fd5b6107d98585858585610fcf565b5050505050565b60608151835114610826576040517f08c379a000000000000000000000000000000000000000000000000000000000815260040161081d90613018565b60405180910390fd5b6000835167ffffffffffffffff811115610843576108426125d3565b5b6040519080825280602002602001820160405280156108715781602001602082028036833780820191505090505b50905060005b84518110156108ee576108be85828151811061089657610895613038565b5b60200260200101518583815181106108b1576108b0613038565b5b602002602001015161041b565b8282815181106108d1576108d0613038565b5b602002602001018181525050806108e790613096565b9050610877565b508091505092915050565b6000806109058361097d565b119050919050565b610915610f49565b61091f60006112f1565b565b610929610f49565b61093382826113b7565b5050565b6000600460009054906101000a900473ffffffffffffffffffffffffffffffffffffffff16905090565b60085481565b610979610972610fc7565b83836113e3565b5050565b600060036000838152602001908152602001600020549050919050565b600760009054906101000a900473ffffffffffffffffffffffffffffffffffffffff1673ffffffffffffffffffffffffffffffffffffffff163373ffffffffffffffffffffffffffffffffffffffff1614610a21576040517f5990781300000000000000000000000000000000000000000000000000000000815260040160405180910390fd5b6000610a2d838561041b565b1415610a65576040517f669567ea00000000000000000000000000000000000000000000000000000000815260040160405180910390fd5b610a70828483611550565b7f1069ba7d3dd3d969eada9a014b1e1a8e2ab1ef7f38989db8ce98e698ac844f65838383604051610aa3939291906130df565b60405180910390a1505050565b600760009054906101000a900473ffffffffffffffffffffffffffffffffffffffff1673ffffffffffffffffffffffffffffffffffffffff163373ffffffffffffffffffffffffffffffffffffffff1614610b37576040517f5990781300000000000000000000000000000000000000000000000000000000815260040160405180910390fd5b60006005600085815260200190815260200160002054905060008184610b5d9190613145565b14610b94576040517f93cab43c00000000000000000000000000000000000000000000000000000000815260040160405180910390fd5b610bba82858386610ba59190613176565b60405180602001604052806000815250611797565b7fdefa509aac23bd93e708c91a4f8219d301bb9a4e8f97ad4b87f8c7b140e2590d848484604051610bed939291906131a7565b60405180910390a150505050565b600060056000838152602001908152602001600020549050919050565b6000600160008473ffffffffffffffffffffffffffffffffffffffff1673ffffffffffffffffffffffffffffffffffffffff16815260200190815260200160002060008373ffffffffffffffffffffffffffffffffffffffff1673ffffffffffffffffffffffffffffffffffffffff16815260200190815260200160002060009054906101000a900460ff16905092915050565b610cb4610fc7565b73ffffffffffffffffffffffffffffffffffffffff168573ffffffffffffffffffffffffffffffffffffffff161480610cfa5750610cf985610cf4610fc7565b610c18565b5b610d39576040517f08c379a0000000000000000000000000000000000000000000000000000000008152600401610d3090612f86565b60405180910390fd5b610d468585858585611948565b5050505050565b610d55610f49565b600073ffffffffffffffffffffffffffffffffffffffff168173ffffffffffffffffffffffffffffffffffffffff161415610dc5576040517f08c379a0000000000000000000000000000000000000000000000000000000008152600401610dbc90613250565b60405180910390fd5b610dce816112f1565b50565b600760009054906101000a900473ffffffffffffffffffffffffffffffffffffffff1673ffffffffffffffffffffffffffffffffffffffff163373ffffffffffffffffffffffffffffffffffffffff1614610e58576040517f5990781300000000000000000000000000000000000000000000000000000000815260040160405180910390fd5b60006008549050610e6981846113b7565b610e738183611be4565b610e7b611c00565b7f1d1fc946da227e6a068e7d5714eedb69f22e86165b6941d7c7f64e02e7757e578383604051610eac929190613270565b60405180910390a1505050565b600760009054906101000a900473ffffffffffffffffffffffffffffffffffffffff1681565b60007f01ffc9a7000000000000000000000000000000000000000000000000000000007bffffffffffffffffffffffffffffffffffffffffffffffffffffffff1916827bffffffffffffffffffffffffffffffffffffffffffffffffffffffff1916149050919050565b610f51610fc7565b73ffffffffffffffffffffffffffffffffffffffff16610f6f610937565b73ffffffffffffffffffffffffffffffffffffffff1614610fc5576040517f08c379a0000000000000000000000000000000000000000000000000000000008152600401610fbc906132ec565b60405180910390fd5b565b600033905090565b8151835114611013576040517f08c379a000000000000000000000000000000000000000000000000000000000815260040161100a9061337e565b60405180910390fd5b600073ffffffffffffffffffffffffffffffffffffffff168473ffffffffffffffffffffffffffffffffffffffff161415611083576040517f08c379a000000000000000000000000000000000000000000000000000000000815260040161107a90613410565b60405180910390fd5b600061108d610fc7565b905061109d818787878787611c1a565b60005b845181101561124e5760008582815181106110be576110bd613038565b5b6020026020010151905060008583815181106110dd576110dc613038565b5b60200260200101519050600080600084815260200190815260200160002060008b73ffffffffffffffffffffffffffffffffffffffff1673ffffffffffffffffffffffffffffffffffffffff1681526020019081526020016000205490508181101561117e576040517f08c379a0000000000000000000000000000000000000000000000000000000008152600401611175906134a2565b60405180910390fd5b81810360008085815260200190815260200160002060008c73ffffffffffffffffffffffffffffffffffffffff1673ffffffffffffffffffffffffffffffffffffffff168152602001908152602001600020819055508160008085815260200190815260200160002060008b73ffffffffffffffffffffffffffffffffffffffff1673ffffffffffffffffffffffffffffffffffffffff168152602001908152602001600020600082825461123391906134c2565b925050819055505050508061124790613096565b90506110a0565b508473ffffffffffffffffffffffffffffffffffffffff168673ffffffffffffffffffffffffffffffffffffffff168273ffffffffffffffffffffffffffffffffffffffff167f4a39dc06d4c0dbc64b70af90fd698a233a518aa5d07e595d983b8c0526c8f7fb87876040516112c5929190613518565b60405180910390a46112db818787878787611dec565b6112e9818787878787611df4565b505050505050565b6000600460009054906101000a900473ffffffffffffffffffffffffffffffffffffffff16905081600460006101000a81548173ffffffffffffffffffffffffffffffffffffffff021916908373ffffffffffffffffffffffffffffffffffffffff1602179055508173ffffffffffffffffffffffffffffffffffffffff168173ffffffffffffffffffffffffffffffffffffffff167f8be0079c531659141344cd1fd0a4f28419497f9722a3daafe3b4186f6b6457e060405160405180910390a35050565b806006600084815260200190815260200160002090805190602001906113de929190612249565b505050565b8173ffffffffffffffffffffffffffffffffffffffff168373ffffffffffffffffffffffffffffffffffffffff161415611452576040517f08c379a0000000000000000000000000000000000000000000000000000000008152600401611449906135c1565b60405180910390fd5b80600160008573ffffffffffffffffffffffffffffffffffffffff1673ffffffffffffffffffffffffffffffffffffffff16815260200190815260200160002060008473ffffffffffffffffffffffffffffffffffffffff1673ffffffffffffffffffffffffffffffffffffffff16815260200190815260200160002060006101000a81548160ff0219169083151502179055508173ffffffffffffffffffffffffffffffffffffffff168373ffffffffffffffffffffffffffffffffffffffff167f17307eab39ab6107e8899845ad3d59bd9653f200f220920489ca2b5937696c3183604051611543919061249e565b60405180910390a3505050565b600073ffffffffffffffffffffffffffffffffffffffff168373ffffffffffffffffffffffffffffffffffffffff1614156115c0576040517f08c379a00000000000000000000000000000000000000000000000000000000081526004016115b790613653565b60405180910390fd5b60006115ca610fc7565b905060006115d784611fcc565b905060006115e484611fcc565b905061160483876000858560405180602001604052806000815250611c1a565b600080600087815260200190815260200160002060008873ffffffffffffffffffffffffffffffffffffffff1673ffffffffffffffffffffffffffffffffffffffff1681526020019081526020016000205490508481101561169b576040517f08c379a0000000000000000000000000000000000000000000000000000000008152600401611692906136e5565b60405180910390fd5b84810360008088815260200190815260200160002060008973ffffffffffffffffffffffffffffffffffffffff1673ffffffffffffffffffffffffffffffffffffffff16815260200190815260200160002081905550600073ffffffffffffffffffffffffffffffffffffffff168773ffffffffffffffffffffffffffffffffffffffff168573ffffffffffffffffffffffffffffffffffffffff167fc3d58168c5ae7397731d063d5bbf3d657854427343f4c083240f7aacaa2d0f628989604051611768929190613705565b60405180910390a461178e84886000868660405180602001604052806000815250611dec565b50505050505050565b600073ffffffffffffffffffffffffffffffffffffffff168473ffffffffffffffffffffffffffffffffffffffff161415611807576040517f08c379a00000000000000000000000000000000000000000000000000000000081526004016117fe906137a0565b60405180910390fd5b6000611811610fc7565b9050600061181e85611fcc565b9050600061182b85611fcc565b905061183c83600089858589611c1a565b8460008088815260200190815260200160002060008973ffffffffffffffffffffffffffffffffffffffff1673ffffffffffffffffffffffffffffffffffffffff168152602001908152602001600020600082825461189b91906134c2565b925050819055508673ffffffffffffffffffffffffffffffffffffffff16600073ffffffffffffffffffffffffffffffffffffffff168473ffffffffffffffffffffffffffffffffffffffff167fc3d58168c5ae7397731d063d5bbf3d657854427343f4c083240f7aacaa2d0f628989604051611919929190613705565b60405180910390a461193083600089858589611dec565b61193f83600089898989612046565b50505050505050565b600073ffffffffffffffffffffffffffffffffffffffff168473ffffffffffffffffffffffffffffffffffffffff1614156119b8576040517f08c379a00000000000000000000000000000000000000000000000000000000081526004016119af90613410565b60405180910390fd5b60006119c2610fc7565b905060006119cf85611fcc565b905060006119dc85611fcc565b90506119ec838989858589611c1a565b600080600088815260200190815260200160002060008a73ffffffffffffffffffffffffffffffffffffffff1673ffffffffffffffffffffffffffffffffffffffff16815260200190815260200160002054905085811015611a83576040517f08c379a0000000000000000000000000000000000000000000000000000000008152600401611a7a906134a2565b60405180910390fd5b85810360008089815260200190815260200160002060008b73ffffffffffffffffffffffffffffffffffffffff1673ffffffffffffffffffffffffffffffffffffffff168152602001908152602001600020819055508560008089815260200190815260200160002060008a73ffffffffffffffffffffffffffffffffffffffff1673ffffffffffffffffffffffffffffffffffffffff1681526020019081526020016000206000828254611b3891906134c2565b925050819055508773ffffffffffffffffffffffffffffffffffffffff168973ffffffffffffffffffffffffffffffffffffffff168573ffffffffffffffffffffffffffffffffffffffff167fc3d58168c5ae7397731d063d5bbf3d657854427343f4c083240f7aacaa2d0f628a8a604051611bb5929190613705565b60405180910390a4611bcb848a8a86868a611dec565b611bd9848a8a8a8a8a612046565b505050505050505050565b8060056000848152602001908152602001600020819055505050565b60086000815480929190611c1390613096565b9190505550565b611c2886868686868661221e565b600073ffffffffffffffffffffffffffffffffffffffff168573ffffffffffffffffffffffffffffffffffffffff161415611cda5760005b8351811015611cd857828181518110611c7c57611c7b613038565b5b602002602001015160036000868481518110611c9b57611c9a613038565b5b602002602001015181526020019081526020016000206000828254611cc091906134c2565b9250508190555080611cd190613096565b9050611c60565b505b600073ffffffffffffffffffffffffffffffffffffffff168473ffffffffffffffffffffffffffffffffffffffff161415611de45760005b8351811015611de2576000848281518110611d3057611d2f613038565b5b602002602001015190506000848381518110611d4f57611d4e613038565b5b6020026020010151905060006003600084815260200190815260200160002054905081811015611db4576040517f08c379a0000000000000000000000000000000000000000000000000000000008152600401611dab90613832565b60405180910390fd5b818103600360008581526020019081526020016000208190555050505080611ddb90613096565b9050611d12565b505b505050505050565b505050505050565b611e138473ffffffffffffffffffffffffffffffffffffffff16612226565b15611fc4578373ffffffffffffffffffffffffffffffffffffffff1663bc197c8187878686866040518663ffffffff1660e01b8152600401611e599594939291906138a7565b6020604051808303816000875af1925050508015611e9557506040513d601f19601f82011682018060405250810190611e929190613924565b60015b611f3b57611ea161395e565b806308c379a01415611efe5750611eb6613980565b80611ec15750611f00565b806040517f08c379a0000000000000000000000000000000000000000000000000000000008152600401611ef5919061257f565b60405180910390fd5b505b6040517f08c379a0000000000000000000000000000000000000000000000000000000008152600401611f3290613a88565b60405180910390fd5b63bc197c8160e01b7bffffffffffffffffffffffffffffffffffffffffffffffffffffffff1916817bffffffffffffffffffffffffffffffffffffffffffffffffffffffff191614611fc2576040517f08c379a0000000000000000000000000000000000000000000000000000000008152600401611fb990613b1a565b60405180910390fd5b505b505050505050565b60606000600167ffffffffffffffff811115611feb57611fea6125d3565b5b6040519080825280602002602001820160405280156120195781602001602082028036833780820191505090505b509050828160008151811061203157612030613038565b5b60200260200101818152505080915050919050565b6120658473ffffffffffffffffffffffffffffffffffffffff16612226565b15612216578373ffffffffffffffffffffffffffffffffffffffff1663f23a6e6187878686866040518663ffffffff1660e01b81526004016120ab959493929190613b3a565b6020604051808303816000875af19250505080156120e757506040513d601f19601f820116820180604052508101906120e49190613924565b60015b61218d576120f361395e565b806308c379a014156121505750612108613980565b806121135750612152565b806040517f08c379a0000000000000000000000000000000000000000000000000000000008152600401612147919061257f565b60405180910390fd5b505b6040517f08c379a000000000000000000000000000000000000000000000000000000000815260040161218490613a88565b60405180910390fd5b63f23a6e6160e01b7bffffffffffffffffffffffffffffffffffffffffffffffffffffffff1916817bffffffffffffffffffffffffffffffffffffffffffffffffffffffff191614612214576040517f08c379a000000000000000000000000000000000000000000000000000000000815260040161220b90613b1a565b60405180910390fd5b505b505050505050565b505050505050565b6000808273ffffffffffffffffffffffffffffffffffffffff163b119050919050565b82805461225590612ee2565b90600052602060002090601f01602090048101928261227757600085556122be565b82601f1061229057805160ff19168380011785556122be565b828001600101855582156122be579182015b828111156122bd5782518255916020019190600101906122a2565b5b5090506122cb91906122cf565b5090565b5b808211156122e85760008160009055506001016122d0565b5090565b6000604051905090565b600080fd5b600080fd5b600073ffffffffffffffffffffffffffffffffffffffff82169050919050565b600061232b82612300565b9050919050565b61233b81612320565b811461234657600080fd5b50565b60008135905061235881612332565b92915050565b6000819050919050565b6123718161235e565b811461237c57600080fd5b50565b60008135905061238e81612368565b92915050565b600080604083850312156123ab576123aa6122f6565b5b60006123b985828601612349565b92505060206123ca8582860161237f565b9150509250929050565b6123dd8161235e565b82525050565b60006020820190506123f860008301846123d4565b92915050565b60007fffffffff0000000000000000000000000000000000000000000000000000000082169050919050565b612433816123fe565b811461243e57600080fd5b50565b6000813590506124508161242a565b92915050565b60006020828403121561246c5761246b6122f6565b5b600061247a84828501612441565b91505092915050565b60008115159050919050565b61249881612483565b82525050565b60006020820190506124b3600083018461248f565b92915050565b6000602082840312156124cf576124ce6122f6565b5b60006124dd8482850161237f565b91505092915050565b600081519050919050565b600082825260208201905092915050565b60005b83811015612520578082015181840152602081019050612505565b8381111561252f576000848401525b50505050565b6000601f19601f8301169050919050565b6000612551826124e6565b61255b81856124f1565b935061256b818560208601612502565b61257481612535565b840191505092915050565b600060208201905081810360008301526125998184612546565b905092915050565b6000602082840312156125b7576125b66122f6565b5b60006125c584828501612349565b91505092915050565b600080fd5b7f4e487b7100000000000000000000000000000000000000000000000000000000600052604160045260246000fd5b61260b82612535565b810181811067ffffffffffffffff8211171561262a576126296125d3565b5b80604052505050565b600061263d6122ec565b90506126498282612602565b919050565b600067ffffffffffffffff821115612669576126686125d3565b5b602082029050602081019050919050565b600080fd5b600061269261268d8461264e565b612633565b905080838252602082019050602084028301858111156126b5576126b461267a565b5b835b818110156126de57806126ca888261237f565b8452602084019350506020810190506126b7565b5050509392505050565b600082601f8301126126fd576126fc6125ce565b5b813561270d84826020860161267f565b91505092915050565b600080fd5b600067ffffffffffffffff821115612736576127356125d3565b5b61273f82612535565b9050602081019050919050565b82818337600083830152505050565b600061276e6127698461271b565b612633565b90508281526020810184848401111561278a57612789612716565b5b61279584828561274c565b509392505050565b600082601f8301126127b2576127b16125ce565b5b81356127c284826020860161275b565b91505092915050565b600080600080600060a086880312156127e7576127e66122f6565b5b60006127f588828901612349565b955050602061280688828901612349565b945050604086013567ffffffffffffffff811115612827576128266122fb565b5b612833888289016126e8565b935050606086013567ffffffffffffffff811115612854576128536122fb565b5b612860888289016126e8565b925050608086013567ffffffffffffffff811115612881576128806122fb565b5b61288d8882890161279d565b9150509295509295909350565b600067ffffffffffffffff8211156128b5576128b46125d3565b5b602082029050602081019050919050565b60006128d96128d48461289a565b612633565b905080838252602082019050602084028301858111156128fc576128fb61267a565b5b835b8181101561292557806129118882612349565b8452602084019350506020810190506128fe565b5050509392505050565b600082601f830112612944576129436125ce565b5b81356129548482602086016128c6565b91505092915050565b60008060408385031215612974576129736122f6565b5b600083013567ffffffffffffffff811115612992576129916122fb565b5b61299e8582860161292f565b925050602083013567ffffffffffffffff8111156129bf576129be6122fb565b5b6129cb858286016126e8565b9150509250929050565b600081519050919050565b600082825260208201905092915050565b6000819050602082019050919050565b612a0a8161235e565b82525050565b6000612a1c8383612a01565b60208301905092915050565b6000602082019050919050565b6000612a40826129d5565b612a4a81856129e0565b9350612a55836129f1565b8060005b83811015612a86578151612a6d8882612a10565b9750612a7883612a28565b925050600181019050612a59565b5085935050505092915050565b60006020820190508181036000830152612aad8184612a35565b905092915050565b600067ffffffffffffffff821115612ad057612acf6125d3565b5b612ad982612535565b9050602081019050919050565b6000612af9612af484612ab5565b612633565b905082815260208101848484011115612b1557612b14612716565b5b612b2084828561274c565b509392505050565b600082601f830112612b3d57612b3c6125ce565b5b8135612b4d848260208601612ae6565b91505092915050565b60008060408385031215612b6d57612b6c6122f6565b5b6000612b7b8582860161237f565b925050602083013567ffffffffffffffff811115612b9c57612b9b6122fb565b5b612ba885828601612b28565b9150509250929050565b612bbb81612320565b82525050565b6000602082019050612bd66000830184612bb2565b92915050565b612be581612483565b8114612bf057600080fd5b50565b600081359050612c0281612bdc565b92915050565b60008060408385031215612c1f57612c1e6122f6565b5b6000612c2d85828601612349565b9250506020612c3e85828601612bf3565b9150509250929050565b600080600060608486031215612c6157612c606122f6565b5b6000612c6f8682870161237f565b9350506020612c8086828701612349565b9250506040612c918682870161237f565b9150509250925092565b600080600060608486031215612cb457612cb36122f6565b5b6000612cc28682870161237f565b9350506020612cd38682870161237f565b9250506040612ce486828701612349565b9150509250925092565b60008060408385031215612d0557612d046122f6565b5b6000612d1385828601612349565b9250506020612d2485828601612349565b9150509250929050565b600080600080600060a08688031215612d4a57612d496122f6565b5b6000612d5888828901612349565b9550506020612d6988828901612349565b9450506040612d7a8882890161237f565b9350506060612d8b8882890161237f565b925050608086013567ffffffffffffffff811115612dac57612dab6122fb565b5b612db88882890161279d565b9150509295509295909350565b60008060408385031215612ddc57612ddb6122f6565b5b600083013567ffffffffffffffff811115612dfa57612df96122fb565b5b612e0685828601612b28565b9250506020612e178582860161237f565b9150509250929050565b7f455243313135353a2061646472657373207a65726f206973206e6f742061207660008201527f616c6964206f776e657200000000000000000000000000000000000000000000602082015250565b6000612e7d602a836124f1565b9150612e8882612e21565b604082019050919050565b60006020820190508181036000830152612eac81612e70565b9050919050565b7f4e487b7100000000000000000000000000000000000000000000000000000000600052602260045260246000fd5b60006002820490506001821680612efa57607f821691505b60208210811415612f0e57612f0d612eb3565b5b50919050565b7f455243313135353a2063616c6c6572206973206e6f7420746f6b656e206f776e60008201527f6572206e6f7220617070726f7665640000000000000000000000000000000000602082015250565b6000612f70602f836124f1565b9150612f7b82612f14565b604082019050919050565b60006020820190508181036000830152612f9f81612f63565b9050919050565b7f455243313135353a206163636f756e747320616e6420696473206c656e67746860008201527f206d69736d617463680000000000000000000000000000000000000000000000602082015250565b60006130026029836124f1565b915061300d82612fa6565b604082019050919050565b6000602082019050818103600083015261303181612ff5565b9050919050565b7f4e487b7100000000000000000000000000000000000000000000000000000000600052603260045260246000fd5b7f4e487b7100000000000000000000000000000000000000000000000000000000600052601160045260246000fd5b60006130a18261235e565b91507fffffffffffffffffffffffffffffffffffffffffffffffffffffffffffffffff8214156130d4576130d3613067565b5b600182019050919050565b60006060820190506130f460008301866123d4565b6131016020830185612bb2565b61310e60408301846123d4565b949350505050565b7f4e487b7100000000000000000000000000000000000000000000000000000000600052601260045260246000fd5b60006131508261235e565b915061315b8361235e565b92508261316b5761316a613116565b5b828206905092915050565b60006131818261235e565b915061318c8361235e565b92508261319c5761319b613116565b5b828204905092915050565b60006060820190506131bc60008301866123d4565b6131c960208301856123d4565b6131d66040830184612bb2565b949350505050565b7f4f776e61626c653a206e6577206f776e657220697320746865207a65726f206160008201527f6464726573730000000000000000000000000000000000000000000000000000602082015250565b600061323a6026836124f1565b9150613245826131de565b604082019050919050565b600060208201905081810360008301526132698161322d565b9050919050565b6000604082019050818103600083015261328a8185612546565b905061329960208301846123d4565b9392505050565b7f4f776e61626c653a2063616c6c6572206973206e6f7420746865206f776e6572600082015250565b60006132d66020836124f1565b91506132e1826132a0565b602082019050919050565b60006020820190508181036000830152613305816132c9565b9050919050565b7f455243313135353a2069647320616e6420616d6f756e7473206c656e6774682060008201527f6d69736d61746368000000000000000000000000000000000000000000000000602082015250565b60006133686028836124f1565b91506133738261330c565b604082019050919050565b600060208201905081810360008301526133978161335b565b9050919050565b7f455243313135353a207472616e7366657220746f20746865207a65726f20616460008201527f6472657373000000000000000000000000000000000000000000000000000000602082015250565b60006133fa6025836124f1565b91506134058261339e565b604082019050919050565b60006020820190508181036000830152613429816133ed565b9050919050565b7f455243313135353a20696e73756666696369656e742062616c616e636520666f60008201527f72207472616e7366657200000000000000000000000000000000000000000000602082015250565b600061348c602a836124f1565b915061349782613430565b604082019050919050565b600060208201905081810360008301526134bb8161347f565b9050919050565b60006134cd8261235e565b91506134d88361235e565b9250827fffffffffffffffffffffffffffffffffffffffffffffffffffffffffffffffff0382111561350d5761350c613067565b5b828201905092915050565b600060408201905081810360008301526135328185612a35565b905081810360208301526135468184612a35565b90509392505050565b7f455243313135353a2073657474696e6720617070726f76616c2073746174757360008201527f20666f722073656c660000000000000000000000000000000000000000000000602082015250565b60006135ab6029836124f1565b91506135b68261354f565b604082019050919050565b600060208201905081810360008301526135da8161359e565b9050919050565b7f455243313135353a206275726e2066726f6d20746865207a65726f206164647260008201527f6573730000000000000000000000000000000000000000000000000000000000602082015250565b600061363d6023836124f1565b9150613648826135e1565b604082019050919050565b6000602082019050818103600083015261366c81613630565b9050919050565b7f455243313135353a206275726e20616d6f756e7420657863656564732062616c60008201527f616e636500000000000000000000000000000000000000000000000000000000602082015250565b60006136cf6024836124f1565b91506136da82613673565b604082019050919050565b600060208201905081810360008301526136fe816136c2565b9050919050565b600060408201905061371a60008301856123d4565b61372760208301846123d4565b9392505050565b7f455243313135353a206d696e7420746f20746865207a65726f2061646472657360008201527f7300000000000000000000000000000000000000000000000000000000000000602082015250565b600061378a6021836124f1565b91506137958261372e565b604082019050919050565b600060208201905081810360008301526137b98161377d565b9050919050565b7f455243313135353a206275726e20616d6f756e74206578636565647320746f7460008201527f616c537570706c79000000000000000000000000000000000000000000000000602082015250565b600061381c6028836124f1565b9150613827826137c0565b604082019050919050565b6000602082019050818103600083015261384b8161380f565b9050919050565b600081519050919050565b600082825260208201905092915050565b600061387982613852565b613883818561385d565b9350613893818560208601612502565b61389c81612535565b840191505092915050565b600060a0820190506138bc6000830188612bb2565b6138c96020830187612bb2565b81810360408301526138db8186612a35565b905081810360608301526138ef8185612a35565b90508181036080830152613903818461386e565b90509695505050505050565b60008151905061391e8161242a565b92915050565b60006020828403121561393a576139396122f6565b5b60006139488482850161390f565b91505092915050565b60008160e01c9050919050565b600060033d111561397d5760046000803e61397a600051613951565b90505b90565b600060443d101561399057613a13565b6139986122ec565b60043d036004823e80513d602482011167ffffffffffffffff821117156139c0575050613a13565b808201805167ffffffffffffffff8111156139de5750505050613a13565b80602083010160043d0385018111156139fb575050505050613a13565b613a0a82602001850186612602565b82955050505050505b90565b7f455243313135353a207472616e7366657220746f206e6f6e204552433131353560008201527f526563656976657220696d706c656d656e746572000000000000000000000000602082015250565b6000613a726034836124f1565b9150613a7d82613a16565b604082019050919050565b60006020820190508181036000830152613aa181613a65565b9050919050565b7f455243313135353a204552433131353552656365697665722072656a6563746560008201527f6420746f6b656e73000000000000000000000000000000000000000000000000602082015250565b6000613b046028836124f1565b9150613b0f82613aa8565b604082019050919050565b60006020820190508181036000830152613b3381613af7565b9050919050565b600060a082019050613b4f6000830188612bb2565b613b5c6020830187612bb2565b613b6960408301866123d4565b613b7660608301856123d4565b8181036080830152613b88818461386e565b9050969550505050505056fea2646970667358221220081171f6cb34275b459ef656875745683f7b21ea716fcd47a7be6e14de68aeb464736f6c634300080b0033",
  "devdoc": {
    "kind": "dev",
    "methods": {
      "balanceOf(address,uint256)": {
        "details": "See {IERC1155-balanceOf}. Requirements: - `account` cannot be the zero address."
      },
      "balanceOfBatch(address[],uint256[])": {
        "details": "See {IERC1155-balanceOfBatch}. Requirements: - `accounts` and `ids` must have the same length."
      },
      "createLoan(uint256,uint256,address)": {
        "params": {
          "principal": "the total value of tokens user want to mint",
          "tokenId": "id of the project"
        }
      },
      "exists(uint256)": {
        "details": "Indicates whether any token exist with a given id, or not."
      },
      "isApprovedForAll(address,address)": {
        "details": "See {IERC1155-isApprovedForAll}."
      },
      "owner()": {
        "details": "Returns the address of the current owner."
      },
      "renounceOwnership()": {
        "details": "Leaves the contract without owner. It will not be possible to call `onlyOwner` functions anymore. Can only be called by the current owner. NOTE: Renouncing ownership will leave the contract without an owner, thereby removing any functionality that is only available to the owner."
      },
      "safeBatchTransferFrom(address,address,uint256[],uint256[],bytes)": {
        "details": "See {IERC1155-safeBatchTransferFrom}."
      },
      "safeTransferFrom(address,address,uint256,uint256,bytes)": {
        "details": "See {IERC1155-safeTransferFrom}."
      },
      "setApprovalForAll(address,bool)": {
        "details": "See {IERC1155-setApprovalForAll}."
      },
      "supportsInterface(bytes4)": {
        "details": "See {IERC165-supportsInterface}."
      },
      "totalSupply(uint256)": {
        "details": "Total amount of tokens in with a given id."
      },
      "transferOwnership(address)": {
        "details": "Transfers ownership of the contract to a new account (`newOwner`). Can only be called by the current owner."
      }
    },
    "version": 1
  },
  "userdoc": {
    "events": {
      "InitProject(string,uint256)": {
        "notice": "Events."
      }
    },
    "kind": "user",
    "methods": {
      "constructor": {
        "notice": "Constructor."
      },
      "createLoan(uint256,uint256,address)": {
        "notice": "Mint tokens corresponding amount to unit value"
      }
    },
    "notice": "tokenId is projectId",
    "version": 1
  },
  "storageLayout": {
    "storage": [
      {
        "astId": 138,
        "contract": "contracts/NftBond.sol:NftBond",
        "label": "_balances",
        "offset": 0,
        "slot": "0",
        "type": "t_mapping(t_uint256,t_mapping(t_address,t_uint256))"
      },
      {
        "astId": 144,
        "contract": "contracts/NftBond.sol:NftBond",
        "label": "_operatorApprovals",
        "offset": 0,
        "slot": "1",
        "type": "t_mapping(t_address,t_mapping(t_address,t_bool))"
      },
      {
        "astId": 146,
        "contract": "contracts/NftBond.sol:NftBond",
        "label": "_uri",
        "offset": 0,
        "slot": "2",
        "type": "t_string_storage"
      },
      {
        "astId": 1508,
        "contract": "contracts/NftBond.sol:NftBond",
        "label": "_totalSupply",
        "offset": 0,
        "slot": "3",
        "type": "t_mapping(t_uint256,t_uint256)"
      },
      {
        "astId": 7,
        "contract": "contracts/NftBond.sol:NftBond",
        "label": "_owner",
        "offset": 0,
        "slot": "4",
        "type": "t_address"
      },
      {
        "astId": 3171,
        "contract": "contracts/NftBond.sol:NftBond",
        "label": "_unit",
        "offset": 0,
        "slot": "5",
        "type": "t_mapping(t_uint256,t_uint256)"
      },
      {
        "astId": 3175,
        "contract": "contracts/NftBond.sol:NftBond",
        "label": "_uri",
        "offset": 0,
        "slot": "6",
        "type": "t_mapping(t_uint256,t_string_storage)"
      },
      {
        "astId": 3177,
        "contract": "contracts/NftBond.sol:NftBond",
        "label": "controller",
        "offset": 0,
        "slot": "7",
        "type": "t_address"
      },
      {
        "astId": 3179,
        "contract": "contracts/NftBond.sol:NftBond",
        "label": "tokenIdCounter",
        "offset": 0,
        "slot": "8",
        "type": "t_uint256"
      }
    ],
    "types": {
      "t_address": {
        "encoding": "inplace",
        "label": "address",
        "numberOfBytes": "20"
      },
      "t_bool": {
        "encoding": "inplace",
        "label": "bool",
        "numberOfBytes": "1"
      },
      "t_mapping(t_address,t_bool)": {
        "encoding": "mapping",
        "key": "t_address",
        "label": "mapping(address => bool)",
        "numberOfBytes": "32",
        "value": "t_bool"
      },
      "t_mapping(t_address,t_mapping(t_address,t_bool))": {
        "encoding": "mapping",
        "key": "t_address",
        "label": "mapping(address => mapping(address => bool))",
        "numberOfBytes": "32",
        "value": "t_mapping(t_address,t_bool)"
      },
      "t_mapping(t_address,t_uint256)": {
        "encoding": "mapping",
        "key": "t_address",
        "label": "mapping(address => uint256)",
        "numberOfBytes": "32",
        "value": "t_uint256"
      },
      "t_mapping(t_uint256,t_mapping(t_address,t_uint256))": {
        "encoding": "mapping",
        "key": "t_uint256",
        "label": "mapping(uint256 => mapping(address => uint256))",
        "numberOfBytes": "32",
        "value": "t_mapping(t_address,t_uint256)"
      },
      "t_mapping(t_uint256,t_string_storage)": {
        "encoding": "mapping",
        "key": "t_uint256",
        "label": "mapping(uint256 => string)",
        "numberOfBytes": "32",
        "value": "t_string_storage"
      },
      "t_mapping(t_uint256,t_uint256)": {
        "encoding": "mapping",
        "key": "t_uint256",
        "label": "mapping(uint256 => uint256)",
        "numberOfBytes": "32",
        "value": "t_uint256"
      },
      "t_string_storage": {
        "encoding": "bytes",
        "label": "string",
        "numberOfBytes": "32"
      },
      "t_uint256": {
        "encoding": "inplace",
        "label": "uint256",
        "numberOfBytes": "32"
      }
    }
  }
}